:0400000062EF00F0BB
:10000800FACF20F0FBCF21F0E9CF22F0EACF23F09E
:10001800E1CF24F0E2CF25F0D9CF26F0DACF27F0D0
:10002800F3CF28F0F4CF29F0F6CF2AF0F7CF2BF052
:10003800F8CF2CF0F5CF2DF09DB09EA005D071EC37
:100048002FF0A5EC2FF000D0A0B2A1A203D097EC1E
:100058002EF017D09DBA9EAA05D0A2EC2FF0EBEC9B
:100068002CF00FD09DB89EA803D0CEEC2CF009D070
:10007800A0BCA1AC03D0AEEC2FF003D045EC14F03B
:1000880000D02DC0F5FF2CC0F8FF2BC0F7FF2AC009
:10009800F6FF29C0F4FF28C0F3FF27C0DAFF26C007
:1000A800D9FF25C0E2FF24C0E1FF23C0EAFF22C038
:1000B800E9FF21C0FBFF20C0FAFF11006EEF28F016
:1000C8000001F46F000E0001EF6F0001EB51000119
:1000D800D8B46EEF09F00001FC51D8B46EEF09F006
:1000E8000001FD510001A75DD8A0DFD01BEC22F074
:1000F800000E0001776F000E766F000E00017D6F15
:10010800000E7C6F00F0D1EC25F0000E0001F06FBE
:10011800ECEC29F0BCC0C0F0BDC0C1F0E4EC24F0A8
:10012800C0C076F0C1C077F05CEC2FF0AFC0C0F073
:10013800B0C0C1F0060E0001C26F010E0001C36F0E
:1001480030EC28F076C0ECF077C0EDF00001EE6BF3
:10015800ECC0AFF0EDC0B0F0EEC0B1F0040E00019D
:10016800B26F30EC27F00001F06F33EC2BF0B2C027
:10017800C0F0B3C0C1F0E4EC24F0C0C07CF0C1C052
:100188007DF000017C5100EC1DF00001EC6F0001D6
:10019800EC5100017C6F7D6B8BEC2FF0050F00019B
:1001A800B56F0D0ECAEC1EF0000E0001A76FB6EC7D
:1001B8002EF0540E0001C06F7C0E0001C16F000EBE
:1001C8000001C26F000E0001C36F30EC28F02B0E47
:1001D8000001C06F7E0E0001C16F000E0001C26FEA
:1001E800010E0001C36F30EC28F0690E0001C06FEA
:1001F8007D0E0001C16F000E0001C26F020E0001EA
:10020800C36F30EC28F05CEC2FF0AFC0C0F0B0C08A
:10021800C1F0030E0001C26F020E0001C36F30EC83
:1002280028F00B0E0001C56F020E0001C66F000119
:100238007C5117EC20F06BEC2FF00001A16F00014E
:10024800A1510001D8A402D0050E07D0DF0E00018D
:10025800A16506D00001A151CE0F0001A16F00D009
:100268000A0E0001C56F010E0001C66F0001A15101
:100278003DEC24F0000E0001B56F0001A151CAEC5D
:100288001EF0200E0101136F00F0600E0001B06F28
:100298007A0E0001B16FC4EC2DF0070E0001A66FB5
:1002A800080E0001A56F6EEF09F00001FA51D8B4ED
:1002B8000AD00001A72B0F0E0001A56F010E000147
:1002C800E96F6EEF09F0000E0001A76F6EEF09F0FD
:1002D800FFD712000001F4510001D8A405D0000195
:1002E800E9510001D8B41200B6EC2EF0440E00011A
:1002F800C06F7B0E0001C16F000E0001C26F000EBF
:100308000001C36F30EC28F0AA0E0001C06F7B0E0D
:100318000001C16F000E0001C26F010E0001C36F22
:1003280030EC28F0A60E0001C06F7C0E0001C16FF2
:10033800000E0001C26F030E0001C36F30EC28F0FD
:10034800060E0001A56F12000001F4510001D8B497
:1003580030D0B6EC2EF0330E0001C06F7B0E0001DA
:10036800C16F000E0001C26F000E0001C36F30ECB8
:1003780028F0220E0001C06F7B0E0001C16F000E35
:100388000001C26F010E0001C36F30EC28F0A60E09
:100398000001C06F7C0E0001C16F000E0001C26F2A
:1003A800030E0001C36F30EC28F00A0E0001A56FA0
:1003B80012000001E9510001D8B41200000E00013A
:1003C800A76FB6EC2EF0FF0E0001C06F7B0E000188
:1003D800C16F000E0001C26F000E0001C36F30EC48
:1003E80028F05C0E0001C06F7D0E0001C16F000E89
:1003F8000001C26F010E0001C36F30EC28F0CC0E73
:100408000001C06F7A0E0001C16F000E0001C26FBB
:10041800030E0001C36F30EC28F01BEC22F06BECEC
:100428002FF00001A16F0001A1510001D8A402D052
:10043800050E07D0DF0E0001A16506D00001A1510D
:10044800CE0F0001A16F00D00C0E0001C56F010E88
:100458000001C66F0001A1513DEC24F0000E00011F
:10046800B56F0001A151CAEC1EF0200E0101136FF7
:10047800000E0001776F000E766F000E00017D6F91
:10048800000E7C6F00F0D1EC25F0010E0001B06F7A
:10049800F40EAF6FB1EC2CF0000E0001F16FECEC34
:1004A80029F0BCC0C0F0BDC0C1F0E4EC24F0C0C06D
:1004B80076F0C1C077F076C0ECF077C0EDF00001BF
:1004C800EE6BECC0AFF0EDC0B0F0EEC0B1F0040ED2
:1004D8000001B26F30EC27F00001F16F00F000F07E
:1004E80033EC2BF0B2C0C0F0B3C0C1F0E4EC24F0A0
:1004F800C0C07CF0C1C07DF000017C5100EC1DF053
:100508000001EC6F0001EC5100017C6F7D6B8BECFE
:100518002FF0050F0001B56F0D0ECAEC1EF000F0AC
:10052800070E0001A56F12000001F4510001D8B4B4
:1005380009D0600E0001B06F7A0E0001B16FC4ECF3
:100548002DF000D00001E9510001D8B409D0600EA7
:100558000001B06F7A0E0001B16FC4EC2DF000D02D
:100568000001F4510001D8A405D00001E9510001AF
:10057800D8B41200B6EC2EF0430E0001C06F7E0E08
:100588000001C16F000E0001C26F000E0001C36FB1
:1005980030EC28F0370E0001C06F7E0E0001C16FED
:1005A800000E0001C26F010E0001C36F30EC28F08D
:1005B8000C0E0001C56F010E0001C66F0001A151AC
:1005C8003DEC24F0690E0001C06F7D0E0001C16F83
:1005D800000E0001C26F020E0001C36F30EC28F05C
:1005E8005CEC2FF0AFC0C0F0B0C0C1F0030E00014A
:1005F800C26F020E0001C36F30EC28F00B0E000131
:10060800C56F020E0001C66F00017C5117EC20F087
:10061800899C080E0001A56F12000001EA51000133
:10062800D8B440D1780E0001AF6F010E0001B06F51
:10063800F70E0001B16F7F0E0001B26F4EEC2AF089
:100648000001AF510001B011D8A405D0898C080E63
:100658000001A56F00D0780E0001AF6F010E0001F8
:10066800B06FAA0E0001B16F7F0E0001B26F000ECD
:100678000001B46F060EB36F91EC24F00001AF5186
:100688000001B011D8A48BD0070E0001F36F000150
:10069800F351010D780EF324D96E010EF420DA6EB1
:1006A800DF500001AA6F0001F32B0001F351010D87
:1006B800780EF324D96E010EF420DA6EDF500001B3
:1006C800AB6F0001F32B200E0001AB19D8B416D084
:1006D8000001F351010D780EF324D96E010EF420B8
:1006E800DA6EDF500001AC6F0001F32B200E000121
:1006F800AC19D8B403D00001F32B00D0000E0001D0
:10070800F26F2AD02DD00001F351010D780EF32499
:10071800D96E010EF420DA6E0001F251010DB80E07
:10072800F324E16E010EF420E26EDFCFE7FF000153
:10073800F251010DB80EF324D96E010EF420DA6ED1
:10074800DF50D8B403D00001F32B04D0400E0001D1
:10075800F26F00D00001F22B3F0E0001F265D3D7F3
:10076800898E899C770E0001C06F7B0E0001C16FD6
:10077800000E0001C26F020E0001C36F30EC28F0BA
:10078800EF0E0001C06F7A0E0001C16F000E00016C
:10079800C26F030E0001C36F30EC28F079D0780ED9
:1007A8000001AF6F010E0001B06FB10E0001B16F13
:1007B8007F0E0001B26F000E0001B46F060EB36F1A
:1007C80091EC24F00001AF510001B011D8A410D071
:1007D800899CDD0E0001C06F7B0E0001C16F000E09
:1007E8000001C26F030E0001C36F30EC28F050D037
:1007F800780E0001AF6F010E0001B06FA30E00016B
:10080800B16F7F0E0001B26F000E0001B46F060ECB
:10081800B36F91EC24F00001AF510001B011D8A4DE
:100828000FD0B90E0001C06F7A0E0001C16F000E23
:100838000001C26F030E0001C36F30EC28F028D00E
:10084800780E0001AF6F010E0001B06F9C0E000121
:10085800B16F7F0E0001B26F000E0001B46F060E7B
:10086800B36F91EC24F00001AF510001B011D8A48E
:100878000FD0D60E0001C06F7C0E0001C16F000EB4
:100888000001C26F030E0001C36F30EC28F000D0E6
:10089800FA0E0001EC6F580EE82EFED7EC2FFCD7AD
:1008A80000D000D00001F4510001D8A405D0000107
:1008B800E9510001D8B41200B6EC2EF0440E000144
:1008C800C06F7B0E0001C16F000E0001C26F000EE9
:1008D8000001C36F30EC28F0AA0E0001C06F7B0E38
:1008E8000001C16F000E0001C26F010E0001C36F4D
:1008F80030EC28F0A60E0001C06F7C0E0001C16F1D
:10090800000E0001C26F030E0001C36F30EC28F027
:10091800060E0001A56F12000001F4510001D8B4C1
:1009280030D0B6EC2EF0860E0001C06F7C0E0001B0
:10093800C16F000E0001C26F000E0001C36F30ECE2
:1009480028F0760E0001C06F7C0E0001C16F000E0A
:100958000001C26F010E0001C36F30EC28F0A60E33
:100968000001C06F7C0E0001C16F000E0001C26F54
:10097800030E0001C36F30EC28F0010E0001A56FD3
:1009880012000001E9510001D8B41200B6EC2EF0B3
:10099800899E650E0001C06F7C0E0001C16F000EBC
:1009A8000001C26F000E0001C36F30EC28F0C00ECA
:1009B8000001C06F7E0E0001C16F000E0001C26F02
:1009C800010E0001C36F30EC28F0AA0E0001C06FC1
:1009D800000E0001C16F090E0001C26F010E000177
:1009E800C36F30EC28F0480E0001C06F7E0E000186
:1009F800C16F000E0001C26F020E0001C36F30EC20
:100A080028F0B80E0001C06F010E0001C16F060E7C
:100A18000001C26F020E0001C36F30EC28F0C20E55
:100A28000001C06F010E0001C16F000E0001C26F0E
:100A3800030E0001C36F30EC28F00B0E0001A56F08
:100A480012000001F4510001D8A405D00001E951B9
:100A58000001D8B41200B6EC2EF0330E0001C06FBE
:100A68007B0E0001C16F000E0001C26F000E000175
:100A7800C36F30EC28F0220E0001C06F7B0E00011E
:100A8800C16F000E0001C26F010E0001C36F30EC90
:100A980028F0A60E0001C06F7C0E0001C16F000E89
:100AA8000001C26F030E0001C36F30EC28F00A0E7C
:100AB8000001A56F12000001F4510001D8B443D021
:100AC800B6EC2EF0430E0001C06F7C0E0001C16F22
:100AD800000E0001C26F000E0001C36F30EC28F059
:100AE8000001FA51D8B40FD0F60E0001C06F7C0E89
:100AF8000001C16F000E0001C26F020E0001C36F3A
:100B080030EC28F00ED0050E0001C06F7D0E0001FC
:100B1800C16F000E0001C26F020E0001C36F30ECFE
:100B280028F0960E0001C06F7C0E0001C16F000E08
:100B38000001C26F030E0001C36F30EC28F00C0EE9
:100B48000001A56F12000001E9510001D8B412009C
:100B5800B6EC2EF0860E0001C06F7C0E0001C16F4E
:100B6800000E0001C26F000E0001C36F30EC28F0C8
:100B7800800E0001C06F7F0E0001C16F000E0001E2
:100B8800C26F010E0001C36F30EC28F0790E00012E
:100B9800C06F7F0E0001C16F000E0001C26F020E10
:100BA8000001C36F30EC28F0FA0E0001C06F7F0E11
:100BB8000001C16F0A0E0001C26F020E0001C36F6F
:100BC80030EC28F0D1EC25F0020E0001A56F1200E0
:100BD8000001F4510001D8B4BDD0B6EC2EF0990E46
:100BE8000001C06F7B0E0001C16F000E0001C26FD3
:100BF800000E0001C36F30EC28F0880E0001C06FB2
:100C08007B0E0001C16F000E0001C26F010E0001D2
:100C1800C36F30EC28F0870E0001C06F7F0E000113
:100C2800C16F000E0001C26F020E0001C36F30ECED
:100C380028F0C20E0001C06F7F0E0001C16F0C0EBC
:100C48000001C26F020E0001C36F30EC28F05BD0C8
:100C580000D0C20E0001C06F7D0E0001C16F070EEB
:100C68000001C26F020E0001C36F30EC28F060D0A3
:100C7800E00E0001C06F7F0E0001C16F070E00017A
:100C8800C26F020E0001C36F30EC28F051D0EC0E99
:100C98000001C06F7F0E0001C16F070E0001C26F17
:100CA800020E0001C36F30EC28F042D0E40E0001C0
:100CB800C06F7F0E0001C16F070E0001C26F020EE8
:100CC8000001C36F30EC28F033D0E80E0001C06F8C
:100CD8007F0E0001C16F070E0001C26F020E0001F6
:100CE800C36F30EC28F024D0EF0E0001C06F7F0EE8
:100CF8000001C16F070E0001C26F020E0001C36F31
:100D080030EC28F015D00001FE51000AD8B4A1D764
:100D1800010AD8B4ADD7030AD8B4B9D7010AD8B4F0
:100D2800C5D7070AD8B4D1D7010AD8B4DDD791D727
:100D3800960E0001C06F7C0E0001C16F000E00010D
:100D4800C26F030E0001C36F30EC28F00D0E0001D6
:100D5800A56F12000001E9510001D8B4120000018A
:100D6800FA51D8B412D0000E0001FA6F050E000136
:100D7800C06F7D0E0001C16F000E0001C26F020E30
:100D88000001C36F30EC28F01200010E0001FA6F69
:100D9800F60E0001C06F7C0E0001C16F000E00014D
:100DA800C26F020E0001C36F30EC28F01200000180
:100DB800F4510001D8A405D00001E9510001D8B4CC
:100DC8001200B6EC2EF0860E0001C06F7C0E0001FA
:100DD800C16F000E0001C26F000E0001C36F30EC3E
:100DE80028F0760E0001C06F7C0E0001C16F000E66
:100DF8000001C26F010E0001C36F30EC28F0A60E8F
:100E08000001C06F7C0E0001C16F000E0001C26FAF
:100E1800030E0001C36F30EC28F0010E0001A56F2E
:100E280012000001F4510001D8B4B3D0B6EC2EF092
:100E3800100E0001C06F7C0E0001C16F000E000192
:100E4800C26F000E0001C36F30EC28F04F0E000196
:100E5800C06F7E0E0001C16F000E0001C26F020E4E
:100E68000001C36F30EC28F0960E0001C06F7C0EB5
:100E78000001C16F000E0001C26F030E0001C36FB5
:100E880030EC28F0030E0001A56F6AD000D0C70E21
:100E98000001C06F7F0E0001C16F0A0E0001C26F12
:100EA800020E0001C36F30EC28F073D0CB0E0001A6
:100EB800C06F7F0E0001C16F0A0E0001C26F020EE3
:100EC8000001C36F30EC28F064D0CF0E0001C06F72
:100ED8007F0E0001C16F0A0E0001C26F020E0001F1
:100EE800C36F30EC28F055D0D30E0001C06F7F0ED1
:100EF8000001C16F0A0E0001C26F020E0001C36F2C
:100F080030EC28F046D0D70E0001C06F7F0E0001EC
:100F1800C16F0A0E0001C26F020E0001C36F30ECF0
:100F280028F037D0DB0E0001C06F7F0E0001C16FC3
:100F38000A0E0001C26F020E0001C36F30EC28F0E8
:100F480028D0F30E0001C06F7F0E0001C16F0A0E9A
:100F58000001C26F020E0001C36F30EC28F019D0F7
:100F68000001F851000AD8B492D7010AD8B49ED724
:100F7800030AD8B4AAD7010AD8B4B6D7070AD8B48E
:100F8800C2D7010AD8B4CED7030AD8B4DAD77FD7E4
:100F980000D00001E9510001D8B41200050E00018B
:100FA800FE6103D00001FE2B70D0000E0001FE6F21
:100FB8006CD000D0090E0001FD6FDB0E0001C06F80
:100FC8007F0E0001C16F070E0001C26F020E000103
:100FD800C36F30EC28F01200120E0001FD6FDF0E17
:100FE8000001C06F7F0E0001C16F070E0001C26FC4
:100FF800020E0001C36F30EC28F012001B0E000136
:10100800FD6FEB0E0001C06F7F0E0001C16F070E70
:101018000001C26F020E0001C36F30EC28F012000D
:10102800360E0001FD6FE30E0001C06F7F0E000158
:10103800C16F070E0001C26F020E0001C36F30ECD2
:1010480028F012006C0E0001FD6FE70E0001C06F62
:101058007F0E0001C16F070E0001C26F020E000172
:10106800C36F30EC28F012000001FD69EF0E00019B
:10107800C06F7F0E0001C16F070E0001C26F020E24
:101088000001C36F30EC28F012000001FE51000A85
:10109800D8B490D7010AD8B49FD7030AD8B4AED72A
:1010A800010AD8B4BDD7070AD8B4CCD7010AD8B436
:1010B800DBD780D712000001F4510001D8B426D044
:1010C8000001F85129EC12F0B6EC2EF0EE0E0001FA
:1010D800C06F7B0E0001C16F000E0001C26F000ED1
:1010E8000001C36F30EC28F0B60E0001C06F7C0E13
:1010F8000001C16F000E0001C26F030E0001C36F33
:1011080030EC28F00F0E0001A56F00D00001E95166
:101118000001D8B41200060E0001F8610DD00001DC
:10112800A405D8A406D0030E0001F86502D0060E67
:1011380004D00001F82B6ED0000E0001F86F6AD0C1
:1011480000D0C70E0001C06F7F0E0001C16F0A0EEC
:101158000001C26F020E0001C36F30EC28F01200CC
:10116800CB0E0001C06F7F0E0001C16F0A0E000197
:10117800C26F020E0001C36F30EC28F01200CF0ED0
:101188000001C06F7F0E0001C16F0A0E0001C26F1F
:10119800020E0001C36F30EC28F01200D30E0001DC
:1011A800C06F7F0E0001C16F0A0E0001C26F020EF0
:1011B8000001C36F30EC28F01200D70E0001C06F99
:1011C8007F0E0001C16F0A0E0001C26F020E0001FE
:1011D800C36F30EC28F01200DB0E0001C06F7F0EE9
:1011E8000001C16F0A0E0001C26F020E0001C36F39
:1011F80030EC28F01200F30E0001C06F7F0E0001E2
:10120800C16F0A0E0001C26F020E0001C36F30ECFD
:1012180028F012000001F851000AD8B492D7010A48
:10122800D8B49ED7030AD8B4AAD7010AD8B4B6D777
:10123800070AD8B4C2D7010AD8B4CED7030AD8B49B
:10124800DAD77FD712000001E9510001D8B40DD0D8
:101258009DEC1BF00009D8B404D0010E0001F46F16
:1012680004D0090E0001A66F00D00001F45100015E
:10127800D8B41200B6EC2EF0440E0001C06F7B0EFD
:101288000001C16F000E0001C26F000E0001C36FA4
:1012980030EC28F0AA0E0001C06F7B0E0001C16F70
:1012A800000E0001C26F010E0001C36F30EC28F080
:1012B800A60E0001C06F7C0E0001C16F000E000178
:1012C800C26F030E0001C36F30EC28F0060E000158
:1012D800A56F12000001A551000AD8B46EEF01F005
:1012E800010AD8B45FEF05F0030AD8B460D5010A43
:1012F800D8B4E1D6050AD8B4A8EF01F0010AD8B4E9
:1013080098EF02F00F0AD8B411EF03F0020AD8B42C
:1013180090EF04F0010AD8B425EF05F0070AD8B415
:1013280057D4010AD8B47DD5020AD8B48CD76CEF4B
:1013380001F012000001CA6F000E0001C96F12D33C
:10134800FFD734D3F20E0001B06F7E0E0001B16FEB
:10135800C4EC2DF094D10001C6510001D8B403D0DB
:101368000A0E00018C6F0001CA510001D8B41ED3C7
:10137800780E0001AF6F010E0001B06FB80E0001CA
:10138800B16F7F0E0001B26F000E0001B46F040E42
:10139800B36F91EC24F00001AF510001B011D8A453
:1013A80033D0000E0001A46FB6EC2EF0660E0001DB
:1013B800C06F7B0E0001C16F000E0001C26F000EEE
:1013C8000001C36F30EC28F0BB0E0001C06F7B0E2C
:1013D8000001C16F000E0001C26F020E0001C36F51
:1013E80030EC28F0110E0001C06F7B0E0001C16FB8
:1013F800000E0001C26F030E0001C36F30EC28F02D
:101408004BD000018C6FD2D2780E0001AF6F010E65
:101418000001B06FBD0E0001B16F7F0E0001B26F09
:10142800000E0001B46F040EB36F91EC24F00001BC
:10143800AF510001B011D8A431D0010E0001A46F42
:10144800B6EC2EF0660E0001C06F7B0E0001C16F76
:10145800000E0001C26F000E0001C36F30EC28F0CF
:10146800BB0E0001C06F7B0E0001C16F000E0001B2
:10147800C26F020E0001C36F30EC28F0110E00019C
:10148800C06F7B0E0001C16F000E0001C26F030E1A
:101498000001C36F30EC28F0020EB3D7F20E000142
:1014A800B06F7E0E0001B16FC4EC2DF0000E00018C
:1014B800B06F190EAF6FB1EC2CF0E9D177D2000103
:1014C800C5510001D8B41ED0DE0E0001C06F7A0EDF
:1014D8000001C16F000E0001C26F030E0001C36F4F
:1014E80030EC28F0010E0001B06FF40EAF6FB1ECD4
:1014F8002CF0DE0E0001B06F7D0E0001B16FC4EC60
:101508002DF07AD00001C6510001D8B44FD2000E98
:101518000001C06F7B0E0001C16F000E0001C26F99
:10152800030E0001C36F30EC28F0010E0001B06F0C
:10153800F40EAF6FB1EC2CF0320E0001B06F7D0EDF
:101548000001B16FC4EC2DF08CD130D20001CA512A
:101558000001D8B42BD2780E0001AF6F010E000144
:10156800B06FF70E0001B16F7F0E0001B26F4EEC45
:101578002AF00001AF510001B011D8A402D0040E26
:1015880040D7780E0001AF6F010E0001B06F4E0E0C
:101598000001B16F7D0E0001B26F4EEC2AF0000120
:1015A800AF510001B011D8A41FD0B6EC2EF09F0E99
:1015B8000001C06F7E0E0001C16F000E0001C26FF6
:1015C800000E0001C36F30EC28F0190E0001C06F47
:1015D8007F0E0001C16F000E0001C26F010E0001F5
:1015E800C36F30EC28F09BD0DE0E0001B06F7D0E8B
:1015F8000001B16FC4EC2DF0030E03D7D7D1000161
:10160800CA510001D8B4D2D1780E0001AF6F010ED3
:101618000001B06F220E0001B16F7F0E0001B26FA2
:101628004EEC2AF00001AF510001B011D8A41FD030
:10163800B6EC2EF0CA0E0001C06F7E0E0001C16F1D
:10164800000E0001C26F000E0001C36F30EC28F0DD
:10165800890E0001C06F7E0E0001C16F000E0001EF
:10166800C26F010E0001C36F30EC28F0BED0E80E47
:101678000001B06F7E0E0001B16FC4EC2DF0010EB9
:10168800C0D694D10001CA510001D8B48FD1780EC8
:101698000001AF6F010E0001B06FF70E0001B16FCE
:1016A8007F0E0001B26F4EEC2AF00001AF5100012D
:1016B800B011D8A402D0060EA4D6780E0001AF6FE0
:1016C800010E0001B06F4E0E0001B16F7D0E0001DA
:1016D800B26F4EEC2AF00001AF510001B011D8A44E
:1016E80020D0B6EC2EF09F0E0001C06F7E0E0001D8
:1016F800C16F000E0001C26F000E0001C36F30EC15
:1017080028F0190E0001C06F7F0E0001C16F000E96
:101718000001C26F010E0001C36F30EC28F0090E02
:1017280070D6780E0001AF6F010E0001B06F400E49
:101738000001B16F7D0E0001B26F4EEC2AF000017E
:10174800AF510001B011D8A409D0320E0001B06F1A
:101758007D0E0001B16FC4EC2DF083D0780E00012E
:10176800AF6F010E0001B06F7E0E0001B16F7E0EEB
:101778000001B26F4EEC2AF084D018D10001CA5192
:101788000001D8B413D1780E0001AF6F010E00012B
:10179800B06F220E0001B16F7F0E0001B26F4EECE8
:1017A8002AF00001AF510001B011D8A420D0B6EC46
:1017B8002EF0730E0001C06F7E0E0001C16F000E87
:1017C8000001C26F000E0001C36F30EC28F0890ED3
:1017D8000001C06F7E0E0001C16F000E0001C26FD4
:1017E800010E0001C36F30EC28F0070E0AD6780E00
:1017F8000001AF6F010E0001B06F950E0001B16FCF
:101808007F0E0001B26F4EEC2AF00001AF510001CB
:10181800B011D8A428D0B6EC2EF0DE0E0001C06FAF
:101828007E0E0001C16F010E0001C26F000E0001A3
:10183800C36F30EC28F08E0E0001C06F7F0E0001E0
:10184800C16F020E0001C26F010E0001C36F30ECC0
:1018580028F0320E0001B06F7D0E0001B16FC4ECAC
:101868002DF0050ECED5780E0001AF6F010E0001E8
:10187800B06F7E0E0001B16F7E0E0001B26F4EECAC
:101888002AF00001AF510001B011D8A48FD0000E8A
:10189800B8D58CD0940E0001B06F7E0E0001B16FE8
:1018A800C4EC2DF021D00001CA510001D8B47ED07B
:1018B800780E0001AF6F010E0001B06F400E0001FD
:1018C800B16F7D0E0001B26F4EEC2AF00001AF51EE
:1018D8000001B011D8A40AD0940E0001B06F7E0E9A
:1018E8000001B16FC4EC2DF0080E8BD501017851C1
:1018F800D00F0001C86FC8C0F8F0010E0001C96F11
:1019080055D00001C6510001D8B450D00A0E79D57F
:101918004DD0000E0001AF6F000E37EC2CF000D058
:1019280081A281B002D0FCD700D0FA0E0001C76FA7
:10193800580EE82EFED7C72FFCD700D0FA0E0001AC
:10194800C76F580EE82EFED7C72FFCD700D0FA0E67
:101958000001C76F580EE82EFED7C72FFCD700D05E
:10196800FF0024D000018C51000AD8B4EBD4010A3E
:10197800D8B4F1D4030AD8B4A2D5010AD8B4E6D5AC
:10198800070AD8B43CD6010AD8B47CD6030AD8B41E
:10199800F5D6010AD8B47ED70F0AD8B484D7010A7D
:1019A800D8B4AFD7030AD8B4B4D7CAD40001C95140
:1019B8001200120004013205D8A412D004013051DB
:1019C8001F0B0009D8A40CD0558E030E0401311941
:1019D800D8A402D0010E01D0000E0001856F00D0FE
:1019E80004013251D8A41200040130511F0B020A1D
:1019F800D8A41200040134510F0B0009D8B4120006
:101A0800040134510F0B166E030E16601200200EDF
:101A180000018919D8A41200558E040134BF1BD0C7
:101A2800040134510F0B166E1650020D600EF3248C
:101A3800D96E000EF420DA6EDECF1AF0DDCF1BF07F
:101A4800040134510F0B166E1650010D690EF32464
:101A5800D96E000E1AD0040134510F0B166E1650B1
:101A6800020D360EF324D96E000EF420DA6EDECFA6
:101A78001AF0DDCF1BF0040134510F0B166E16500F
:101A8800010D660EF324D96E000EF420DA6EDF50D5
:101A9800196E00D019B002D01A9402D01A8400D05E
:101AA800040134BF0BD0040134510F0B166E1650CD
:101AB800020D600EF324D96E000E0AD004013451D1
:101AC8000F0B166E1650020D360EF324D96E000E4B
:101AD800F420DA6E1AC0DEFF1BC0DDFF00D0030E53
:101AE80004013119D8A430D01AC0D9FF1BC0DAFFBD
:101AF800DFAE1DD0040134BF0BD0040134510F0BED
:101B0800166E1650010D690EF324D96E000E0AD018
:101B1800040134510F0B166E1650010D660EF32496
:101B2800D96E000EF420DA6E0001DF8200D01AC0F0
:101B3800D9FF1BC0DAFF000EDB841AC0D9FF1BC017
:101B4800DAFF000EDB8E1200040E1A1A1AC0D9FF33
:101B58001BC0DAFFDFAE1BD01AC0D9FF1BC0DAFFEB
:101B68007F0EDF161AC0D9FF1BC0DAFF000EDB8C10
:101B7800000E0F6E050E0E6E1AC010F01BC011F08D
:101B8800000E136E020E126E7EEC2AF007D01AC0F9
:101B9800D9FF1BC0DAFF000EDB8C00D0040E1A1A26
:101BA80019B206D01AC0D9FF1BC0DAFFDFAE32D097
:101BB800040134BF0BD0040134510F0B166E1650BC
:101BC800010D690EF324D96E000E0AD004013451B8
:101BD8000F0B166E1650010D660EF324D96E000E0B
:101BE800F420DA6E0001DF9200D01AC0D9FF1BC0C2
:101BF800DAFF3B0EDF16000E0F6E050E0E6E1AC0D2
:101C080010F01BC011F0000E136E020E126E7EEC67
:101C18002AF007D01AC0D9FF1BC0DAFF3B0EDF1627
:101C280000D0040134510F0B166E1650010D6A0EC8
:101C3800F324176E0F0EF420186E17C0D9FF18C0C2
:101C4800DAFFFE0EDF1612001200000E0201A06F6E
:101C5800000E0201A16F000E0201A26F000E020128
:101C6800A46F030E0201A36F80A009D093EC2FF09C
:101C78000009D8A408D0040E0001FB6F04D0000EA0
:101C880077EC2FF000D000018EA109D097EC2FF04F
:101C9800EDEC14F000018E5123EC2EF000D0EDECA9
:101CA80026F00201A36F0201A305D8A407D0000EF5
:101CB8000001A66F010E0201A16F0CD0020E0201F5
:101CC800A319D8A407D0000E0001A66F010E0201C7
:101CD800A26F00D0F2EC27F00009D8B402D0010EB0
:101CE80001D0000E0201A46F00D0020E0001A51958
:101CF800D8A44CD00001795105E1640E0001785D4B
:101D0800D8A044D000F0EA0E0001C06F7A0E00019E
:101D1800C16F060E0001C26F010E0001C36F30ECE7
:101D280028F0ECEC29F0BCC0C0F0BDC0C1F0060E34
:101D38000001C26F010E0001C36F30EC28F033ECD4
:101D48002BF0B2C0C0F0B3C0C1F0E4EC24F0C0C0C6
:101D58007CF0C1C07DF000017C5100EC1DF0000159
:101D6800F56F0001F55100017C6F7D6B060E0001D7
:101D7800C56F020E0001C66F00017C5117EC20F000
:101D8800000E0001796F000E786F00D00001A65197
:101D9800D8B48BD0090E0001A66587D00001FA518E
:101DA800D8B483D0010E0201A06F000E0001A66F07
:101DB8007CD0FFD788D0B6EC2EF0D40E0001C06FCF
:101DC8007E0E0001C16F010E0001C26F000E0001FE
:101DD800C36F30EC28F0340E0001C06F7F0E000195
:101DE800C16F020E0001C26F010E0001C36F30EC1B
:101DF80028F0CC0E0001C06F7B0E0001C16F000EF1
:101E08000001C26F030E0001C36F30EC28F0000E12
:101E180000018C6F020E3BD0A1C2C5F0A2C2C6F071
:101E28000201A4519EEC09F00009D8B44CD0B6ECDC
:101E38002EF0210E0001C06F7C0E0001C16F000E54
:101E48000001C26F000E0001C36F30EC28F0320EA3
:101E58000001C06F7C0E0001C16F000E0001C26F4F
:101E6800020E0001C36F30EC28F0550E0001C06F60
:101E78007B0E0001C16F000E0001C26F030E00014E
:101E8800C36F30EC28F0000E0001A56F030E0001AF
:101E9800FB6F19D0A2C2E9F0A4C2EAF0A0C2EBF02D
:101EA8000201A15164EC00F00ED00001FB51010ABF
:101EB800D8B481D7030AD8B4AFD7010AD8B4EAD7BF
:101EC800070AD8A476D70001FB51120012000001BE
:101ED800BB35BC350001C46F0001BF35C0350001FA
:101EE800C36F0001C4510001D8B411D00001C3511F
:101EF8000001C45DD8B014D00001C451000800012D
:101F0800C3250001C16F200E0001C16509D0BDC005
:101F1800B9F0BEC0BAF0BFC0BBF0C0C0BCF0120080
:101F28000001C3510001D8B411D00001C45100010F
:101F3800C35DD8B014D00001C35100080001C42506
:101F48000001C16F200E0001C16509D0B9C0B9F008
:101F5800BAC0BAF0BBC0BBF0BCC0BCF01200060EE1
:101F68000001C26F0001BCAF03D00001C28F00D0D6
:101F78000001C0AF02D00001C28D0001BB8FFF0E6F
:101F88000001B917FF0EBA17FF0EBB17000EBC17DA
:101F98000001BF8FFF0E0001BD17FF0EBE17FF0E19
:101FA800BF17000EC0170001C3510001C45DD8B0AF
:101FB8002AD00001D890BD37BE37BF37C0370001DF
:101FC800C3070001C4510001C319D8B414D00001DB
:101FD800C207C2C0C1F0070E0001C117D8B40BD0A8
:101FE800E8D709D00001D890BC33BB33BA33B93332
:101FF8000001C42B00D00001C3510001C419D8B49A
:1020080032D0F0D730D00001C4510001C35DD8B040
:102018002AD00001D890B937BA37BB37BC3700018E
:10202800C4070001C4510001C319D8B414D0000179
:10203800C207C2C0C1F0070E0001C117D8B40BD047
:10204800E8D709D00001D890C033BF33BE33BD33C1
:102058000001C32B00D00001C3510001C419D8B43A
:1020680002D0F0D700D00001C2AF11D0FF0E00019E
:10207800B91BFF0EBA1BFF0EBB1BFF0EBC1B010ECC
:102088000001B927000EBA23BB23BC2300D00001EE
:10209800C2AD11D0FF0E0001BD1BFF0EBE1BFF0E0F
:1020A800BF1BFF0EC01B010E0001BD27000EBE2383
:1020B800BF23C02300D0000E0001C26F0001B95138
:1020C8000001BD270001BA510001BE230001BB5128
:1020D8000001BF230001BC510001C0230001C0AFB3
:1020E80014D0FF0E0001BD1BFF0EBE1BFF0EBF1B51
:1020F800FF0EC01B010E0001BD27000EBE23BF232B
:10210800C023010E0001C26F00D0BDC0AFF0BEC039
:10211800B0F0BFC0B1F0C0C0B2F0C4C0B3F0C2C02C
:10212800B4F069EC11F0AFC0B9F0B0C0BAF0B1C00A
:10213800BBF0B2C0BCF012001200A39400017251AF
:1021480000017311D8B413D072C0D9FF73C0DAFF7D
:102158000001DFAE04D00001B66BB62B02D000013F
:10216800B66B0001B6510001B76FB86B06D0000E10
:102178000001B86F000EB76F00D00001B751000121
:10218800B811D8B402D0A3841200030E4A18D8A4F8
:1021980002D0000E4A6E4A50D8A402D0A38412007E
:1021A800020E4A18D8A416D0010E0001AF6F000E17
:1021B8000001B06F000E0001B16F000E0001B26F98
:1021C800020E39EC1FF0AFC072F0B0C073F0030E0E
:1021D8004A6E79D04A04D8A476D0400E00019165A1
:1021E80004D0400E0001BA6F03D091C0BAF000D0FD
:1021F8000001BA510008000191250001916F000EFD
:1022080000016C6F050E00016D6FBAC0B9F00001D6
:102218008F51D8B415D02FD013D06FC0D9FF70C04C
:10222800DAFF6CC0E1FF6DC0E2FFDFCFE7FF00011E
:102238006C4B6D2B00016F4B702B0001B90700D060
:102248000001B9510001D8B41DD0E7D71BD013D075
:102258006FC0D9FF70C0DAFF6CC0E1FF6DC0E2FF4C
:10226800DFCFE7FF00016C4B6D2B00016F4B702B2C
:102278000001B90700D00001B9510001D8B402D05B
:10228800E7D700D000019151D8A40AD0400E000130
:10229800BA19D8A402D0020E01D0030E4A6E00D09B
:1022A800010E0001AF6F000E0001B06F050E0001B6
:1022B800B16FBAC0B2F0020E39EC1FF0AFC072F0C5
:1022C800B0C073F000D0A38412000001B351000124
:1022D800D8B40AD00001AF510001B0110001B1110A
:1022E8000001B211D8A414D0000E0001AF6F000E87
:1022F800B06F000EB16F000EB26F120009D000016E
:10230800B32B0001D890B233B133B033AF3300D020
:10231800000E0001AF150001B56F000E0001B015E9
:102328000001B66F000E0001B1150001B76FFE0E77
:102338000001B2150001B86F0001B5510001B611D6
:102348000001B7110001B811D8B411D0D8D70FD0F7
:102358000001B32B010E0001AF27000EB023B123FB
:10236800B2230001D890B233B133B033AF33000E8B
:102378000001AF150001B56F000E0001B015000196
:10238800B66F000E0001B1150001B76FFF0E000116
:10239800B2150001B86F0001B5510001B611000176
:1023A800B7110001B811D8B40BD0D2D709D00001A9
:1023B800B3070001D890AF37B037B137B23700D084
:1023C8000001B1BF05D0020E0001B361F0D700D003
:1023D8000001B3B109D0FF0E0001AF17FF0EB0170F
:1023E8007F0EB117FF0EB2170001D890B333B3C0F8
:1023F800B5F00001B66BB76BB86BB5C0B8F00001AB
:10240800B76BB66BB56B0001B5510001AF13000196
:10241800B6510001B0130001B7510001B11300011A
:10242800B8510001B2130001B4510001D8B403D06F
:102438000001B28F00D0AFC0AFF0B0C0B0F0B1C0F3
:10244800B1F0B2C0B2F0120012000001B36F080E72
:102458000001B319D8B475D0C60E0001B06F7C0E58
:102468000001B16FC4EC2DF0FA0E0001B26F580EE6
:10247800E82EFED7B22FFCD700D0FA0E0001B26FBB
:10248800580EE82EFED7B22FFCD700D0FA0E000166
:10249800B26F580EE82EFED7B22FFCD700D051D01D
:1024A800760E0001B06F7D0E0001B16FC4EC2DF007
:1024B80066D0830E0001B06F7D0E0001B16FC4ECD1
:1024C8002DF05DD0900E0001B06F7D0E0001B16F50
:1024D800C4EC2DF054D09D0E0001B06F7D0E0001AC
:1024E800B16FC4EC2DF04BD0AA0E0001B06F7D0E79
:1024F8000001B16FC4EC2DF042D0B70E0001B06FEF
:102508007D0E0001B16FC4EC2DF039D0C40E00016E
:10251800B06F7D0E0001B16FC4EC2DF030D0D10E3C
:102528000001B06F7D0E0001B16FC4EC2DF027D013
:10253800140E0001B06F7D0E0001B16FC4EC2DF0D8
:102548001ED00001B351000AD8B4AAD7010AD8B4E2
:10255800B0D7030AD8B4B6D7010AD8B4BCD7070A8B
:10256800D8B4C2D7010AD8B4C8D7030AD8B4CED7CA
:10257800010AD8B4D4D70F0AD8B4DAD700D0FA0EE3
:102588000001B26F580EE82EFED7B22FFCD700D04C
:10259800FA0E0001B26F580EE82EFED7B22FFCD704
:1025A80000D0FA0E0001B26F580EE82EFED7B22FF7
:1025B800FCD700D02B0E0001B06F7F0E0001B16F69
:1025C800C4EC2DF012000001C735C8350001CD6FED
:1025D8000001CD51D8A40AD0000E0001C56F000E2D
:1025E800C66F000EC76F000EC86F12000001CB3512
:1025F800CC350001D36F0001D351D8A40AD0000E06
:102608000001C56F000EC66F000EC76F000EC86FC1
:1026180012000001D3517B0F0001CD27C8C0D3F0B1
:102628000001CC510001D31B800E0001D31700011B
:10263800C78F0001CB8FFF0E0001C917FF0ECA1705
:10264800FF0ECB17000ECC17000E0001CE6F000E48
:10265800CF6F000ED06F000ED16F070E0001D26F42
:1026680000D00001C5A111D00001C9510001CE2739
:102678000001CA510001CF230001CB510001D02332
:102688000001CC510001D12300D00001D890C833FB
:10269800C733C633C5330001D890C937CA37CB37DB
:1026A800CC370001D22FDDD700D0110E0001D26F38
:1026B80000D00001C5A111D00001C9510001CE27E9
:1026C8000001CA510001CF230001CB510001D023E2
:1026D8000001CC510001D12300D00001D890C833AB
:1026E800C733C633C5330001D890D133D033CF3385
:1026F800CE330001D22FDDD700D0CEC0AFF0CFC08F
:10270800B0F0D0C0B1F0D1C0B2F0CDC0B3F0D3C0FA
:10271800B4F069EC11F0AFC0C5F0B0C0C6F0B1C0FC
:10272800C7F0B2C0C8F012001200A394000E676E82
:10273800000E656E000E6A6E6B0E0001AF6F0F0E15
:102748000001B06F000E0001B26F000EB16F000EF5
:102758000001B46F020EB36F5BEC2DF0160E626EC3
:102768009F0E666E7B0E646E000E0001B76F10D070
:1027780013D00001B751040D000EF324D96E040ED6
:10278800F420DA6EDE6ADE6ADE6ADD6A0001B72BE3
:102798000B0E0001B765EDD7608C000E636E609874
:1027A800609C0AD06596000E556E000E316E000EC4
:1027B800336E000E326E00D065B6F4D7010E0001FC
:1027C8008A6F010E00018B6F000E0001876F000EEB
:1027D8000001886F000E0001866F000E0001B76FC0
:1027E800020E0001B76501D033D00001B751020DC8
:1027F800360EF324D96E000EF420DA6E000EDE6E6B
:10280800000EDD6E0001B751020D600EF324D96E83
:10281800000EF420DA6E000EDE6E000EDD6E000192
:10282800B751010D660EF324D96E000EF420DA6E4E
:10283800000EDF6E0001B751010D690EF324D96E49
:10284800000EF420DA6E000EDF6E0001B72BC8D739
:10285800080E366E040E376E160E6A6E040E0401EC
:10286800036F300E026F080E0401016F040E04019D
:10287800006F0401008F000E586E000E0001896F72
:10288800120000018905D8B460BA08D0000E656E40
:1028980064806488020E0001896F00D065B464A466
:1028A80004D06594DDEC2DF000D060A202D0A49491
:1028B800120065B064A008D08FEC15F0A384040E54
:1028C8000001896F659000D065B864A804D04EEC0B
:1028D8002EF0659800D065AC1DD064AC0FD0000E0A
:1028E8000F6E730E0E6E000E106E000E116E000E3F
:1028F800136E010E126E7EEC2AF000D0659C4950D2
:10290800D8B402D0490600D04950D8A403D053EC1B
:1029180021F000D065BA64AA03D0F5EC2BF000D002
:1029280065B264A210D07F0E0F6E0E68000E106E96
:10293800000E116E000E136E010E126E7EEC2AF060
:10294800000E676E00D0040E0001896102D0A494C5
:10295800120064A63CD0000E1F6E030E1F6401D047
:1029680036D065A634D061CF59F05930E832E83214
:102978000F0B4C6E659659B407D04C50010D690E7B
:10298800F324D96E000E06D04C50010D660EF324C8
:10299800D96E000EF420DA6E0001DF7000D04C50C2
:1029A800D8A403D0EBEC20F010D0000E0F6E720EFE
:1029B8000E6E590E106E000E116E000E136E000E84
:1029C800126E7EEC2AF001D002D01F2AC6D7A4943A
:1029D80012000001824B832B82C0AFF083C0B0F09D
:1029E800000E0001B26F0A0EB16F4FEC29F0000122
:1029F800AF510001B011D8A4120000018E8382C02B
:102A0800AFF083C0B0F0000E0001B26F640EB16F7A
:102A18004FEC29F00001AF510001B011D8A4120009
:102A280000018E8582C0AFF083C0B0F0030E0001B4
:102A3800B26FE80EB16F4FEC29F00001AF51000101
:102A4800B011D8A4120000018E8782C0AFF083C0F5
:102A5800B0F00001B16BB26B600E0001B36FEA0E0B
:102A6800B46F000EB56F000EB66F26EC1AF00001B9
:102A7800AF510001B0110001B1110001B211D8A489
:102A880012000001804B812B00018E8980C0AFF0BD
:102A980081C0B0F0000E0001B26F3C0EB16F4FEC78
:102AA80029F00001AF510001B011D8A412000001B3
:102AB8008E8B80C0AFF081C0B0F0020E0001B26F03
:102AC800D00EB16F4FEC29F00001AF510001B011E9
:102AD800D8A4120000018E8D80C0AFF081C0B0F084
:102AE800050E0001B26FA00EB16F4FEC29F0000186
:102AF800AF510001B011D8A4120000018E8F000E52
:102B08000001836F000E826F000E0001816F000EBE
:102B1800806F12001200A394000E676E000E656E9F
:102B2800000E6A6E6B0E016E0F0E026E000E046EC2
:102B3800000E036E000E066E020E056EF6EC2DF00A
:102B4800160E626E9F0E666E7B0E646E000E096E28
:102B58000ED010D00950040D000EF324D96E040EC7
:102B6800F420DA6EDE6ADE6ADE6ADD6A092A0B0E96
:102B78000964F0D7608C000E636E6098609C0AD080
:102B88006596000E556E000E316E000E336E000E07
:102B9800326E00D065B6F4D7010E00018A6F010EBF
:102BA80000018B6F000E0001876F000E0001886F17
:102BB800000E0001866F000E096E020E096401D036
:102BC8002ED00950020D360EF324D96E000EF420D3
:102BD800DA6E000EDE6E000EDD6E0950020D600E1C
:102BE800F324D96E000EF420DA6E000EDE6E000EAD
:102BF800DD6E0950010D660EF324D96E000EF42027
:102C0800DA6E000EDF6E0950010D690EF324D96EDD
:102C1800000EF420DA6E000EDF6E092ACED7080EF9
:102C2800366E040E376E160E6A6E040E0401036FBC
:102C3800300E026F080E0401016F040E0401006FCC
:102C48000401008F000E586E000E0001896F1200FB
:102C580075EC2EF0ABEC2DF099EC13F076EC2DF032
:102C68008A8A000E0001B06F320EAF6FB1EC2CF003
:102C78008A9A010E0001B06FF40EAF6FB1EC2CF020
:102C8800F28CF28E1BEC26F0000E0001B06F140ED1
:102C9800AF6FB1EC2CF04AEC2FF0000E0001B06FD2
:102CA800140EAF6FB1EC2CF0000E0DEC2FF00001FC
:102CB800A06F550E0001A019D8B409D0A8EC28F0CF
:102CC800550E0001AF6F000E37EC2CF000D0000E4F
:102CD80000019F6F000E7CEC2FF0B6EC2EF0060E74
:102CE8000001C06F7F0E0001C16F000E0001C26FAE
:102CF800000E0001C36F30EC28F0230E0001C06FF6
:102D08007D0E0001C16F000E0001C26F010E0001AF
:102D1800C36F30EC28F0B50E0001C06F7E0E0001C5
:102D2800C16F000E0001C26F030E0001C36F30ECCB
:102D380028F0270E0001B06F100EAF6FB1EC2CF029
:102D480017D0FFD715D082EC20F0010E00019F6F3D
:102D5800010E81EC2FF00CD029EC0EF0040AD8A457
:102D680007D0000E00019F6F000E7CEC2FF000D002
:102D780000019F51000AD8B4E6D7010AD8B4ECD7AD
:102D8800E0D7F6D762EF00F020EE01F03E50D926EA
:102D98003F50DA22DF50136E1350325C000E335866
:102DA800D8B003D032C013F000D01350325E000EFA
:102DB800335A000E126E12D01250010D380EF32441
:102DC800D96E040EF420DA6E2EC0E1FF2FC0E2FFA8
:102DD800DFCFE7FF2E4A2F2A122A00D01350125CA9
:102DE800D8A0EAD732503310D8B432D020EE01F050
:102DF8004050D9264150DA22080EDF6E20EE02F04C
:102E08004050D9264150DA22380EDE6E040EDD6EAF
:102E18003EC0D9FF3FC0DAFFDFBC0DD040C0D9FFAC
:102E280041C0DAFF480EDF6E40C0D9FF41C0DAFF6B
:102E3800000EDB8E120040C0D9FF41C0DAFF080E39
:102E4800DF6E40C0D9FF41C0DAFF000EDB8E1200F2
:102E580020EE01F04050D9264150DA22080EDF6EEC
:102E680020EE02F04050D9264150DA22300EDE6EB4
:102E7800040EDD6E40C0D9FF41C0DAFF040EDF6EDC
:102E880040C0D9FF41C0DAFF000EDB8E3450351048
:102E9800D8B40ED020EE34F001D80AD00500FA6E6E
:102EA800DE50FD6EDE50FE6EF850FF6EFA501200D6
:102EB800319E4850D8A4120053EC21F012001200A1
:102EC8000001D635D7350001E16F0001E151D8A4E2
:102ED8000AD0000E0001D46F000ED56F000ED66F19
:102EE800000ED76F12000001DA35DB350001E26F02
:102EF8000001E251D8A40AD0000E0001D46F000EE0
:102F0800D56F000ED66F000ED76F12000001E25188
:102F1800890F0001E15FD7C0E2F00001DB51000139
:102F2800E21B800E0001E2170001D68FFF0E0001A0
:102F3800D417FF0ED517FF0ED617000ED7170001AE
:102F4800DA8FFF0E0001D817FF0ED917FF0EDA1718
:102F5800000EDB17200E0001E06F00D00001D890B2
:102F6800DC37DD37DE37DF370001D8510001D45DAB
:102F78000001D9510001D5590001DA510001D65993
:102F88000001DB510001D759D8A013D00001D85156
:102F98000001D45F0001D9510001D55B0001DA516D
:102FA8000001D65B0001DB510001D75B0001DC8129
:102FB80000D00001D890D437D537D637D73700019D
:102FC800E02FCCD700D0DCC0AFF0DDC0B0F0DEC061
:102FD800B1F0DFC0B2F0E1C0B3F0E2C0B4F069EC28
:102FE80011F0AFC0D4F0B0C0D5F0B1C0D6F0B2C0C7
:102FF800D7F012001200800E04013019D8A4120074
:10300800C00E556E7CD0AC0E526E790E536E000E0B
:10301800576E120E566E120004013251D8A43ED0DB
:1030280004013251020DFF0EF324F66E750EF420E2
:10303800F76E0900F5CF52F00A00F5CF53F0020EF3
:103048005224016E000E5320026E01C0F6FF02C02A
:10305800F7FFF86A070EF76403D00800F55005D0AB
:10306800F6CFE9FFF7CFEAFFEF50566E030E522472
:10307800016E000E5320026E01C0F6FF02C0F7FF7A
:10308800F86A070EF76403D00800F55005D0F6CFAC
:10309800E9FFF7CFEAFFEF50576E1200000E556EAA
:1030A8001200030E0401326124D004013251020DD2
:1030B800F90EF324F66E750EF420F76E0900F5CFBD
:1030C80052F00A00F5CF53F052C0F6FF53C0F7FF95
:1030D800F86A070EF76403D00800F55005D0F6CF5C
:1030E800E9FFF7CFEAFFEF50016E0150566E576ABD
:1030F8001200000E556E1200000E556E12000401EB
:103108003351010AD8B47FD7030AD8B485D7010A46
:10311800D8B4C7D7F1D7120012000001B135B235C3
:103128000001B86F0001B851D8A40AD0000E000100
:10313800AF6F000EB06F000EB16F000EB26F1200CD
:10314800AFC0B3F0B0C0B4F0B1C0B5F0B2C0B6F023
:10315800200E06D00001D890B633B533B433B3335C
:10316800E82EF8D70001B3510001B76F0001B18F05
:10317800FF0E0001AF17FF0EB017FF0EB117000EBC
:10318800B217960E0001B85F0001B8AF1BD000015E
:10319800B851800A970FD8B00BD0000E0001AF6F5E
:1031A800000EB06F000EB16F000EB26F120000D0AB
:1031B8000001D890B233B133B033AF330001B83F18
:1031C800F7D71FD01F0E0001B86514D0000E0001FC
:1031D800AF6F000EB06F000EB16F000EB26F12002D
:1031E80009D00001D890AF37B037B137B2370001F6
:1031F800B80700D00001B8510001D8B402D0F1D707
:1032080000D00001B7510001D8B40AD00001B21FA4
:10321800B11FB01FAF6D000EB023B123B22300D091
:10322800AFC0AFF0B0C0B0F0B1C0B1F0B2C0B2F052
:1032380012001200609855BE3DD031AE10D0020E7B
:103248004B6E00018851D8A403D036EC25F000D08D
:10325800000E00018B6F000E00018A6F120020EE35
:1032680001F04050D9264150DA22080EDF6E20EED8
:1032780002F04050D9264150DA22300EDE6E040E9C
:10328800DD6E40C0D9FF41C0DAFF0C0EDF6E40C0D2
:10329800D9FF41C0DAFF000EDB8E36C0D9FF37C038
:1032A800DAFF040EDF6E36C0D9FF37C0DAFF000E32
:1032B800DB8E1200040130AF15D0010E4B6E0001F9
:1032C8008751D8A403D036EC25F000D0000E0001B9
:1032D8008B6F000E00018A6F4850D8A4120053EC7F
:1032E80021F01200020E4B6E20EE01F04050D9265C
:1032F8004150DA22080EDF6E20EE02F04050D92647
:103308004150DA22300EDE6E040EDD6E40C0D9FF69
:1033180041C0DAFF040EDF6E40C0D9FF41C0DAFFBA
:10332800000EDB8E000E00018B6F000E00018A6F0D
:103338004850D8A4120053EC21F012001200010EDC
:103348000001C76FF40EC66F000E0001C86FB6EC1F
:103358002EF0EB0E0001C06F7D0E0001C16F000E54
:103368000001C26F000E0001C36F30EC28F081A28B
:1033780002D081B00FD0670E0001C06F7E0E000131
:10338800C16F000E0001C26F030E0001C36F30EC65
:1033980028F04CD0120E0001C06F7E0E0001C16FE4
:1033A800000E0001C26F010E0001C36F30EC28F05F
:1033B8003DD081B214D0F80E0001C06F7D0E00011F
:1033C800C16F000E0001C26F020E0001C36F30EC26
:1033D80028F00001C851080F0001C86F00D081B063
:1033E80014D0050E0001C06F7E0E0001C16F000EE3
:1033F8000001C26F030E0001C36F30EC28F000011A
:10340800C851800F0001C86F00D0880E0001C8198C
:10341800D8B4120001D012009C0E0001C56FD70E5F
:10342800E82EFED7C52FFCD700F000D00001C60754
:10343800D8A0C7070001C629BCE10001C729D8A444
:10344800B8D71200000E0001B86F0001B2AF0DD05E
:103458000001B21FB11FB01FAF6D000EB023B12322
:10346800B223010E0001B86F00D00001B6AF0AD038
:103478000001B61FB51FB41FB36D000EB423B523EA
:10348800B62300D00001B3510001B4110001B511F9
:103498000001B611D8B43FD0010E0001B76F09D0B2
:1034A8000001D890B337B437B537B6370001B72B1A
:1034B80000D00001B6BF02D0F3D700D00001B3514D
:1034C8000001AF5D0001B4510001B0590001B551D0
:1034D8000001B1590001B6510001B259D8A011D06C
:1034E8000001B3510001AF5F0001B4510001B05BAE
:1034F8000001B5510001B15B0001B6510001B25B9A
:1035080000D00001D890B633B533B433B3330001DB
:10351800B72FD4D700D00001B8510001D8B40AD0D1
:103528000001B21FB11FB01FAF6D000EB023B12351
:10353800B22300D0AFC0AFF0B0C0B0F0B1C0B1F0AE
:10354800B2C0B2F0120012000001B36FFA0E00010F
:10355800B26F580EE82EFED7B22FFCD700D0FA0E65
:103568000001B26F580EE82EFED7B22FFCD700D05C
:10357800FA0E0001B26F580EE82EFED7B22FFCD714
:1035880000D00001B3510001D8B42CD02C0E00019A
:10359800B06F7A0E0001B16FC4EC2DF0FA0E000185
:1035A800B26F580EE82EFED7B22FFCD700D0FA0E15
:1035B8000001B26F580EE82EFED7B22FFCD700D00C
:1035C800FA0E0001B26F580EE82EFED7B22FFCD7C4
:1035D80000D0460E0001B06F7A0E0001B16FC4EC46
:1035E8002DF01200F80E0001B06F790E0001B16FD6
:1035F800C4EC2DF0FA0E0001B26F580EE82EFED77B
:10360800B22FFCD700D0FA0E0001B26F580EE82E88
:10361800FED7B22FFCD700D0FA0E0001B26F580EB9
:10362800E82EFED7B22FFCD700D0120E0001B06FE3
:103638007A0E0001B16FC4EC2DF012001200000EDA
:103648000001906F0001745100017511D8B413D0B6
:1036580074C0D9FF75C0DAFF0001DFAE04D00001E5
:10366800B96BB92B02D00001B96B0001B951000147
:10367800BA6FBB6B06D0000E0001BB6F000EBA6FAD
:1036880000D00001BA510001BB11D8A44ED00001EE
:1036980020EE01F07451D9267551DA220001B85193
:1036A800DE5CD8B00BD0000120EE01F07451D926B1
:1036B8007551DA22DF500001B86F00D0000E00010A
:1036C800906F19D000019051010D400EF324D96E6E
:1036D800050EF420DA6E00019051010DF35000013F
:1036E800B625E16EF4500001B721E26EDFCFE7FFA7
:1036F8000001902B00D00001B8510001905DD8A0C6
:10370800E1D7000E0001AF6F400E0001B06F050E4B
:103718000001B16F400E0001B26F020E39EC1FF0CC
:10372800AFC074F0B0C075F000D000019051120025
:103738001200000E0001BD6F00D081A0FED739EC49
:103748002EF0010E8FEC2FF0C290F29EF29EF29CAA
:103758008D94A0920F015B81A08CF086F2888784FB
:10376800F286000E81B2010E0001BD6F000E81B01D
:10377800010E0001BD6F000E82B4010E0001BD6F85
:103788000001FC51D8A4D180F290F292F090A19C53
:1037980000F0030000F0D1905CEC2BF0F296F0966C
:1037A800F2988794A09CF28E08EC2BF0F2A0F2B26B
:1037B80004D0F0B002D0A1AC12D0F290F292F09006
:1037C800010E0001BD6F000E8FEC2FF0ABEC2DF059
:1037D8008D84FB0EB36E500EB26EA08209D00A0E15
:1037E8000001A66F000E0001BD6F8D94A09200D05D
:1037F8000F015B911BEC26F0000E0001B06F280E44
:10380800AF6FB1EC2CF01BEC26F0000E0001B06F8E
:10381800280EAF6FB1EC2CF00001BD511200120060
:10382800D1EC25F0B6EC2EF0580E0001C06F7F0EDB
:103838000001C16F000E0001C26F000E0001C36FCE
:1038480030EC28F0710E0001C06F7F0E0001C16FCF
:10385800000E0001C26F010E0001C36F30EC28F0AA
:10386800690E0001C06F7F0E0001C16F000E0001DC
:10387800C26F020E0001C36F30EC28F00E0E00017B
:10388800B16F020E0001B26F430E8CEC23F033ECE3
:103898002BF0B2C0C0F0B3C0C1F0E4EC24F0C0C05B
:1038A8007CF0C1C07DF000017C5100EC1DF00001EE
:1038B800E96F0001E95100017C6F7D6B0A0E000180
:1038C800C56F020E0001C66F00017C5117EC20F095
:1038D80000F0EA0E0001C06F7A0E0001C16F0A0EF7
:1038E8000001C26F010E0001C36F30EC28F0ECEC50
:1038F80029F0BCC0C0F0BDC0C1F00A0E0001C26F03
:10390800010E0001C36F30EC28F012001F0E0001F9
:103918008965120060B2120001D012004650D8A486
:1039280014D0380E0001B66F010E0001B76F400EBB
:103938000001B86F23EC1BF0446E4450D8B405D096
:10394800010E466E000E476E00D04650D8A4ACA2B9
:1039580013D04750010D380EF324D96E010EF42010
:10396800DA6EDF50D0EC2BF0472A44504718D8A421
:1039780003D0000E466E00D04D50D8B425D09FEC31
:103988002FF00009D8B420D03F0E45601DD000F0BC
:10399800AAEC2BF00001BC6F4550010D380EF32442
:1039A800D96E010EF420DA6EBCC0DFFF452A4550FF
:1039B800010D380EF324D96E010EF420DA6E000ED4
:1039C800DF6E000E506E00D04A50D8A412D0455079
:1039D800D8B40FD0380E0001AF6F010E0001B06FE0
:1039E80045C0B1F063EC2EF09BEC2FF0000E456E55
:1039F80000D0A1EC10F012000001E36FCD0E000121
:103A0800C96FCC0ECA6F4C0ECB6F400ECC6F000145
:103A1800E35140EC2DF0B9C0C5F0BAC0C6F0BBC048
:103A2800C7F0BCC0C8F0E7EC12F0C5C0D4F0C6C0FF
:103A3800D5F0C7C0D6F0C8C0D7F0000E0001D86FC7
:103A4800000ED96F800EDA6F440EDB6F64EC17F04E
:103A5800D4C0E5F0D5C0E6F0D6C0E7F0D7C0E8F0AE
:103A6800000E0001BD6F000EBE6F000EBF6FBF0ECF
:103A7800C06FE5C0B9F0E6C0BAF0E7C0BBF0E8C077
:103A8800BCF06BEC0FF0B9C0C5F0BAC0C6F0BBC053
:103A9800C7F0BCC0C8F0000E0001C96F000ECA6FA5
:103AA800C80ECB6F420ECC6FE7EC12F0C5C0E5F044
:103AB800C6C0E6F0C7C0E7F0C8C0E8F0E5C0AFF0A0
:103AC800E6C0B0F0E7C0B1F0E8C0B2F091EC18F091
:103AD8000001AF510001E46F0001E451120012002F
:103AE80036C0D9FF37C0DAFF000EDFBC010E126EF8
:103AF800040E361A080E00018919D8A40DD0040145
:103B080032517F0B636E6350D8B402D0100E01D0CF
:103B1800040E0001896F00D04B04D8A43AD020EEDF
:103B280002F03650D9263750DA22380EDE6E040EEF
:103B3800DD6EA8EC1FF0020E5118D8A40DD036C0C7
:103B4800D9FF37C0DAFF040EDF6E36C0D9FF37C0A1
:103B5800DAFF000EDB8E12001250D8A40DD036C04A
:103B6800D9FF37C0DAFF480EDF6E36C0D9FF37C03D
:103B7800DAFF000EDB8E120036C0D9FF37C0DAFF3D
:103B8800080EDF6E36C0D9FF37C0DAFF000EDB8EB5
:103B9800120031AE14D034503510D8B40ED020EE07
:103BA80034F001D80AD00500FA6EDE50FD6EDE5002
:103BB800FE6EF850FF6EFA501200319E00D0000ED3
:103BC8004B6E1200120004013039E832030B000971
:103BD800D8A4120047D0120045D0558E080E000117
:103BE800896F1200FFEC17F0120059EC1EF012005A
:103BF800580E526E000E536E5580010E566E558E3D
:103C08001200D6EC22F0120000D0DEEC0CF012000C
:103C180004013451010DAD0EF324526E000EF42050
:103C2800536E5580010E566E558E1200558E040146
:103C38003451010DAD0EF324D96E000EF420DA6E66
:103C480032C4DFFF1200000E0F6E020E0E6E000E61
:103C5800106E000E116E000E136E000E126E7EECCA
:103C68002AF0120004013151000AD8B4CAD7010A57
:103C7800D8B4CBD7020AD8B4C8D7060AD8B4ADD7B7
:103C8800030AD8B4AFD7010AD8B4DDD70F0AD8B41D
:103C9800AFD7010AD8B4A9D7030AD8B4B9D7010A4B
:103CA800D8B4C4D7070A12001200558E6B0E016EE5
:103CB8000F0E026E000E046E000E036E000E066EEE
:103CC800020E056EF6EC2DF0000E016E040E026E6B
:103CD800000E046E000E036E000E066E300E056EAA
:103CE800F6EC2DF0608C000E166E020E166401D0F4
:103CF80016D01650010D660EF324D96E000EF4206E
:103D0800DA6E000EDF6E1650010D690EF324D96EBF
:103D1800000EF420DA6E000EDF6E162AE6D7AD0E1E
:103D2800016E000E026E000E046E000E036E000E91
:103D3800066E020E056EF6EC2DF0609C080E366ECF
:103D4800040E376E000E3E6E040E3F6E3EC040F00D
:103D58003FC041F032C458F05850D8A404D0100ED7
:103D68000001896F1200000E0F6E010E0E6E580EC4
:103D7800106E000E116E000E136E010E126E7EECA8
:103D88002AF0200E0001896F120012000001B86F9E
:103D98000001B5510001B66FB76B020E0001B627DE
:103DA800000EB723100E0001B625D96E010E0001D2
:103DB800B721DA6EB8C0AFF00001B06B000E000199
:103DC800B26F0A0EB16F32EC23F00001AF51300F21
:103DD800DF6E0A0E0001AF6F0001B85185EC29F0C3
:103DE8000001B86F0001B5510001B66FB76B010E45
:103DF8000001B627000EB723100E0001B625D96EB4
:103E0800010E0001B721DA6EB8C0AFF00001B06B47
:103E1800000E0001B26F0A0EB16F32EC23F0000100
:103E2800AF51300FDF6E0A0E0001AF6F0001B851BD
:103E380085EC29F00001B86F0001B551010D100E95
:103E4800F324D96E010EF420DA6EB8C0AFF0000189
:103E5800B06B000E0001B26F0A0EB16F32EC23F0A6
:103E68000001AF51300FDF6E12000001B36F000187
:103E7800AF510001D8B408D00001B351020D360E7D
:103E8800F324D96E000E07D00001B351020D600E65
:103E9800F324D96E000EF420DA6EDECFB4F0DDCF55
:103EA800B5F000D00001B4510001B511D8A407D075
:103EB800000E0001AF6F000E0001B06F120000018C
:103EC80020EE02F0B451D926B551DA22B0C0DEFF97
:103ED800B1C0DDFF000120EE01F0B451D926B55183
:103EE800DA22B2C0DFFFB4C0D9FFB5C0DAFF400E96
:103EF800DF16B4C0D9FFB5C0DAFF000EDB86B4C048
:103F0800D9FFB5C0DAFF000EDB8E0001AF5100010A
:103F1800D8B408D00001B351020D360EF324D96E7F
:103F2800000E07D00001B351020D600EF324D96EC4
:103F3800000EF420DA6E040EDF1A00D0B4C0AFF021
:103F4800B5C0B0F012001200080E016E575011E112
:103F5800080E565CD8B00DD056C001F05150D8A408
:103F680002D0010E04D05104D8A403D0020E516E21
:103F780000D00150565E000E575A20EE01F0365020
:103F8800D9263750DA2201C0DFFF380E00017A6FD8
:103F9800040E00017B6F55A01ED03FD01CD052C02C
:103FA800F6FF53C0F7FFF86A7AC0D9FF7BC0DAFF83
:103FB800070EF76403D00800F55005D0F6CFE9FFE7
:103FC800F7CFEAFFEF50DF6E524A532A00017A4BCF
:103FD8007B2B010600D00150D8B41200E0D71200A4
:103FE8001CD052C0F6FF53C0F7FFF86A7AC0D9FF59
:103FF8007BC0DAFF070EF76403D00800F55005D040
:10400800F6CFE9FFF7CFEAFFEF50DF6E524A532AA7
:1040180000017A4B7B2B010600D00150D8B4120066
:10402800E0D7120012000001CE6F000E0001C76F2A
:104038000001CEAF04D0010E0001C76F00D000010F
:10404800CE517F0B0001CE6FCEC0AFF00001B06B38
:10405800000E0001B26F0A0EB16F32EC23F00001BE
:10406800AF51300F0001CA6F0A0E0001AF6F000197
:10407800CE5185EC29F00001CE6FCEC0AFF0000123
:10408800B06B000E0001B26F0A0EB16F32EC23F074
:104098000001AF51300F0001C96F0A0E0001AF6F68
:1040A8000001CE5185EC29F00001CE6FCEC0AFF0F3
:1040B8000001B06B000E0001B26F0A0EB16F32EC56
:1040C80023F00001AF51300F0001C86F0001C75144
:1040D8000001D8B403D02D0E0001C86F000E0001F6
:1040E800CB6FC80E0001C06F000E0001C16FC5C0C4
:1040F800C2F0C6C0C3F030EC28F012004BD0FFD796
:1041080055D0B6EC2EF0100E0001C06F7F0E0001E6
:10411800C16F010E0001C26F000E0001C36F30ECC9
:1041280028F0610E0001C06F7F0E0001C16F020E02
:104138000001C26F010E0001C36F30EC28F01F0EA2
:104148000001C06F7E0E0001C16F000E0001C26F3A
:10415800020E0001C36F30EC28F0010E06D0200ECD
:104168000001896101D022D0020E0001A86F1ED083
:104178008AEC1CF0030E0001C56FEDEC26F000017F
:10418800C56F030E0001C519D8B410D0020E000186
:10419800F96F0CD00001A851000AD8B4B2D7010AAF
:1041A800D8B4DDD7030AD8B4E3D7A9D780A004D000
:1041B8000001F951D8B4EED700F0020E0001F91948
:1041C800D8B41200000E0001F96F120012002D0E73
:1041D800496E59C01CF0FD0E1C16D8A457D059C002
:1041E8001CF0D8901C323F0E1C161C50040D000EFB
:1041F800F3243E6E040EF4203F6E3EC040F03FC0F4
:1042080041F0040E401A3EC0D9FF3FC0DAFFDF304C
:10421800E8320F0B0D0AD8A436D0000E1E6E070E1A
:104228001E6401D023D020EE02F03E50D9263F5024
:10423800DA22DECF1CF0DDCF1DF01CC0D9FF1DC077
:10424800DAFF1E50010D300EF324E16E040EF42047
:10425800E26EDFCFE7FF20EE02F03E50D9263F5056
:10426800DA22DE2A000EDD221E2AD9D720EE02F03D
:104278003E50D9263F50DA22300EDE6E040EDD6E37
:10428800A9EC26F012001DEC2AF012005950FD0B83
:10429800040AD8A4120074EC1DF0120012000001E8
:1042A8008A51D8A41200010E00018A6F00018B51B7
:1042B800D8A41200010E00018B6F020E4B18D8A46F
:1042C80015D020EE01F03650D9263750DA22000EEC
:1042D800DF6E36C0D9FF37C0DAFF480EDF6E36C052
:1042E800D9FF37C0DAFF000EDB8E12004B04D8A4CA
:1042F8001200000E0001846F20EE01F03E50D92616
:104308003F50DA22080EDF6E20EE02F03E50D9262A
:104318003F50DA22300EDE6E040EDD6E3EC0D9FF4D
:104328003FC0DAFF040EDF6E3EC0D9FF3FC0DAFFA0
:10433800000EDB8E010E0001846F20EE01F040506C
:10434800D9264150DA22080EDF6E20EE02F04050E6
:10435800D9264150DA22300EDE6E040EDD6E40C0E2
:10436800D9FF41C0DAFF800EDF6E12001200056E21
:104378000150D8B407D00550020D360EF324D96E7B
:10438800000E06D00550020D600EF324D96E000E03
:10439800F420DA6EDECF06F0DDCF07F000D006504D
:1043A8000710D8A405D0000E016E000E026E120090
:1043B80020EE02F00650D9260750DA2202C0DEFFAE
:1043C80003C0DDFF20EE01F00650D9260750DA229F
:1043D80004C0DFFF06C0D9FF07C0DAFF400EDF16B2
:1043E80006C0D9FF07C0DAFF000EDB8606C0D9FF7A
:1043F80007C0DAFF000EDB8E0150D8B407D0055095
:10440800020D360EF324D96E000E06D00550020DAB
:10441800600EF324D96E000EF420DA6E040EDF1A53
:1044280000D006C001F007C002F012001200000E12
:104438000001AF6F020E0001AF6501D00ED0000180
:10444800AF51010DAA0EF324D96E000EF420DA6ED6
:10445800000EDF6E0001AF2BEDD7000E0001B06F2C
:10446800210E0001B06501D00ED00001B051010D40
:10447800200EF324D96E010EF420DA6E000EDF6EE2
:104488000001B02BEDD7000E0001B16F1F0E000127
:10449800B16501D00ED00001B151010DB80EF32461
:1044A800D96E010EF420DA6E000EDF6E0001B12B1A
:1044B800EDD7000E0001B26F0F0E0001B26502D0F9
:1044C800120012000001B251010D100EF324D96E32
:1044D800010EF420DA6E000EDF6E0001B22B0F0E13
:1044E8000001B265EFD712001200040130511F0B12
:1044F800E806D8A4120001D0120004013039E832CD
:10450800030BE806D8A4120001D0120004013451AC
:10451800D8B435D004013405D8A4120030D0120024
:104528002ED0E20E526E010E536E000E576E080E1C
:10453800566E5580558E1200E20E526E010E536E65
:10454800558E120036C432F037C433F0D80E2E6EB2
:10455800010E2F6EB60E346E550E356E318E12006A
:10456800EA0E526E010E536E000E576E070E566E0F
:10457800C10E556E120032C492F0558E120004011D
:104588003151000AD8B4CDD7010AD8B4D5D7210AF9
:10459800D8B4D8D7010AD8B4E3D7030AD8A41200EC
:1045A800EAD71200000E0401386F000E0401396FBB
:1045B8003ED0558E03D00401388100D00001850516
:1045C800D8A441D0040138833ED0558E3CD0558EB6
:1045D800040134BF0BD0040134510F0B016E01509C
:1045E800020D600EF324D96E000E0AD00401345176
:1045F8000F0B016E0150020D360EF324D96E000E1A
:10460800F420DA6EDECF02F0DDCF03F000D002C076
:10461800D9FF03C0DAFFDFAE16D002C0D9FF03C04E
:10462800DAFFDFA410D0010E0401386F0CD00401AA
:1046380030511F0B000AD8B4BCD7010AD8B4C5D76B
:10464800030AD8B4C4D755AE1200380E526E040E01
:10465800536E5580020E566E12001200000E0001B5
:10466800B46F0001B0AF09D00001AF6DB01FD8B072
:10467800B02B010E0001B46F00D00001B2AF06D01C
:104688000001B16DB21FD8B0B22B00D00001B151FA
:104698000001B211D8B42BD0010E0001B36F07D0BE
:1046A8000001D890B137B2370001B32B00D0000118
:1046B800B2BF02D0F5D700D00001B1510001AF5D03
:1046C8000001B2510001B059D8A009D00001B15180
:1046D8000001AF5F0001B2510001B05B00D00001E2
:1046E800D890B233B1330001B32FE6D700D0000120
:1046F800B4510001D8B406D00001AF6DB01FD8B0D6
:10470800B02B00D0AFC0AFF0B0C0B0F012001200B4
:104718000001B96F0001B251C3EC2EF00001B15194
:10472800080DF350040FA7EC2EF0000E0001BA6F2D
:10473800070E0001BA6502D0120012000001BA513A
:10474800010D000E0001B36FFF0E0001B46F0001F0
:10475800B9510001B56FB66B0001D890B537B637BF
:104768000001D890B537B6370001D890B537B637BD
:104778000001B3510001B5270001B4510001B6236F
:10478800FBC1B7F0FCC1B8F00001B5510001B72773
:104798000001B6510001B823F3500001B727F450C7
:1047A8000001B823B7C0F6FFB8C0F7FF0800F550FE
:1047B800E9EC2EF00001BA2B070E0001BA65BED74E
:1047C80012001200B6EC2EF03D0E0001C06F7F0EF5
:1047D8000001C16F000E0001C26F000E0001C36F1F
:1047E80030EC28F0810E0001C06F7D0E0001C16F12
:1047F800000E0001C26F060E0001C36F30EC28F0F6
:104808008E0E0001C06F7D0E0001C16F000E000109
:10481800C26F080E0001C36F30EC28F0E60E0001ED
:10482800C06F7C0E0001C16F000E0001C26F010E47
:104838000001C36F30EC28F05B0E0001C06F7E0EE4
:104848000001C16F000E0001C26F020E0001C36FAC
:1048580030EC28F0460E0001C06F7F0E0001C16FDA
:10486800000E0001C26F030E0001C36F30EC28F088
:1048780012000001C76FC7C0AFF00001B06B000E97
:104888000001B26F0A0EB16F32EC23F00001AF5194
:10489800300F0001CA6F0A0E0001AF6F0001C75147
:1048A80085EC29F00001C76FC7C0AFF00001B06BFD
:1048B800000E0001B26F0A0EB16F32EC23F0000156
:1048C800AF51300F0001C96F0A0E0001AF6F000130
:1048D800C75185EC29F00001C76FC7C0AFF00001D0
:1048E800B06B000E0001B26F0A0EB16F32EC23F00C
:1048F8000001AF51300F0001C86F000E0001CB6FEF
:10490800C80E0001C06F000E0001C16FC5C0C2F023
:10491800C6C0C3F030EC28F0120040D0AFC0D9FFB9
:10492800B0C0DAFFDF50D8B411D0AFC0D9FFB0C0E3
:10493800DAFFDF500001B56FB1C0F6FFB2C0F7FF74
:104948000800F5500001B519D8B421D0B1C0F6FF60
:10495800B2C0F7FF0800F5500001B56FB66B000153
:10496800B51FB61FB54BB62BAFC0D9FFB0C0DAFF25
:10497800DF500001B76F0001B7510001B5250001F4
:10498800AF6F000E0001B6210001B06F12000001E8
:10499800AF4BB02B0001B14BB22B00D00001B307D5
:1049A800D8A0B4070001B329B9E10001B429D8A4FB
:1049B800B5D7000E0001B06F000EAF6F12001200E5
:1049C800000E0001C76F000EC66F000E0001C56F14
:1049D80040D043D0C0C0D9FFC1C0DAFFDF50D8B43F
:1049E8003CD00001C5510001D8B410D0C6C0AFF00A
:1049F800C7C0B0F0000E0001B26F0A0EB16F08EC2C
:104A08002DF0AFC0C6F0B0C0C7F000D0C0C0D9FF0D
:104A1800C1C0DAFFDF500001C26F0001C2510001BE
:104A2800C6250001C36F000E0001C7210001C46F35
:104A3800D00E0001C3250001C66FFF0E0001C4217E
:104A48000001C76F0001C04BC12B01D006D0000187
:104A5800C52B030E0001C565BDD7C6C0C0F0C7C0D1
:104A6800C1F01200000E0001876F000E0001886F70
:104A7800020E4B18D8A41FD020EE01F04050D926C2
:104A88004150DA22080EDF6E20EE02F04050D9269F
:104A98004150DA22380EDE6E040EDD6E40C0D9FFBA
:104AA80041C0DAFF480EDF6E40C0D9FF41C0DAFFCF
:104AB800000EDB8E120056500401365D575004017B
:104AC8003759D8B005D036C456F037C457F000D09F
:104AD800A8EC1FF020EE02F03650D9263750DA2223
:104AE800380EDE6E040EDD6E36C0D9FF37C0DAFF31
:104AF800480EDF6E36C0D9FF37C0DAFF000EDB8EF6
:104B080012001200066E000E076E040E086E0150A9
:104B1800026E036AD890023603360650046E056AA0
:104B2800D89004360536D890043605360250042647
:104B380003500522D89004360536D8900436053639
:104B4800045007260550082207C0D9FF08C0DAFF1D
:104B5800DF9E0150D8A407D00650020D600EF32442
:104B6800D96E000E06D00650020D360EF324D96E0B
:104B7800000EF420DA6E07C0DEFF08C0DDFF00D0AB
:104B880007C0D9FF08C0DAFFDF9C20EE04F0075009
:104B9800D9260850DA22DF8C1200000E0001B56F0A
:104BA800000EB46FDD0E0001B06F790E0001B16F19
:104BB800C4EC2DF00ED00001B44BB52B510E000102
:104BC800B45DC30E0001B559D8B008D002D006D0E4
:104BD80000D0F2EC27F00009D8B4EDD7000E0001A0
:104BE800B56F000EB46FC20E0001B06F790E0001F0
:104BF800B16FC4EC2DF00ED00001B44BB52B510EA3
:104C08000001B45DC30E0001B559D8B008D002D078
:104C180006D000D0F2EC27F00009D8B4EDD7000E8A
:104C28000001B06F640EAF6FB1EC2CF01200000EF3
:104C38000001B66F000E0001B56F000EB46FAC9A9C
:104C48008B9C000E0001B06F0A0EAF6FB1EC2CF018
:104C5800AC8A000E0001B06F050EAF6FB1EC2CF0FE
:104C6800550EAD6E00D0ACA2FED7FC0E0001B06FA1
:104C78007F0E0001B16FC4EC2DF0000E0001B06F83
:104C8800280EAF6FB1EC2CF014D0F2EC27F000092D
:104C9800D8A40BD00001B44BB52B890E0001B45D2C
:104CA800130E0001B559D8A004D0010E0001B66F4B
:104CB80000D00001B6510001D8A4E7D71200000EB9
:104CC800096E000E0A6E000E0B6E000E0C6E05507B
:104CD800061007100810D8B42FD0010E0D6E07D09B
:104CE800D89005360636073608360D2A00D008BE95
:104CF80002D0F6D700D0D89009360A360B360C36D3
:104D08000550015C065002580750035808500458D3
:104D1800D8A00AD00550015E0650025A0750035A1F
:104D28000850045A098000D0D89008320732063259
:104D380005320D2EE0D700D009C001F00AC002F0FC
:104D48000BC003F00CC004F01200000E516E000EF0
:104D5800486E000E0001876F000E0001886F000E7C
:104D68000001846F000E4B6E36C0D9FF37C0DAFFE2
:104D78007F0EDF16040E361A36C0D9FF37C0DAFFA9
:104D88007F0EDF16040E361A40C0D9FF41C0DAFF85
:104D98007F0EDF16000E556E000E576E000E566E13
:104DA800000E316E000E336E000E326EE7EC1DF011
:104DB800000E0F6E030E0E6E000E106E000E116EBA
:104DC800000E136E000E126E7EEC2AF01EEC19F027
:104DD8001200000E0001AF6F81A202D081B01FD077
:104DE800010E01013427000E352336233723370EF1
:104DF8000101341901013511010136110101371181
:104E0800D8A40AD0000E0001A96F81B202D0010E09
:104E18001CD0020E1AD01CD0000E17D019D0140EB8
:104E28000001A919D8A40DD0000E0101346F000E9D
:104E3800356F000E366F000E376F000E0001A96F38
:104E480003D00001A92B00D0030E0001AF6F00D0E2
:104E58000001AF5112001200000E0001B36F050EE1
:104E68000001B36501D036D0AFC0F6FFB0C0F7FF80
:104E7800B1C0F8FF0800F5500009D8B41CD0AFC085
:104E8800F6FFB0C0F7FFB1C0F8FF0001B251010D45
:104E9800100EF324D96E010EF420DA6E0800F5CF57
:104EA800DFFF0001010EAF27000EB023000EB12373
:104EB8000001B22B0CD00001B251010D100EF324E9
:104EC800D96E010EF420DA6E200EDF6E03D00001D9
:104ED800B32BC5D70001B35112001200F60E000122
:104EE800AF6F010E0001B06FF10E0001B16F010E3E
:104EF8000001B26F000E0001B46F050EB36F84ECB1
:104F08002BF0F60E0001AF6F010E0001B06FB9C0B3
:104F1800B1F0BAC0B2F0000E0001B46F050EB36F65
:104F280084EC2BF0000E0001BB6F12D015D00001ED
:104F3800BB51010DF60EF324D96E010EF420DA6E82
:104F4800DF50D8A403D0BBC09AF000D00001BB2B1F
:104F5800040E0001BB65EBD700F01200E20EF5EC81
:104F68002EF08A84040E0001B16F1C0EE82EFED7C5
:104F7800B12FFCD700D08A94200E0001B16F2A0E01
:104F8800E82EFED7B12FFCD78A84100E0001B16F2E
:104F9800940EE82EFED7B12FFCD700D0A10EF5EC69
:104FA8002EF0C00EF5EC2EF0A30EF5EC2EF0070E49
:104FB80041EC2FF0050E38EC2FF00001F65119ECFA
:104FC8002FF0000E24EC2FF0F80EF5EC2EF0000E6A
:104FD800F5EC2EF0AF0EF5EC2EF01200000E0001ED
:104FE800B06F4D50D8B434D0000E0001B16FAAECA8
:104FF8002BF00001B16F0D0E0001B119D8A410D02B
:105008004F50010D780EF324D96E010EF420DA6E9C
:10501800000EDF6E010E0001B06F000E4F6E18D04B
:105028000001B1510001D8B413D00A0E0001B11922
:10503800D8B40ED001D00CD04F50010D780EF32407
:10504800D96E010EF420DA6EB1C0DFFF4F2A00D00E
:105058000001B05112001200C2C0C4F00F0E0001CE
:10506800C46502D012001200C0C0F6FFC1C0F7FF2D
:10507800F86A070EF76403D00800F55005D0F6CF9C
:10508800E9FFF7CFEAFFEF500009D8B41200C4C017
:10509800B1F0C3C0B2F0C0C0F6FFC1C0F7FFF86AF4
:1050A800070EF76403D00800F55005D0F6CFE9FFE6
:1050B800F7CFEAFFEF508CEC23F00001C04BC12B77
:1050C80001D012000001C42B0F0E0001C465CCD71B
:1050D8001200120002EE00F0A00EEE6AE806FDE1F2
:1050E80001EE00F0FB0EEE6AE806FDE100EE60F06E
:1050F8004F0EEE6AE806FDE15A6A00EE2EF02C0E1D
:10510800EE6AE806FDE1600EF66E5F0EF76E000EC1
:10511800F86E0900F5CFFBF10900F5CFFCF10C0E94
:10512800F66E5F0EF76E000EF86E00EEF6F010EEFB
:1051380009F00900F5CFEEFFE550E150FAE1000E65
:10514800F86E00012CEF16F0E6EC23F0000E0001DB
:10515800B06F140EAF6FB1EC2CF0A3EC19F0B6ECF5
:105168002EF0000E0001B06F140EAF6FB1EC2CF0F2
:10517800E1EC28F0000E0001B06F140EAF6FB1EC37
:105188002CF0B9EC29F0000E0001B06F140EAF6FCF
:10519800B1EC2CF05CEC2BF0000E0001B06F140E9B
:1051A800AF6FB1EC2CF014EC1CF00B0E0001B06FDB
:1051B800B80EAF6FB1EC2CF01200AA0E0001C06F50
:1051C8007E0E0001C16F000E0001C26F000E0001CB
:1051D800C36F30EC28F0010EA8EC1AF0010E0001A4
:1051E800B06FF40EAF6F94EC2CF0000EA8EC1AF030
:1051F800010E0001B06FF40EAF6F94EC2CF0010EAD
:10520800A8EC1AF0010E0001B06FF40EAF6F94EC29
:105218002CF0000EA8EC1AF0010E0001B06FF40E8D
:10522800AF6F94EC2CF01200000E0101EA6F4B0EE8
:10523800EB6F000EEC6F000EED6F000E0101EE6FCC
:10524800000E0101EF6F080E0101F06F000E000162
:10525800906F1A0E096E010E17EC2CF01E0E096ED7
:10526800020E17EC2CF0000E016E400E026E050EB9
:10527800036E400E046E020EBBEC21F001C074F008
:1052880002C075F0000E0001726F000E0001736F0E
:10529800000E4A6E12000001B1510001B211D8B4DB
:1052A8002BD0010E0001B36F07D00001D890B137A1
:1052B800B2370001B32B00D00001B2BF02D0F5D73E
:1052C80000D00001B1510001AF5D0001B2510001F1
:1052D800B059D8A009D00001B1510001AF5F000159
:1052E800B2510001B05B00D00001D890B233B133A5
:1052F8000001B32FE6D700D0AFC0AFF0B0C0B0F018
:1053080012000001B06F000E0001B26F0001AF5132
:105318000001D8B426D0010E0001B16F06D00001FB
:10532800D890AF370001B12B00D00001AFBF02D039
:10533800F6D700D00001D890B2370001AF51000174
:10534800B05DD8A007D00001AF510001B05F0001E7
:10535800B28100D00001D890AF330001B12FEAD755
:1053680000D00001B25112001200FC0E0001C06F03
:105378007E0E0001C16F000E0001C26F010E000118
:10538800C36F30EC28F0898C898E010E0001B06F54
:10539800F40EAF6F94EC2CF0899C899E010E0001ED
:1053A800B06FF40EAF6F94EC2CF0898C898E010EDF
:1053B8000001B06FF40EAF6F94EC2CF0899C899EBD
:1053C800010E0001B06FF40EAF6F94EC2CF01200D8
:1053D800000E0001BF6F000EBE6F8F0E0001B06F90
:1053E8007A0E0001B16FC4EC2DF00ED00001BE4B57
:1053F800BF2B510E0001BE5DC30E0001BF59D8B0CE
:1054080008D002D006D000D0F2EC27F00009D8B4BA
:10541800EDD7780E0001B96F010E0001BA6F72EC7A
:1054280027F0780E0001BC6F010E0001BD6F12005D
:105438001200020E4B18D8A403D0C8EC16F01200C4
:10544800000E4B6E00018451D8A41FD020EE01F04D
:105458004050D9264150DA22080EDF6E20EE02F0C5
:105468004050D9264150DA22300EDE6E040EDD6E31
:1054780040C0D9FF41C0DAFF0C0EDF6E40C0D9FF33
:1054880041C0DAFF000EDB8E1200000E0001846FAF
:105498001200120007D00001AF4BB02B0001B14B36
:1054A800B22B00D0AFC0D9FFB0C0DAFFDF50000187
:1054B800B36FB1C0F6FFB2C0F7FF0800F55000089F
:1054C8000001B3250001B46F0001B451D8A409D07C
:1054D800AFC0D9FFB0C0DAFFDF50D8B402D0DBD7F5
:1054E80000D00001B4510001AF6FB06BAFBFB0077F
:1054F8001200120007D01200AEEC2AF0120079EC6C
:1055080022F012000EC014F00FC015F01550000A5A
:10551800D8B404D07F0AD8A4120018D01450010AB5
:10552800D8B4EAD7030AD8B41200010AD8B4E7D726
:10553800060AD8B41200770AD8B41200010AD8B4FF
:105548001200070AD8B41200010A12001450FF0A08
:105558001200120018EC29F0000E0101EE6F080E7F
:105568000101F06F000E0101EF6F000E0101EA6FFB
:105578004B0EEB6F000EEC6F000EED6F75EC2CF020
:10558800000E0D6E3F0E0D6401D00CD00D50010DB4
:10559800380EF324D96E010EF420DA6E000EDF6E99
:1055A8000D2AF0D7000E456E000E446E1200D8C1C9
:1055B800EAF1D9C1EBF1DAC1ECF1DBC1EDF1000E92
:1055C800016E1B0E026EB70E036E000E046EEAC16A
:1055D80005F0EBC106F0ECC107F0EDC108F063EC93
:1055E80026F0FF0E01240E6EFF0E02200F6EFF0E36
:1055F8000320106EFF0E0420116E0EC0AFFF0FC007
:10560800B0FF75EC2CF01200928092829284928600
:105618008D949694929A929C929E9382938093945E
:1056280093969398939A949094929484949C948E3D
:10563800000E956E9694899A899C899E8A948B947B
:105648008B9C8D840F015B910F015B830F015B8540
:105658000F015B870F015D9F0F015D9D1200000E1A
:105668000001B56F000EB46F790E0001B06F7A0EAD
:105678000001B16FC4EC2DF00ED00001B44BB52B76
:10568800510E0001B45DC30E0001B559D8B008D061
:1056980002D006D000D0F2EC27F00009D8B4EDD73C
:1056A800780E0001B26F010E0001B36F12001200F4
:1056B800000E0001AF6F3F0E0001AF6501D00ED0A4
:1056C8000001AF51010D000EF324D96E020EF42033
:1056D800DA6E000EDF6E0001AF2BEDD7000E000171
:1056E800966F000E0001976F000E4D6E9D98000E8C
:1056F8000001986F000E0001996F400E4E6E120067
:10570800B1C0B7F0B2C0B8F0AFC0B5F0B0C0B6F035
:1057180011D0B7C0D9FFB8C0DAFFB5C0E1FFB6C035
:10572800E2FFDFCFE7FF0001B74BB82B0001B54B15
:10573800B62B00D00001B307D8A0B4070001B329E5
:10574800E8E10001B429D8A4E4D71200000E000152
:10575800AF6F02D0898E00D04D50D8B4FBD79D9A38
:1057680000019751010D000EF324D96E020EF420AA
:10577800DA6EDF500001AF6F0001972B3F0E00017A
:10578800976504D0000E0001976F00D04D069D8AE2
:105798000001AF51120012000001AF6F00D04E504F
:1057A800D8B4FDD79DB803D0AFC0ADFF18D09D9831
:1057B80000019851010D400EF324D96E020EF42019
:1057C800DA6EAFC0DFFF0001982B3F0E000198652D
:1057D80004D0000E0001986F00D04E0600D09D88BE
:1057E80012006AA01ED03EC0D9FF3FC0DAFF800E6B
:1057F800DE18D8A415D036C0D9FF37C0DAFF840E1A
:10580800DE18D8A40DD03EC0D9FF3FC0DAFF0C0E79
:10581800DF6E3EC0D9FF3FC0DAFF000EDB8E00D03E
:105828006A90659A12000C6E09A406D0000E016EEB
:105838000C5086EC25F000D009A206D0010E016EAE
:105848000C5086EC25F000D00C50010D6A0EF324A4
:105858000A6E0F0EF4200B6E0AC0D9FF0BC0DAFFD8
:1058680009C0DFFF12000001B06F000EF2BE010E8A
:105878000001B16FB0C0A9FFAFC0A8FFA69EA69C4B
:10588800A684F29E550EA76EAA0EA76EA68200D019
:10589800A6B2FED7A6940001B1B102D0F29E01D003
:1058A800F28E12009D9A9D98480EB86E900EAB6EBF
:1058B800260EAC6ED00EAF6E000EB06E000E00015C
:1058C800986F000E0001996F400E4E6E000E000199
:1058D800966F000E0001976F000E4D6E9D8AAB8883
:1058E80012009D9A9D98480EB86E900EAB6E260ECB
:1058F800AC6ED00EAF6E000EB06E000E0001986F49
:10590800000E0001996F400E4E6E000E0001966F5A
:10591800000E0001976F000E4D6E9D8AAB88120035
:10592800000E0001B36F000EB26F0CD0100E000114
:10593800B16F940EE82EFED7B12FFCD700D000012E
:10594800B24BB32B0001AF510001B25D0001B05161
:105958000001B359D8A0EAD71200000E0001B36FB6
:10596800000EB26F0CD0100E0001B16F940EE82E2D
:10597800FED7B12FFCD700D00001B24BB32B0001EA
:10598800AF510001B25D0001B0510001B359D8A078
:10599800EAD71200400E4E6017D000019951010D50
:1059A800400EF324D96E020EF420DA6EDF50AD6E8D
:1059B8000001992B3F0E0001996504D0000E0001EB
:1059C800996F00D04E2A12009D9812001200ABA2C7
:1059D80003D0AB98AB88120000019651010D000E60
:1059E800F324D96E020EF420DA6EAECFDFFF000189
:1059F800962B3F0E0001966504D0000E0001966FAD
:105A080000D04D2A120012000001AF510001B1036D
:105A1800F3CFB3F0F4CFB4F00001AF510001B203FB
:105A2800F3500001B4270001B0510001B103F35055
:105A38000001B427B3C0AFF0B4C0B0F01200120038
:105A4800000ECD6E000ECC6ED00ECF6E200ECE6E38
:105A5800CE50CFCFAFF00001B06BAFC0B0F00001B7
:105A6800AF6B0001AF11426E0001B051436E9E90C2
:105A78009D80ACEC2FF012000001BD6F0001BD51FC
:105A88000001AF6FB06BB16BB26B960E0001B36FD4
:105A9800000E0001B46F69EC11F0AFC0B9F0B0C0EE
:105AA800BAF0B1C0BBF0B2C0BCF012001200AFC077
:105AB800B5F0B0C0B6F00AD0B5C0D9FFB6C0DAFFAD
:105AC800B1C0DFFF0001B54BB62B00D00001B30712
:105AD800D8A0B4070001B329EFE10001B429D8A484
