:04000000ADEF3FF031
:107F5A000001B0EF3FF00F0E936E0F0E8A6E000E07
:107F6A00026E000E016EC150F00B0E09C16ECF0EEB
:107F7A00C116C294C296C298C29AC08EC080C082EC
:107F8A00C084C280C282C2B2FED7C4CF01F0026AE4
:107F9A000150026E016AC3500112025006E1FA0E44
:107FAA00015CD8B002D08A900DD0025004E1FB0ED9
:107FBA00015CD8A00AD0F40E015C010E0258D8B0B8
:107FCA0004D08A808A928A940FD0EF0E015C020E46
:107FDA000258D8A00BD0E80E015C030E0258D8B0A4
:107FEA0005D08A808A828A848A96CCD78A808A82B5
:067FFA008A848A86C7D7C5
:020000040020DA
:08000000FFFFFFFFFFFFFFFF00
:020000040030CA
:0E000000FF071F1FFF8385FF0FC00FE00F409B
:00000001FF
