:0400000066EF00F0B7
:10000800FACF34F0FBCF35F0E9CF36F0EACF37F04E
:10001800E1CF38F0E2CF39F0D9CF3AF0DACF3BF080
:10002800F3CF3CF0F4CF3DF01EEE4CF0F0B6F0A06C
:1000380003D01EEC06F031D0F0B8F0A203D01AECD1
:1000480006F02BD0F2B6F2A003D015EC06F025D0BE
:10005800F2AC23D09DB09EA002D0AAEC05F09DB8CA
:100068009EA80CD001D80AD00500FA6E0101FD51F6
:10007800FD6EFE51FE6EFF6AFA5012009DBA9EAAEE
:100088000CD001D80AD00500FA6E0101FB51FD6EB3
:10009800FC51FE6EFF6AFA5012003DC0F4FF3CC0EE
:1000A800F3FF3BC0DAFF3AC0D9FF39C0E2FF38C0DE
:1000B800E1FF37C0EAFF36C0E9FF35C0FBFF34C0B7
:1000C800FAFF11001DEED6F030EF03F04850010D95
:1000D800460EF324D96E000EF420DA6E000EDF6EA1
:1000E800ABA415D04850010D460EF324D96E000E6E
:1000F800F420DA6EDF8201D80AD00500FA6E010119
:10010800F951FD6EFA51FE6EFF6AFA501200ABA269
:1001180015D04850010D460EF324D96E000EF42078
:10012800DA6EDF8401D80AD00500FA6E0101F751B2
:10013800FD6EF851FE6EFF6AFA5012004850010D2C
:10014800460EF324D96E000EF420DA6EDF50D8B4D0
:100158000CD001D812000500FA6E0101F551FD6EB0
:10016800F651FE6EFF6AFA50120019EC05F0F00E17
:10017800896E45EC04F00001A16FA1C042F0436A0A
:10018800010E4214946F956B433443300A6E42302B
:10019800096E010E0914926F936B42C009F043C0B7
:1001A8000AF00A340A3209320A340A320932010ED4
:1001B8000914906F916B42C009F043C00AF00A34E9
:1001C8000A3209320A340A3209320A340A32093246
:1001D800010E09148E6F8F6B42C009F043C00AF0FC
:1001E800040E0B6E0A340A3209320B2EFBD7010EAD
:1001F80009148C6F8D6B42C009F043C00AF0050EDC
:100208000B6E0A340A3209320B2EFBD7010E091481
:100218008A6F8B6B42C009F043C00AF0060E0B6E62
:100228000A340A3209320B2EFBD7010E0914886FE3
:10023800896B94C084F095C085F0D8909235826F10
:100248009335836F90C009F091C00AF0D8900936B1
:100258000A36D89009360A3609C080F00AC081F0FB
:100268008EC009F08FC00AF0D89009360A36D890A7
:1002780009360A36D89009360A3609C07EF00AC00F
:100288007FF08CC009F08DC00AF0093A0A3AF00EE6
:100298000A1609500F0B0A12F00E091609C07CF055
:1002A8000AC07DF08AC009F08BC00AF0050ED8900C
:1002B80009360A36E82EFBD709C07AF00AC07BF067
:1002C80088C009F089C00AF0060ED89009360A36A7
:1002D800E82EFBD709C078F00AC079F07A51781176
:1002E800096E7B5179110A6E7C5109127D510A12EF
:1002F8007E5109127F510A128051091281510A1246
:100308008251091283510A1284510910E16F8551F3
:100318000A10E26FB80E016E070E026EE10E036E50
:10032800000E046E000E066E010E056EBBEC03F0A7
:1003380012004DEC05F001C09CF002C09DF00001D8
:10034800A905D8A465D0000EA96F64C00DF065C0DA
:100358000EF066C00FF067C010F00D1E0E1E0F1EC7
:10036800101E0D2A000E0E220F2210224450116E6C
:100378004550126E136A146A111E121E131E141EA3
:10038800112A000E1222132214229C511124156ED8
:100398009D511220166E000E1320176E000E1420A9
:1003A800186E0D501524196E0E5016201A6E0F5027
:1003B80017201B6E105018201C6E685119241D6ED2
:1003C80069511A201E6E6A511B201F6E6B511C202A
:1003D800206E000E1D24606F000E1E20616F010E3E
:1003E8001F20626F000E2020636F9CC064F09DC0C8
:1003F80065F0666B676B000E686F000E696F000E24
:100408006A6F000E6B6F000E456E000E446E3DD095
:1004180064C00DF065C00EF066C00FF067C010F044
:100428000D1E0E1E0F1E101E0D2A000E0E220F226C
:10043800102244C011F045C012F0111E121E114ABC
:10044800122A9C5111269D51122211500D24136E0F
:1004580012500E20146E000E0F20156E000E102084
:10046800166E68511324606F69511420616F6A51C8
:100478001520626F6B511620636F605164276151BC
:100488006523625166236351672360C009F061C028
:100498000AF062C00BF063C00CF012002D682E68E1
:1004A8002F6830689DEC01F009C029F00AC02AF0D5
:1004B8000BC02BF00CC02CF0000E316E61D0315007
:1004C800080D040EF326000EF422000EF324D96E54
:1004D800030EF420DA6EDE04D8A451D03150080D92
:1004E800000EF324D96E030EF420DA6EDE50295C78
:1004F800DE502A58DE502B58DE502C58D8A00DD08C
:100508003150080D000EF324D96E030EF420DA6E74
:10051800DE6ADE6ADE6ADD6A32D03150080D000E0E
:10052800F324D96E030EF420DA6E2950DE5E2A50C9
:10053800DE5A2B50DE5A2C50DE5A3150080D000E70
:10054800F324D96E030EF420DA6E2D50DE5C2E50A3
:10055800DE582F50DE583050DE58D8B010D0315009
:10056800080D000EF324D96E030EF420DA6EDECFE8
:100578002DF0DECF2EF0DECF2FF0DECF30F0312A97
:100588004A50315CD8A09BD72DC021F02EC022F054
:100598002FC023F030C024F0120006EC05F0F28ED4
:1005A800F28CF00E926E000E0001776F000E766FDF
:1005B800000E756F000E746F77BF05D07751FCE1A0
:1005C8007605D8B0F9D78968AF0E8CEC04F03F0EE9
:1005D8008CEC04F0210E8CEC04F08D0E8CEC04F005
:1005E8000A0E8CEC04F02E0E8CEC04F0300E8CEC21
:1005F80004F0300E8CEC04F0F00E896E290E000128
:10060800FF6F960EFE6F7F0EE82EFED7FE2FFCD7EB
:10061800FF2FFAD789682E0E8CEC04F0300E8CEC84
:1006280004F0300E8CEC04F0B70E8CEC04F08D0E58
:100638008CEC04F00A0E8CEC04F0610E8CEC04F0E7
:10064800610E8CEC04F0610E8CEC04F0F00E896EF7
:100658000001764B772BB0D7560EF66E090EF76E63
:10066800000EF86E03EEA0F020EE30F00900F5CF92
:10067800EEFFDD50D950FAE1C40EF66E0B0EF76EA0
:10068800000EF86E00EEF0F020EE0CF00900F5CF49
:10069800EEFFDD50D950FAE103EED0F02AEE06F075
:1006A800EE6ADD50D950FCE1DA50FAE103EE00F0D1
:1006B800A00EEE6AE806FDE102EE00F0F80EEE6A22
:1006C800E806FDE101EE00F0F50EEE6AE806FDE150
:1006D80000EE60F0830EEE6AE806FDE100EE3EF003
:1006E8000E0EEE6AE806FDE10001D1EF02F09D9AD8
:1006F800D40E0001FC6F000EFD6F01EC06F09D9812
:10070800860E0001FC6F090EFD6FFCEC05F0080E6B
:10071800B86E900EAB6E240EAC6E140EAF6E340E27
:10072800B06E7A0E0001FC6F0C0EFD6F0BEC06F03C
:100738005C0E0001FC6F0C0EFD6F06EC06F0620EFD
:100748000001FC6F0C0EFD6F10EC06F0000E0001AE
:10075800A26F000EA76F000EA66F010EEF6F000EBE
:10076800486E000E476E000EA36F9D8A120001C0EE
:1007780007F002C008F002D0074A082A07C0D9FFCC
:1007880008C0DAFFDF50D8B408D0F6D70506D8A0DD
:100798000606074A082A034A042A05500610D8B450
:1007A8000DD003C0D9FF04C0DAFF07C0E9FF08C0B5
:1007B800EAFFDFCFEFFFEF50D8A4E8D705500610C7
:1007C800D8A4120007C0D9FF08C0DAFF000EDF6EF8
:1007D8001200010E0001A96F52EC02F021C0F8F0DE
:1007E80022C0F9F023C0FAF024C0FBF00001FB514D
:1007F8001DE1FA05D8B01200F8C032F0F9C033F0A4
:10080800321E331E324A332A32C044F033C045F018
:1008180044C009F045C00AF06AEC04F009C068F069
:100828000AC069F000016A6B6B6B12001200000EBF
:100838008D6E000E8C6E000E896E000E8A6E000E94
:100848008B6E070E966E92689368BE0E946EE60ED7
:10085800956EE40E0F013B6F380E3A6F280E396F14
:10086800070E3C6F2F0E386F000E616EF18E628896
:10087800740E0001FC6F0C0EFD6FEDEC05F0F286B6
:100888001200000E016E0001A351D8B4FCD74750E6
:10089800010D460EF324D96E000EF420DA6EDF50F7
:1008A800A26F4750010DA40EF324D96E000EF42058
:1008B800DA6EDF50016E472A4750D8B402D0000ED6
:1008C800476E9D9AA3079D8A015012004DEC05F0D2
:1008D80001C09AF002C09BF04DEC05F000019A515E
:1008E800011804E19B510218D8B4F6D709C001F0E9
:1008F8000AC002F09CEC05F000019A4B9B2B9AC0B1
:1009080098F09BC099F098C009F099C00AF01200BD
:100918000001FC6F0001EF51D8B4FCD79DB803D09B
:10092800FCC0ADFF12D09D98A751010DA50EF32470
:10093800D96E000EF420DA6EFCC0DFFFA72BA7519A
:10094800D8B402D0000EA76FEF079D881200962337
:100958005A1F9AE1603681C4E4B554C3CAB5CB1EA8
:10096800885D5DF112D508CCB9D1D44B1EDF0000EB
:1009780000000000000000000000000000870001E7
:10098800EF51D8A412D0A651010DA50EF324D96EAB
:10099800000EF420DA6EDF50AD6EA62BA651D8B447
:1009A80002D0000EA66FEF2B12009D981200000EC9
:1009B800CC6E000ECF6E000ECE6ECECFE7F0CFCF4E
:1009C800E8F09E909D80720E0001FC6F0C0EFD6F8A
:1009D800E8EC05F08D0ECD6E1200F090F18A780EDD
:1009E8000001FC6F0C0EFD6FF7EC05F0F086F0923D
:1009F800F188760E0001FC6F0C0EFD6FF2EC05F02D
:100A0800F088120034EC06F01BEC04F0DBEC05F087
:100A1800D4EC05F08DEC05F0F1EC04F0DBEC04F01F
:100A28007BEC03F02CEC05F012004850010DA40EED
:100A3800F324D96E000EF420DA6EAECFDFFF482A19
:100A48004850D8B402D0000E486E0001A32B120003
:100A5800B4EC05F0CCEC05F0C4EC05F0BCEC05F00A
:100A680038EC06F037EC06F036EC06F022EC06F02F
:100A780012000001E551E611D8B4120001D81200A5
:100A88000500FA6EE551FD6EE651FE6EFF6AFA50FA
:100A98001200CD82CECF08F0CFCF07F00750036EFB
:100AA8000850056E03C006F005C001F006C002F04C
:100AB80012000001E951EA11D8B4120001D812005D
:100AC8000500FA6EE951FD6EEA51FE6EFF6AFA50B2
:100AD80012000001EB51EC11D8B4120001D8120039
:100AE8000500FA6EEB51FD6EEC51FE6EFF6AFA508E
:100AF80012000001ED51EE11D8B4120001D8120015
:100B08000500FA6EED51FD6EEE51FE6EFF6AFA5069
:100B18001200000E0F014D6F100E506F000E4F6F38
:100B28004FCFE3F050CFE4F07E92BD0E4E6F12002F
:100B3800CDA407D0CD900250CF6E01C0CEFFCD809E
:100B480012000250CF6E01C0CEFF12009E90E7C087
:100B580001F0E8C002F09CEC05F03DEC05F0120055
:100B6800DA0E0001FC6F070EFD6FE8EC05F01200CD
:100B78004A0E0001FC6F0C0EFD6FEDEC05F0120043
:100B8800500E0001FC6F0C0EFD6FF2EC05F0120028
:100B9800560E0001FC6F0C0EFD6FF7EC05F012000D
:100BA800400E6D6E200E6C6E000E6E6E1200700E92
:100BB800D36E040ED26E000E9B6E12000100000070
:100BC800475EEF3DFFFFFFFFFCC0E5F0FDC0E6F02C
:100BD8001200FCC0E9F0FDC0EAF01200FCC0EBF026
:100BE800FDC0ECF01200FCC0EDF0FDC0EEF012000C
:100BF800FCC0FDF1FDC0FEF11200FCC0FBF1FDC020
:100C0800FCF11200FCC0F7F1FDC0F8F11200FCC0C5
:100C1800F9F1FDC0FAF11200FCC0F5F1FDC0F6F1E2
:100C2800120062B85DEC05F0F2901200F0926DECE3
:100C380005F01200F0907DEC05F01200000E4A6EEF
:100C480012000001AA8512000001AA831200000107
:100C5800AA811200AB98AB88120019EC05F01200BB
:100C6800D09E120012001200120012001200120090
:040C78001200120054
:10FE660000637C777BF26B6FC53001672BFED7ABE7
:10FE760076CA82C97DFA5947F0ADD4A2AF9CA47266
:10FE8600C0B7FD9326363FF7CC34A5E5F171D831DE
:10FE96001504C723C31896059A071280E2EB27B20A
:10FEA6007509832C1A1B6E5AA0523BD6B329E32F31
:10FEB6008453D100ED20FCB15B6ACBBE394A4C5865
:10FEC600CFD0EFAAFB434D338545F9027F503C9FC7
:10FED600A851A3408F929D38F5BCB6DA2110FFF3E6
:10FEE600D2CD0C13EC5F974417C4A77E3D645D1911
:10FEF6007360814FDC222A908846EEB814DE5E0BD2
:10FF0600DBE0323A0A4906245CC2D3AC629195E43E
:10FF160079E7C8376D8DD54EA96C56F4EA657AAE89
:10FF260008BA78252E1CA6B4C6E8DD741F4BBD8B17
:10FF36008A703EB5664803F60E613557B986C11D0F
:10FF46009EE1F8981169D98E949B1E87E9CE5528B3
:10FF5600DF8CA1890DBFE6426841992D0FB054BBD5
:10FF6600160101010101010100DFCEC6C2BEBCF1CE
:10FF7600FE33333373F2F2F238080A0E1A31583C64
:10FF860008070707070707080C0B0A0908070701F0
:10FF96000201020302010A070401FEFB140E0B080C
:10FFA6000502D8B9D11901502E010000000001FF49
:10FFB60018C7D41901502E010000000001FF58D4C3
:10FFC600D71901502E010000000001FFA027BE3303
:10FFD60001502E010000000001FFE034C133015042
:10FFE6002E010000000001FF2042C43301502E0103
:0AFFF6000000000001FFC194C100EB
:020000040020DA
:08000000FFFFFFFFFFFFFFFF00
:020000040030CA
:0E000000FF281F3CFFBF85FF0FC00FE00F4021
:00000001FF
