:040000003FEF00F0DE
:10000800FACF34F0FBCF35F0E1CF36F0E2CF37F05E
:10001800D9CF38F0DACF39F0F3CF3AF0F4CF3BF05C
:1000280019EEBCF0F0B6F0A003D001EC46F012D007
:10003800F0B8F0A203D0FDEC45F00CD0F2B6F2A077
:1000480003D0F4EC45F006D0F2BC9DA003D09EB0DE
:1000580039EC45F03BC0F4FF3AC0F3FF39C0DAFF92
:1000680038C0D9FF37C0E2FF36C0E1FF35C0FBFF1B
:1000780034C0FAFF110016EEFEF070EF34F00BEC0E
:1000880046F0020103B162EF06F066C1D9FF67C10D
:10009800DAFFDF500001E16FE139E832070BE806CB
:1000A800D8A4D8D002011D51D8A4D4D00101680524
:1000B800000128D0E751DA6FDB6BDA1FDB1FDA4B60
:1000C800DB2B010168510001DC6FDD6BDA51DC27A5
:1000D800DB51DD23DC510101662500017D6FDD5117
:1000E8000101672100017E6F420E7F6F020E806F53
:1000F800BDEC41F0100E0001E76503D0100EE75F7C
:1001080002D0000EE76FE751D8A4D4D7420EC76FCC
:10011800020EC86F66C1C9F067C1CAF00101685113
:10012800FC0F0001CB6F74EC3CF0C7C0EAF0C8C00C
:10013800EBF0C9C0ECF0CAC0EDF066C16BF067C166
:100148006CF068C16DF020EC3EF06BC0E2F06CC062
:10015800E3F06DC0E4F06EC0E5F00001EA51E21989
:100168000AE1EB51E31907E1EC51E41904E1ED511F
:10017800E519D8B411D0020102510F0B050AD8B401
:1001880008D002510F0B030AD8A41200F151D8B4B9
:10019800120023EC42F01200020102510F0B030A75
:1001A800D8A403D0E35196EC43F066C1EEF067C1E2
:1001B800EFF0000120EE07F0EE51D926EF51DA22D8
:1001C800DECF1EF2DECF1FF2DECF20F2DECF21F22D
:1001D80020EE0CF0EE51D926EF51DA22DF500F0B4A
:1001E8001FEC41F0000120EE0BF0EE51D926EF5143
:1001F800DA22DF38070B606F20EE0BF0EE51D926BC
:10020800EF51DA22DF500F0BB2EC44F0EEC0A6F04B
:10021800EFC0A7F0010168514EEC20F0EEC091F05C
:10022800EFC092F04CEC39F0000EE66E1FEC2BF0AC
:10023800000E0201066F000E076F000E086F000E19
:10024800096F000E0A6F000E0B6F000E0C6F000E88
:100258000D6F12000001E139E832070B030AD8B428
:1002680007D0E139E832070B050AD8A45FEF06F09A
:10027800000E0201A76F66C1F1F067C1F2F0020E2D
:100288001219D8A410D2000120EE01F0F151D9269C
:10029800F251DA2202016251DE1809E16351DE18D7
:1002A80006E16451DE1803E16551DE18D8A4FBD1DC
:1002B80004A5F9D1F1C060F0F2C061F0D1EC39F0D9
:1002C8000009D8A408D002010251F00B0909026FF5
:1002D80051EC3AF01200000120EE06F0F151D92657
:1002E800F251DA22DECFDAF0DDCFDBF0DAC06BF0E4
:1002F800DBC06CF06D6B6E6B01016851FC0F000187
:100308006F6F490E706F010E716F010E09EC30F0BE
:10031800EF0E0001606F050E616FB00E626F010E87
:10032800636F000E656F100E646F37EC3DF0FF0EC3
:100338000001606F050E616F66C162F067C163F00E
:10034800FC0E010168250001646F656BFF0E6523D3
:1003580037EC3DF0660E0001B96F020EBA6FB00EB1
:10036800BB6F010EBC6FEF0EBD6F050EBE6F0101B6
:1003780068510C0F0001BF6FF8EC10F0EA0E000195
:10038800606F000E616FB00E626F010E636F000E3A
:10039800656F040E646F37EC3DF066C16BF067C1A2
:1003A8006CF068C16DF020EC3EF06BC0E2F06CC000
:1003B800E3F06DC0E4F06EC0E5F00001E251EA1927
:1003C8000AE1E351EB1907E1E451EC1904E1E551C5
:1003D800ED19D8B408D002010251F00B0909026FD7
:1003E80051EC3AF01200000120EE06F0F151D92646
:1003F800F251DA2202010E51DE5C0F51DE58D8A00C
:1004080050D0000120EE06F0F151D926F251DA223F
:10041800DECFDAF0DDCFDBF022EE0EF0DECFDCF05F
:10042800DDCFDDF0DC1FDD1FDC4BDD2BDA51DC27F7
:10043800DB51DD23DC5102019E5D0001DD5102012B
:100448009F59D8B022D0010169516A11D8B415D08A
:10045800000E0001606F000E616F000E626F050EE6
:10046800636F01D80AD00500FA6E01016951FD6E6B
:100478006A51FE6EFF6AFA50120002010251F00B37
:100488000909026F51EC3AF01200000120EE06F063
:10049800F151D926F251DA22DECF0EF2DDCF0FF27A
:1004A8003AD0000120EE06F0F151D926F251DA22B5
:1004B800DE50DE10D8A40DD002010E290AE10F2962
:1004C800D8A407D0000E0F6F000E0E6F104B112B23
:1004D80022D0010169516A11D8B415D0000E00016B
:1004E800606F000E616F000E626F050E636F01D8BA
:1004F8000AD00500FA6E01016951FD6E6A51FE6E5F
:10050800FF6AFA50120002010251F00B0909026F4A
:1005180051EC3AF0120002010E2929E10F2927E1D6
:10052800102925E11129D8A422D0010169516A11A5
:10053800D8B415D0000E0001606F000E616F000E78
:10054800626F050E636F01D80AD00500FA6E0101CB
:100558006951FD6E6A51FE6EFF6AFA50120002017F
:100568000251F00B0909026F51EC3AF01200020136
:1005780002510F0B080AD8A408D0E45196EC43F0B6
:100588000201E55196EC43F009D0020102510F0B2C
:10059800030AD8A403D0E55196EC43F0080E0101F4
:1005A8006625666F000E6721676F68510001DA6F74
:1005B800DB6B20EE05F0F151D926F251DA22DF503B
:1005C8000F0BDC6FDD6B0C0EDC27000EDD23DA5120
:1005D800DC1904E1DB51DD19D8B437D066C1D9FF85
:1005E80067C1DAFFDF50DF6F0101664B672B685187
:1005F800F40F0001F06F190EE66F66C191F067C144
:1006080092F0F005936F010E946F0EC295F00FC231
:1006180096F010C297F011C298F0760E996F020EFC
:100628009A6FE6C09BF0EF0E9C6F050E9D6F010E52
:100638009E6F45EC21F0FF0E010166250001E86F71
:10064800FF0E01016721000105D0000EF06F000EBA
:10065800E86F000EE96F020103830291029302958D
:100668000297010169516A11D8B415D0E8C060F049
:10067800E9C061F0F0C062F0010E0001636F01D8BB
:100688000AD00500FA6E01016951FD6E6A51FE6ECD
:10069800FF6AFA50120002010251F00B0909026FB9
:1006A80051EC3AF01200000120EE01F0F151D92688
:1006B800F251DA2202011E51DE180AE11F51DE183A
:1006C80007E12051DE1804E12151DE18D8B40ED01C
:1006D80012EC3AF0020E02011219D8A412000251CB
:1006E800F00B0909026F51EC3AF01200000120EEFC
:1006F80006F0F151D926F251DA22DECFDAF0DDCF59
:10070800DBF0DAC06BF0DBC06CF06D6B6E6B010177
:100718006851FC0F00016F6F490E706F000E716F0A
:10072800010E09EC30F0EF0E0001606F050E616FED
:10073800B00E626F010E636F000E656F100E646F6E
:1007480037EC3DF0FF0E0001606F050E616F66C16A
:1007580062F067C163F0FC0E010168250001646F57
:10076800656BFF0E652337EC3DF0220E0001B96F73
:10077800020EBA6FB00EBB6F010EBC6FEF0EBD6FED
:10078800050EBE6F010168510C0F0001BF6FF8EC38
:1007980010F0EA0E0001606F000E616FB00E626F1C
:1007A800010E636F000E656F040E646F37EC3DF049
:1007B80066C16BF067C16CF068C16DF020EC3EF06B
:1007C8006BC0E2F06CC0E3F06DC0E4F06EC0E5F021
:1007D8000001E251EA190AE1E351EB1907E1E4519A
:1007E800EC1904E1E551ED19D8B40ED012EC3AF049
:1007F800020E02011219D8A412000251F00B0909C5
:10080800026F51EC3AF01200000120EE06F0F151AF
:10081800D926F251DA2202010A51DE5C0B51DE5868
:10082800D8A05DD0000120EE06F0F151D926F25192
:10083800DA22DECFDAF0DDCFDBF022EE0AF0DECF0F
:10084800DCF0DDCFDDF0DC1FDD1FDC4BDD2BDA510A
:10085800DC27DB51DD23DC5102019C5D0001DD5109
:1008680002019D59D8B02FD00091029102930295B0
:100878000297010169516A11D8B417D00201009B8F
:10088800000E0001606F000E616F000E626F000EB7
:10089800636F01D80AD00500FA6E01016951FD6E37
:1008A8006A51FE6EFF6AFA50120002010393048334
:1008B800020E1219D8A412000251F00B0909026F96
:1008C80051EC3AF01200000120EE06F0F151D92661
:1008D800F251DA22DECF0AF2DDCF0BF22ED0000180
:1008E80020EE06F0F151D926F251DA22DE50DE1060
:1008F800D8A415D002010A2912E10B29D8A40FD0D7
:10090800000120EE06F0F151D926F251DA22DECFAD
:100918000AF2DDCF0BF202010C4B0D2B0ED012ECBC
:100928003AF0020E02011219D8A412000251F00B7B
:100938000909026F51EC3AF0120002010A2913E189
:100948000B2911E10C290FE10D29D8A40CD004833F
:10095800020E1219D8A412000251F00B0909026FF5
:1009680051EC3AF01200020102510F0B030AD8A40D
:1009780003D0E55196EC43F0010E0201D86FF1C0A7
:1009880060F0F2C061F096EC3DF0000120EE05F059
:10099800F151D926F251DA22DF500F0B0009D8B4F1
:1009A80016D0080EF125B06F000EF221B16F20EEBF
:1009B80005F0F151D926F251DA22DF500F0BB26F50
:1009C800A7EC17F0B0C066F1B1C067F107D0080E08
:1009D80001016625666F000E6721676F0101685186
:1009E8000001DA6FDB6B20EE05F0F151D926F251E8
:1009F800DA22DF500F0BDC6FDD6B0C0EDC27000EEC
:100A0800DD23DA51DC1904E1DB51DD19D8B498D0C3
:100A180066C1D9FF67C1DAFFDF50DF6F0101664B9E
:100A2800672B000120EE05F0F151D926F251DA22A8
:100A3800DF500F0B000801016825F40F0001F06F6B
:100A480020EE05F0F151D926F251DA22DF500F0BD2
:100A5800190FE66FDF51D8B428D066C191F067C18D
:100A680092F0F005936F010E946F0AC295F00BC2D5
:100A780096F00CC297F00DC298F0320E996F020EE4
:100A88009A6FE6C09BF0EF0E9C6F050E9D6F000EEF
:100A98009E6F45EC21F0FF0E010166250001E86F0D
:100AA800FF0E01016721000150D0010168510001CA
:100AB800DA6FDB6B20EE05F0F151D926F251DA221C
:100AC800DF500F0BDC6FDD6B0D0EDC27000EDD2316
:100AD800DA51DC5DDD51800ADE6FDB51800ADE59B8
:100AE800D8B02BD066C191F067C192F0F005936F32
:100AF800010E946F0AC295F00BC296F00CC297F0E3
:100B08000DC298F0220E996F020E9A6FE6C09BF004
:100B1800EF0E9C6F050E9D6F000E9E6F45EC21F049
:100B280066C1B0F067C1B1F00001F005B26FA7EC83
:100B380017F0B0C066F1B1C067F1000E000101D036
:100B4800000EF06F000EE86F000EE96F010E020153
:100B5800D86F000ED16F000ED06F000EEE6F0099A7
:100B6800038300A155D0000120EE05F0F151D926EC
:100B7800F251DA22DFAA49D00201009102910293D0
:100B880002950297010169516A11D8B417D0020180
:100B9800009BE8C060F0E9C061F0F0C062F0010EAF
:100BA8000001636F01D80AD00500FA6E010169518E
:100BB800FD6E6A51FE6EFF6AFA501200020103933D
:100BC80002BB00BB6CD000B302D000A768D0010EF6
:100BD8000001AF6FE00EB06F000EB16F0201ED5172
:100BE80055EC2CF00009D8A40DD0000E0001D36FED
:100BF800000ED46F000ED56F000ED66F000EA2EC5B
:100C080033F048D091EC25F04AD0CCEC3AF047D0FC
:100C18000291029302950297010169516A11D8B4B1
:100C280017D00201009BE8C060F0E9C061F0F0C095
:100C380062F0010E0001636F01D80AD00500FA6E58
:100C480001016951FD6E6A51FE6EFF6AFA50120089
:100C5800020102BB00BB23D000B302D000A71FD003
:100C6800010E0001AF6FE00EB06F000EB16F020110
:100C7800ED5155EC2CF00009D8A40FD0000E00015E
:100C8800D36F000ED46F000ED56F000ED66F000E16
:100C9800A2EC33F00201009702D091EC25F0020E8D
:100CA80002011219D8A412000251F00B0909026FAF
:100CB80051EC3AF0120012EC3AF0120001016951BD
:100CC8006A11D8B4120008EC46F00001DA6FDAB7FE
:100CD80014D066C160F067C161F068C162F0030EAC
:100CE800636F01D812000500FA6E01016951FD6EAB
:100CF8006A51FE6EFF6AFA50120066C160F067C161
:100D080061F068C162F0020E0001636F01D8120041
:100D18000500FA6E01016951FD6E6A51FE6EFF6AA7
:100D2800FA501200020103B1A2D3000E0001D16FE4
:100D3800000ED26F000ED36F000ED46F000ED56F69
:100D4800DE69DF69E069E169000E0201F16F0251B5
:100D5800F00B0209026FDAC2E2F000A5BAD017510F
:100D6800010D690EF324F66EFF0EF420F76EF86A93
:100D7800000EF8220800F5CFBDF098510001BD25FE
:100D8800BE6F000EBDBFFF0E020199210001BF6FAB
:100D9800C06BC16B0C0ED890BE37BF37C037C13798
:100DA800E82EF9D7BEC060F0BFC061F0C0C062F0E5
:100DB800C1C063F07D0E646F000E656F000E666F34
:100DC800000E676F8FEC39F060C06DF061C06EF097
:100DD80062C06FF063C070F00201E251DBEC40F0DA
:100DE80002011C51010D690EF324F66EFF0EF4206A
:100DF800F76EF86A000EF8220800F5CFBDF09A5198
:100E08000001BD25BE6F000EBDBFFF0E02019B2174
:100E18000001BF6FC06BC16B0C0ED890BE37BF37D7
:100E2800C037C137E82EF9D7BEC060F0BFC061F047
:100E3800C0C062F0C1C063F07D0E646F000E656FC4
:100E4800000E666F000E676F8FEC39F060C06DF0B2
:100E580061C06EF062C06FF063C070F00201E351D0
:100E6800DBEC40F00201E251D1EC36F00201E35133
:100E7800D1EC36F0DBC29AF0DCC29BF000019C6B2F
:100E88009D6BD60E9E6F0B0E9F6F000EA06F000E0F
:100E9800A16F4DEC3EF0FF0E00019A25D66FFF0EB4
:100EA8009B21D76FFF0E9C21D86FFF0E9D21D96F14
:100EB800D6C09AF0D7C09BF0D8C09CF0D9C09DF09E
:100EC800BBC09EF0BCC09FF0A06BA16B4DEC3EF088
:100ED800D7D002011751010D690EF324F66EFF0EEB
:100EE800F420F76EF86A000EF8220800F5CFBDF07E
:100EF80094510001BD25BE6F000EBDBFFF0E02015B
:100F080095210001BF6FC06BC16B0C0ED890BE3726
:100F1800BF37C037C137E82EF9D7BEC060F0BFC0B1
:100F280061F0C0C062F0C1C063F07D0E646F000E56
:100F3800656F000E666F000E676F8FEC39F060C04A
:100F48006DF061C06EF062C06FF063C070F00201B6
:100F5800E451DBEC40F002011C51010D690EF32451
:100F6800F66EFF0EF420F76EF86A000EF8220800FD
:100F7800F5CFBDF096510001BD25BE6F000EBDBF77
:100F8800FF0E020197210001BF6FC06BC16B0C0EF1
:100F9800D890BE37BF37C037C137E82EF9D7BEC0A3
:100FA80060F0BFC061F0C0C062F0C1C063F07D0EE8
:100FB800646F000E656F000E666F000E676F8FEC32
:100FC80039F060C06DF061C06EF062C06FF063C050
:100FD80070F00201E551DBEC40F00201E451D1EC84
:100FE80036F002011251D8A403D0E551D1EC36F005
:100FF8000001E2510E0D060EF326000EF422000E3B
:10100800F324D96E040EF420DA6EDECFBDF0DDCF06
:10101800BEF0BD51BF6FBE51C06FC16BC26B010E38
:10102800BF259A6F000EC0219B6F000EC1219C6FD7
:10103800000EC2219D6FDBC29EF0DCC29FF0A06B48
:10104800A16B4DEC3EF0FF0E00019A25D66FFF0E06
:101058009B21D76FFF0E9C21D86FFF0E9D21D96F62
:10106800D6C09AF0D7C09BF0D8C09CF0D9C09DF0EC
:10107800BBC09EF0BCC09FF0A06BA16B4DEC3EF0D6
:101088000001E2510E0D080EF326000EF422000EA8
:10109800F324D96E040EF420DA6E9AC0DEFF9BC0EA
:1010A800DEFF9CC0DEFF9DC0DEFF0201E95108ECB7
:1010B80043F00009D8B48AD00201E95196EC43F014
:1010C8000201E95160EC41F091C0DAF092C0DBF026
:1010D80093C0DCF094C0DDF00001DD5108E11F0E83
:1010E800DA5DAC0EDB59DF0EDC59D8A024D0DAC0AB
:1010F800BDF0DBC0BEF0DCC0BFF0DDC0C0F00D0E3F
:1011080005D0D890C033BF33BE33BD33E82EF9D7EE
:10111800BDC09AF0BEC09BF0BFC09CF0C0C09DF09F
:101128007D0E9E6F000E9F6F000EA06F000EA16FC8
:101138004DEC3EF01DD0DAC09AF0DBC09BF0DCC06D
:101148009CF0DDC09DF07D0E00019E6F000E9F6F2C
:10115800000EA06F000EA16F4DEC3EF00D0E06D0F4
:101168000001D8909D339C339B339A33E82EF8D7EF
:101178009AC0C9F09BC0CAF09CC0CBF09DC0CCF00F
:10118800C9C0BDF0CAC0BEF0CBC0BFF0CCC0C0F073
:101198000001BD1FBE1FBF1FC01FBD2B000EBE23F9
:1011A800BF23C0230201C8510001BD25D26F02012F
:1011B800C9510001BE21D36F0201CA510001BF21EC
:1011C800D46F0201CB510001C021D56F000E000180
:1011D800E26F0F0EE26501D0D4D0E2510E0D040E7D
:1011E800F326000EF422000EF324D96E040EF42028
:1011F800DA6EDE04D8A4C3D0E2510E0D080EF32631
:10120800000EF422000EF324D96E040EF420DA6ED8
:10121800DE50DE10DE10DE10D8B4B1D0E25102018B
:10122800DA19D8B46DD00001E2510E0D080EF3267C
:10123800000EF422000EF324D96E040EF420DA6EA8
:10124800DE50D25DDE50D359DE50D459DE50D55928
:10125800D8B046D0E2510E0D080EF326000EF42247
:10126800000EF324D96E040EF420DA6EDECFBDF042
:10127800DECFBEF0DECFBFF0DECFC0F0D2C0C1F00F
:10128800D3C0C2F0D4C0C3F0D5C0C4F0C11FC21FC0
:10129800C31FC41FC12B000EC223C323C423BD51C7
:1012A800C125C56FBE51C221C66FBF51C321C76FCB
:1012B800C051C421C86FE2510E0D080EF326000E6E
:1012C800F422000EF324D96E040EF420DA6EC5C0A1
:1012D800DEFFC6C0DEFFC7C0DEFFC8C0DEFF10D01D
:1012E800E2510E0D080EF326000EF422000EF32430
:1012F800D96E040EF420DA6EDE6ADE6ADE6ADD6A12
:101308000001E2510E0D080EF326000EF422000E25
:10131800F324D96E040EF420DA6EDE50DE5DDE5062
:10132800DF59DE50E059DE50E159D8A028D0E2510B
:101338000E0D080EF326000EF422000EF324D96ECB
:10134800040EF420DA6EDE50DE10DE10DE10D8B4A3
:1013580016D0E2510E0D080EF326000EF422000EF0
:10136800F324D96E040EF420DA6EDECFDEF0DECF81
:10137800DFF0DECFE0F0DECFE1F0010ED16FE22B3F
:1013880028D7D105D8A467D0DEC0C8F2DFC0C9F21B
:10139800E0C0CAF2E1C0CBF2E15107E1DE29FF0E5D
:1013A800DF590F0EE059D8A01CD0DEC060F0DFC0B6
:1013B80061F0E0C062F0E1C063F07D0E646F000E82
:1013C800656F000E666F000E676F8FEC39F00C0EBC
:1013D800D89000016037613762376337E82EF8D755
:1013E80022D0DEC0BDF0DFC0BEF0E0C0BFF0E1C07B
:1013F800C0F00C0ED890BD37BE37BF37C037E82EC7
:10140800F9D7BDC060F0BEC061F0BFC062F0C0C017
:1014180063F07D0E646F000E656F000E666F000E40
:10142800676F8FEC39F060C0CDF061C0CEF062C05C
:10143800CFF063C0D0F0CDC06DF0CEC06EF0CFC09D
:101448006FF0D0C070F00201E951DBEC40F002010E
:10145800E951D1EC36F0020E02011219D8A412009B
:101468000251F00B0809026F51EC3AF0120008EC37
:1014780046F00001BD6FBDA914D0000E606F000ECC
:10148800616F000E626F020E636F01D812000500D3
:10149800FA6E01016951FD6E6A51FE6EFF6AFA50DB
:1014A8001200010169516A11D8B41200000E00013E
:1014B800606F000E616F000E626F030E636F01D8DC
:1014C80012000500FA6E01016951FD6E6A51FE6E47
:1014D800FF6AFA50120092C165F0000E0001666FB3
:1014E800000E0DEC2FF07AC16DF07BC16EF07CC15F
:1014F8006FF07DC170F0FBEC30F00101955183EC89
:1015080030F001019205D8A4EDD188C162F0390EFE
:1015180033EC44F09CC1A8F0010E0001A8170101AA
:10152800D8909B350001A96F01019439F00B000197
:10153800A911A811626F1D0E33EC44F0A6C0A8F0E3
:10154800A7C0A9F0A9C0A8F00001A96B030EA817AD
:1015580096C1AAF0010EAA17D890AA37D890AA3730
:1015680001019339F00B0001AA11A811626F1E0E38
:1015780033EC44F0010198519911D8B46FD098C157
:10158800ACF099C1ADF00001AE6BAF6B4ED0ACC002
:101598009AF0ADC09BF0AEC09CF0AFC09DF07D0E40
:1015A80000019E6F000E9F6F000EA06F000EA16FCE
:1015B8004DEC3EF027D0ACC09AF0ADC09BF0AEC069
:1015C8009CF0AFC09DF0FA0E00019E6F000E9F6F59
:1015D800000EA06F000EA16F4DEC3EF013D0ACC012
:1015E8009AF0ADC09BF0AEC09CF0AFC09DF0F40E79
:1015F80000019E6F010E9F6F000EA06F000EA16F7D
:101608004DEC3EF09AC0ACF09BC0ADF09CC0AEF083
:101618009DC0AFF016D0000E0001AC6F000EAD6F8C
:10162800000EAE6F000EAF6F0CD001019451070A87
:10163800D8B4ADD70F0AD8B4BED7010AD8B4CFD71B
:10164800EAD7010193290001A86F05D0D890AF33DC
:10165800AE33AD33AC33A82FF9D709D0000E000153
:10166800AC6F000EAD6F000EAE6F000EAF6FACC06A
:1016780062F0240E33EC44F0A6C062F01F0E33EC87
:1016880044F0260E82EC43F00001B06F0C0E01010D
:101698009319D8A408D0070E9419D8B40CD0080E02
:1016A8009419D8B408D00B0E9319D8A407D0070EF4
:1016B8009419D8A403D00001B08702D00001B097D4
:1016C800B085B0C062F0260E33EC44F0310E82ECE7
:1016D80043F00001B06FF80EB017030EB013B0C09E
:1016E80062F0310E33EC44F00A0E0001626F370EDF
:1016F80033EC44F0120E0101AB19D8A42FD0070E19
:101708009419D8B404D0080E9419D8A417D0310E5F
:1017180082EC43F00001B06FB09FB0C062F0310EB0
:1017280033EC44F0400E0001626F2F0E33EC44F0AE
:10173800000E0001626F300E33EC44F0090E010117
:101748009419D8A40BD0310E82EC43F00001B06F8D
:10175800B08FB0C062F0310E33EC44F0330E82EC3F
:1017680043F00001B06FB09DB0819AC1A8F0010E9E
:10177800A817060EA96FD890A837A92FFCD7A8518B
:10178800B013B0C062F0330E33EC44F09AC1A8F045
:10179800010E0001A817D890A837D890A835FF0ADD
:1017A8001D0BB06FB0C062F03B0E33EC44F001018A
:1017B80087510001626F200E33EC44F086C162F05D
:1017C800210E33EC44F0000E0001626F0D0E33EC75
:1017D80044F0000E0001626F0E0E33EC44F0000E70
:1017E8000001626F0F0E33EC44F0120E0101AB19C9
:1017F800D8A471D0090E9419D8A420D0800E7A5D8F
:10180800130E7B59610E7C59330E7D59D8A016D022
:101818007A05F70E7B59CB0E7C593C0E7D59D8B012
:101828000DD0020E0001626F360E33EC44F0640EE8
:101838000001626F3A0E33EC44F02CD0090E01011E
:101848009419D8A421D0800E7A5D1A0E7B59700E97
:101858007C59180E7D59D8A017D0410E7A5DDD0E3F
:101868007B594A0E7C591F0E7D59D8B00DD0020EF7
:101878000001626F360E33EC44F07F0E0001626F98
:101888003A0E33EC44F006D0030E0001626F360EB8
:1018980033EC44F0090E01019419D8A410D09A052C
:1018A800D8A40DD0650E0001626F3A0E33EC44F0F7
:1018B800190E0001626F3B0E33EC44F00CD0650E3C
:1018C8000001626F3A0E33EC44F01D0E0001626FA6
:1018D8003B0E33EC44F0FF0E0001626F120E33EC46
:1018E80044F012007EC16DF07FC16EF080C16FF0D0
:1018F80081C170F071EC3BF082C16DF083C16EF074
:1019080084C16FF085C170F0A6EC3BF001018751EE
:101918000001626F250E33EC44F086C162F0260E9A
:1019280033EC44F00A0E82EC43F00001B06F9F0ED6
:10193800B0170101AD39E846E00B0001B013B0C0A3
:1019480062F00A0E33EC44F0C80E0001B06F0101DA
:101958009651D8B402D00001B089B0C062F0300E00
:1019680033EC44F0000E0001AB6F10D0AB51010D09
:10197800890EF324D96E010EF420DA6EDF50626FFF
:10198800AB51280F33EC44F00001AB2B010191510E
:101998000001AB5DD8A0EAD701019151D8B408D0B5
:1019A800910510090001626F270E33EC44F006D050
:1019B800000E0001626F270E33EC44F0FF0E0001A9
:1019C800626F3E0E33EC44F0FF0E0001626F3F0E73
:1019D80033EC44F01200000E00016D6F62C0D9FFB5
:1019E80063C0DAFFDF506E6F000E6D6F18D264515E
:1019F800D8B4F6D16D51020DA80EF324D96E020E9B
:101A0800F420DA6EDE28D8B4EBD162C0D9FF63C007
:101A1800DAFFDF50656F666B651F661F654B662BC7
:101A2800FE0E676FFF0E686F6D51020DA80EF3244E
:101A3800D96E020EF420DA6EDF50696F6A6B675157
:101A4800692768516A23810E6925F66EFF0E6A219F
:101A5800F76EF86A000EF8220800F5506EC06BF0B9
:101A68006C6B6B27000E6C2365516B2766516C23DA
:101A78006CBFB6D16C5105E1100E6B5DD8B0D5D1F5
:101A8800AFD1D3D16E51010DF3506025D96EF4500A
:101A98006121DA6E030EDF6E6E2B6E51010DF3506D
:101AA8006025D96EF4506121DA6E000EDF6E6D513B
:101AB800020D000E656F020E666FA80E6527000EF8
:101AC8006623F3506527F4506623010E6525D96E09
:101AD800000E6621DA6E0201DFA00BD000016E5104
:101AE800010DF3506025D96EF4506121DA6E000EB5
:101AF800DB8000016D51020D000E656F020E666FEE
:101B0800A80E6527000E6623F3506527F450662358
:101B1800010E6525D96E000E6621DA6E0201DFA27C
:101B28000BD000016E51010DF3506025D96EF450B1
:101B38006121DA6E000EDB8200016D51020D000E8C
:101B4800656F020E666FA80E6527000E6623F350B8
:101B58006527F4506623010E6525D96E000E6621AF
:101B6800DA6E0201DFA489D000016E51010DF35035
:101B78006025D96EF4506121DA6E000EDB847DD0C9
:101B88006E51010DF3506025D96EF4506121DA6E63
:101B9800050EDF6E6E2B6E51010DF3506025D96E68
:101BA800F4506121DA6E000EDF6E6D51020D000EE9
:101BB800656F020E666FA80E6527000E6623F35048
:101BC8006527F4506623010E6525D96E000E66213F
:101BD800DA6E0201DFA60BD000016E51010DF35041
:101BE8006025D96EF4506121DA6E000EDB800001A9
:101BF8006D51020D000E656F020E666FA80E652707
:101C0800000E6623F3506527F4506623010E652500
:101C1800D96E000E6621DA6E0201DFA80BD0000132
:101C28006E51010DF3506025D96EF4506121DA6EC2
:101C3800000EDB8200016D51020D000E656F020E71
:101C4800666FA80E6527000E6623F3506527F450CB
:101C58006623010E6525D96E000E6621DA6E020133
:101C6800DFAA0BD000016E51010DF3506025D96E2B
:101C7800F4506121DA6E000EDB8400013CD06E5115
:101C8800010DF3506025D96EF4506121DA6E060E0D
:101C9800DF6E6E2B6E51010DF3506025D96EF45036
:101CA8006121DA6EE0C2DFFF6E2B05EC46F0800A98
:101CB800A00FD8A006D005EC46F0800A600FD8A087
:101CC8000CD000016E51010DF3506025D96EF4500F
:101CD8006121DA6E200EDF6E0ED000016E51010D0B
:101CE800F3506025D96EF4506121DA6E05EC46F0A8
:101CF8003F0BDF6EC2D76E2B91D06E51010DF350A2
:101D08006025D96EF4506121DA6E070EDF6E6E2BF6
:101D18006E51010DF3506025D96EF4506121DA6ED1
:101D2800000EDF6E6D51020D000E656F020E666FBC
:101D3800A80E6527000E6623F3506527F450662326
:101D4800010E6525D96E000E6621DA6E0201DFAE3E
:101D58000BD000016E51010DF3506025D96EF4507F
:101D68006121DA6E000EDB8000016D51020D000E5C
:101D7800656F020E666FA80E6527000E6623F35086
:101D88006527F4506623010E6525D96E000E66217D
:101D9800DA6E0201DFAC71D700016E51010DF3500C
:101DA8006025D96EF4506121DA6E000EDB8265D7AA
:101DB8000201DD69000EDE6F00016D51020DA80EF3
:101DC800F324D96E020EF420DA6E6E51010DF35031
:101DD8006025E96EF4506121EA6EDFCFEFFF8BD703
:101DE8006D51020DA80EF324D96E020EF420DA6E9E
:101DF800DF50020AD8B4DCD7010AD8B443D6070AA0
:101E0800D8B4DBD7010AD8B4BBD6030AD8B437D7BD
:101E1800010AD8B472D70F0AD8B4CFD76D2B0201F4
:101E2800A75100016D5DD8A0E2D562C0D9FF63C09B
:101E3800DAFF6EC0DFFF12000001CE6F100E000146
:101E4800D26F000ED16FCF0E606F000E616F000E63
:101E5800636F000E626F000E656F010E646F6BECAE
:101E680042F0E00E0001606F040E616F000E636FB8
:101E7800000E626F010E656F0F0E646F6BEC42F01F
:101E8800B00E0001606F010E616F000E636F000EEF
:101E9800626F000E656F100E646F6BEC42F000010C
:101EA800CE05D8A407D0CF511F0B8009CF6F0201F0
:101EB800008105D00001CF511F0B4009CF6FFC0EE8
:101EC8000001CF17CF95CF97CF99D251010DE00ED2
:101ED800F324D96E040EF420DA6ECFC0DFFFD22BC4
:101EE800D251010DE00EF324606F040EF420616FEF
:101EF8001E0E626F020E636F000E656F040E646F34
:101F080037EC3DF00001D251040FD26F000ED06FB4
:101F1800020102AD47D00001D08F0201DF51EB5D15
:101F2800D8B03FD00001D08D02010089D04BD12B11
:101F3800A2510001CC6FCD6B0201D0510001CC1928
:101F48000CE10201D1510001CD19D8A406D0000E30
:101F58000201EE6F23D0020124D00201A251000138
:101F6800CC6FCD6B0201D0510001CC5D0201D15183
:101F78000001CD59D8B013D00201EE2BEE51A35D6C
:101F8800D8B010D0000EEE6F58EC32F00009D8A48B
:101F980009D0000E0201D16F000ED06F0001D09D54
:101FA800DAD70099020100A304D00001D08B020106
:101FB80000930001D0990201A751D8B405D00001BF
:101FC800CA51CB11D8A406D00001D091D093D09596
:101FD800D09709D00BEC34F00001CC6FD051CC195C
:101FE800F00BCC19D06FD251010DE00EF324D96E4D
:101FF800040EF420DA6ED0C0DFFFD22BD251010DCF
:10200800E00EF324606F040EF420616F060E626F19
:10201800020E636F000E656F020E646F37EC3DF0C1
:102028000001D251020FD26F0201A751D8B411D0CA
:102038000001CA51CB11D8B40CD0E00E606F040E69
:10204800616FD20E626F000E636F010E646FEFEC6A
:102058000CF00001D251010DE00EF324D96E040EEC
:10206800F420DA6EC7C0DFFFD22BCA51CB11D8B427
:1020780035D0D251010DE00EF324606F040EF42028
:10208800616FC8C062F0C9C063F0CAC064F0CBC059
:1020980065F037EC3DF0C8C091F0C9C092F0CAC0F5
:1020A80093F0000E0001946F06C295F007C296F0F7
:1020B80008C297F009C298F0320E996F020E9A6F13
:1020C800D2C09BF0E00E9C6F040E9D6F000E9E6FB9
:1020D80045EC21F00001D251CA2533D00201A751A5
:1020E800D8B430D0EF0E0001606F050E616FD10ECD
:1020F800626F000E636F000E646FEFEC0CF0EF0E72
:102108000001916F050E926FD1C093F0000E946F8D
:1021180006C295F007C296F008C297F009C298F077
:10212800220E996F020E9A6FD2C09BF0E00E9C6F40
:10213800040E9D6F000E9E6F45EC21F00001D251F8
:10214800D125D26F06C26BF007C26CF008C26DF0E1
:1021580009C26EF00001D251F00F6F6F490E706F17
:10216800000E716F000E09EC30F0E00E0001606F98
:10217800040E616FB00E626F010E636F000E656F23
:10218800100E646F37EC3DF0220E0001B96F020E9D
:10219800BA6FB00EBB6F010EBC6FE00EBD6F040EC0
:1021A800BE6FD2C0BFF0F8EC10F00001D251010DA3
:1021B800E00EF324606F040EF420616FB00E626FBE
:1021C800010E636F000E656F040E646F37EC3DF00F
:1021D8000001D251040FD26FF00ED2250201D46F44
:1021E800D56BFF0ED5231200000E0101636F000EA0
:1021F800656F000E646F000E626F000E606F000E58
:10220800616FB9C091F0BAC092F0100E0001936FDF
:10221800010E946F000E956F010E966F79EC2AF0FF
:102228000001BF51C06FC16B0F0EC027000EC12344
:10223800040EC26FC135C133C033C22FFBD7C051A2
:102248000101636F6351D8A404D0010E636F000EBF
:102258000BD0BFC0C0F00F0E0001C017D8A402D029
:10226800010E01D0000E0101626F6205D8A448D0AA
:10227800000E646F6339F00BF00F656F24D0010115
:102288006451010D200EF324D96E010EF420DA6E8C
:102298006451010D100EF324E96E010EF420EA6E6C
:1022A800EF500001C06F01016551010DF3500001AD
:1022B800BD25E96EF450BE21EA6EEF50C019DF6EFD
:1022C8000101642B652B63510001C06FC16BC03BDA
:1022D800C13BF00EC117C0510F0BC113F00EC01750
:1022E800010165510001C26FC36BC051C25DC3518A
:1022F800800AC46FC151800AC459D8B07FD0BFD7F3
:102308000001BF510F0BC06FC16BC01FC11FC04B75
:10231800C12BBF51C26FC36BC051C227C151C32368
:10232800C251BD250101606F0001C351BE210101E9
:10233800616F000E656F0F0E656501D036D0000124
:10234800BF510F0B0101656113D06551010DF350A9
:102358006025D96EF4506121DA6E6551010D300E99
:10236800F324E96E010EF420EA6EDFCFEFFF1BD0F5
:102378000001BF510F0B01016519D8A40AD065519E
:10238800010D300EF324D96E010EF420DA6E800EA2
:1023980009D06551010D300EF324D96E010EF420D9
:1023A800DA6E000EDF6E652BC6D7000E656F0F0E56
:1023B800656501D023D06551010D200EF324D96E37
:1023C800010EF420DA6E6551010D000EF324E96E5A
:1023D800010EF420EA6EEF500001C06F0101655153
:1023E800010D300EF324E96E010EF420EA6EEF5071
:1023F8000001C019DF6E0101652BD9D7500E00010D
:10240800606F010E616F000E636F000E626F000E49
:10241800656F100E646F6BEC42F0000E0101656F82
:1024280056D0000E0101646F0F0E646501D033D0E1
:102438006451010D400EF324D96E010EF420DA6EBA
:1024480065510001C06FC16BC03BC13BF00EC117A5
:10245800C0510F0BC113F00EC017010164510001E8
:10246800C027000EC123C051BD25E96EC151BE2150
:10247800EA6EEF50C26F01016451010D500EF32452
:10248800E96E010EF420EA6EEF500001C219DF6E0A
:102498000101642BC9D7500E0001606F010E616FF6
:1024A800400E626F010E636F000E656F100E646F51
:1024B80037EC3DF0500E00017D6F010E7E6FB9C004
:1024C8007FF0BAC080F0BDEC41F00101652BFF0E32
:1024D8000001C06FFF0EC16F010163510001C26F9F
:1024E800C36BC051C227C151C3230101655100010B
:1024F800C46FC56BC251C45DC551800AC66FC35154
:10250800800AC659D8A08DD7000E0101656F0F0E3D
:10251800656501D023D06551010D400EF324D96EB5
:10252800010EF420DA6E6551010D200EF324E96ED8
:10253800010EF420EA6EEF500001C06F01016551F1
:10254800010D500EF324E96E010EF420EA6EEF50EF
:102558000001C019DF6E0101652BD9D7400E0001BB
:102568007D6F010E7E6FB9C07FF0BAC080F0BDEC00
:1025780041F0BBC060F0BCC061F0400E0001626F6A
:10258800010E636F000E656F100E646F37EC3DF03F
:1025980012000001C669C769C869C969020103B1A7
:1025A80090D102510F0B030AD8A411D01251D8A40C
:1025B80005D00251F00B0409026F1200020E121925
:1025C800D8A41200000EE66E36EC33F0120000A517
:1025D80003D023EC42F0120002A9120000A158D047
:1025E800D951D75DD8A038D00251F00B0609026F37
:1025F800A0510001C26F0201A1510001C36FC46B59
:10260800C56B0C0ED890C237C337C437C537E82E10
:10261800F9D7C2C060F0C3C061F0C4C062F0C5C0E1
:1026280063F07D0E646F000E656F000E666F000E1E
:10263800676F8FEC39F060C06DF061C06EF062C0FA
:102648006FF063C070F00201E851DBEC40F002016A
:10265800E851D1EC36F012004CEC45F0010169511B
:102668006A11D8B41200000E0001606F000E616F8D
:10267800000E626F000E636F01D812000500FA6E3B
:1026880001016951FD6E6A51FE6EFF6AFA5012002F
:102698000201D851D65DD8A0F8D00251F00B060936
:1026A800026F010E3BEC3BF00009D8A431D0F00ECC
:1026B8000001B16F040EB26FD4C2B3F010EC1DF07C
:1026C8000001B151B211D8A407D00201D82B025190
:1026D800F00B0109026F120025EC45F00101695168
:1026E8006A11D8B41200000E0001606F000E616F0D
:1026F800000E626F000E636F01D812000500FA6EBB
:1027080001016951FD6E6A51FE6EFF6AFA501200AE
:10271800000E0001CA6F7CD00001CA510E0D040ED4
:10272800F326000EF422000EF324D96E040EF420D2
:10273800DA6EDE04D8A46AD0CA510E0D080EF3264C
:10274800000EF422000EF324D96E040EF420DA6E83
:10275800DE50DE10DE10DE10D8B458D0CA510E0D8F
:10276800080EF326000EF422000EF324D96E040E90
:10277800F420DA6EDE50C65DDE50C759DE50C85907
:10278800DE50C959D8A042D0CA510E0D050EF32605
:10279800000EF422000EF324D96E040EF420DA6E33
:1027A8000401DF500F0B0001C26FC2510201DF5D4F
:1027B800D8A02CD00001CA510E0D050EF326000E2C
:1027C800F422000EF324D96E040EF420DA6E04010C
:1027D800DF380F0B0001C26F0201DF510001C25D3B
:1027E800D8A014D0CA510E0D080EF326000EF422FC
:1027F800000EF324D96E040EF420DA6EDECFC6F094
:10280800DECFC7F0DECFC8F0DECFC9F00001CA2B9B
:10281800CA510201ED5DD8B07FD7C6C0C2F0C7C0AB
:10282800C3F0C8C0C4F0C9C0C5F00C0ED8900001F0
:10283800C237C337C437C537E82EF8D7000EC225CC
:10284800606F200EC321616F030EC421626F000EFA
:10285800C521636F7D0E646F000E656F000E666F95
:10286800000E676F8FEC39F060C06DF061C06EF0DC
:1028780062C06FF063C070F00201EA51DBEC40F017
:102888000201EA51D1EC36F0120025EC45F00101C5
:1028980069516A11D8B41200000E0001606F000E71
:1028A800616F000E626F010E636F01D812000500A0
:1028B800FA6E01016951FD6E6A51FE6EFF6AFA50A7
:1028C8001200010169516A11D8B41200000E00010A
:1028D800606F000E616F000E626F020E636F01D8A9
:1028E80012000500FA6E01016951FD6E6A51FE6E13
:1028F800FF6AFA5012000A0E0101786F010E466E47
:10290800000E00017C6F0F0E7C6501D016D07C5143
:10291800010DF3506825D96EF4506921DA6EDF5045
:102928006A6F7C51010DF3506625D96EF45067210A
:10293800DA6E6A51DF1A7C2BE6D7000E00017C6F35
:102948000F0E7C6501D022D07C51010DF350662515
:10295800D96EF4506721DA6EDF506A6F6A51010D43
:10296800610EF324F66EFE0EF420F76EF86A000E80
:10297800F8227C51010DF3506625D96EF450672179
:10298800DA6E0800F5CFDFFF7C2BDAD766C060F07F
:1029980067C061F071EC28F001017805D8B427D13F
:1029A800000E00017C6F0F0E7C6501D020D17C5198
:1029B8006A6F6B6B010E6A27000E6B236A516625DE
:1029C800D96E6B516721DA6EDF506C6F7C516625CA
:1029D800D96E000E6721DA6EDF506C197A6F7C5160
:1029E8006A6F6B6B030E6A27000E6B236A516625AC
:1029F800D96E6B516721DA6EDF506C6F7C516D6F49
:102A08006E6B020E6D27000E6E236D516625D96E12
:102A18006E516721DA6EDF506C197B6F7A517B1922
:102A2800786F7C516A6F6B6B010E6A27000E6B23FF
:102A38006A516625D96E6B516721DA6EDF506C6F6B
:102A48007C516D6F6E6B020E6D27000E6E236D51FB
:102A58006625D96E6E516721DA6EDF506C19796F71
:102A68007F0E7A650CD01B0E7AC06AF06B6BD8901B
:102A78006A376B376A19726F6B51736F05D0D890CC
:102A88007A35726F736B733772C07AF07F0E79651F
:102A98000CD01B0E79C06AF06B6BD8906A376B3715
:102AA8006A19746F6B51756F05D0D8907935746F4A
:102AB800756B753774C079F07F0E7B650CD01B0E73
:102AC8007BC06AF06B6BD8906A376B376A19766F80
:102AD8006B51776F05D0D8907B35766F776B7737EA
:102AE80076C07BF07C516625D96E000E6721DA6EC0
:102AF8007C516625E96E000E6721EA6EEF50781961
:102B08007A19DF6E7C516A6F6B6B010E6A27000EB3
:102B18006B236A516625D96E6B516721DA6E7C5139
:102B28006C6F6D6B010E6C27000E6D236C51662562
:102B3800E96E6D516721EA6EEF5078197919DF6EE9
:102B48007C516A6F6B6B020E6A27000E6B236A5109
:102B58006625D96E6B516721DA6E7C516C6F6D6B8F
:102B6800020E6C27000E6D236C516625E96E6D51BF
:102B78006721EA6EEF5078197B19DF6E7C516A6F16
:102B88006B6B030E6A27000E6B236A516625D96E9C
:102B98006B516721DA6E7C516C6F6D6B020E6C277E
:102BA800000E6D236C516625E96E6D516721EA6E42
:102BB800EF506E6F7C516F6F706B010E6F27000EB8
:102BC80070236F516625E96E70516721EA6EEF50E8
:102BD800716F7C516625E96E000E6721EA6EEF5031
:102BE80071196E197819DF6E040E7C27DCD668C05F
:102BF80060F069C061F086EC1AF0000E00017C6F8D
:102C08000F0E7C6501D016D07C51010DF35068255C
:102C1800D96EF4506921DA6EDF506A6F7C51010D6C
:102C2800F3506625D96EF4506721DA6E6A51DF1ABF
:102C38007C2BE6D7010178077851D8B412007DD6ED
:102C48000A0EE126000EE222FF0E506EFF0E516EB4
:102C5800FF0E526EFF0E536EFA0E50C0E3FFFB0ECE
:102C680051C0E3FFFC0E52C0E3FFFD0E53C0E3FF6B
:102C7800FF0EE36AFE0EE36AFE0EE3500E0D040E2D
:102C8800F324D96E040EF420DA6EDE04D8A4ADD095
:102C9800FE0EE3500E0D080EF324D96E040EF42038
:102CA800DA6EDE50DE10DE10DE10D8B49ED0FE0ED6
:102CB800E3500E0D080EF324D96E040EF420DA6EDC
:102CC800DE500201C85DDE50C959DE50CA59DE50D7
:102CD800CB59D8B02FD0FE0EE3500E0D080EF324BA
:102CE800D96E040EF420DA6EDECF50F0DECF51F04C
:102CF800DECF52F0DECF53F0C851505C4C6EC95154
:102D080051584D6ECA5152584E6ECB5153584F6E52
:102D1800FE0EE3500E0D080EF324D96E040EF420B7
:102D2800DA6E4CC0DEFF4DC0DEFF4EC0DEFF4FC086
:102D3800DEFF0DD0FE0EE3500E0D080EF324D96E03
:102D4800040EF420DA6EDE6ADE6ADE6ADD6AFE0EE2
:102D5800E3500E0D080EF324D96E040EF420DA6E3B
:102D6800FA0EE3CF48F0DE50485CFB0EE3CF48F0A4
:102D7800DE504858FC0EE3CF48F0DE504858FD0EB0
:102D8800E3CF48F0DE504858D8A02FD0FE0EE350CD
:102D98000E0D080EF324D96E040EF420DA6EDE5000
:102DA800DE10DE10DE10D8B420D0FE0EE3500E0D7B
:102DB800080EF324D96E040EF420DA6EDECF50F03C
:102DC800DECF51F0DECF52F0DECF53F0FA0E50C016
:102DD800E3FFFB0E51C0E3FFFC0E52C0E3FFFD0E04
:102DE80053C0E3FFFF0EE36AE32AFE0EE32AFE0E5A
:102DF800E3CF48F00F0E48643FD7FF0EE304D8A492
:102E08009DD0E150FA0FD96EE250DA6EFF0EDA2249
:102E1800DECFC8F2DECFC9F2DECFCAF2DECFCBF208
:102E2800FD0EE3500EE1FA0EE328FB0EE3CF48F067
:102E3800FF0E485AFC0EE3CF48F00F0E485AD8A0B0
:102E48002BD0E150FA0FD96EE250DA6EFF0EDA227B
:102E5800DECF60F0DECF61F0DECF62F0DECF63F070
:102E68007D0E0001646F000E656F000E666F000E28
:102E7800676F8FEC39F060C050F061C051F062C0EC
:102E880052F063C053F00C0ED8905036513652367B
:102E98005336E82EF9D72FD0FA0EE3CF50F0FB0EB9
:102EA800E3CF51F0FC0EE3CF52F0FD0EE3CF53F029
:102EB8000C0ED8905036513652365336E82EF9D784
:102EC80050C060F051C061F052C062F053C063F06E
:102ED8007D0E0001646F000E656F000E666F000EB8
:102EE800676F8FEC39F060C050F061C051F062C07C
:102EF80052F063C053F0F60E50C0E3FFF70E51C016
:102F0800E3FFF80E52C0E3FFF90E53C0E3FFE150B0
:102F1800F60FD96EE250DA6EFF0EDA22DECF6DF0D0
:102F2800DECF6EF0DECF6FF0DECF70F00201E95138
:102F3800DBEC40F00201E951D1EC36F0F50EE12668
:102F4800FF0EE2221200000E0001B56FB0C0B6F00D
:102F5800B1C0B7F05AD10201A751020D000E00010D
:102F6800B36F020EB46FA80EB327000EB423F3504C
:102F7800B327F450B423010EB325D96E000EB42143
:102F8800DA6E0201DF90A751020D000E0001B36F47
:102F9800020EB46FA80EB327000EB423F350B32764
:102FA800F450B423010EB325D96E000EB421DA6EA5
:102FB8000201DF92A751020D000E0001B36F020E4D
:102FC800B46FA80EB327000EB423F350B327F45000
:102FD800B423010EB325D96E000EB421DA6E0201B6
:102FE800DF94A751020D000E0001B36F020EB46FFB
:102FF800A80EB327000EB423F350B327F450B4231C
:10300800010EB325D96E000EB421DA6E0201DF96E7
:10301800A751020D000E0001B36F020EB46FA80E87
:10302800B327000EB423F350B327F450B423010E92
:10303800B325D96E000EB421DA6E0201DF98A751CC
:10304800020D000E0001B36F020EB46FA80EB32775
:10305800000EB423F350B327F450B423010EB32564
:10306800D96E000EB421DA6E0201DF9AA751020D63
:10307800000E0001B36F020EB46FA80EB327000E46
:10308800B423F350B327F450B423010EB325D96EFB
:10309800000EB421DA6E0201DF9CA751020D000E6A
:1030A8000001B36F020EB46FA80EB327000EB4234D
:1030B800F350B327F450B423010EB325D96E000E94
:1030C800B421DA6E0201DF9EB6C0D9FFB7C0DAFFBD
:1030D800A751020DA80EF324E96E020EF420EA6E41
:1030E800DFCFEFFF64D0B6C060F0B7C061F00AEC84
:1030F80042F060C0B6F061C0B7F04DD0B6C06FF016
:10310800B7C070F022EC19F06FC0B6F070C0B7F01D
:103118006CD0B6C060F0B7C061F0F9EC3EF060C0AA
:10312800B6F061C0B7F061D0B6C0A6F0B7C0A7F0DE
:1031380044EC1FF0A6C0B6F0A7C0B7F056D0B6C092
:1031480060F0B7C061F0C7EC45F060C0B6F061C090
:10315800B7F04BD0B6C0A6F0B7C0A7F0D8EC1BF0BC
:10316800A6C0B6F0A7C0B7F040D0B6C067F0B7C0E9
:1031780068F05AEC43F067C0B6F068C0B7F035D0D5
:10318800010E0001B56FB251010DF350B025B66FB5
:10319800F450B121B76F0201A751020DA80EF32414
:1031A800D96E020EF420DA6EFF0EDF6E1ED0B6C0A6
:1031B800D9FFB7C0DAFF0001B64BB72BDF50020AC0
:1031C800D8B491D7010AD8B499D7070AD8B4A1D7E7
:1031D800010AD8B4A9D7030AD8B4B1D7010AD8B418
:1031E800B9D70F0AD8B4C1D7CBD70201A751020D5E
:1031F800A80EF324D96E020EF420DA6EDE28D8B4B5
:1032080004D0100EA76101D0A72B0001B251010D07
:10321800B0C0B3F0B1C0B4F0F350B327F450B42346
:10322800B351B65DB451B759D8B003D0B551D8B47D
:1032380092D6B6C0B0F0B7C0B1F012006FC0D9FFD7
:1032480070C0DAFFDF500F0B0001756F6FC0D9FF38
:1032580070C0DAFFDF50716F71390F0B0F0B786F89
:103268006F4B702B6FC0D9FF70C0DAFFDECF73F0E1
:10327800DDCF74F0020E6F256F6F000E7021706F36
:103288006FC076F070C077F06F4B702B020102AD03
:10329800EFD076C0D9FF77C0DAFF0001DF38070B1F
:1032A80013EC44F00009D8A421D073C060F074C0B6
:1032B80061F067EC3DF00009D8A418D00201A751CD
:1032C800020D000E0001716F020E726FA80E7127B9
:1032D800000E7223F3507127F4507223010E7125EA
:1032E800D96E000E7221DA6E0201DF80000178517A
:1032F8000EEC45F00009D8A422D00201EB510001E0
:10330800785DD8A01CD078510201EC5DD8A017D008
:10331800A751020D000E0001716F020E726FA80E08
:103328007127000E7223F3507127F4507223010E97
:103338007125D96E000E7221DA6E0201DF8200015A
:103348007551F3EC42F00009D8A418D00201A75136
:10335800020D000E0001716F020E726FA80E712728
:10336800000E7223F3507127F4507223010E712559
:10337800D96E000E7221DA6E0201DF840201A751B4
:10338800020D000E0001716F020E726FA80E7127F8
:10339800000E7223F3507127F4507223010E712529
:1033A800D96E000E7221DA6E0201DFA4A6D0A751F1
:1033B800020D000E0001716F020E726FA80E7127C8
:1033C800000E7223F3507127F4507223010E7125F9
:1033D800D96E000E7221DA6E0201DFA28ED0A751DB
:1033E800020D000E0001716F020E726FA80E712798
:1033F800000E7223F3507127F4507223010E7125C9
:10340800D96E000E7221DA6E0201DFA076D073C089
:103418006CF074C06DF076C0D9FF77C0DAFF000198
:10342800DF38070B6E6FC0EC44F000017551BDEC3E
:1034380045F00201038900017851C2EC45F076C0DD
:10344800D9FF77C0DAFF0001DF500F0B0009D8A4BD
:1034580002D0000E09D076C0D9FF77C0DAFF00018C
:10346800DF500F0B716F71050201D66F038B45D0CA
:10347800A751020D000E0001716F020E726FA80EA7
:103488007127000E7223F3507127F4507223010E36
:103498007125D96E000E7221DA6E0201DF90A751F4
:1034A800020D000E0001716F020E726FA80E7127D7
:1034B800000E7223F3507127F4507223010E712508
:1034C800D96E000E7221DA6E0201DF92A751020D49
:1034D800000E0001716F020E726FA80E7127000EA8
:1034E8007223F3507127F4507223010E7125D96E9F
:1034F800000E7221DA6E0201DF946FC06FF070C0A7
:1035080070F01200000120EE0DF06051D9266151D3
:10351800DA22DF50626F6251010D610EF324F66EFC
:10352800FE0EF420F76EF86A000EF8220800F5CFB8
:1035380063F060C0D9FF61C0DAFF6351DF1A20EE83
:103548000EF06051D9266151DA22DF50626F625164
:10355800010D610EF324F66EFE0EF420F76EF86A84
:10356800000EF8220800F5CF63F020EE01F060515C
:10357800D9266151DA226351DF1A20EE0FF060512B
:10358800D9266151DA22DF50626F6251010D610E56
:10359800F324F66EFE0EF420F76EF86A000EF82299
:1035A8000800F5CF63F020EE02F06051D926615192
:1035B800DA226351DF1A20EE0CF06051D9266151EE
:1035C800DA22DF50626F6251010D610EF324F66E4C
:1035D800FE0EF420F76EF86A000EF8220800F5CF08
:1035E80063F020EE03F06051D9266151DA2263516D
:1035F800DF1A60C0D9FF61C0DAFF4650DF1A7F0EBC
:1036080046640CD01B0E46C062F0636BD8906237DC
:1036180063376219646F6351656F05D0D89046347B
:10362800646F656B653764C046F060C0D9FF61C0E0
:10363800DAFFDF50626F20EE04F06051D926615145
:10364800DA226251DF1A20EE01F06051D926615169
:10365800DA22DF50626F20EE05F06051D926615101
:10366800DA226251DF1A20EE02F06051D926615148
:10367800DA22DF50626F20EE06F06051D9266151E0
:10368800DA226251DF1A20EE03F06051D926615127
:10369800DA22DF50626F20EE07F06051D9266151BF
:1036A800DA226251DF1A20EE04F06051D926615106
:1036B800DA22DF50626F20EE08F06051D92661519E
:1036C800DA226251DF1A20EE05F06051D9266151E5
:1036D800DA22DF50626F20EE09F06051D92661517D
:1036E800DA226251DF1A20EE06F06051D9266151C4
:1036F800DA22DF50626F20EE0AF06051D92661515C
:10370800DA226251DF1A20EE07F06051D9266151A2
:10371800DA22DF50626F20EE0BF06051D92661513A
:10372800DA226251DF1A20EE08F06051D926615181
:10373800DA22DF50626F20EE0CF06051D926615119
:10374800DA226251DF1A20EE09F06051D926615160
:10375800DA22DF50626F20EE0DF06051D9266151F8
:10376800DA226251DF1A20EE0AF06051D92661513F
:10377800DA22DF50626F20EE0EF06051D9266151D7
:10378800DA226251DF1A20EE0BF06051D92661511E
:10379800DA22DF50626F20EE0FF06051D9266151B6
:1037A800DA226251DF1A1200000E0001AB6F000E20
:1037B800AC6F000EAD6F000EAE6FA6C0D9FFA7C0EC
:1037C800DAFFDF50AF6FA64BA72BA6C0D9FFA7C063
:1037D800DAFFFF0EDE14AB6FFF0EDE14AC6FFF0EC8
:1037E800DE14AD6F000EDE14AE6FABC09AF0ACC045
:1037F8009BF0ADC09CF0AEC09DF0640E9E6F000EB5
:103808009F6F000EA06F000EA16F4DEC3EF09AC0A6
:10381800ABF09BC0ACF09CC0ADF09DC0AEF0030E09
:103828000001A625A66F000EA721A76FA6C0D9FF85
:10383800A7C0DAFFDF50AA6FA64BA72B000E606F58
:10384800AF51BDEC43F00009D8A44BD0ABC060F039
:10385800ACC061F0ADC062F0AEC063F041EC3CF0CA
:103868000009D8B407D00001AB51AC11AD11AE11AD
:10387800D8A418D00201A751020D000E0001A86FAC
:10388800020EA96FA80EA827000EA923F350A82797
:10389800F450A923010EA825D96E000EA921DA6ECD
:1038A8000201DF8E0001AA510DEC40F00009D8A4F6
:1038B80018D00201A751020D000E0001A86F020ED8
:1038C800A96FA80EA827000EA923F350A827F45023
:1038D800A923010EA825D96E000EA921DA6E0201CE
:1038E800DF8C0201A751020D000E0001A86F020E25
:1038F800A96FA80EA827000EA923F350A827F450F3
:10390800A923010EA825D96E000EA921DA6E02019D
:10391800DFAE7DD0A751020D000E0001A86F020E88
:10392800A96FA80EA827000EA923F350A827F450C2
:10393800A923010EA825D96E000EA921DA6E02016D
:10394800DFAC65D0100EDA612ED00001AB51AC119E
:10395800AD11AE11D8B420D0ABC060F0ACC061F0EE
:10396800ADC062F0AEC063F0AF5153EC40F0AAC0F6
:1039780060F00001AF51D2EC29F0010E0001616F37
:103988002E0E606FAF5175EC40F0010E0001606FB4
:10399800AF51BEEC27F039D0000E0001646FAF5173
:1039A800F3EC3DF032D00001AB51AC11AD11AE11CA
:1039B800D8B424D0ABC060F0ACC061F0ADC062F048
:1039C800AEC063F0AF51100F53EC40F0AAC060F0E6
:1039D8000001AF51100FD2EC29F0010E0001616F08
:1039E8002E0E606FAF51100F75EC40F0010E000104
:1039F800606FAF51100FBEEC27F007D0000E00012A
:103A0800646FAF51100FF3EC3DF002010387A6C0BD
:103A1800A6F0A7C0A7F0120001019DA506D0800E50
:103A28000001B26F030EB16F12009DC1B4F0030E16
:103A38000001B417D8B405D0800EB26F040EB16F70
:103A4800120001019251D8A409D0400E0001B365BB
:103A580005D0800EB26F020EB16F12000101A151A4
:103A680096EC43F0000E0001A76F040EA66F6FECF2
:103A78000AF001019205D8A427D0B3C062F0220E43
:103A880033EC44F00A0E82EC43F00001C06FF00EF4
:103A9800C017C087C0C062F00A0E33EC44F0400E75
:103AA8000001626F400E33EC44F0000E0001626FBB
:103AB800410E33EC44F092C165F0010E0001666FCF
:103AC800010E0DEC2FF00CD0000E0001626F400EBD
:103AD80033EC44F0000E0001626F410E33EC44F009
:103AE80001019251D8A405D0B3C062F0000E33ECA6
:103AF80044F01DEC46F0800E9CEC45F0000E0001F1
:103B0800C16F0DD0C151010DF350B125D96EF450DC
:103B1800B221DA6EDF509CEC45F00001C12BB351A5
:103B2800C15DD8A0EFD71BEC46F001019D81E70EDF
:103B38009D1792C165F0000E0001666F030E0DEC33
:103B48002FF0000E0001B86F000EB96F0A0EBA6FA1
:103B5800000EBB6FB8C06DF0B9C06EF0BAC06FF0A0
:103B6800BBC070F00101A151DBEC40F00101A15193
:103B7800D1EC36F00101A451A511A611A711D8B4B2
:103B880061D0A75107E1A429FF0EA5590F0EA65928
:103B9800D8A01DD0A4C160F0A5C161F0A6C162F093
:103BA800A7C163F07D0E0001646F000E656F000E03
:103BB800666F000E676F8FEC39F00C0ED89000011D
:103BC8006037613762376337E82EF8D723D0A4C14E
:103BD800B4F0A5C1B5F0A6C1B6F0A7C1B7F00C0EF8
:103BE800D8900001B437B537B637B737E82EF8D7CD
:103BF800B4C060F0B5C061F0B6C062F0B7C063F0A1
:103C08007D0E646F000E656F000E666F000E676FA5
:103C18008FEC39F060C0BCF061C0BDF062C0BEF08E
:103C280063C0BFF0BCC06DF0BDC06EF0BEC06FF029
:103C3800BFC070F00101A351DBEC40F00101A351BA
:103C4800D1EC36F0000E0001B26F000EB16F120019
:103C580001019DA506D0800E0001B26F030EB16F61
:103C680012009DC1B3F0030E0001B317D8B405D0FC
:103C7800800EB26F040EB16F1200B151B211D8A408
:103C880007D0000EA76F040EA66F6FEC0AF006D0DF
:103C9800B1C0A6F0B2C0A7F06FEC0AF0010192051E
:103CA800D8A413D0010E0001626F220E33EC44F049
:103CB800000E0001626F400E33EC44F0000E00016C
:103CC800626F410E33EC44F016D0AEC162F0120EB2
:103CD80033EC44F0AFC162F0130E33EC44F0000E45
:103CE8000001626F400E33EC44F0000E0001626F79
:103CF800410E33EC44F001019D83E70E9D1700014E
:103D0800B151B211D8A408D092C165F0000E666F07
:103D1800050E0DEC2FF046D001019205D8A409D06C
:103D2800010E0001656F000E666F060E0DEC2FF098
:103D380039D0000E0001656F000E666F050E0DECA0
:103D48002FF00001B151B36FB251B46FB56BB66BC0
:103D58000C0ED890B337B437B537B637E82EF9D745
:103D6800B3C060F0B4C061F0B5C062F0B6C063F033
:103D78007D0E646F000E656F000E666F000E676F34
:103D88008FEC39F060C06DF061C06EF062C06FF00A
:103D980063C070F00101A251DBEC40F00101A251B7
:103DA800D1EC36F00101A451A511A611A711D8B480
:103DB80061D0A75107E1A429FF0EA5590F0EA659F6
:103DC800D8A01DD0A4C160F0A5C161F0A6C162F061
:103DD800A7C163F07D0E0001646F000E656F000ED1
:103DE800666F000E676F8FEC39F00C0ED8900001EB
:103DF8006037613762376337E82EF8D723D0A4C11C
:103E0800B3F0A5C1B4F0A6C1B5F0A7C1B6F00C0EC9
:103E1800D8900001B337B437B537B637E82EF8D79E
:103E2800B3C060F0B4C061F0B5C062F0B6C063F072
:103E38007D0E646F000E656F000E666F000E676F73
:103E48008FEC39F060C0B7F061C0B8F062C0B9F06B
:103E580063C0BAF0B7C06DF0B8C06EF0B9C06FF00B
:103E6800BAC070F00101A351DBEC40F00101A3518D
:103E7800D1EC36F0000E0001B26F000EB16F1200E7
:103E8800000E0001AA6F000EAB6F000EAC6F000EA3
:103E9800AD6FA6C0D9FFA7C0DAFFDF50AE6FA64B43
:103EA800A72BA6C0D9FFA7C0DAFFFF0EDE14AA6FA2
:103EB800FF0EDE14AB6FFF0EDE14AC6F000EDE14C7
:103EC800AD6FAAC09AF0ABC09BF0ACC09CF0ADC07F
:103ED8009DF0640E9E6F000E9F6F000EA06F000E87
:103EE800A16F4DEC3EF09AC0AAF09BC0ABF09CC00D
:103EF800ACF09DC0ADF0030E0001A625A66F000E24
:103F0800A721A76FAAC060F0ABC061F0ACC062F097
:103F1800ADC063F041EC3CF00009D8A418D0020110
:103F2800A751020D000E0001A86F020EA96FA80E7E
:103F3800A827000EA923F350A827F450A923010E9F
:103F4800A825D96E000EA921DA6E0201DF860001CC
:103F5800AE510F0B0EEC45F00009D8A418D00201A1
:103F6800A751020D000E0001A86F020EA96FA80E3E
:103F7800A827000EA923F350A827F450A923010E5F
:103F8800A825D96E000EA921DA6E0201DF8800018A
:103F9800AE39070B02EC45F00009D8A418D002018D
:103FA800A751020D000E0001A86F020EA96FA80EFE
:103FB800A827000EA923F350A827F450A923010E1F
:103FC800A825D96E000EA921DA6E0201DF8A020146
:103FD800A751020D000E0001A86F020EA96FA80ECE
:103FE800A827000EA923F350A827F450A923010EEF
:103FF800A825D96E000EA921DA6E0201DFA845D0E6
:10400800A751020D000E0001A86F020EA96FA80E9D
:10401800A827000EA923F350A827F450A923010EBE
:10402800A825D96E000EA921DA6E0201DFA62DD0CF
:10403800A751020D000E0001A86F020EA96FA80E6D
:10404800A827000EA923F350A827F450A923010E8E
:10405800A825D96E000EA921DA6E0201DFAA15D0B3
:104068000001AE39070B0201EF6FAAC060F0ABC0C8
:1040780061F0ACC062F0ADC063F00001AE510F0B4F
:10408800646F1AEC45F00201038FA6C0A6F0A7C022
:10409800A7F012000001A86F210E0001A819D8A4EA
:1040A8001200030EAD6F000EAE6F040EAE6501D0A8
:1040B800E5D0000EA96F000EAA6F000EAB6F000EC0
:1040C800AC6FA90E606F000E616FAE51030D0D0E3F
:1040D800F326000EF422F350A625626FF450A721B0
:1040E800636F000E656F030E646F37EC3DF0A9C077
:1040F8009AF0AAC09BF0ABC09CF0ACC09DF0640ED7
:1041080000019E6F000E9F6F000EA06F000EA16F42
:104118004DEC3EF09AC0A9F09BC0AAF09CC0ABF051
:104128009DC0ACF00001A951AA11AB11AC11D8B4D3
:104138009BD0A9C060F0AAC061F0ABC062F0ACC06F
:1041480063F041EC3CF00009D8A495D00001AE51D1
:10415800AD25606F616B6137000E636F0E0E626F85
:104168006EEC43F0000E00016025D96E040E61214B
:10417800DA6EA9C0DEFFAAC0DEFFABC0DEFFACC0AE
:10418800DEFFAE51AD25606F616B6137000E636F66
:104198000E0E626F6EEC43F0050E00016027000EF4
:1041A8006123000E6025D96E040E6121DA6E0401C8
:1041B800DF500F0B5009DF6E0001AE51AD25606F67
:1041C800616B6137000E636F0E0E626F6EEC43F029
:1041D800050E00016027000E6123000E6025D96ED0
:1041E800040E6121DA6E0401DF90DF92DF94DF961E
:1041F8000001AE51AD25606F616B6137000E636FD2
:104208000E0E626F6EEC43F0060E00016027000E82
:104218006123000E6025D96E040E6121DA6EE70E67
:10422800DE6E030EDD6EAE51AD25606F616B6137DA
:10423800000E636F0E0E626F6EEC43F00D0E000100
:104248006027000E6123000E6025D96E040E6121DF
:10425800DA6EFF0EDF6E010E646FAE51AD25F3EC22
:104268003DF00201038707D0000E0001646FAE51D4
:10427800AD25F3EC3DF00001AE2B17D70201038703
:104288001200000E0001A66F000EA76F000EA86FA7
:1042980093C060F0616B000E636F100E626F09ECE3
:1042A80039F000016051A66F010EA76F6DD095C05F
:1042B8006BF096C06CF097C06DF098C06EF0A7C018
:1042C8006FF0010E706F9EC071F0945109EC30F0E0
:1042D800B00E00017D6F010E7E6F99C07FF09AC00D
:1042E80080F0BDEC41F0000E0001A86F0F0EA8652C
:1042F80001D049D09B51010DF3509C25D96EF45043
:104308009D21DA6EF00E9F6FFF0EA06FA751A16F6F
:10431800A26BA13BA23BF00EA217A1510F0BA21357
:10432800F00EA117A851A127000EA2239F51A12783
:10433800A051A22391C0A3F092C0A4F0A151A32739
:10434800A251A423A3C0F6FFA4C0F7FF000EF86E85
:104358000F0EF76403D00800F55005D0F6CFE9FF3B
:10436800F7CFEAFFEF500001A56FA851010DB00E7D
:10437800F324E96E010EF420EA6EEF50A519DF6E02
:104388009B2BA82BB3D7A72BA751A65DD8B08FD747
:1043980093C09FF00F0E9F17D8B4120095C06BF012
:1043A80096C06CF097C06DF098C06EF0A7C06FF023
:1043B800010E706F9EC071F0945109EC30F0B00E90
:1043C80000017D6F010E7E6F99C07FF09AC080F06A
:1043D800BDEC41F0000E0001A86F36D09B51010DD5
:1043E800F3509C25D96EF4509D21DA6EA651100D1C
:1043F800A851F326000EF42291C09FF092C0A0F0BD
:10440800F3509F27F450A0239FC0F6FFA0C0F7FFEA
:10441800000EF86E0F0EF76403D00800F55005D0B3
:10442800F6CFE9FFF7CFEAFFEF500001A16FA851DF
:10443800010DB00EF324E96E010EF420EA6EEF5080
:10444800A119DF6E9B2BA82B93C09FF00F0E9F170F
:104458009F51A85DD8B01200C1D70001B16F020109
:10446800F005D8B44CEC3FF0340E0201F46FF4516F
:10447800EFEC45F0000E0201026F000E036F000E14
:10448800046F000E056FDD69000EDE6F000EC86F49
:10449800000EC96F000ECA6F000ECB6F000ED56FED
:1044A800000ED46F000E0A6F000E0B6F000E0C6F1B
:1044B800000E0D6F000E066F000E076F000E086FDE
:1044C800000E096F000ED36F000ED26F000EDC6F66
:1044D800010EDB6F000ED16F000ED06F000EEE6F75
:1044E800000EEF6F000EC86F000EC96F000ECA6F86
:1044F800000ECB6F0395000E026F000E036F000EC7
:10450800046F000E056F000E016F000E006F070E9E
:10451800D76F000ED66F010ED96F010ED86FE06904
:10452800B1C0A4F2000E126F100EED6F0001B15170
:10453800D8A41BD0FF0E796F050E7A6FA00E7B6F83
:10454800270E7C6FBE0E7D6F330E7E6F18EC23F046
:104558007FEC38F0000E02011C6F080E186FE60E93
:10456800196FD30E1A6F330E1BD0FF0E0001796F2F
:10457800050E7A6F200E7B6FA20E7C6FD30E7D6FB7
:10458800190E7E6F18EC23F0C4EC38F0000E02010F
:104598001C6F280E186F760E196FE80E1A6F190E19
:1045A8001B6F010EE16F000EDF6F8CEC2FF0000E19
:1045B8000201A66F000EA56F1D0E0001606F020EAE
:1045C800616F000E636F000E626F000E656F690EFB
:1045D800646F6BEC42F0030E0201956FE80E946F66
:1045E800070E976FD00E966F130E996F880E986FFF
:1045F800170E9B6F700E9A6F070EA16FD00EA06FEB
:10460800200EA36F400EA26F400E9D6F000E9C6F90
:10461800400E9F6F000E9E6F000E0001A76F000EE8
:10462800A66F23EC29F012007BC07AF17CC07BF1E5
:104638007DC07CF17EC07DF1A80E01017E6F610E08
:104648007F6F000E806F000E816F500E826FC30E59
:10465800836F000E846F000E856F010E926F070E38
:10466800946F010E956F010E9B6F000E9C6F000EEC
:10467800876F080E866F0C0E936F010E966F000EF3
:10468800976F000E9A6FC10E896F940E8A6FC10ED4
:104698008B6F030E916F340E886F000E9D6F000EA6
:1046A8009E6F79C09FF17AC0A0F1000E996F000E3D
:1046B800986F800EAC6F980EA46F3A0EA56F000E1F
:1046C800A66F000EA76F020EAD6F0B0EAE6F120E27
:1046D800AF6F000EA96F000EAA6FA851D8A426D0FC
:1046E800AFEC37F00101A16FAFEC37F00101A26F19
:1046F800AFEC37F00101A36F3E0E0001606F830E2F
:10470800616F000E626F0101A251B9EC40F0D40E46
:104718000001606F7F0E616F000E626F0101A3518F
:10472800B9EC40F0010E0101A86F0BD0A15196EC35
:1047380043F00101A25196EC43F00101A35196EC1C
:1047480043F030EC40F0000E0001656F010E666F1B
:10475800010E0DEC2FF07AC16DF07BC16EF07CC1BB
:104768006FF07DC170F0FBEC30F0420E0001626F1B
:104778003B0E33EC44F03B0E82EC43F000017F6FBC
:104788007FBBF9D7230E626F0C0E33EC44F01E0E7C
:104798000001626F0D0E33EC44F0AA0E0001626F47
:1047A8001F0E33EC44F08F0E0001626F350E33ECB0
:1047B80044F0FF0E0001626F320E33EC44F0400EFD
:1047C8000001626F310E33EC44F0010E0001656F99
:1047D800010E666F000E0DEC2FF0FF0E0001626FE8
:1047E800230E33EC44F0420E82EC43F00101AB6F30
:1047F800120002EC44F060C075F161C076F1470424
:10480800D8A471D0000E476E3CC06CF03DC06DF06E
:104818003EC06EF03FC06FF000016C1F6D1F6E1F31
:104828006F1F6C2B000E6D236E236F234450706F27
:104838004550716F726B736B701F711F721F731FFE
:10484800702B000E7123722373230101755100012F
:104858007025746F0101765100017121756F000E8A
:104868007221766F000E7321776F6C517425786F03
:104878006D517521796F6E5176217A6F6F5177215D
:104888007B6F405078257C6F415079217D6F425075
:104898007A217E6F43507B217F6F000E7C250101BA
:1048A8006D6F000E00017D2101016E6F010E000188
:1048B8007E2101016F6F000E00017F210101706FE1
:1048C80075C13CF076C13DF03E6A3F6A000E406E0D
:1048D800000E416E000E426E000E436E000E456ED5
:1048E800000E446E49D03CC06CF03DC06DF03EC037
:1048F8006EF03FC06FF000016C1F6D1F6E1F6F1FC1
:104908006C2B000E6D236E236F2344C070F045C0DE
:1049180071F0701F711F704B712B010175510001EF
:104928007027010176510001712370516C25726F57
:1049380071516D21736F000E6E21746F000E6F211F
:10494800756F4050722501016D6F41500001732150
:1049580001016E6F42500001742101016F6F4350D5
:10496800000175210101706F6D513C266E513D2289
:104978006F513E2270513F226DC168F06EC169F0DF
:104988006FC16AF070C16BF01200000E0001DA6F9F
:10499800E00E606F040E616F000E636F000E626FB1
:1049A800010E656F0F0E646F6BEC42F00001D89B2F
:1049B800D89DD89FFC0ED817D895D897D899DA5192
:1049C800010DE00EF324D96E040EF420DA6ED8C07F
:1049D800DFFFDA2B000ED96F070ED96501D022D080
:1049E800D951D06FD16BD01FD11FD04BD12B070E0F
:1049F800D027000ED123520ED025D96E020ED12118
:104A0800DA6ED951DAC0D2F0D36BD227000ED32395
:104A1800E00ED225E96E040ED321EA6EDFCFEFFF58
:104A2800D92BDAD7DA51080FDA6F000ED96F070ED3
:104A3800D96501D022D0D951D06FD16BD01FD11FE9
:104A4800D04BD12B070ED027000ED1235A0ED025DC
:104A5800D96E020ED121DA6ED951DAC0D2F0D36BF9
:104A6800D227000ED323E00ED225E96E040ED321FF
:104A7800EA6EDFCFEFFFD92BDAD7DA51080FDA6FFA
:104A8800FF0EAE6FAD69F1EC43F0ADC0D2F2AEC02F
:104A9800D3F20001DA51010DE00EF324606F040E29
:104AA800F420616FD20E626F020E636F000E656FA5
:104AB800020E646F37EC3DF00001DA51020FDA6F35
:104AC800420EC76F020EC86FE00EC96F040ECA6FA0
:104AD800DAC0CBF074EC3CF0C7C0D4F0C8C0D5F055
:104AE800C9C0D6F0CAC0D7F00001DA51010DE00EF6
:104AF800F324606F040EF420616FD40E626F000E11
:104B0800636F000E656F040E646F37EC3DF00001B3
:104B1800DA51040FDA6FDA51120000019E699F69B9
:104B2800A069A169000EA26F7CD00001A2510E0DF0
:104B3800040EF326000EF422000EF324D96E040EA0
:104B4800F420DA6EDE04D8A46AD0A2510E0D080E45
:104B5800F326000EF422000EF324D96E040EF4207E
:104B6800DA6EDE50DE10DE10DE10D8B458D0A25156
:104B78000E0D080EF326000EF422000EF324D96E53
:104B8800040EF420DA6EDE509E5DDE509F59DE5032
:104B9800A059DE50A159D8A042D0A2510E0D050E41
:104BA800F326000EF422000EF324D96E040EF4202E
:104BB800DA6E0401DF500F0B00019A6F9A5102015F
:104BC800DF5DD8A02CD00001A2510E0D050EF326F2
:104BD800000EF422000EF324D96E040EF420DA6ECF
:104BE8000401DF380F0B00019A6F0201DF51000149
:104BF8009A5DD8A014D0A2510E0D080EF326000E0F
:104C0800F422000EF324D96E040EF420DA6EDECFFF
:104C18009EF0DECF9FF0DECFA0F0DECFA1F0000146
:104C2800A22BA2510201ED5DD8B07FD70251F00B43
:104C38000609026F9EC09AF09FC09BF0A0C09CF02E
:104C4800A1C09DF00C0ED89000019A379B379C3775
:104C58009D37E82EF8D79AC060F09BC061F09CC0E1
:104C680062F09DC063F07D0E646F000E656F000EEC
:104C7800666F000E676F8FEC39F060C06DF061C031
:104C88006EF062C06FF063C070F00201E651DBECB9
:104C980040F00201E651D1EC36F01200050EE12693
:104CA800000EE222020103A103A52CD0FF0EE36A45
:104CB8000FD0FF0EE350020DA80EF324D96E020E9A
:104CC800F420DA6E020EDE18D8B409D0FF0EE32AFB
:104CD800FF0EE3CF48F0A751485CD8A0EAD7FF0EF3
:104CE800E350A719D8A40ED0A751020DA80EF3249B
:104CF800D96E020EF420DA6E020EDF6E100EA76176
:104D080001D0A72B03A57BD0CF5107E1CC29FF0EFB
:104D1800CD590F0ECE59D8A024D0CCC260F0CDC248
:104D280061F0CEC262F0CFC263F07D0E0001646F05
:104D3800000E656F000E666F000E676F8FEC39F01E
:104D480060C050F061C051F062C052F063C053F0CF
:104D58000C0ED8905036513652365336E82EF9D7C5
:104D68002BD0CCC250F0CDC251F0CEC252F0CFC23F
:104D780053F00C0ED8905036513652365336E82E32
:104D8800F9D750C060F051C061F052C062F053C012
:104D980063F07D0E0001646F000E656F000E666F94
:104DA800000E676F8FEC39F060C050F061C051F0B1
:104DB80062C052F063C053F0FB0E50C0E3FFFC0E1C
:104DC80051C0E3FFFD0E52C0E3FFFE0E53C0E3FFE8
:104DD800E150FB0FD96EE250DA6EFF0EDA22DECF19
:104DE8006DF0DECF6EF0DECF6FF0DECF70F0020137
:104DF800E751DBEC40F00201E751D1EC36F0FA0E56
:104E0800E126FF0EE222120063EC44F001C075F1C6
:104E180002C076F14704D8A466D0000E476E3CC0A5
:104E28000DF03DC00EF03EC00FF03FC010F00D1E5B
:104E38000E1E0F1E101E0D2A000E0E220F2210220B
:104E48004450116E4550126E136A146A111E121ED8
:104E5800131E141E112A000E1222132214220101FD
:104E680075511124156E76511220166E000E1320FE
:104E7800176E000E1420186E0D501524196E0E5062
:104E880016201A6E0F5017201B6E105018201C6E1B
:104E9800405019241D6E41501A201E6E42501B208E
:104EA8001F6E43501C20206E000E1D246D6F000ED7
:104EB8001E206E6F010E1F206F6F000E2020706F76
:104EC80075C13CF076C13DF03E6A3F6A000E406E07
:104ED800000E416E000E426E000E436E000E456ECF
:104EE800000E446E3ED03CC00DF03DC00EF03EC0FA
:104EF8000FF03FC010F00D1E0E1E0F1E101E0D2AC3
:104F0800000E0E220F22102244C011F045C012F0EC
:104F1800111E121E114A122A0101755111267651CD
:104F2800122211500D24136E12500E20146E000E12
:104F38000F20156E000E1020166E405013246D6F52
:104F4800415014206E6F425015206F6F4350162049
:104F5800706F6D513C266E513D226F513E2270514B
:104F68003F226DC109F06EC10AF06FC10BF070C12C
:104F78000CF012000001626F000162510E0D040E68
:104F8800F326000EF422000EF324D96E040EF4204A
:104F9800DA6E60C0DFFF62510E0D040EF326000EBC
:104FA800F422000EF324D96E040EF420DA6EDF50DA
:104FB800D8A410D062510E0D080EF326000EF4226C
:104FC800000EF324D96E040EF420DA6EDE6ADE6A6F
:104FD800DE6ADD6A000E636F6DD063510E0D050E3B
:104FE800F326000EF422000EF324D96E040EF420EA
:104FF800DA6E0401DF500F0B0001616F0201EB5103
:105008000001615DD8B020D063510E0D040EF32667
:10501800000EF422000EF324D96E040EF420DA6E8A
:10502800DE04D8A411D063510E0D050EF326000E30
:10503800F422000EF324D96E040EF420DA6E040173
:10504800DF500F0B0201EB6F000163510E0D050ECF
:10505800F326000EF422000EF324D96E040EF42079
:10506800DA6E0401DF380F0B0201EC6121D0000178
:1050780063510E0D040EF326000EF422000EF324E5
:10508800D96E040EF420DA6EDE04D8A411D0635170
:105098000E0D050EF326000EF422000EF324D96E31
:1050A800040EF420DA6E0401DF380F0B0201EC6FF6
:1050B8000001632B0201ED510001635DD8A08DD77B
:1050C8000201DF51EC5DD8A0ECC2DFF2EB51DF5DED
:1050D800D8B01200EBC2DFF21200000120EE01F09E
:1050E8006051D9266151DA22DF50626F20EE05F057
:1050F8006051D9266151DA2200EE01F06051E926AB
:105108006151EA22DFCFEFFF20EE09F06051D92686
:105118006151DA2200EE05F06051E9266151EA2278
:10512800DFCFEFFF20EE0DF06051D9266151DA2272
:1051380000EE09F06051E9266151EA22DFCFEFFF66
:1051480020EE0DF06051D9266151DA2262C0DFFFEE
:1051580020EE02F06051D9266151DA22DF50626FE9
:1051680020EE0AF06051D9266151DA2200EE02F0F1
:105178006051E9266151EA22DFCFEFFF20EE0AF005
:105188006051D9266151DA2262C0DFFF20EE0EF0AD
:105198006051D9266151DA22DF50626F20EE06F0A5
:1051A8006051D9266151DA2200EE0EF06051E926ED
:1051B8006151EA22DFCFEFFF20EE06F06051D926D9
:1051C8006151DA2262C0DFFF20EE03F06051D92678
:1051D8006151DA22DF50626F20EE0FF06051D9265C
:1051E8006151DA2200EE03F06051E9266151EA22AA
:1051F800DFCFEFFF20EE0BF06051D9266151DA22A4
:1052080000EE0FF06051E9266151EA22DFCFEFFF8F
:1052180020EE07F06051D9266151DA2200EE0BF03A
:105228006051E9266151EA22DFCFEFFF20EE07F057
:105238006051D9266151DA2262C0DFFF1200A6C090
:105248009AF0A7C09BF000019C6B9D6BE80E9E6FC7
:10525800030E9F6F000EA06F000EA16F4DEC3EF085
:105268009AC0CCF29BC0CDF29CC0CEF29DC0CFF2CA
:105278000001A651A711D8A42BD00201E75196EC42
:1052880043F002010395000E0001B06F1AD0B0512F
:10529800020DA80EF324D96E020EF420DA6E020E67
:1052A800DE18D8A40CD0B051020DA80EF324D96E84
:1052B800020EF420DA6EFF0EDF6E0201A70700016E
:1052C800B02B0201A7510001B05DD8B01200DFD7A2
:1052D8000201038502A91200CF5107E1CC29FF0E74
:1052E800CD590F0ECE59D8A01DD0CCC260F0CDC27A
:1052F80061F0CEC262F0CFC263F07D0E0001646F30
:10530800000E656F000E666F000E676F8FEC39F048
:105318000C0ED89000016037613762376337E82E8A
:10532800F8D723D0CCC2A8F0CDC2A9F0CEC2AAF03B
:10533800CFC2ABF00C0ED8900001A837A937AA3716
:10534800AB37E82EF8D7A8C060F0A9C061F0AAC0B2
:1053580062F0ABC063F07D0E646F000E656F000EE7
:10536800666F000E676F8FEC39F060C0ACF061C0FB
:10537800ADF062C0AEF063C0AFF0ACC06DF0ADC0D0
:105388006EF0AEC06FF0AFC070F00201E751DBEC19
:1053980040F00201E751D1EC36F012000001626FD3
:1053A800070E0201EB6F000EEC6F000162510E0D4B
:1053B800050EF326000EF422000EF324D96E040E17
:1053C800F420DA6E60C0DFFF62510E0D0D0EF32679
:1053D800000EF422000EF324D96E040EF420DA6EC7
:1053E800000EDB82000E636F6DD063510E0D050E4B
:1053F800F326000EF422000EF324D96E040EF420D6
:10540800DA6E0401DF500F0B0001616F0201EB51EE
:105418000001615DD8B020D063510E0D040EF32653
:10542800000EF422000EF324D96E040EF420DA6E76
:10543800DE04D8A411D063510E0D050EF326000E1C
:10544800F422000EF324D96E040EF420DA6E04015F
:10545800DF500F0B0201EB6F000163510E0D050EBB
:10546800F326000EF422000EF324D96E040EF42065
:10547800DA6E0401DF380F0B0201EC6121D0000164
:1054880063510E0D040EF326000EF422000EF324D1
:10549800D96E040EF420DA6EDE04D8A411D063515C
:1054A8000E0D050EF326000EF422000EF324D96E1D
:1054B800040EF420DA6E0401DF380F0B0201EC6FE2
:1054C8000001632B0201ED510001635DD8A08DD767
:1054D8000201DF51EC5DD8A0ECC2DFF2EB51DF5DD9
:1054E800D8B01200EBC2DFF21200000E0001B86F54
:1054F80021EEC0F000EE98F00F0EDBCFEBFFE806D0
:10550800FCE2A80E606F000E616F000E636F000E64
:10551800626F000E656F100E646F6BEC42F0A80EA0
:1055280000017D6F000E7E6F91C07FF092C080F009
:10553800BDEC41F00001A8BF0DD0A80E606F000EB1
:10554800616F93C062F094C063F0100E646FA5ECB5
:105558003CF02AD0A80E0001606F000E616F93C066
:1055680062F094C063F0100E646FA5EC3CF0000E7E
:105578000001B86F0F0EB86501D016D0B851010DF3
:10558800980EF324D96E000EF420DA6EDF50976F70
:10559800B851010DF3509325D96EF4509421DA6E69
:1055A8009751DF1AB82BE6D793C0D9FF94C0DAFF1A
:1055B8000001DFBE0DD093C060F094C061F095C0CB
:1055C80062F096C063F0100E646FA5EC3CF0120018
:1055D80093C060F094C061F095C062F096C063F02B
:1055E800100E0001646FA5EC3CF0000E0001B86FCE
:1055F8000F0EB86501D01200B851010DF350952572
:10560800D96EF4509621DA6EB851010D980EF32434
:10561800E96E000EF420EA6EEF50976FB851010D55
:10562800F3509525E96EF4509621EA6EEF509719DC
:10563800DF6EB82BDDD7E652E652E652E65202019B
:1056480000950289F00E0217D06BD16BEE6B03A5A3
:105658007BD0CF5107E1CC29FF0ECD590F0ECE5983
:10566800D8A024D0CCC260F0CDC261F0CEC262F026
:10567800CFC263F07D0E0001646F000E656F000EEF
:10568800666F000E676F8FEC39F060C050F061C034
:1056980051F062C052F063C053F00C0ED8905036EF
:1056A800513652365336E82EF9D72BD0CCC250F0AB
:1056B800CDC251F0CEC252F0CFC253F00C0ED890EA
:1056C8005036513652365336E82EF9D750C060F06E
:1056D80051C061F052C062F053C063F07D0E00010A
:1056E800646F000E656F000E666F000E676F8FECBB
:1056F80039F060C050F061C051F062C052F063C030
:1057080053F0FC0E50C0E3FFFD0E51C0E3FFFE0E48
:1057180052C0E3FFFF0E53C0E3FFE150FC0FD96E08
:10572800E250DA6EFF0EDA22DECF6DF0DECF6EF0D9
:10573800DECF6FF0DECF70F00201E751DBEC40F016
:105748000201E751D1EC36F001016B516C11D8B46C
:105758000CD001D80AD00500FA6E6B51FD6E6C5161
:10576800FE6EFF6AFA50010E1200FB0EE126FF0ED4
:10577800E22212003F0E82EC43F00001EF6FEFA728
:10578800120092C165F0000E666F000E0DEC2FF04E
:1057980001019D91A35196EC43F001019DB91200BE
:1057A800A15160EC41F00001945108E11F0E915D98
:1057B800AC0E9259DF0E9359D8A021D00101A15106
:1057C80060EC41F00D0E06D00001D890943393336D
:1057D80092339133E82EF8D791C09AF092C09BF09B
:1057E80093C09CF094C09DF07D0E9E6F000E9F6F3D
:1057F800000EA06F000EA16F4DEC3EF021D001010C
:10580800A15160EC41F091C09AF092C09BF093C016
:105818009CF094C09DF07D0E00019E6F000E9F6F5E
:10582800000EA06F000EA16F4DEC3EF00D0E06D0DD
:105838000001D8909D339C339B339A33E82EF8D7D8
:105848009AC0EBF09BC0ECF09CC0EDF09DC0EEF070
:10585800EBC0E3F0ECC0E4F0EDC0E5F0EEC0E6F03C
:105868000001E31FE41FE51FE61FE32B000EE423FE
:10587800E523E623200EE325E76F4E0EE421E86FCB
:10588800000EE521E96F000EE621EA6F0101A15142
:1058980096EC43F0E7C0BBF0E8C0BCF096EC06F02D
:1058A80012000001B86F000E0001B76FB8C0ADF06C
:1058B800AE6BF1EC43F00001AD29B96FB9C0B6F099
:1058C80074D0000EBA6F63D0BA510E0D040EF326D1
:1058D800000EF422000EF324D96E040EF420DA6EC2
:1058E800DE04D8A452D0BA510E0D080EF326000ECD
:1058F800F422000EF324D96E040EF420DA6EDE5082
:10590800DE10DE10DE10D8A440D0BA510E0D050E00
:10591800F326000EF422000EF324D96E040EF420B0
:10592800DA6E0401DF500F0B0001B26FB2510201B1
:10593800DF5DD8A02AD00001BA510E0D050EF3265E
:10594800000EF422000EF324D96E040EF420DA6E51
:105958000401DF380F0B0001B26F0201DF510001B3
:10596800B25DD8A012D0AF51D8A40ED0BA510E0D46
:105978000C0EF326000EF422000EF324D96E040E4A
:10598800F420DA6EDE04D8B4B9070001BA2BB85196
:10599800BA5DD8B003D0B951D8A496D7B651B919C1
:1059A800D8A403D0090EB76F03D0B951D8A489D7AA
:1059B800BA51D8B407D0BA05B0C0D9FFB1C0DAFF20
:1059C800DF6E02D0090EB76FB75112000101A35163
:1059D80096EC43F0080E0001626F120E33EC44F0AF
:1059E80092C165F0000E0001666F000E0DEC2FF0FD
:1059F80001019D919DB91200A15160EC41F0000197
:105A0800945108E11F0E915DAC0E9259DF0E935927
:105A1800D8A021D00101A15160EC41F00D0E06D0B3
:105A28000001D8909433933392339133E82EF8D70A
:105A380091C09AF092C09BF093C09CF094C09DF0E6
:105A48007D0E9E6F000E9F6F000EA06F000EA16F5F
:105A58004DEC3EF021D00101A15160EC41F091C024
:105A68009AF092C09BF093C09CF094C09DF07D0E7C
:105A780000019E6F000E9F6F000EA06F000EA16FB9
:105A88004DEC3EF00D0E06D00001D8909D339C33AE
:105A98009B339A33E82EF8D79AC0EBF09BC0ECF012
:105AA8009CC0EDF09DC0EEF0EBC0E3F0ECC0E4F07C
:105AB800EDC0E5F0EEC0E6F00001E31FE41FE51FCE
:105AC800E61FE32B000EE423E523E623200EE3255F
:105AD800E76F4E0EE421E86F000EE521E96F000E36
