:040000005AEF00F0C3
:100008005B82FACF4FF0FBCF50F0E1CF51F0E2CF57
:1000180052F0D9CF53F0DACF54F0F3CF55F0F4CFF4
:1000280056F0F6CF57F0F7CF58F0F8CF59F0F5CF94
:100038005AF09DB09EA004D0B2EC23F0D8EC23F087
:10004800A0B2A1A203D0F1EC22F016D09DBA9EAACC
:1000580005D0D5EC23F047EC22F00ED09DB89EA831
:1000680003D033EC22F008D0A0BCA1AC03D0E7EC5D
:1000780023F002D0CAEC10F05AC0F5FF59C0F8FFBF
:1000880058C0F7FF57C0F6FF56C0F4FF55C0F3FF3E
:1000980054C0DAFF53C0D9FF52C0E2FF51C0E1FF9C
:1000A80050C0FBFF4FC0FAFF5B92110084EF1DF0B8
:1000B8000001AE6FAA5102E137EF06F0FB5102E1F1
:1000C80037EF06F0FC51E65D01E2A1D054EC1DF0DB
:1000D800C96BCA6B00F011EC1EF0FDEC1FF06DC08F
:1000E80071F06EC072F0BEEC1CF08EEC23F060C0B4
:1000F80071F061C072F0060E736F010E746FF1EC4F
:100108001CF08EEC23F060C071F061C072F0040E38
:10011800736F68EC1FF0EAEC20F063C071F064C004
:1001280072F0BEEC1CF071C0C9F072C0CAF0C951BF
:10013800E4EC13F0C96FCA6BDBEC23F0050F646FB6
:10014800C95120EC1CF0E66B0EEC23F0310E716FF8
:100158007C0E726F736B746BF1EC1CF0340E000143
:10016800716F7E0E726F736B010E746FF1EC1CF081
:10017800720E0001716F7D0E726F736B020E746FD9
:10018800F1EC1CF08EEC23F060C071F061C072F0ED
:10019800030E736F020E746FF1EC1CF00B0E00016E
:1001A800766F020E776FC951E9EC1BF0B8EC23F0BB
:1001B800E26FE25103E1050EE26F05D0DF0EE26562
:1001C80002D0CE0EE2270A0E766F010E776FE2514B
:1001D8003FEC1EF00001646BE25120EC1CF0200E95
:1001E8000101B76F00F02D0E0001616F7D0E626F87
:1001F800B40E636F010E646F0C0E656F89EC17F017
:10020800070E0001E56F080EE46F37EF06F0F951AD
:1002180007E0E62B0F0EE46F010EA86F37EF06F02C
:10022800E66B37EF06F0FFD7AE5103E1A851D8B41B
:1002380012000EEC23F0210E716F7B0E726F736B40
:10024800746BF1EC1CF0870E0001716F7B0E726FFE
:10025800736B010E746FF1EC1CF0830E0001716F6B
:100268007C0E726F736B030E746FF1EC1CF0060E4C
:100278000001E46F060CAE5122E00EEC23F0100EE4
:10028800716F7B0E726F736B746BF1EC1CF0FF0E69
:100298000001716F7A0E726F736B010E746FF1EC5F
:1002A8001CF0830E0001716F7C0E726F736B030E6E
:1002B800746FF1EC1CF00A0E0001E46F0A0CA851EF
:1002C800D8B41200E66B0EEC23F0DC0E716F7B0ED7
:1002D800726F736B746BF1EC1CF0650E0001716F3B
:1002E8007D0E726F736B010E746FF1EC1CF0A90E2A
:1002F8000001716F7A0E726F736B030E746FF1ECFD
:100308001CF054EC1DF0B8EC23F0E26FE25103E16D
:10031800050EE26F05D0DF0EE26502D0CE0EE227B1
:100328000C0E766F010E776FE2513FEC1EF0000164
:10033800646BE25120EC1CF0200E0101B76F000144
:10034800C96BCA6B00F011EC1EF0010E616FF40E60
:10035800606F1FEC22F0FDEC1FF06DC071F06EC0F5
:1003680072F0BEEC1CF0FDEC1FF06DC071F06EC0B9
:1003780072F0040E736F68EC1FF000F000F0EAEC06
:1003880020F063C071F064C072F0BEEC1CF071C064
:10039800C9F072C0CAF0C951E4EC13F0C96FCA6B56
:1003A800DBEC23F0050F646FC95120EC1CF000F062
:1003B800070E0001E46F070CAE510CE02D0E616FC3
:1003C8007D0E626FB40E636F010E646F0C0E656F65
:1003D80089EC17F00001A8510CE0640E616F7E0EE5
:1003E800626FB40E636F010E646F0C0E656F89EC5B
:1003F80017F00001AE5103E1A851D8B412000EEC79
:1004080023F04C0E716F7E0E726F736B746BF1EC90
:100418001CF0400E0001716F7E0E726F736B010E3F
:10042800746FF1EC1CF00C0E0001766F010E776F03
:10043800E2513FEC1EF0720E0001716F7D0E726F7B
:10044800736B020E746FF1EC1CF08EEC23F060C03D
:1004580071F061C072F0030E736F020E746FF1ECED
:100468001CF00B0E0001766F020E776FC951E9EC94
:100478001BF0899C080E0001E46F080CA95101E1EA
:10048800D2D0540E606F010E616FF70E626F7F0E4F
:10049800636F79EC1AF06051611103E1898C080EE1
:1004A800E46F540E606F010E616FAA0E626F7F0ECB
:1004B800636F656B060E646F8AEC1CF06051611106
:1004C8005BE1070EAD6F540EAD25D96EDA6A010EE9
:1004D800DA22DF50F06FAD2B540EAD25D96EDA6AF3
:1004E800010EDA22DF50F16FAD2B200EF1190DE06D
:1004F800540EAD25D96EDA6A010EDA22DF50F26F9A
:10050800AD2B200EF21901E0AD2BAC6B3F0EAC65A4
:1005180001D01CD0540EAD25D96EDA6A010EDA224C
:10052800940EAC25E16EE26A010EE222DFCFE7FF0E
:10053800940EAC25D96EDA6A010EDA22DF5002E099
:10054800AD2B02D0400EAC6FAC2BE0D7898E899CC6
:10055800540E716F7B0E726F736B020E746FF1EC39
:100568001CF0CC0E0001716F7A0E726F736B030E64
:10057800746FF1EC1CF04ED0540E606F010E616F79
:10058800B10E626F7F0E636F656B060E646F8AEC47
:100598001CF0605161110BE1899CBA0E716F7B0EE2
:1005A800726F736B030E746FF1EC1CF033D0540E42
:1005B800606F010E616FA30E626F7F0E636F656BD4
:1005C800060E646F8AEC1CF0605161110AE1960E08
:1005D800716F7A0E726F736B030E746FF1EC1CF00F
:1005E80019D0540E606F010E616F9C0E626F7F0E02
:1005F800636F656B060E646F8AEC1CF060516111C5
:1006080009E1B30E716F7C0E726F736B030E746F1A
:10061800F1EC1CF0FA0E0001AB6F580EE82EFED775
:10062800AB2FFCD700D00001AE5103E1A851D8B4DC
:1006380012000EEC23F0210E716F7B0E726F736B3C
:10064800746BF1EC1CF0870E0001716F7B0E726FFA
:10065800736B010E746FF1EC1CF0830E0001716F67
:100668007C0E726F736B030E746FF1EC1CF0FFD588
:10067800AE5122E00EEC23F0630E716F7C0E726FA8
:10068800736B746BF1EC1CF0530E0001716F7C0EF0
:10069800726F736B010E746FF1EC1CF0830E000126
:1006A800716F7C0E726F736B030E746FF1EC1CF03C
:1006B800010E0001E46F010CA851D8B412000EEC31
:1006C80023F0899E420E716F7C0E726F736B746B90
:1006D800F1EC1CF0CA0E0001716F7E0E726F736B25
:1006E800010E746FF1EC1CF0F00E0001716F726B6B
:1006F800090E736F010E746FF1EC1CF0510E0001BE
:10070800716F7E0E726F736B020E746FF1EC1CF0DA
:10071800940E0001716F010E726F060E736F020E58
:10072800746FF1EC1CF09E0E0001716F010E726F78
:10073800736B030E746FF1EC1CF00B0E0001E46F89
:100748000B0CAE5103E1A851D8B412000EEC23F003
:10075800100E716F7B0E726F736B746BF1EC1CF083
:10076800FF0E0001716F7A0E726F736B010E746F5A
:10077800F1EC1CF0830E0001716F7C0E726F736BCD
:10078800030E746FF1EC1CF096D5AE512EE00EEC12
:1007980023F0200E716F7C0E726F736B746BF1EC2B
:1007A8001CF00001F9510AE0D30E716F7C0E726FD4
:1007B800736B020E746FF1EC1CF009D0E20E716FCE
:1007C8007C0E726F736B020E746FF1EC1CF0730E7B
:1007D8000001716F7C0E726F736B030E746FF1EC16
:1007E8001CF00C0E0001E46F0C0CA851D8B41200D8
:1007F8000EEC23F0630E716F7C0E726F736B746B6B
:10080800F1EC1CF0800E0001716F7F0E726F736B3C
:10081800010E746FF1EC1CF0790E0001716F7F0E00
:10082800726F736B020E746FF1EC1CF0FA0E00011C
:10083800716F7F0E726F0A0E736F020E746FF1EC98
:100848001CF011EC1EF0020EE46F020CAE5101E137
:1008580088D00EEC23F0760E716F7B0E726F736B7F
:10086800746BF1EC1CF0650E0001716F7B0E726FFA
:10087800736B010E746FF1EC1CF0870E0001716F41
:100888007F0E726F736B020E746FF1EC1CF0C20E68
:100898000001716F7F0E726F0C0E736F020E746F12
:1008A800F1EC1CF042D0CB0E716F7D0E726F070E0B
:1008B800736F020E746FF1EC1CF045D0E00E716F8F
:1008C8007F0E726F070E736F020E746FF1EC1CF0DF
:1008D8003AD0EC0E716F7F0E726F070E736F020EB7
:1008E800746FF1EC1CF02FD0E40E716F7F0E726FF5
:1008F800070E736F020E746FF1EC1CF024D0E80E33
:10090800716F7F0E726F070E736F020E746FF1ECCA
:100918001CF019D0EF0E716F7F0E726F070E736F98
:10092800020E746FF1EC1CF00ED00001FD51BBE01B
:10093800010AC4E0030ACDE0010AD6E0070ADFE0B5
:10094800010AE8E0B0D7730E0001716F7C0E726F78
:10095800736B030E746FF1EC1CF00D0E0001E46F65
:100968000D0CA851D8B41200F95105E0F96BE20E4C
:10097800716F7C0E05D0010EF96FD30E716F7C0E6E
:10098800726F736BB5D0AE5103E1A851D8B41200A1
:100998000EEC23F0630E716F7C0E726F736B746BC9
:1009A800F1EC1CF0530E0001716F7C0E726F736BCB
:1009B800010E746FF1EC1CF0830E0001716F7C0E58
:1009C800726F736B030E746FF1EC1CF071D6AE513D
:1009D8007EE00EEC23F0ED0E716F7B0E726F736B81
:1009E800746BF1EC1CF0580E0001716F7E0E726F83
:1009F800736B020E746FF1EC1CF0730E0001716FD3
:100A08007C0E726F736B030E746FF1EC1CF0030EA7
:100A18000001E46F4DD0C70E716F7F0E726F0A0E22
:100A2800736F020E746FF1EC1CF051D0CB0E716F26
:100A38007F0E726F0A0E736F020E746FF1EC1CF06A
:100A480046D0CF0E716F7F0E726F0A0E736F020E53
:100A5800746FF1EC1CF03BD0D30E716F7F0E726F88
:100A68000A0E736F020E746FF1EC1CF030D0D70EC3
:100A7800716F7F0E726F0A0E736F020E746FF1EC56
:100A88001CF025D0DB0E716F7F0E726F0A0E736F2C
:100A9800020E746FF1EC1CF01AD0F30E716F7F0E1A
:100AA800726F0A0E736F020E746FF1EC1CF00FD0A8
:100AB800F751B1E0010ABAE0030AC3E0010ACCE049
:100AC800070AD5E0010ADEE0030AE7E0A4D700013F
:100AD800A851D8B41200050EFD6102D0FD2B2BD011
:100AE800FD6B29D0090EFC6FDB0E716F7F0E20D0D5
:100AF800020E746FF1EF1CF0120EFC6FDF0E716FB7
:100B08007F0E16D01B0EFC6FEB0E716F7F0E10D090
:100B1800360EFC6FE30E716F7F0E0AD06C0EFC6F01
:100B2800E70E716F7F0E04D0FC69EF0E716F7F0EB8
:100B3800726F070E3FD0FD51D5E0010ADDE0030AD0
:100B4800E1E0010AE5E0070AE9E0010AEDE0CAD7B9
:100B5800AE511AE0F75111EC0EF00EEC23F0CB0E6B
:100B6800716F7B0E726F736B746BF1EC1CF0930EEC
:100B78000001716F7C0E726F736B030E746FF1EC72
:100B88001CF00F0E0001E46FA851D8B41200060E35
:100B9800F7610AD0E30506E1030EF76503D0060EF8
:100BA800F76F24D0F72B22D0F76B20D0C70E716FC8
:100BB8007F0E19D0736F9CD7CB0E716F7F0E13D039
:100BC800CF0E716F7F0E0FD0D30E716F7F0E0BD0CB
:100BD800D70E716F7F0E07D0DB0E716F7F0E03D0BB
:100BE800F30E716F7F0E726F0A0EE4D7F751DEE0D5
:100BF800010AE2E0030AE4E0010AE6E0070AE8E0A5
:100C0800010AEAE0030AECE0D1D7A85109E073EC45
:100C180015F0000903E0010EAE6F02D0090EE56F72
:100C2800AE51D8B412000EEC23F0210E716F7B0E7A
:100C3800726F736B746BF1EC1CF0870E0001716FAF
:100C48007B0E726F736B010E746FF1EC1CF0830EE8
:100C58000001716F7C0E726F736B030E746FF1EC91
:100C68001CF03BEF01F0E45102E118EF01F0010A3A
:100C780001E18BD5030A01E186D6010A01E168D7B3
:100C8800050A02E13FEF01F0010A02E1E0EF01F09D
:100C98000F0A02E142EF02F0020A01E1E9D4010A77
:100CA80001E14FD5070A01E1D1D5010A01E18FD64B
:100CB800020AABE017EF01F000017B6F7A6B24D2D8
:100CC800FFD7FC0E616F7E0E626F8EEC21F0010E75
:100CD800ABD0775102E00A0EDA6F7B5101E132D2D4
:100CE800540E606F010E616FB80E626F7F0E636FF6
:100CF800656B040E646F8AEC1CF06051611121E190
:100D0800E36B0EEC23F0430E716F7B0E726F736B07
:100D1800746BF1EC1CF0980E0001716F7B0E726F12
:100D2800736B020E746FF1EC1CF0EE0E0001716F24
:100D38007A0E726F736B030E746FF1EC1CF0020E77
:100D480073D0540E606F010E616FBD0E626F7F0E1F
:100D5800636F656B040E646F8AEC1CF0605161115F
:100D680021E1010EE36F0EEC23F0430E716F7B0E51
:100D7800726F736B746BF1EC1CF0980E0001716F5D
:100D88007B0E726F736B020E746FF1EC1CF0EE0E3B
:100D98000001716F7A0E726F736B030E746FF1EC52
:100DA8001CF0CDD7FC0E616F7E0E626F8EEC21F0C9
:100DB8000001616B190E606F1FEC22F0DA6BC2D173
:100DC800765118E0BB0E716F7A0E726F736B030E5B
:100DD800746FF1EC1CF0010E0001616FF40E606F8E
:100DE8001FEC22F0E70E616F7D0E626F8EEC21F032
:100DF800030E1AD0775101E1A5D1DD0E716F7A0E7D
:100E0800726F736B030E746FF1EC1CF0010E00012E
:100E1800616FF40E606F1FEC22F03B0E616F7D0E68
:100E2800626F8EEC21F0050E000135D07B5101E197
:100E380089D1540E606F010E616FF70E626F7F0EDD
:100E4800636F79EC1AF06051611102E1040E23D04E
:100E5800540E606F010E616F570E626F7D0E636FE7
:100E680079EC1AF06051611118E10EEC23F0B40E20
:100E7800716F7E0E726F736B746BF1EC1CF0190E50
:100E88000001716F7F0E726F736B010E746FF1EC5E
:100E98001CF0090EC9D7DA6F55D1E70E616F7D0EC8
:100EA800626F8EEC21F0A4D77B5101E14BD1540E37
:100EB800606F010E616F220E626F7F0E636F79ECB7
:100EC8001AF06051611116E10EEC23F0D40E716F27
:100ED8007E0E726F736B746BF1EC1CF09E0E00014A
:100EE800716F7E0E726F736B010E746FF1EC1CF0F4
:100EF800070E9AD7F20E616F7E0E626F8EEC21F0AC
:100F0800E6D67B5101E11ED1540E606F010E616F70
:100F1800F70E626F7F0E636F79EC1AF06051611102
:100F280002E1060EB8D7540E606F010E616F570EBE
:100F3800626F7D0E636F79EC1AF06051611115E1F3
:100F48000EEC23F0B40E716F7E0E726F736B746BC0
:100F5800F1EC1CF0190E0001716F7F0E726F736B4C
:100F6800010E746FF1EC1CF094D7540E606F010EF3
:100F7800616F490E626F7D0E636F79EC1AF06051F4
:100F8800611107E13B0E616F7D0E626F8EEC21F0FF
:100F98004AD7540E606F010E616F930E626F7E0E1A
:100FA800636F79EC1AF06051611101E107D7CAD07B
:100FB8007B5101E1C7D0540E606F010E616F220EA4
:100FC800626F7F0E636F79EC1AF06051611115E161
:100FD8000EEC23F0880E716F7E0E726F736B746B5C
:100FE800F1EC1CF09E0E0001716F7E0E726F736B38
:100FF800010E746FF1EC1CF07BD7540E606F010E7C
:10100800616F950E626F7F0E636F79EC1AF0605115
:1010180061111EE10EEC23F0E80E716F7E0E726F07
:10102800010E736F746BF1EC1CF08E0E0001716F82
:101038007F0E726F020E736F010E746FF1EC1CF06D
:101048003B0E0001616F7D0E626F8EEC21F0EBD6D6
:10105800540E606F010E616F930E626F7E0E636FA8
:1010680079EC1AF0A0D7A90E616F7E0E626F8EEC34
:1010780021F0080ED9D67B5165E0540E606F010E41
:10108800616F490E626F7D0E636F79EC1AF06051E3
:10109800611107E1A90E616F7E0E626F8EEC21F07F
:1010A800E8D701015451D00F0001796F79C0F7F0EA
:1010B800010E7A6F47D0775145E00A0EECD6000E44
:1010C800606B7BEC20F081B202D081A0FCD7FA0ED5
:1010D8000001786F580EE82EFED7782FFCD700D085
:1010E800FA0E0001786F580EE82EFED7782FFCD73D
:1010F80000D0FA0E0001786F580EE82EFED7782F30
:10110800FCD700D0FF001ED0DA5101E1DAD5010A80
:1011180001E1DFD5030A01E153D6010A01E186D6D0
:10112800070A01E1C1D6010A01E1EBD6030A01E190
:101138003FD7010A98E00F0A9EE0010ABCE0030AC3
:10114800BEE0BED500017A5112007351800B7C6F4E
:10115800735173257E6F72BF7E817E5108E07E29B0
:1011680004E1706B716B726B736B728F04D0706B70
:10117800716B726B736B7751800B7C1B7751772582
:101188007D6F76BF7D817D5108E07D2904E1746B18
:10119800756B766B776B768F04D0746B756B766B2B
:1011A800776B7D5102E07E5105E1706B716B726B5C
:1011B800736B120076517003F3CF87F0F4CF88F089
:1011C80087517F6F806B816B826B8851836F846BD3
:1011D800856B866B75517103F3CF87F0F4CF88F078
:1011E80087517F27000E80238123822388518327FC
:1011F800000E84238523862374517203F3CF87F06E
:10120800F4CF88F087517F27000E80238123822323
:1012180088518327000E84238523862381C082F08A
:1012280080C081F07FC080F07F6B74517103F3CF71
:1012380087F0F4CF88F087517F2788518023000EEC
:101248008123822375517003F3CF87F0F4CF88F0A0
:1012580087517F2788518023000E8123822381C0F4
:1012680082F080C081F07FC080F07F6B7451700382
:10127800F3CF87F0F4CF88F087517F2788518023F8
:10128800000E8123822376517103F3CF87F0F4CFC8
:1012980088F08751832788518423000E852386236D
:1012A80075517203F3CF87F0F4CF88F08751832705
:1012B80088518423000E8523862376517203F3CF49
:1012C80087F0F4CF88F08751786F8851796F7A6BFF
:1012D8007B6B7AC07BF079C07AF078C079F0786B54
:1012E80078518327795184237A5185237B5186232A
:1012F80082518327000E84238523862381C082F0B0
:1013080080C081F07FC080F07F6B7D517EC078F017
:10131800796B7827000E7923820E7825876FFF0E68
:101328007921886F0FD0D8908337843785378637EF
:1013380082BF8381D8907F3780378137823787078C
:10134800D8A0880785AFEFD77D6B82AF13D07F51C8
:10135800786F8051796F81517A6F7F0E82157B6F1C
:10136800785179117A117B1103E0010E7D6F02D05B
:1013780083B1FBD77D510EE0832B000E8423852398
:10138800862386A107D08635863385338433833315
:10139800874B882B88BF0AD0885102E1872906E34A
:1013A800836B846B800E856F7F0E15D088BF04D049
:1013B800885108E1870506E2836B846B856B866B31
:1013C8007C6B0AD087C07EF07F0E8517866B7EB156
:1013D800858FD8907E31866F7C51861383C070F0DC
:1013E80084C071F085C072F086C073F0120063513A
:1013F800800B6C6F635163256E6F62BF6E816E5197
:1014080008E06E2904E1606B616B626B636B628F4D
:1014180003D0606B616B626B636B6751800B6D6FA0
:101428006C1901E06C8D675167256D6F66BF6D8122
:101438006D5108E06D2904E1646B656B666B676B41
:10144800668F03D0646B656B666B676B6E516D5D01
:1014580022E26CAD02D0800E6C1B6EC06FF06DC0C6
:101468006EF06FC06DF060C06FF064C060F06FC068
:1014780064F061C06FF065C061F06FC065F062C074
:101488006FF066C062F06FC066F063C06FF067C04F
:1014980063F06FC067F06F6B6E516DC068F0696B79
:1014A800685F000E695B69BF25D0695103E11A0EB8
:1014B800685D20E36051611162116311010ED8B4B7
:1014C800000E6F6F606B616B626B636B6DC06EF06B
:1014D80014D06FA105D0D8906F3101096F6F02D079
:1014E800D8906F3360B16F8F633563336233613384
:1014F80060336E2B6D516E5DECE36CBD24D06E5184
:1015080005E1606B616B626B636B1200645160276D
:1015180065516123665162236751632363A169D0D2
:101528006FA106D0D8906F336F5101096F6F02D049
:10153800D8906F3360B16F8F633563336233613333
:1015480060336E2B56D06451605D655161596651A8
:1015580062596351800A686F6751800A685923E2AB
:101568006051645D686F61516559696F6251665970
:101578006A6F635167596B6FFF0E6825606FFF0EC6
:101588006921616FFF0E6A21626FFF0E6B21636F25
:10159800800E6C1B6F6D6F510EE1602B000E612386
:1015A8006223632308D06451605F6551615B6651B3
:1015B800625B6751635B605161116211631117E1EE
:1015C8006F5115E1606B616B626B636B1200D890B1
:1015D80060376137623763376FBF60816FA102D0B0
:1015E800D88001D0D8906F376E5101E06E0762AF96
:1015F800EED76D6B6FAF0AD06FC068F07F0E6817BB
:1016080003E0010E6D6F02D060B1FBD76D510FE0A2
:10161800602B000E61236223632363A108D0633526
:1016280063336233613360336E2901E06E2B6E29B8
:1016380002E06E5107E1606B616B626B636B6E5128
:1016480001E16C6B6EA102D0628F01D0629FD890CD
:101658006E31636F6CBF638F60C060F061C061F012
:1016680062C062F063C063F01200040132050BE14E
:1016780030511F0B08E10C8E030E311903E1010EE6
:101688001D6E01D01D6A3251D8A4120030511F0BB3
:10169800020AD8A4120034510F0BD8B412003451E6
:1016A8000F0B436E030E4360030C200E0001D71985
:1016B800D8A412000C8E040134BF11D034510F0B82
:1016C800020DF350AF0FD96EDA6ADECF48F0DDCFE6
:1016D80049F034510F0B436E4350B80F10D03451BA
:1016E8000F0B020DF3500F0FD96EDA6ADECF48F0F8
:1016F800DDCF49F034510F0B436E4350B50FD96E0F
:10170800DA6ADF50476E47B002D0489401D0488467
:1017180034BF06D034510F0B020DF350AF0F05D074
:1017280034510F0B020DF3500F0FD96EDA6A48C00F
:10173800DEFF49C0DDFF030E311923E148C0D9FFA0
:1017480049C0DAFFDFAE11D034BF06D034510F0BD9
:10175800436E4350B80F05D034510F0B436E4350BE
:10176800B50FD96EDA6A0001DF8248C0D9FF49C0D7
:10177800DAFF000EDB8448C0D9FF49C0DAFFDB8EF0
:10178800000C040E481A48C0D9FF49C0DAFFDFAE82
:1017980019D048C0D9FF49C0DAFF7F0EDF1648C00C
:1017A800D9FF49C0DAFF000EDB8C3C6A050E3B6EA0
:1017B80048C03DF049C03EF0406A020E3F6ED8EC8A
:1017C8001FF006D048C0D9FF49C0DAFF000EDB8CF5
:1017D800040E481A47B206D048C0D9FF49C0DAFFFC
:1017E800DFAE25D0040134BF06D034510F0B436E51
:1017F8004350B80F05D034510F0B436E4350B50F0B
:10180800D96EDA6A0001DF9248C0D9FF49C0DAFF11
:101818003B0EDF163C6A050E3B6E48C03DF049C0E2
:101828003EF0406A020E3F6ED8EC1FF006D048C06A
:10183800D9FF49C0DAFF3B0EDF16040134510F0B04
:10184800436E446A6A0E4324456E0F0E4420466E6A
:1018580045C0D9FF46C0DAFFFE0EDF16FE0C8C51DC
:10186800800B956F8C518C25A06F8BBFA081A051E8
:1018780008E0A02904E1896B8A6B8B6B8C6B8B8FDA
:1018880003D0896B8A6B8B6B8C6B9051800B951B8B
:1018980090519025A16F8FBFA181A15108E0A12986
:1018A80004E18D6B8E6B8F6B906B8F8F03D08D6B7C
:1018B8008E6B8F6B906B8D518E118F11901111E182
:1018C800896B8A6B8B6B8C6B800E8B137F0E8C13E2
:1018D80089C089F08AC08AF08BC08BF08CC08CF0EC
:1018E8001200A05105E1896B8A6B8B6B8C6B12001F
:1018F800A151A0C091F0926B915F000E925B7F0E98
:1019080091259A6F000E92219B6F89C096F08AC02C
:1019180097F08BC098F08CC099F0896B8A6B8B6BB1
:101928008C6B9C6B9D6B9E6B9F6BA16B26D0A151A2
:1019380011E0D8909637973798379937D8908937E4
:101948008A378B378C379FBF8981D8909C379D37D2
:101958009E379F378D51965D8E5197598F51985963
:101968009051995909E39F8D8D51965F8E51975BE0
:101978008F51985B9051995BA12B190EA165D7D710
:10198800965197119811991111E09C810FD0D89018
:1019980089378A378B378C379FBF8981D8909C3796
:1019A8009D379E379F379A07D8A09B078BAFEFD7F5
:1019B800A16B9FAF13D09C51916F9D51926F9E5117
:1019C800936F7F0E9F15946F9151921193119411FB
:1019D80003E0010EA16F02D089B1FBD7A1510EE03F
:1019E800892B000E8A238B238C238CA107D08C355E
:1019F8008C338B338A3389339A4B9B2B9BBF0AD00A
:101A08009B5102E19A2906E39B6B9A69896B8A6B61
:101A18008B6B8C6B9BBF04D09B5109E19A0507E245
:101A28009A6B9B6B896B8A6B8B6B8C6B956B9AC073
:101A3800A0F0A0A102D08B8F01D08B9FD890A031AD
:101A48008C6F955144D70101E06BE16BE26B80A08C
:101A580007D0D2EC23F0000906E1040EFA6F03D098
:101A6800000EBDEC23F00001DBA107D0DDEC23F074
:101A780031EC12F0DB516DEC23F097EC1EF0010114
:101A8800E36FE30506E10001E56B010E0101E16F7B
:101A980008D0020EE31905E10001E56B010E010112
:101AA800E26F8EEC1FF0000904E0010E0101E46F03
:101AB80002D00101E46B020E0001E41938E1C651BD
:101AC80003E1640EC55D33E300F0C70E0001716FDA
:101AD8007A0E726F060E736F010E746FF1EC1CF0C4
:101AE800FDEC1FF06DC071F06EC072F0060E736FE2
:101AF800010E746FF1EC1CF0EAEC20F063C071F099
:101B080064C072F0BEEC1CF071C0C9F072C0CAF0BB
:101B1800C951E4EC13F0C96FCA6B060E766F020E5A
:101B2800776FC951E9EC1BF00001C56BC66BE55135
:101B380068E0090EE56565D0F95163E0010E010121
:101B4800E06F0001E56B5DD0FFD70EEC23F0DE0EF1
:101B5800716F7E0E726F010E736F746BF1EC1CF077
:101B6800340E0001716F7F0E726F020E736F010EDB
:101B7800746FF1EC1CF0A90E0001716F7B0E726F8F
:101B8800736B030E746FF1EC1CF00001DA6B020E3C
:101B98002BD0E1C176F0E2C177F00101E45160ECAD
:101BA80006F0000937E00EEC23F0FE0E716F7B0E95
:101BB800726F736B746BF1EC1CF00F0E0001716F98
:101BC8007C0E726F736B020E746FF1EC1CF0320EA8
:101BD8000001716F7B0E726F736B030E746FF1EC03
:101BE8001CF00001E46B030EFA6F14D0E2C1A8F0F8
:101BF800E4C1A9F0E0C1AAF00101E1515CEC00F0F8
:101C080009D0FA51010AA1E0030AC3E0010AEEE093
:101C1800070A9AE10001FA511200646F080E0001E8
:101C2800641961E0A30E616F7C0E626F8EEC21F087
:101C3800FA0E0001636F580EE82EFED7632FFCD70B
:101C480000D0FA0E0001636F580EE82EFED7632FFE
:101C5800FCD700D0FA0E0001636F580EE82EFED7AD
:101C6800632FFCD700D03FD07F0E616F7D0E626F6F
:101C78008EEC21F04BD08C0E616F7D0E626F8EEC76
:101C880021F044D0990E616F7D0E626F8EEC21F0C9
:101C98003DD0A60E616F7D0E626F8EEC21F036D0BE
:101CA800B30E616F7D0E626F8EEC21F02FD0C00EE7
:101CB800616F7D0E626F8EEC21F028D0CD0E616FC2
:101CC8007D0E626F8EEC21F021D0DA0E616F7D0EF1
:101CD800626F8EEC21F01AD0F10E616F7C0E626F8C
:101CE8008EEC21F013D000016451BEE0010AC3E07C
:101CF800030AC8E0010ACDE0070AD2E0010AD7E0EA
:101D0800030ADCE0010AE1E00F0AE6E0FA0E00014E
:101D1800636F580EE82EFED7632FFCD700D0FA0E5B
:101D28000001636F580EE82EFED7632FFCD700D052
:101D3800FA0E0001636F580EE82EFED7632FFCD70A
:101D480000D02B0E0001616F7F0E626F9AEF21F0B9
:101D580020EE01F01550D9261650DA22DF50406ED9
:101D68004050055C000E065802E205C040F04050A5
:101D7800055E000E065A3F6A0FD0380E3F24D96E12
:101D8800DA6A040EDA2201C0E1FF02C0E2FFDFCF07
:101D9800E7FF014A022A3F2A40503F5CEEE3055024
:101DA800061032E020EE01F01750D9261850DA223A
:101DB800080EDF6E20EE02F01750D9261850DA22EE
:101DC800380EDE6E040EDD6E15C0D9FF16C0DAFFC0
:101DD800DFBC0DD017C0D9FF18C0DAFF480EDF6E80
:101DE80017C0D9FF18C0DAFF000EDB8E000C17C031
:101DF800D9FF18C0DAFF080EDF6E17C0D9FF18C068
:101E0800DAFF000EDB8E000C20EE01F01750D92609
:101E18001850DA22080EDF6E20EE02F01750D9268D
:101E28001850DA22300EDE6E040EDD6E17C0D9FFB0
:101E380018C0DAFFDF6E17C0D9FF18C0DAFF000E2E
:101E4800DB8E075008100EE020EE07F001D80AD00C
:101E58000500FA6EDE50FD6EDE50FE6EF850FF6E25
:101E6800FA501200049E1E50D8B415EC15F012005A
:101E7800686F000168511CE063AF1AD060C064F05D
:101E880061C065F062C066F063C067F0641F651FDB
:101E9800661F671F642B000E65236623672364C0D3
:101EA8006AF065C06BF066C06CF067C06DF008D072
:101EB80060C06AF061C06BF062C06CF063C06DF026
:101EC800605161116211631105E1606B616B626BB6
:101ED800636B1200960E696F06D0692BD8906D332C
:101EE8006C336B336A33646B656B666BFE0E6D1512
:101EF800676F64516511661167110CE0EED7692BA5
:101F08006A2B000E6B236C236D23D8906D336C33D2
:101F18006B336A33646B656B666B6D51676F6451C5
:101F280065116611671107E0EAD76907D8906A3723
:101F38006B376C376D376CBF03D0020E6961F5D70C
:101F480069B102D07F0E6C17D890693369C064F00C
:101F5800656B666B676B64C067F0666B656B646B1B
:101F680064516A1365516B1366516C1367516D1395
:101F7800685102E063BF6D8F6AC060F06BC061F0AA
:101F88006CC062F06DC063F01200800E040130195D
:101F9800D8A41200C00E0C6E71D0A20E096E790E74
:101FA8000A6E0E6A120E0D6E120C32513DE132515C
:101FB800020DF50EF324F66E750EF420F76E090087
:101FC800F5CF09F00A00F5CF0AF0020E09242E6EAB
:101FD800000E0A202F6E2EC0F6FF2FC0F7FFF86AFA
:101FE800070EF76403D00800F55005D0F6CFE1FFDF
:101FF800F7CFE2FFE7500D6E030E09242E6E000E98
:102008000A202F6E2EC0F6FF2FC0F7FFF86A070EC2
:10201800F76403D00800F55005D0F6CFE1FFF7CFFD
:10202800E2FFE7500E6E12000C6A1200030E3261D6
:1020380021D03251020DEF0EF324F66E750EF42006
:10204800F76E0900F5CF09F00A00F5CF0AF009C0CC
:10205800F6FF0AC0F7FFF86A070EF76403D0080016
:10206800F55005D0F6CFE1FFF7CFE2FFE7500D6E50
:102078000E6A12000C6A12000C6A12003351010A2F
:102088008CE0030A92E0010AD1E0F6D7A39400019C
:10209800C151C21109E0C1C0D9FFC2C0DAFF010EA7
:1020A800DFAE000E676F01D0676B686B6751681110
:1020B80002E0A3841200030E201801E1206A2050D8
:1020C80002E1A3841200020E201810E1010E606FD5
:1020D800000E616F626F636F020EDAEC17F060C07A
:1020E800C1F061C0C2F0030E206E4ED020044CE156
:1020F800400EDE6502D06A6F02D0DEC06AF06A5117
:10210800DE5F000EBB6F050EBC6F6AC069F0DC5164
:1021180010E021D0BEC0D9FFBFC0DAFFBBC0E1FFCD
:10212800BCC0E2FFDFCFE7FFBB4BBC2BBE4BBF2BD6
:102138006907695112E0EED7BEC0D9FFBFC0DAFF08
:10214800BBC0E1FFBCC0E2FFDFCFE7FFBB4BBC2B4E
:10215800BE4BBF2B69076951EFE1DE5106E1400E26
:102168006A19020ED8A4030E206E010E606F000ECD
:10217800616F050E626F6AC063F0020EDAEC17F049
:1021880060C0C1F061C0C2F0A38412000001D7058D
:1021980007E160BA05D0656A64806488020ED76F6B
:1021A80065B464A403D0659493EC22F060A202D0D5
:1021B800A494120065B064A006D00DEC13F0A384BB
:1021C800040ED76F659065B864A803D0E2EC22F0DE
:1021D800659865AC14D064AC0AD03C6A730E3B6E4B
:1021E8003D6A3E6A406A010E3F6ED8EC1FF0659C5E
:1021F8001F5001E01F061F5002E115EC15F065BAEB
:1022080064AA02D05CEC20F065B264A20BD07F0E09
:102218003C6E3B683D6A3E6A406A010E3F6ED8ECF0
:102228001FF0676A040E0001D76102D0A494040C61
:1022380064A629D04E6A65A626D061CF2DF02D3030
:10224800E832E8320F0B226E65962DB403D0225087
:10225800B80F02D02250B50FD96EDA6A0001DF70CC
:10226800225003E184EC16F00AD03C6A720E3B6EF1
:102278002D0E3D6E3E6A406A3F6AD8EC1FF04E2A2A
:10228800030E4E64D8D7A4941200B4EC22F01EECCE
:1022980021F079EC13F062EC21F08A8A616B320E3E
:1022A800606F1FEC22F08A9A010E616FF40E606F66
:1022B8001FEC22F0F28CF28E56EC1CF0616B140EBF
:1022C800606F1FEC22F0A6EC23F00001616B140E86
:1022D800606F1FEC22F0000E51EC23F00001E16F5B
:1022E800550EE11907E0B3EC1DF0550E606F000EB6
:1022F8007BEC20F00001E06B000EC7EC23F00EEC45
:1023080023F01E0E716F7D0E726F736B746BF1ECA0
:102318001CF0000E0001716F7D0E726F736B010E61
:10232800746FF1EC1CF00F0E0001716F7D0E726F6F
:10233800736B030E746FF1EC1CF0030E0001616FF8
:10234800E80E606F1FEC22F010D0FFD716EC19F0E2
:10235800010EE06FCBEC23F008D027EC0DF0040A57
:1023680004E1E06B000EC7EC23F00001E051EEE061
:10237800010AF3E0EAD760980CBE37D004AE0AD061
:10238800020E216E0001D65102E1A8EC19F0D96BBA
:10239800D86B120020EE01F01750D9261850DA2217
:1023A800080EDF6E20EE02F01750D9261850DA22F8
:1023B800300EDE6E040EDD6E17C0D9FF18C0DAFFCE
:1023C8000C0EDF6E17C0D9FF18C0DAFF000EDB8EC7
:1023D8000FC0D9FF10C0DAFF040EDF6E0FC0D9FF9F
:1023E80010C0DAFF000EDB8E000C040130AF0ED0F7
:1023F800010E216E0001D55102E1A8EC19F0D96B4C
:10240800D86B1E50D8A4120015EF15F0020E216EDD
:1024180020EE01F01750D9261850DA22080EDF6E88
:1024280020EE02F01750D9261850DA22300EDE6E50
:10243800040EDD6E17C0D9FF18C0DAFFDF6E17C0B3
:10244800D9FF18C0DAFF000EDB8E0001D96BD86BFC
:102458001E5002E115EF15F01200D14BD22BD1C05E
:1024680060F0D2C061F0636B0A0E626F3DEC20F041
:1024780060516111D8A41200DB83D1C060F0D2C0D2
:1024880061F0636B640E626F3DEC20F06051611186
:10249800D8A41200DB85D1C060F0D2C061F0030E71
:1024A800636FE80E626F3DEC20F060516111D8A4B3
:1024B8001200DB87D1C060F0D2C061F0EA0E636F12
:1024C800600E626F3DEC20F060516111D8A41200DB
:1024D800CF4BD02BDB89CFC060F0D0C061F0636BED
:1024E8003C0E626F3DEC20F060516111D8A41200DF
:1024F800DB8BCFC060F0D0C061F0020E636FD00EEE
:10250800626F3DEC20F060516111D8A41200DB8DA0
:10251800CFC060F0D0C061F0050E636FA00E626F8F
:102528003DEC20F060516111D8A41200DB8FD16B13
:10253800D26BCF6BD06B12000001646FFA0E636F21
:10254800580EE82EFED7632FFCD700D0FA0E0001F4
:10255800636F580EE82EFED7632FFCD700D0FA0E13
:102568000001636F580EE82EFED7632FFCD700D00A
:102578000001645126E0220E616F7A0E626F8EECC4
:1025880021F0FA0E0001636F580EE82EFED7632F74
:10259800FCD700D0FA0E0001636F580EE82EFED764
:1025A800632FFCD700D0FA0E0001636F580EE82E97
:1025B800FED7632FFCD700D03C0E0001616F7A0E66
:1025C80025D0EE0E616F790E626F8EEC21F0FA0E57
:1025D8000001636F580EE82EFED7632FFCD700D09A
:1025E800FA0E0001636F580EE82EFED7632FFCD752
:1025F80000D0FA0E0001636F580EE82EFED7632F45
:10260800FCD700D0080E0001616F7A0E626F9AEF56
:1026180021F0A394676A656A6A6A6B0E2E6E0F0EC4
:102628002F6E316A306A336A020E326ECDEC21F0B9
:10263800160E626E9F0E666E7B0E646E366A36509C
:10264800040D000EF324D96E040EF420DA6EDE6A4F
:10265800DE6ADE6ADD6A362A0B0E3664F0D7608CD5
:10266800636A6098609C05D065960C6A046A056A7E
:10267800066A65B6F9D7010E0001D86FD96FD56B18
:10268800D66BD46B366A3650020DF3500F0FD96EE5
:10269800DA6ADE6ADD6A3650020DF350AF0FD96E82
:1026A800DA6ADE6ADD6A3650B50FD96EDA6ADF6A31
:1026B8003650B80FD96EDA6ADF6A362A020E3664E7
:1026C800E2D7080E0F6E040E106E160E6A6E040E18
:1026D8000401036F300E026F080E016F040E006FC5
:1026E800008F2C6A0001D76B1200A394676A656A91
:1026F8006A6A6B0E606F0F0E616F636B626B656B5E
:10270800020E646FA3EC21F0160E626E9F0E666EC9
:102718007B0E646E686B6851040D000EF324D96E4D
:10272800040EF420DA6EDE6ADE6ADE6ADD6A682B81
:102738000B0E6865F0D7608C636A6098609C05D062
:1027480065960C6A046A056A066A65B6F9D7010EC9
:10275800D86FD96FD56BD66BD46B686B6851020D87
:10276800F3500F0FD96EDA6ADE6ADD6A6851020D1E
:10277800F350AF0FD96EDA6ADE6ADD6A6851B50FB9
:10278800D96EDA6ADF6A6851B80FD96EDA6ADF6A19
:10279800682B020E6865E2D7080E0F6E040E106EE5
:1027A800160E6A6E040E0401036F300E026F080ED7
:1027B800016F040E006F008F2C6A0001D76B1200A6
:1027C800A26FCD0E0001746FCC0E756F4C0E766F34
:1027D800400E776FA251606F616B626B636B000E86
:1027E8003CEC0FF060C070F061C071F062C072F034
:1027F80063C073F0A9EC08F070C089F071C08AF06A
:1028080072C08BF073C08CF08D6B8E6B800E8F6FE7
:10281800440E906F33EC0CF089C0A4F08AC0A5F088
:102828008BC0A6F08CC0A7F0646B656B666BBF0E9F
:10283800676FA4C060F0A5C061F0A6C062F0A7C031
:1028480063F0FBEC09F060C070F061C071F062C029
:1028580072F063C073F0746B756BC80E766F420EBE
:10286800776FA9EC08F070C0A4F071C0A5F072C031
:10287800A6F073C0A7F0A4C060F0A5C061F0A6C020
:1028880062F0A7C063F0C8EC18F06051A36FA351C1
:1028980012000FC0D9FF10C0DAFF000EDFBC010E16
:1028A8003F6E040E0F1A080ED7190AE104013251BF
:1028B8007F0B636E6350100ED8B4040E0001D76FFF
:1028C800210438E120EE02F00F50D9261050DA2208
:1028D800380EDE6E040EDD6EB4EC14F0020E2B180A
:1028E8000DE10FC0D9FF10C0DAFF040EDF6E0FC074
:1028F800D9FF10C0DAFF000EDB8E000C3F500DE14F
:102908000FC0D9FF10C0DAFF480EDF6E0FC0D9FF25
:1029180010C0DAFF000EDB8E000C0FC0D9FF10C00C
:10292800DAFF080EDF6E0FC0D9FF10C0DAFF000E05
:10293800DB8E000C04AE12D0075008100EE020EE1B
:1029480007F001D80AD00500FA6EDE50FD6EDE50A1
:10295800FE6EF850FF6EFA501200049E216A1200B3
:10296800080E2E6E0E500DE1080E0D5C0AE20DC029
:102978002EF02B5002E1010E03D02B0402E1020ECF
:102988002B6E2E500D5E000E0E5A20EE01F00F50E9
:10299800D9261050DA222EC0DFFF380E0001C76F8B
:1029A800040EC86F0CB03AD01BD009C0F6FF0AC09D
:1029B800F7FFF86AC7C0D9FFC8C0DAFF070EF76487
:1029C80003D00800F55005D0F6CFE1FFF7CFE2FFBE
:1029D800E750DF6E094A0A2A0001C74BC82B2E06AA
:1029E8002E50E3E1120009C0F6FF0AC0F7FFF86AAB
:1029F800C7C0D9FFC8C0DAFF070EF76403D00800C4
:102A0800F55005D0F6CFE1FFF7CFE2FFE750DF6ED4
:102A1800094A0A2A0001C74BC82B2E062E50E3E1AB
:102A280012000001D851D8A41200010ED86FD95154
:102A3800D8A41200010ED96F020E211814E120EE5D
:102A480001F00F50D9261050DA22DF6A0FC0D9FFE3
:102A580010C0DAFF480EDF6E0FC0D9FF10C0DAFFD2
:102A6800000EDB8E000C2104D8A41200D36B20EEDC
:102A780001F01550D9261650DA22080EDF6E20EE26
:102A880002F01550D9261650DA22300EDE6E040EEA
:102A9800DD6E15C0D9FF16C0DAFFDF6E15C0D9FF8D
:102AA80016C0DAFF000EDB8E010ED36F20EE01F0A8
:102AB8001750D9261850DA22080EDF6E20EE02F0E1
:102AC8001750D9261850DA22300EDE6E040EDD6E4D
:102AD80017C0D9FF18C0DAFF800EDF6E800C81A006
:102AE800FED781EC22F0CFEC23F0C290F29EF29E4A
:102AF800F29C8D94A0920F015B81A08CF086F288E5
:102B08008784F2868150815082500001FB5101E098
:102B1800D180F290F292F090A19C00F0030000F0B6
:102B2800D1904CEC21F0F296F096F2988794A09C04
:102B3800F28EB3EC1FF0F2A0F2B204D0F0B002D0E3
:102B4800A1AC11D0F290F292F090010E00016E6FDC
:102B5800CFEC23F01EEC21F08D84FB0EB36E500EEB
:102B6800B26EA08206D00A0E0001E56F6E6B8D94DE
:102B7800A0920F015B9156EC1CF0616B280E606F00
:102B88001FEC22F056EC1CF0616B280E606F1FECF6
:102B980022F06E5112001F0ED7651F0C60B21F0C79
:102BA8001B500EE1140E676F010E686F400E696FBF
:102BB80060EC19F0196E195003E0010E1B6E1C6AC7
:102BC8001B5010E0ACA20ED0140E1C24D96EDA6A89
:102BD800010EDA22DF5004EC21F01C2A19501C18CF
:102BE80001E11B6A23501CE0DFEC23F0000918E028
:102BF8003F0E1A6015D000F035EC21F06D6F140E01
:102C08001A24D96EDA6A010EDA226DC0DFFF1A2A99
:102C1800140E1A24D96EDA6A010EDA22DF6A2A6AD9
:102C2800205002E04AEF10F01A5002E14AEF10F08B
:102C3800140E0001606F010E616F1AC062F000ECA3
:102C480023F0E9EC23F01A6A4AEF10F0010E786FCE
:102C5800F40E776F796B0EEC23F0F40E716F7D0E26
:102C6800726F736B746BF1EC1CF081A202D081B0AF
:102C78000BD07C0E0001716F7E0E726F736B030EAA
:102C8800746FF1EC1CF033D01B0E0001716F7E0ED7
:102C9800726F736B010E746FF1EC1CF028D081B267
:102CA8000CD0010E716F7E0E726F736B020E746F13
:102CB800F1EC1CF0080E0001792781B00CD00E0E43
:102CC800716F7E0E726F736B030E746FF1EC1CF0F4
:102CD800800E00017927880E791901E112009C0EF7
:102CE800766FD70EE82EFED7762FFCD700F00001BE
:102CF8007707D8A078077729D2E17829D0E11200A0
:102D08002D0E1F6E2DC04BF0FD0E4B164BE1D890CB
:102D18002D303F0B040D000EF324156E040EF42025
:102D2800166E15C017F016C018F0040E171A15C045
:102D3800D9FF16C0DAFFDF30E8320F0B0D0A02E0C8
:102D48003FEF1FF04D6A20EE02F01550D9261650BD
:102D5800DA22DECF4BF0DDCF4CF04BC0D9FF4CC0B0
:102D6800DAFF300E4D24E16EE26A040EE222DFCF74
:102D7800E7FF20EE02F01550D9261650DA22DE2A97
:102D8800000EDD224D2A070E4D64DDD720EE02F03D
:102D98001550D9261650DA22300EDE6E040EDD6E7E
:102DA800E2EF1DF02D50FD0B040AD8B44DEC14F0E1
:102DB800120011EC1EF00EEC23F0580E716F7F0E0E
:102DC800726F736B746BF1EC1CF0710E0001716F14
:102DD8007F0E726F736B010E746FF1EC1CF0690E4D
:102DE8000001716F7F0E726F736B020E746FF1ECDE
:102DF8001CF00E0E0001626F020E636F430EAFEC03
:102E08001BF0EAEC20F063C071F064C072F0BEEC15
:102E18001CF071C0C9F072C0CAF0C951E4EC13F0DB
:102E2800C96FCA6B0A0E766F020E776FC951E9EC4B
:102E38001BF000F0C70E0001716F7A0E726F0A0E58
:102E4800736F010E746FF1EC1CF0FDEC1FF06DC098
:102E580071F06EC072F00A0E736F010E746FF1EFAD
:102E68001CF00C8E6B0E2E6E0F0E2F6E316A306AB0
:102E7800336A020E326ECDEC21F02E6A040E2F6EEC
:102E8800316A306A336A300E326ECDEC21F0608CD4
:102E9800436A4350B50FD96EDA6ADF6A4350B80FF8
:102EA800D96EDA6ADF6A432A020E4364F2D7F30E58
:102EB8002E6E2F6A316A306A336A020E326ECDEC9A
:102EC80021F0609C080E0F6E040E106E000E156E39
:102ED800040E166E15C017F016C018F032C42CF088
:102EE8002C5004E1100E0001D76F100C3C6A010E43
:102EF8003B6E2C0E3D6E3E6A406A010E3F6ED8EC6A
:102F08001FF0200E0001D76F200C0BD061C0F6FF18
:102F180062C0F7FF0800F55004EC21F00001614B96
:102F2800622B61C0F6FF62C0F7FF0800F550EEE1C2
:102F3800676B67516325D96E000E6421DA6EDF5026
:102F480004EC21F00001672B020E6765F2D720EE32
:102F580003F06351D9266451DA22DF5004EC21F0E2
:102F6800040E0001686F1DD068516325D96E000EEC
:102F78006421DA6EDF50666F66390F0B5BEC22F066
:102F880004EC21F0000168516325D96E000E64211C
:102F9800DA6EDF500F0B5BEC22F004EC21F000013D
:102FA800682B6551685DE0E3ACEF23F0646F0001C6
:102FB800605105E06451020DF3500F0F04D06451C5
:102FC800020DF350AF0FD96EDA6ADECF65F0DDCFB0
:102FD80066F06551661103E1606B616B120020EECB
:102FE80002F06551D9266651DA2261C0DEFF62C05F
:102FF800DDFF20EE01F06551D9266651DA2263C063
:10300800DFFF65C0D9FF66C0DAFF400EDF1665C076
:10301800D9FF66C0DAFF000EDB8665C0D9FF66C03F
:10302800DAFFDB8E605105E06451020DF3500F0F9B
:1030380004D06451020DF350AF0FD96EDA6A040E52
:10304800DF1A65C060F066C061F0040C0401303915
:10305800E832030B2AE012000C8E080E0001D76F2D
:10306800080C2C0E096E0A6A0C80010E0D6E0C8E6F
:10307800010C3451F30F4A6E4AC009F00A6A0C80F9
:10308800010E0D6E0C8E010C0C8E3451F30FD96E9F
:10309800DA6A32C4DFFF12003C6A020E3B6E3D6AF8
:1030A8003E6A406A3F6AD8EF1FF0315102E1BBEF38
:1030B8001AF0010A02E139EF0BF0020A02E139EFD6
:1030C8000BF0060AC9E0030A02E1C9EF0FF0010A92
:1030D800E3E00F0AC6E0010A02E135EF17F0030A40
:1030E800C8E0010AD1E0070A1200326E2E5005E04E
:1030F8003250020DF3500F0F04D03250020DF3502E
:10310800AF0FD96EDA6ADECF33F0DDCF34F033504B
:10311800341003E12E6A2F6A120020EE02F03350B9
:10312800D9263450DA222FC0DEFF30C0DDFF20EE72
:1031380001F03350D9263450DA2231C0DFFF33C0D2
:10314800D9FF34C0DAFF400EDF1633C0D9FF34C0D0
:10315800DAFF000EDB8633C0D9FF34C0DAFFDB8E1E
:103168002E5005E03250020DF3500F0F04D03250AC
:10317800020DF350AF0FD96EDA6A040EDF1A33C0AE
:103188002EF034C02FF0040C62356335696F695135
:1031980005E1606B616B626B636B120060C064F089
:1031A80061C065F062C066F063C067F0200E05D0AC
:1031B800D8906733663365336433E82EF9D76451A2
:1031C800686F628F636B960E695F69AF0CD0695147
:1031D800800A970FDEE3D89063336233613360333C
:1031E800693FF9D70CD01F0E696507D0D2D7D890A0
:1031F800603761376237633769076951F8E16851A9
:1032080008E0631F621F611F606D000E6123622367
:10321800632360C060F061C061F062C062F063C0A7
:1032280063F0120036D0FFD70EEC23F0100E716F4A
:103238007F0E726F010E736F746BF1EC1CF0610EF0
:103248000001716F7F0E726F020E736F010E746F43
:10325800F1EC1CF0280E0001716F7E0E726F736B1B
:10326800020E746FF1EC1CF0010E000105D0200E67
:10327800D76101D016D0020EE76F13D0CFEC15F04E
:1032880097EC1EF0766F030E76190BE0020EF86FBE
:1032980008D00001E751C8E0010AE9E0030AEEE0BE
:1032A800C2D780A002D0F851F4E000F0020E00016D
:1032B800F819D8A4F86B1200DD6BC351C41109E0EA
:1032C800C3C0D9FFC4C0DAFF010EDFAE000E6B6FBA
:1032D80001D06B6B6C6B6B516C1134E120EE01F01B
:1032E800C351D926C451DA226951DE5C08E220EEC6
:1032F80001F0C351D926C451DA22DF50696FDD6B62
:103308000FD0400EDD25D96EDA6A050EDA22DD51BE
:103318006725E16E000E6821E26EDFCFE7FFDD2B47
:103328006951DD5DEEE3000E606F400E616F050EC2
:10333800626F400E636F020EDAEC17F060C0C3F0E4
:1033480061C0C4F0DD511200D56BD66B020E211896
:103358001FE120EE01F01750D9261850DA22080E86
:10336800DF6E20EE02F01750D9261850DA22380EF8
:10337800DE6E040EDD6E17C0D9FF18C0DAFF480EE6
:10338800DF6E17C0D9FF18C0DAFF000EDB8E000C05
:103398000D500401365D0E50375904E236C40DF065
:1033A80037C40EF0B4EC14F020EE02F00F50D9261A
:1033B8001050DA22380EDE6E040EDD6E0FC0D9FF13
:1033C80010C0DAFF480EDF6E0FC0D9FF10C0DAFF59
:1033D800000EDB8E000C040130511F0BE80601E0E3
:1033E80012003039E832030BE80601E012003451CC
:1033F8002DE034052BE01200CE0E096E010E0A6E88
:103408000E6A080E0D6E0C800C8E080CCE0E096E1E
:10341800010E0A6E0C8E120036C405F037C406F091
:10342800C40E016E010E026ED80E076E3D0E086EB8
:10343800048E1200E90E096E0A6A0E6A070E0D6EF6
:10344800C10E0C6EC10C32510C8E12003151D4E0F9
:10345800010ADCE0210AE0E0010AECE0030AF3E0FB
:103468001200336E346A040E356E2E502F6E306A99
:10347800D8902F3630363350316E326AD890313684
:103488003236D890313632362F50312630503222EB
:10349800D89031363236D8903136323631503426DB
:1034A8003250352234C0D9FF35C0DAFFDF9E2E50A6
:1034B80005E13350020DF350AF0F04D03350020D25
:1034C800F3500F0FD96EDA6A34C0DEFF35C0DDFF66
:1034D80034C0D9FF35C0DAFFDF9C20EE04F0345049
:1034E800D9263550DA22DF8C120060C0D9FF61C0BE
:1034F800DAFFDF50666F62C0F6FF63C0F7FF0800AF
:10350800F5CF68F066512CE0020E6027000E6123AB
:103518006851661925E12FEEFFF06051D9266151F7
:10352800DA22DF50676F6229646F000E6321656FCE
:1035380064C0F6FF65C0F7FF0800F5CF68F0675173
:1035480007E16851675D606F616BD8A06107120081
:10355800020E6227000E632367516819F2E1C5D78E
:103568006851665D606F616BD8A061071200040145
:10357800386B396B2AD00C8E1D042EE138832CD081
:103588000C8E2AD00C8E34BF06D034510F0B020D8E
:10359800F350AF0F05D034510F0B020DF3500F0F3E
:1035A800D96EDA6ADECF2EF0DDCF2FF02EC0D9FF2C
:1035B8002FC0DAFFDFAE10D02EC0D9FF2FC0DAFF40
:1035C800DFA40AD0010E386F07D030511F0BD3E0AB
:1035D800010AD6E0030AD6E00CAE1200380E096ED6
:1035E800040E0A6E0C80020E0D6E020CE20E26EC22
:1035F80023F08A84040E0001626F1C0EE82EFED7A9
:10360800622FFCD700D08A94200E0001626F2A0E28
:10361800E82EFED7622FFCD78A84100E0001626F55
:10362800940EE82EFED7622FFCD700D0A10E26EC10
:1036380023F0C00E26EC23F0A30E26EC23F0070E91
:103648009AEC23F0050E94EC23F0130E64EC23F0AF
:10365800000EA0EC23F0F80E26EC23F0000E26EC6A
:1036680023F0AF0E26EF23F00EEC23F03D0E716F22
:103678007F0E726F736B746BF1EC1CF08A0E000195
:10368800716F7D0E726F736B060E746FF1EC1CF028
:10369800970E0001716F7D0E726F736B080E746F59
:1036A800F1EC1CF0C30E0001716F7C0E726F736B2E
:1036B800010E746FF1EC1CF0700E0001716F7E0E3C
:1036C800726F736B020E746FF1EC1CF0460E000102
:1036D800716F7F0E726F736B030E746FF1EF1CF0D6
:1036E800366A376A386A396A3250331034103510FE
:1036F80029E0010E3A6E06D0D89032363336343689
:1037080035363A2A35AEF8D7D89036363736383681
:10371800393632502E5C33502F583450305835508B
:10372800315809E332502E5E33502F5A3450305AF4
:103738003550315A3680D8903532343233323232BD
:103748003A2EE2D736C02EF037C02FF038C030F00E
:1037580039C031F0120000016A6F635187EC23F021
:1037680000016251080DF350040F1AEC23F0000118
:103778006B6B646B65696A51666F676BD890663767
:103788006737D89066376737D89066376737F5C098
:1037980068F0F6C069F066516827675169236B5174
:1037A8006827000E6923645168276551692368C03A
:1037B800F6FF69C0F7FF0800F55047EC23F0000159
:1037C8006B2B070E6B65D5D7070C7F6F0001786BE5
:1037D8007FAF02D0010E786F7F9F0A0E606F7F5116
:1037E8000BEC22F0300F7B6F0A0E606F7F51B4EC48
:1037F80020F07F6F0A0E606F7F510BEC22F0300FC4
:103808007A6F0A0E606F7F51B4EC20F07F6F0A0E5A
:10381800606F7F510BEC22F0300F796F785102E026
:103828002D0E796F7C6B790E716F726B76C073F0A9
:1038380077C074F0F1EF1CF0656FB60E00016425D7
:10384800D96EDA6A010EDA220A0E606F65510BEC46
:1038580022F0300FDF6E0A0E606F6551B4EC20F075
:10386800656FB50E6425D96EDA6A010EDA220A0E82
:10387800606F65510BEC22F0300FDF6E0A0E606F3F
:103888006551B4EC20F0656FB40E6425D96EDA6A20
:10389800010EDA220A0E606F65510BEC22F0300F30
:1038A800DF6E12000001676B656B666BAC9A8B9CD0
:1038B800616B0A0E606F1FEC22F0AC8A616B050E1B
:1038C800606F1FEC22F0550EAD6EACA2FED7FC0E59
:1038D8000001616F7F0E626F8EEC21F00001616B59
:1038E800280E606F1FEC22F00ED08EEC1FF000093E
:1038F80003E0010E676F07D0654B662B890E655D87
:10390800130E6659F6E26751F0E1120029D060C043
:10391800D9FF61C0DAFFDF500DE060C0D9FF61C098
:10392800DAFFDF50666F62C0F6FF63C0F7FF08007A
:10393800F51812E060C0D9FF61C0DAFFDF50666F8A
:1039480062C0F6FF63C0F7FF0800F550665D606F60
:10395800616BD8A061071200604B612B624B632B2F
:103968006407D8A065076429D2E16529D0E1606BB6
:10397800616B1200766B776B756B71C0D9FF72C083
:10398800DAFFDF5025E075510DE076C060F077C0B2
:1039980061F0636B0A0E626F6EEC22F060C076F025
:1039A80061C077F071C0D9FF72C0DAFFDF507625A9
:1039B800736F000E7721746FD00E7325766FFF0E2C
:1039C8007421776F714B722B752B030E7565D5D7E4
:1039D80076C071F077C072F0120073C075F00F0EE8
:1039E800756501D00F0C71C0F6FF72C0F7FFF86A59
:1039F800070EF76403D00800F55005D0F6CFE1FFB5
:103A0800F7CFE2FFE7500009D8B4120075C062F0A2
:103A180074C063F071C0F6FF72C0F7FFF86A070E52
:103A2800F76403D00800F55005D0F6CFE1FFF7CFD3
:103A3800E2FFE750AFEC1BF0714B722B752BCFD721
:103A4800BF0E716F7E0E726F736B746BF1EC1CF0AE
:103A5800010EA0EC12F0010E0001616FF40E606F10
:103A6800F7EC21F0000EA0EC12F0010E0001616FDE
:103A7800F40E606FF7EC21F0010EA0EC12F0010ECD
:103A88000001616FF40E606FF7EC21F0000EA0ECFE
:103A980012F0010E0001616FF40E606FF7EF21F074
:103AA8000001606B6051F00FD96EDA6ADF6A602B33
:103AB800020E6065F7D7616B000E6125D96EDA6A70
:103AC800010EDA22DF6A612B210E6165F5D7626B80
:103AD800940E6225D96EDA6A010EDA22DF6A622B49
:103AE8001F0E6265F5D7636BB40E6325D96EDA6A6B
:103AF800010EDA22DF6A632B0F0E6365F5D70F0C10
:103B080002EE00F0800EEE6AE806FDE101EE00F03C
:103B1800E00EEE6AE806FDE100EEAFF0460EEE6A52
:103B2800E806FDE100EE01F02D0EEE6AE806FDE183
:103B3800840EF66E470EF76E000EF86E00EEF5F086
:103B480010EE09F00900F5CFEEFFE550E150FAE17B
:103B58005B905B92000EF86E000149EF11F038ECB3
:103B68001BF00001616B140E606F1FEC22F02AEC51
:103B780016F00EEC23F0616B140E606F1FEC22F050
:103B880024EC1DF0616B140E606F1FEC22F0C2EC88
:103B98001EF0616B140E606F1FEC22F04CEC21F0EC
:103BA800616B140E606F1FEC22F0DDEC16F00B0E4B
:103BB8000001616FB80E606F1FEF22F02B6A1E6A5A
:103BC800D56BD66BD36B216A0FC0D9FF10C0DAFF53
:103BD8007F0EDF16040E0F1A0FC0D9FF10C0DAFFD0
:103BE8007F0EDF16040E0F1A17C0D9FF18C0DAFFB0
:103BF8007F0EDF160C6A0D6A0E6A046A056A066A89
:103C08002AEC18F03C6A030E3B6E3D6A3E6A406A35
:103C18003F6AD8EC1FF0BFEF11F00001656B666BCF
:103C2800D30E616F790E626F8EEC21F007D0654B71
:103C3800662B510E655DC30E665904E28EEC1FF0CB
:103C48000009F5E0656B666BB80E616F790E626FFF
:103C58008EEC21F007D0654B662B510E655DC30EC7
:103C6800665904E28EEC1FF00009F5E0616B640E02
:103C7800606F1FEF22F0786F0A0E0001606F7851B5
:103C88000BEC22F0300F7B6F0A0E606F7851B4ECAA
:103C980020F0786F0A0E606F78510BEC22F0300F2D
:103CA8007A6F0A0E606F7851B4EC20F0786F0A0EC4
:103CB800606F78510BEC22F0300F796F7C6B790EC6
:103CC800716F726B76C073F077C074F0F1EF1CF00F
:103CD800DB0E606F010E616FD60E626F010E636FAF
:103CE800656B050E646F1EEC20F0DB0E606F010E35
:103CF800616F6AC062F06BC063F0656B050E646F3C
:103D08001EEC20F06C6BDB0E6C25D96EDA6A010EA6
:103D1800DA22DF5002E16CC0DFF06C2B040E6C6518
:103D2800F2D700F0040C81A202D081B017D00101B3
:103D3800102B000E112312231323370E1019111103
:103D48001211131108E10001E86B81B202D0010ED3
:103D580012D0020E10D00001606B0ED0140EE819BC
:103D680008E10101106B116B126B136B0001E86B1A
:103D780001D0E82B030E606F60511200060E716FC0
:103D88007F0E726F736B010E746FF1EC1CF0898CEF
:103D9800898E010E0001616FF40E606FF7EC21F05F
:103DA800899C899E010E616FF40E606FF7EC21F01B
:103DB800898C898E010E616FF40E606FF7EC21F02B
:103DC800899C899E010E616FF40E606FF7EF21F0F8
:103DD800C4C1E9F0C5C1EAF0C6C1EBF0C7C1ECF057
:103DE8002E6A1B0E2F6EB70E306E316AE9C032F0A4
:103DF800EAC033F0EBC034F0ECC035F074EC1BF0E3
:103E0800FF0E2E243B6EFF0E2F203C6EFF0E30203F
:103E18003D6EFF0E31203E6E3BC0AFFF3CC0B0FF91
:103E2800E2EF21F00001E96B4B0EEA6FEB6BEC6BF4
:103E3800ED6BEE6B080EEF6FDD6B1A0E366E010E32
:103E4800CFEC20F01E0E366E020ECFEC20F0000EE6
:103E58002E6E400E2F6E050E306E400E316E020E25
:103E680079EC18F02EC0C3F02FC0C4F00001C16B6C
:103E7800C26B206A1200020E211802E1ACEF0EF0AC
:103E8800216AD3511FE120EE01F01750D9261850AE
:103E9800DA22080EDF6E20EE02F01750D9261850ED
:103EA800DA22300EDE6E040EDD6E17C0D9FF18C0A0
:103EB800DAFF0C0EDF6E17C0D9FF18C0DAFF000E4C
:103EC800DB8E000CD36B1200746B71C0D9FF72C00B
:103ED800DAFFDF5010E071C0D9FF72C0DAFFB40E0C
:103EE8007325E16EE26A010EE222DFCFE7FF714B34
:103EF800722B732B09D0B40E7325D96EDA6A010EB2
:103F0800DA22200EDF6E04D0742B050E7465DDD71F
:103F1800745112000001616B23501FE035EC21F051
:103F2800626F0D0E62190BE1540E2924D96EDA6AFC
:103F3800010EDA22DF6A010E616F296A0ED0625122
:103F48000CE00A0E621909E0540E2924D96EDA6AC7
:103F5800010EDA2262C0DFFF292A61511200928025
:103F68009282928492868D949694929A929C929E32
:103F780093829380939493969398939A949094921F
:103F88009484949C948E956A9694899A899C899E27
:103F98008A948B948B9C8D840F015B915B835B85EA
:103FA8005B875D9F5D9D12003BC041F03CC042F0C5
:103FB800425004E07F0AD8A4120019D04150010AE7
:103FC80002E198EF20F0030AD8B41200010A02E1D6
:103FD800EFEF19F0060AD8B41200770AD8B4120025
:103FE800010AD8B41200070AD8A4010A1200411C19
:103FF800120000016F6B706B6C0E616F7A0E626F4E
:104008008EEC21F007D06F4B702B510E6F5DC30EF5
:10401800705904E28EEC1FF00009F5E0540E6A6F47
:10402800010E6B6F6CEC1EF0540E00016D6F010EEB
:104038006E6F120062C068F063C069F060C066F01D
:1040480061C067F00ED068C0D9FF69C0DAFF66C0EA
:10405800E1FF67C0E2FFDFCFE7FF684B692B664BE4
:10406800672B6407D8A065076429EDE16529EBE1B2
:1040780012006251631117E0010E646F04D0D890EA
:1040880062376337642B63AFFAD76251605D63515F
:10409800615904E36251605F6351615BD890633397
:1040A8006233642FF2D760C060F061C061F0120023
:1040B8006AA01BD015C0D9FF16C0DAFF800EDE1823
:1040C80013E10FC0D9FF10C0DAFF840EDE180CE12F
:1040D80015C0D9FF16C0DAFF0C0EDF6E15C0D9FF68
:1040E80016C0DAFF000EDB8E6A90659A1200616FC7
:1040F800000EF2BE010E0001626F61C0A9FF60C030
:10410800A8FFA69EA69CA684F29E550EA76EAA0E90
:10411800A76EA682A6B2FED7A694000162B102D00D
:10412800F29E01D0F28E120016EC1FF0ED6B080E15
:10413800EF6FEE6BE96B4B0EEA6FEB6BEC6BE2EC3F
:1041480021F03A6A140E3A24D96EDA6A010EDA229C
:10415800DF6A3A2A3F0E3A64F5D71A6A196A1200DA
:10416800616F0001636B605114E0010E626F03D050
:10417800D8906037622B60AFFBD7D8906337605117
:10418800615D03E36051615F6381D8906033622FA2
:10419800F4D763511200396E36A404D02E6A395010
:1041A80035EC1AF036A205D0010E2E6E395035ECDA
:1041B8001AF06A0E3924376E386A0F0E382237C063
:1041C800D9FF38C0DAFF36C0DFFF0F0C0001656B7E
:1041D800666B560E616F7A0E626F8EEC21F007D017
:1041E800654B662B510E655DC30E665904E28EEC75
:1041F8001FF00009F5E0540E636F010E646F1200A2
:104208000001606F2650FEE09DB803D060C0ADFF8E
:104218000FD09D98400E2724D96EDA6A020EDA2252
:1042280060C0DFFF272A3F0E276401D0276A2606D1
:104238009D88120096948D84939493969398949065
:1042480094928A868A98FAEC1AF0010EA4EC22F06D
:10425800F70E0001606F750E616F5BEC23F00EEFD7
:1042680023F001D0898E2350FDE09D9A000E25246D
:10427800D96EDA6A020EDA22DF500001606F252A51
:104288003F0E256401D0256A23069D8A60511200DD
:104298000001606B000E6025D96EDA6A020EDA2220
:1042A800DF6A602B3F0E6065F5D7246A256A236AAA
:1042B8009D98276A286A400E266E400CD751D8A4CC
:1042C8001200606A646A160E626E9F0E666E7B0E3E
:1042D800646ED08EA584A384F28E01D0608660A619
:1042E800FDD7010ED76F010CCD6ACC6AD00ECF6E08
:1042F800200ECE6ECE50CFCF60F00001616B60C053
:1043080061F0606B6011CB6F6151CC6F9E909D80A6
:10431800E5EF23F00BD061C0F6FF62C0F7FF08009D
:10432800F55004EC21F00001614B622B61C0F6FFEF
:1043380062C0F7FF0800F550EEE1ACEF23F060C073
:1043480066F061C067F008D066C0D9FF67C0DAFFC1
:1043580062C0DFFF664B672B6407D8A06507642936
:10436800F3E16529F1E112009D9A9D98480EB86E17
:10437800900EAB6E260EAC6ED00EAF6EB06A276A8A
:10438800286A400E266E246A256A236A9D8AAB88AD
:1043980012002EC034F02FC035F008D034C0D9FF39
:1043A80035C0DAFF30C0DFFF344A352A3206D8A0DC
:1043B80033063228F3E13328F1E112009D9A9D98E3
:1043C800480EB86E900EAB6E260EAC6ED00EAF6E69
:1043D800B06A276A286A400E266E246A256A236A0C
:1043E8009D8AAB881200636B646B0BD0100E626FF2
:1043F800940EE82EFED7622FFCD700D00001634B45
:10440800642B6051635D61516459F0E31200616F80
:10441800080E0001626F636BD89061356335636F76
:10442800D89061376051635D02E36051635F622F2A
:10443800F3D763511200636B646B0BD0100E626F7D
:10444800940EE82EFED7622FFCD700D00001634BF4
:10445800642B6051635D61516459F0E31200400EB2
:1044680026600FD0400E2824D96EDA6A020EDA22AE
:10447800DF50AD6E282A3F0E286401D0286A262A0C
:1044880012009D981200ABA203D0AB98AB88120023
:10449800000E2424D96EDA6A020EDA22AECFDFFFCC
:1044A800242A3F0E246401D0246A232A1200606F54
:1044B8000F0E000160170A0E606103D06051300FC3
:1044C8001200090E6065000C100E6061000C60514E
:1044D800370F120060516203F3CF64F0F4CF65F038
:1044E80060516303F350652761516203F3506527F8
:1044F80064C060F065C061F01200820E616F7A0ED0
:10450800626F8EEC21F09DB8FED7FA0E0001636F42
:10451800580EE82EFED7632FFCD700D01200D46BBC
:104528003C6A740E3B6E3D6A3E6A406A3F6AD8EC4C
:104538001FF06092649401D0659465A41200FCD7C2
:104548000001616F615106E1A00E26EC23F0C80E50
:1045580026EF23F0A10E26EC23F0C00E26EF23F061
:1045680031EC23F0B3EC1FF078EC21F07FEC23F072
:10457800D3EC22F0B8EC21F03CEC23F076EF23F0FA
:1045880000016C6F6D6B6DC062F06CC063F0200E43
:10459800AFEC1BF06D2B0F0E6D65F5D70F0C040EED
:1045A800B16EB46AD50EB36ED00EB26EB2CFCDF086
:1045B800B3CFCEF0A192A082E1EF23F06484659896
:1045C8006082010E0001D46F3C6A750E3B6E3D6A35
:1045D8003E6A406A3F6AD8EF1FF0A1928DA406D0C8
:1045E8008D94D50EB36ED00EB26ED00C8D84FB0EAA
:1045F800B36E500EB26E500CA394205009E160C007
:10460800BEF061C0BFF062C0DEF0010EDC6F206E4C
:10461800A3841200000EC4EC22F0010EC4EC22F0B8
:10462800020EC4EC22F0030EC4EF22F0616F000109
:1046380061390F0B100926EC23F0000161510F0BB3
:1046480026EF23F00001606F8A988B9060C08CFF82
:104658008B9200F08B828A881200800E9B6E700EFF
:10466800D36E100ED26ED2AEFED7900EB56E900CF1
:10467800A00E7D6E010EC26E080EC16E8E0EC06E4B
:10468800C36AC46A1200606F8A988B8060C08CFF0E
:104698008B9200F08B828A881200606F60C0A9FF3D
:1046A800A69CA69EA68000F000F0A85012006051BB
:1046B8006111D8B4120060C0F5F061C0F6F01200C4
:1046C8000001616F810E26EC23F00001615126EF95
:1046D80023F0606F000160A302D0C54BC62B60B702
:1046E800E52B1200A09C9C0E986E9A8A9A929A9634
:1046F800A19CA09C9C0C7A0EBA6E9B0EBB6EBC6AE9
:104708009E92E3EF23F0616FB00E000161136151D7
:1047180026EF23F0DB0E0001606F010E616F1200BF
:104728000001616F6151200926EF23F00001616FDC
:104738006151280926EF23F00001616F618D6151F5
:1047480026EF23F0050E616F7A0E626F9AEF21F063
:104758000D0E04EC21F00A0E04EF21F09E90CCC05F
:10476800CFFFCBC0CEFF1200BCCF60F0000160517C
:1047780012000001606F60C0F8F01200F7750201C6
:10478800010103030300606F60C0E7F01200606F6F
:1047980060C0FAF01200AE0E26EF23F00001F851C7
:1047A8001200010E2A6E010C0001DB811200DF519C
:1047B8001200DB6B12002A501200B1801200BA847A
:0C47C8001200CD801200A19C1200120013
:1075EE0000B4793A796E79F7780000000000000057
:1075FE00000000005F000000000000030003000018
:10760E0000643C26643C2624002649497F494932C1
:10761E0000422512082452210020504E552258288F
:10762E0000000000030000000000001C22410000CA
:10763E000000000041221C00000015150E0E15154D
:10764E00000008083E08080000000000503000004E
:10765E0000000808080808000000000040000000B4
:10766E00004020100804020100003E4141413E004E
:10767E00000000417F4000000000426151496E0051
:10768E00000022414949360000001814127F1000F4
:10769E00000027494949710000003C4A49487000E2
:1076AE0000004321110D0300000036494949360000
:1076BE000000060949291E0000000000120000000B
:1076CE0000000000523000000000000814142200D8
:1076DE0000001414141414140000002214140800D2
:1076EE000000020159050200003E415D554D512E2C
:1076FE0000407C4A094A7C4000417F49494949364D
:10770E00001C22414141412200417F414141221C46
:10771E0000417F49495D416300417F49091D0103D5
:10772E00001C224149493A0800417F0808087F4160
:10773E00000041417F41410000304041413F010185
:10774E0000417F080C12614100417F414040406082
:10775E0000417F420C427F4100417F420C117F016C
:10776E00001C22414141221C00417F4909090906A2
:10777E00000C12212161524C00417F090919694602
:10778E000066494949494933000301417F410103DC
:10779E0000013F4140413F0100010F3140310F01D7
:1077AE0000011F6114611F0100414136083641413D
:1077BE00000103447844030100436151494543618C
:1077CE000000007F4141000000010204081020402B
:1077DE0000000041417F000000000402010102048C
:1077EE000000404040404040000001020000000008
:1077FE000000344A4A4A3C400000413F4848483065
:10780E0000003C42424224000000304848493F40BC
:10781E0000003C4A4A4A2C00000000487E490900FC
:10782E000000264949493F0100417F480444784001
:10783E00000000447D40000000000040443D000078
:10784E0000417F1018244242000040417F4040001A
:10785E0000427E027C027E4000427E4402427C4018
:10786E0000003C4242423C000000417F49090906AB
:10787E000000060909497F410000427E44020204CD
:10788E000000644A4A4A36000000043F4444200087
:10789E000000023E4040227E40020E3240320E0276
:1078AE0000021E6218621E02004262140814624236
:1078BE00000143453805030100004662524A466204
:1078CE000000000836410000000000007F000000AC
:1078DE0000000000413608000000180808101018BB
:1078EE0000AA55AA55AA55AA55090243000201003D
:1078FE00C03209040000010202010005240010013B
:10790E0004240202052406000105240100010705D6
:10791E00810308000209040100020A0000000705A5
:10792E0002024000000705820240000034034D00B1
:10793E006900630072006F006300680069007000E8
:10794E00200054006500630068006E006F006C003C
:10795E006F0067007900200049006E0063002E0062
:10796E0034034300440043002000520053002D0016
:10797E00320033003200200045006D0075006C00AF
:10798E006100740069006F006E0020004400650005
:10799E006D006F001201000202000008D8040A00F8
:1079AE000001010200010403090473797320736559
:1079BE00742070696E6D6F6465204750494F313287
:1079CE0020616E6100737973207365742070696E27
:1079DE006D6F6465204750494F313320616E6100F1
:1079EE00737973207365742070696E6469672047BC
:1079FE0050494F313020300D0A0073797320736572
:107A0E00742070696E646967204750494F31312088
:107A1E00300D0A00737973207365742070696E647B
:107A2E006967204750494F313020310D0A00737974
:107A3E0073207365742070696E64696720475049BE
:107A4E004F313120310D0A00737973206765742030
:107A5E0070696E616E61204750494F313200737903
:107A6E0073206765742070696E616E61204750499E
:107A7E004F31330073797320736C6565702039391B
:107A8E0039393939393939004D6163204572726F90
:107A9E0072204F636375727265640028554E434EB3
:107AAE0046292020202028434E4629200020202829
:107ABE00533229202020202020202020200020208A
:107ACE0020205265636569766564202020200020A1
:107ADE002020202020202020285333292020200061
:107AEE0020202853322920202028533329202020DB
:107AFE000020204C617374204D657373616765209F
:107B0E002000205669657720446F776E6C696E6B26
:107B1E00202000202049737375652055706C696EA6
:107B2E006B202000202853322920202020202028BE
:107B3E005333292000204A6F696E696E67204D65A8
:107B4E0074686F6420005365727665722052657397
:107B5E00706F6E736520005478204576656E7420C4
:107B6E0054696D696E672000506572696F64696350
:107B7E002055706C696E6B2000204C6F526157411E
:107B8E004E205061636B657420003C2D20414250A5
:107B9E002020204F544141202D3E00526552756EDB
:107BAE00205077725473743C53323E0044617461BA
:107BBE00205472616E736D697474656400456E74E1
:107BCE00657220536C656570204D6F64650055704D
:107BDE006C696E6B2050636B742054797065005322
:107BEE00656C656374204461746120526174650034
:107BFE004D6F62696C65204D6F7465202D417070FC
:107C0E00004E61766967617465202053656C65630B
:107C1E0074004D656E75204861732054696D656FF3
:107C2E0075740053656E6420506572696F64696384
:107C3E0020547800446F776E6C696E6B20446973C4
:107C4E00706C61790020202020446973706C61791A
:107C5E002020202000202053656E736F7220446117
:107C6E007461202000284E415629202020202843D0
:107C7E004E47292000284E415629202020202853E7
:107C8E00454C292000284E415629202020202853DB
:107C9E004C502920006D61632073657420616472FD
:107CAE00206F6666004E6F204672656520436861E0
:107CBE006E6E656C004275696C6420446174652F4C
:107CCE0054696D650020202020456E61626C6564EC
:107CDE00202020002020202044697361626C65649E
:107CEE002020006D61632073657420616472206FC3
:107CFE006E002020204C6F52612044656D6F202055
:107D0E0000205620312E302E3120436F6465200026
:107D1E004D6963726F63686970204D6F7465006D95
:107D2E00616320747820756E636E6620006D6163EA
:107D3E00206A6F696E206F74616100696E76616C86
:107D4E0069645F706172616D006B6579735F6E6FF0
:107D5E00745F696E6974005468726F7520506F722B
:107D6E00742320004C3A20202020202020543A203A
:107D7E00006D6163207365742064722030006D6144
:107D8E0063207365742064722031006D616320730B
:107D9E0065742064722032006D61632073657420F7
:107DAE0064722033006D61632073657420647220E9
:107DBE0034006D6163207365742064722035006D2C
:107DCE006163207365742064722036006D616320D8
:107DDE007365742064722037006D6163206A6F6969
:107DEE006E2061627000427574746F6E20546573FC
:107DFE00743A00427574746F6E31205041535300C3
:107E0E00427574746F6E3220504153530050726538
:107E1E00737320427574746F6E005553422048611F
:107E2E006E646C6572004F6E20506F727420233A30
:107E3E002000547820506F727420233A200053652E
:107E4E006E7420446174613A200044617461205262
:107E5E006174653A20006D616320747820636E66EC
:107E6E0020004D61792020332032303136004275AA
:107E7E0074746F6E204641494C004F544141204A64
:107E8E006F696E20006E6F5F667265655F63680076
:107E9E005375636365737366756C006D61632067FC
:107EAE0065742064720056616C6964204B65797349
:107EBE0000436F6D6D20546573743A0052782050F4
:107ECE006F7274232000414250204A6F696E200069
:107EDE004D4F5445204D6F6465004F544141204A2B
:107EEE006F696E006D6163207265736574007379DE
:107EFE0073207265736574004C4544205465737429
:107F0E003A00434443204D6F6465005265717569B4
:107F1E00726564006163636570746564006D6163AE
:107F2E002073617665005374617274696E67004DDB
:107F3E006F54652076202E0031343A30323A333881
:107F4E0000524620546573743A00414443205465F0
:107F5E00737400436F6D6D616E640054656D7020B7
:107F6E00203D004C69676874203D0054656D70209B
:107F7E003A004C696768743A0045766572793A0042
:107F8E0044656E6965640064656E696564006E6F54
:107F9E005F667265006D61635F6572006D61635F40
:107FAE007278006D61635F747800524E3234005205
:107FBE004E3239004D696E73002030200020312082
:107FCE0000203220002033200020342000203520D5
:107FDE000020313000203330002036300020313583
:107FEE00004F464600414452006F6B0043007A003A
:027FFE00000081
:020000040020DA
:08000000FFFFFFFFFFFFFFFF00
:020000040030CA
:0E00000021081F36FFD181FF0FC00FE00F4017
:00000001FF
