:0400000066EF00F0B7
:10000800FACF34F0FBCF35F0E9CF36F0EACF37F04E
:10001800E1CF38F0E2CF39F0D9CF3AF0DACF3BF080
:10002800F3CF3CF0F4CF3DF01AEE28F0F0B6F0A094
:1000380003D0A3EC4AF031D0F0B8F0A203D09FEC83
:100048004AF02BD0F2B6F2A003D096EC4AF025D0B5
:10005800F2AC23D09DB09EA002D0C4EC49F09DB86C
:100068009EA80CD001D80AD00500FA6E0301F551FC
:10007800FD6EF651FE6EFF6AFA5012009DBA9EAAF6
:100088000CD001D80AD00500FA6E0301F351FD6EB9
:10009800F451FE6EFF6AFA5012003DC0F4FF3CC0F6
:1000A800F3FF3BC0DAFF3AC0D9FF39C0E2FF38C0DE
:1000B800E1FF37C0EAFF36C0E9FF35C0FBFF34C0B7
:1000C800FAFF110017EE9EF041EF37F0B0EC4AF05E
:1000D80002010DB189EF06F0F3C1D9FFF4C1DAFFCF
:1000E800DF500001E16FE139E832070BE806D8A4D8
:1000F800D8D002012751D8A4D4D00101F5050001B8
:1001080028D0E751DA6FDB6BDA1FDB1FDA4BDB2B0A
:100118000101F5510001DC6FDD6BDA51DC27DB51A1
:10012800DD23DC510101F32500017D6FDD51010163
:10013800F42100017E6F4C0E7F6F020E806F1EEC63
:1001480046F0100E0001E76503D0100EE75F02D0FD
:10015800000EE76FE751D8A4D4D74C0EC76F020E34
:10016800C86FF3C1C9F0F4C1CAF00101F551FC0F21
:100178000001CB6F74EC40F0C7C0EAF0C8C0EBF0E8
:10018800C9C0ECF0CAC0EDF0F3C16BF0F4C16CF07B
:10019800F5C16DF020EC42F06BC0E2F06CC0E3F00A
:1001A8006DC0E4F06EC0E5F00001EA51E2190AE121
:1001B800EB51E31907E1EC51E41904E1ED51E519BC
:1001C800D8B411D002010C510F0B050AD8B408D0CD
:1001D8000C510F0B030AD8A41200FB51D8B412001B
:1001E80084EC46F0120002010C510F0B030AD8A44C
:1001F80003D0ED51FBEC47F0F3C1EEF0F4C1EFF0A2
:10020800000120EE07F0EE51D926EF51DA22DECFB9
:1002180028F2DECF29F2DECF2AF2DECF2BF220EE53
:100228000CF0EE51D926EF51DA22DF500F0B45ECD6
:1002380045F0000120EE0BF0EE51D926EF51DA22FD
:10024800DF38070B606F20EE0BF0EE51D926EF5127
:10025800DA22DF500F0B3DEC49F0EEC0A6F0EFC0FC
:10026800A7F00101F55135EC23F0EEC091F0EFC095
:1002780092F0A1EC3CF0000EE66EEAEC2DF0000ED8
:100288000201106F000E116F000E126F000E136F37
:10029800000E146F000E156F000E166F000E176F0C
:1002A80012000001E139E832070B030AD8B407D07D
:1002B800E139E832070B050AD8A486EF06F0000EEC
:1002C8000201B16FF3C1F1F0F4C1F2F0020E1C1992
:1002D800D8A410D2000120EE01F0F151D926F25134
:1002E800DA2202016C51DE1809E16D51DE1806E1CF
:1002F8006E51DE1803E16F51DE18D8A4FBD10EA5AC
:10030800F9D1F1C060F0F2C061F026EC3DF00009CF
:10031800D8A408D002010C51F00B09090C6FE6ECC7
:100328003DF01200000120EE06F0F151D926F251FD
:10033800DA22DECFDAF0DDCFDBF0DAC06BF0DBC03B
:100348006CF06D6B6E6B0101F551FC0F00016F6F66
:10035800490E706F010E716F010ED6EC32F0800EEF
:100368000001606F050E616FA00E626F030E636F70
:10037800000E656F100E646F37EC41F0900E0001AF
:10038800606F050E616FF3C162F0F4C163F0FC0E9B
:100398000101F5250001646F656BFF0E652337ECDD
:1003A80041F0700E0001B96F020EBA6FA00EBB6F5C
:1003B800030EBC6F800EBD6F050EBE6F0101F551B7
:1003C8000C0F0001BF6F1FEC11F0EA0E0001606F07
:1003D800000E616FA00E626F030E636F000E656FF3
:1003E800040E646F37EC41F0F3C16BF0F4C16CF0AC
:1003F800F5C16DF020EC42F06BC0E2F06CC0E3F0A8
:100408006DC0E4F06EC0E5F00001E251EA190AE1BE
:10041800E351EB1907E1E451EC1904E1E551ED1959
:10042800D8B408D002010C51F00B09090C6FE6ECA6
:100438003DF01200000120EE06F0F151D926F251EC
:10044800DA2202011851DE5C1951DE58D8A050D0CA
:10045800000120EE06F0F151D926F251DA22DECF62
:10046800DAF0DDCFDBF022EE18F0DECFDCF0DDCF06
:10047800DDF0DC1FDD1FDC4BDD2BDA51DC27DB5127
:10048800DD23DC510201A85D0001DD510201A959FB
:10049800D8B022D001010C510D11D8B415D0000EDE
:1004A8000001606F000E616F000E626F050E636FD2
:1004B80001D80AD00500FA6E01010C51FD6E0D51EC
:1004C800FE6EFF6AFA50120002010C51F00B090986
:1004D8000C6FE6EC3DF01200000120EE06F0F15141
:1004E800D926F251DA22DECF18F2DDCF19F23AD04E
:1004F800000120EE06F0F151D926F251DA22DE5041
:10050800DE10D8A40DD0020118290AE11929D8A4AF
:1005180007D0000E196F000E186F1A4B1B2B22D034
:1005280001010C510D11D8B415D0000E0001606FF7
:10053800000E616F000E626F050E636F01D80AD05E
:100548000500FA6E01010C51FD6E0D51FE6EFF6A39
:10055800FA50120002010C51F00B09090C6FE6EC7D
:100568003DF012000201182929E1192927E11A2969
:1005780025E11B29D8A422D001010C510D11D8B4B2
:1005880015D0000E0001606F000E616F000E626FE3
:10059800050E636F01D80AD00500FA6E01010C51EF
:1005A800FD6E0D51FE6EFF6AFA50120002010C51E9
:1005B800F00B09090C6FE6EC3DF0120002010C513A
:1005C8000F0B080AD8A408D0EE51FBEC47F0020143
:1005D800EF51FBEC47F009D002010C510F0B030A55
:1005E800D8A403D0EF51FBEC47F0080E0101F32526
:1005F800F36F000EF421F46FF5510001DA6FDB6B35
:1006080020EE05F0F151D926F251DA22DF500F0B16
:10061800DC6FDD6B0C0EDC27000EDD23DA51DC19F4
:1006280004E1DB51DD19D8B437D0F3C1D9FFF4C1E7
:10063800DAFFDF50DF6F0101F34BF42BF551F40FB4
:100648000001F06F190EE66FF3C191F0F4C192F05A
:10065800F005936F010E946F18C295F019C296F0C9
:100668001AC297F01BC298F0800E996F020E9A6F0B
:10067800E6C09BF0800E9C6F050E9D6F010E9E6F6D
:1006880096EC27F0FF0E0101F3250001E86FFF0E3D
:100698000101F421000105D0000EF06F000EE86F93
:1006A800000EE96F02010D830C910C930C950C97C9
:1006B80001010C510D11D8B415D0E8C060F0E9C0A3
:1006C80061F0F0C062F0010E0001636F01D80AD03A
:1006D8000500FA6E01010C51FD6E0D51FE6EFF6AA8
:1006E800FA50120002010C51F00B09090C6FE6ECEC
:1006F8003DF01200000120EE01F0F151D926F2512F
:10070800DA2202012851DE180AE12951DE1807E130
:100718002A51DE1804E12B51DE18D8B40ED0A7EC0C
:100728003DF0020E02011C19D8A412000C51F00B66
:1007380009090C6FE6EC3DF01200000120EE06F00E
:10074800F151D926F251DA22DECFDAF0DDCFDBF033
:10075800DAC06BF0DBC06CF06D6B6E6B0101F551AC
:10076800FC0F00016F6F490E706F000E716F010E64
:10077800D6EC32F0800E0001606F050E616FA00E9E
:10078800626F030E636F000E656F100E646F37ECB7
:1007980041F0900E0001606F050E616FF3C162F0C9
:1007A800F4C163F0FC0E0101F5250001646F656B6F
:1007B800FF0E652337EC41F02C0E0001B96F020ED5
:1007C800BA6FA00EBB6F030EBC6F800EBD6F050E17
:1007D800BE6F0101F5510C0F0001BF6F1FEC11F046
:1007E800EA0E0001606F000E616FA00E626F030ECB
:1007F800636F000E656F040E646F37EC41F0F3C150
:100808006BF0F4C16CF0F5C16DF020EC42F06BC0F8
:10081800E2F06CC0E3F06DC0E4F06EC0E5F00001FA
:10082800E251EA190AE1E351EB1907E1E451EC1945
:1008380004E1E551ED19D8B40ED0A7EC3DF0020E55
:1008480002011C19D8A412000C51F00B09090C6FF5
:10085800E6EC3DF01200000120EE06F0F151D92639
:10086800F251DA2202011451DE5C1551DE58D8A08B
:100878005DD0000120EE06F0F151D926F251DA22BE
:10088800DECFDAF0DDCFDBF022EE14F0DECFDCF0E5
:10089800DDCFDDF0DC1FDD1FDC4BDD2BDA51DC2783
:1008A800DB51DD23DC510201A65D0001DD510201AF
:1008B800A759D8B02FD00A910C910C930C950C978E
:1008C80001010C510D11D8B417D002010A9B000E7A
:1008D8000001606F000E616F000E626F000E636FA3
:1008E80001D80AD00500FA6E01010C51FD6E0D51B8
:1008F800FE6EFF6AFA50120002010D930E83020E7B
:100908001C19D8A412000C51F00B09090C6FE6EC65
:100918003DF01200000120EE06F0F151D926F25107
:10092800DA22DECF14F2DDCF15F22ED0000120EE50
:1009380006F0F151D926F251DA22DE50DE10D8A4A1
:1009480015D00201142912E11529D8A40FD00001ED
:1009580020EE06F0F151D926F251DA22DECF14F258
:10096800DDCF15F20201164B172B0ED0A7EC3DF088
:10097800020E02011C19D8A412000C51F00B09092F
:100988000C6FE6EC3DF012000201142913E1152961
:1009980011E116290FE11729D8A40CD00E83020EF5
:1009A8001C19D8A412000C51F00B09090C6FE6ECC5
:1009B8003DF0120002010C510F0B030AD8A403D01A
:1009C800EF51FBEC47F0010E0201E26FF1C060F05D
:1009D800F2C061F096EC41F0000120EE05F0F15113
:1009E800D926F251DA22DF500F0B0009D8B416D0FD
:1009F800080EF125B06F000EF221B16F20EE05F060
:100A0800F151D926F251DA22DF500F0BB26F5BECAD
:100A180019F0B0C0F3F1B1C0F4F107D0080E01012C
:100A2800F325F36F000EF421F46F0101F551000175
:100A3800DA6FDB6B20EE05F0F151D926F251DA229C
:100A4800DF500F0BDC6FDD6B0C0EDC27000EDD2397
:100A5800DA51DC1904E1DB51DD19D8B498D0F3C1BF
:100A6800D9FFF4C1DAFFDF50DF6F0101F34BF42B3C
:100A7800000120EE05F0F151D926F251DA22DF50BB
:100A88000F0B00080101F525F40F0001F06F20EEAF
:100A980005F0F151D926F251DA22DF500F0B190F68
:100AA800E66FDF51D8B428D0F3C191F0F4C192F0C9
:100AB800F005936F010E946F14C295F015C296F06D
:100AC80016C297F017C298F03C0E996F020E9A6FF3
:100AD800E6C09BF0800E9C6F050E9D6F000E9E6F0A
:100AE80096EC27F0FF0E0101F3250001E86FFF0ED9
:100AF8000101F421000150D00101F5510001DA6F24
:100B0800DB6B20EE05F0F151D926F251DA22DF50E5
:100B18000F0BDC6FDD6B0D0EDC27000EDD23DA51C9
:100B2800DC5DDD51800ADE6FDB51800ADE59D8B00A
:100B38002BD0F3C191F0F4C192F0F005936F010E40
:100B4800946F14C295F015C296F016C297F017C2AA
:100B580098F02C0E996F020E9A6FE6C09BF0800EEB
:100B68009C6F050E9D6F000E9E6F96EC27F0F3C1EB
:100B7800B0F0F4C1B1F00001F005B26F5BEC19F010
:100B8800B0C0F3F1B1C0F4F1000E000101D0000EC5
:100B9800F06F000EE86F000EE96F010E0201E26FC0
:100BA800000EDB6F000EDA6F000EF86F0A990D83E6
:100BB8000AA155D0000120EE05F0F151D926F251D5
:100BC800DA22DFAA49D002010A910C910C930C9504
:100BD8000C9701010C510D11D8B417D002010A9BD2
:100BE800E8C060F0E9C061F0F0C062F0010E0001F9
:100BF800636F01D80AD00500FA6E01010C51FD6E31
:100C08000D51FE6EFF6AFA50120002010D930CBBE3
:100C18000ABB6CD00AB302D00AA768D0010E000143
:100C2800AF6FE00EB06F000EB16F0201F75120EC0C
:100C38002FF00009D8A40DD0000E0001D36F000ECC
:100C4800D46F000ED56F000ED66F000E71EC36F023
:100C580048D05CEC28F04AD09AEC3EF047D00C9192
:100C68000C930C950C9701010C510D11D8B417D0A9
:100C780002010A9BE8C060F0E9C061F0F0C062F0D0
:100C8800010E0001636F01D80AD00500FA6E010158
:100C98000C51FD6E0D51FE6EFF6AFA5012000201F2
:100CA8000CBB0ABB23D00AB302D00AA71FD0010E7F
:100CB8000001AF6FE00EB06F000EB16F0201F75187
:100CC80020EC2FF00009D8A40FD0000E0001D36F3C
:100CD800000ED46F000ED56F000ED66F000E71ECAB
:100CE80036F002010A9702D05CEC28F0020E0201ED
:100CF8001C19D8A412000C51F00B09090C6FE6EC72
:100D08003DF01200A7EC3DF0120001010C510D114D
:100D1800D8B41200ADEC4AF00001DA6FDAB714D09B
:100D2800F3C160F0F4C161F0F5C162F0030E636FC6
:100D380001D812000500FA6E01010C51FD6E0D512B
:100D4800FE6EFF6AFA501200F3C160F0F4C161F060
:100D5800F5C162F0020E0001636F01D812000500B0
:100D6800FA6E01010C51FD6E0D51FE6EFF6AFA50CC
:100D7800120002010DB1A2D3000E0001D16F000EC6
:100D8800D26F000ED36F000ED46F000ED56FDE69E0
:100D9800DF69E069E169000E0201FB6F0C51F00B9D
:100DA80002090C6FE4C2E2F00AA5BAD02151010D84
:100DB8006F0EF324F66EFF0EF420F76EF86A000E3D
:100DC800F8220800F5CFBDF0A2510001BD25BE6F85
:100DD800000EBDBFFF0E0201A3210001BF6FC06B53
:100DE800C16B0C0ED890BE37BF37C037C137E82E5D
:100DF800F9D7BEC060F0BFC061F0C0C062F0C1C02A
:100E080063F07D0E646F000E656F000E666F000E56
:100E1800676FE4EC3CF060C06DF061C06EF062C0DA
:100E28006FF063C070F00201EC5101EC45F0020173
:100E38002651010D6F0EF324F66EFF0EF420F76EA7
:100E4800F86A000EF8220800F5CFBDF0A4510001A1
:100E5800BD25BE6F000EBDBFFF0E0201A52100011A
:100E6800BF6FC06BC16B0C0ED890BE37BF37C03791
:100E7800C137E82EF9D7BEC060F0BFC061F0C0C06E
:100E880062F0C1C063F07D0E646F000E656F000EE6
:100E9800666F000E676FE4EC3CF060C06DF061C0F7
:100EA8006EF062C06FF063C070F00201ED5101ECAA
:100EB80045F00201EC51B4EC3AF00201ED51B4EC0A
:100EC8003AF0E5C29AF0E6C29BF000019C6B9D6B7C
:100ED800D60E9E6F0B0E9F6F000EA06F000EA16FB7
:100EE8004DEC42F0FF0E00019A25D66FFF0E9B21B4
:100EF800D76FFF0E9C21D86FFF0E9D21D96FD6C0EA
:100F08009AF0D7C09BF0D8C09CF0D9C09DF0BBC068
:100F18009EF0BCC09FF0A06BA16B4DEC42F0D7D007
:100F280002012151010D6F0EF324F66EFF0EF4201D
:100F3800F76EF86A000EF8220800F5CFBDF09E5152
:100F48000001BD25BE6F000EBDBFFF0E02019F212F
:100F58000001BF6FC06BC16B0C0ED890BE37BF3796
:100F6800C037C137E82EF9D7BEC060F0BFC061F006
:100F7800C0C062F0C1C063F07D0E646F000E656F83
:100F8800000E666F000E676FE4EC3CF060C06DF019
:100F980061C06EF062C06FF063C070F00201EE5184
:100FA80001EC45F002012651010D6F0EF324F66E97
:100FB800FF0EF420F76EF86A000EF8220800F5CF4D
:100FC800BDF0A0510001BD25BE6F000EBDBFFF0ED4
:100FD8000201A1210001BF6FC06BC16B0C0ED8903C
:100FE800BE37BF37C037C137E82EF9D7BEC060F06B
:100FF800BFC061F0C0C062F0C1C063F07D0E646F15
:10100800000E656F000E666F000E676FE4EC3CF033
:1010180060C06DF061C06EF062C06FF063C070F0C8
:101028000201EF5101EC45F00201EE51B4EC3AF047
:1010380002011C51D8A403D0EF51B4EC3AF00001DE
:10104800E2510E0D060EF326000EF422000EF324D4
:10105800D96E040EF420DA6EDECFBDF0DDCFBEF01F
:10106800BD51BF6FBE51C06FC16BC26B010EBF25B2
:101078009A6F000EC0219B6F000EC1219C6F000E5D
:10108800C2219D6FE5C29EF0E6C29FF0A06BA16BE6
:101098004DEC42F0FF0E00019A25D66FFF0E9B2102
:1010A800D76FFF0E9C21D86FFF0E9D21D96FD6C038
:1010B8009AF0D7C09BF0D8C09CF0D9C09DF0BBC0B7
:1010C8009EF0BCC09FF0A06BA16B4DEC42F00001FC
:1010D800E2510E0D080EF326000EF422000EF32442
:1010E800D96E040EF420DA6E9AC0DEFF9BC0DEFFD4
:1010F8009CC0DEFF9DC0DEFF0201F35181EC47F08A
:101108000009D8B48AD00201F351FBEC47F0020180
:10111800F35186EC45F091C0DAF092C0DBF093C051
:10112800DCF094C0DDF00001DD5108E11F0EDA5D4E
:10113800AC0EDB59DF0EDC59D8A024D0DAC0BDF0E4
:10114800DBC0BEF0DCC0BFF0DDC0C0F00D0E05D0C6
:10115800D890C033BF33BE33BD33E82EF9D7BDC0F6
:101168009AF0BEC09BF0BFC09CF0C0C09DF07D0E41
:101178009E6F000E9F6F000EA06F000EA16F4DECCA
:1011880042F01DD0DAC09AF0DBC09BF0DCC09CF0C6
:10119800DDC09DF07D0E00019E6F000E9F6F000E5A
:1011A800A06F000EA16F4DEC42F00D0E06D00001AD
:1011B800D8909D339C339B339A33E82EF8D79AC046
:1011C800C9F09BC0CAF09CC0CBF09DC0CCF0C9C090
:1011D800BDF0CAC0BEF0CBC0BFF0CCC0C0F00001AB
:1011E800BD1FBE1FBF1FC01FBD2B000EBE23BF23C8
:1011F800C0230201D2510001BD25D26F0201D35193
:101208000001BE21D36F0201D4510001BF21D46F68
:101218000201D5510001C021D56F000E0001E26F17
:101228000F0EE26501D0D4D0E2510E0D040EF32664
:10123800000EF422000EF324D96E040EF420DA6EA8
:10124800DE04D8A4C3D0E2510E0D080EF326000E1A
:10125800F422000EF324D96E040EF420DA6EDE5068
:10126800DE10DE10DE10D8B4B1D0E2510201E4196C
:10127800D8B46DD00001E2510E0D080EF326000E11
:10128800F422000EF324D96E040EF420DA6EDE5038
:10129800D25DDE50D359DE50D459DE50D559D8B07E
:1012A80046D0E2510E0D080EF326000EF422000E71
:1012B800F324D96E040EF420DA6EDECFBDF0DECF53
:1012C800BEF0DECFBFF0DECFC0F0D2C0C1F0D3C0D9
:1012D800C2F0D4C0C3F0D5C0C4F0C11FC21FC31F21
:1012E800C41FC12B000EC223C323C423BD51C12573
:1012F800C56FBE51C221C66FBF51C321C76FC05150
:10130800C421C86FE2510E0D080EF326000EF42218
:10131800000EF324D96E040EF420DA6EC5C0DEFF89
:10132800C6C0DEFFC7C0DEFFC8C0DEFF10D0E25176
:101338000E0D080EF326000EF422000EF324D96ECB
:10134800040EF420DA6EDE6ADE6ADE6ADD6A000107
:10135800E2510E0D080EF326000EF422000EF324BF
:10136800D96E040EF420DA6EDE50DE5DDE50DF59F1
:10137800DE50E059DE50E159D8A028D0E2510E0DD8
:10138800080EF326000EF422000EF324D96E040E84
:10139800F420DA6EDE50DE10DE10DE10D8B416D07F
:1013A800E2510E0D080EF326000EF422000EF3246F
:1013B800D96E040EF420DA6EDECFDEF0DECFDFF079
:1013C800DECFE0F0DECFE1F0010ED16FE22B28D7BF
:1013D800D105D8A467D0DEC0D2F2DFC0D3F2E0C016
:1013E800D4F2E1C0D5F2E15107E1DE29FF0EDF5961
:1013F8000F0EE059D8A01CD0DEC060F0DFC061F04D
:10140800E0C062F0E1C063F07D0E646F000E656FAE
:10141800000E666F000E676FE4EC3CF00C0ED8907F
:1014280000016037613762376337E82EF8D722D07A
:10143800DEC0BDF0DFC0BEF0E0C0BFF0E1C0C0F06C
:101448000C0ED890BD37BE37BF37C037E82EF9D756
:10145800BDC060F0BEC061F0BFC062F0C0C063F044
:101468007D0E646F000E656F000E666F000E676F6D
:10147800E4EC3CF060C0CDF061C0CEF062C0CFF0CB
:1014880063C0D0F0CDC06DF0CEC06EF0CFC06FF0AD
:10149800D0C070F00201F35101EC45F00201F351A4
:1014A800B4EC3AF0020E02011C19D8A412000C5137
:1014B800F00B08090C6FE6EC3DF01200ADEC4AF0B9
:1014C8000001BD6FBDA914D0000E606F000E616FE2
:1014D800000E626F020E636F01D812000500FA6EEB
:1014E80001010C51FD6E0D51FE6EFF6AFA5012009B
:1014F80001010C510D11D8B41200000E0001606FEB
:10150800000E616F000E626F030E636F01D8120048
:101518000500FA6E01010C51FD6E0D51FE6EFF6A59
:10152800FA5012006DC165F0000E0001666F000EE2
:10153800DAEC31F055C16DF056C16EF057C16FF05D
:1015480058C170F0C8EC33F00101705150EC33F021
:1015580001016D05D8A4EDD163C162F0390EBEEC6E
:1015680048F077C1A8F0010E0001A8170101D89032
:1015780076350001A96F01016F39F00B0001A9113F
:10158800A811626F1D0EBEEC48F0A6C0A8F0A7C057
:10159800A9F0A9C0A8F00001A96B030EA81771C192
:1015A800AAF0010EAA17D890AA37D890AA37010135
:1015B8006E39F00B0001AA11A811626F1E0EBEEC65
:1015C80048F0010173517411D8B46FD073C1ACF0F5
:1015D80074C1ADF00001AE6BAF6B4ED0ACC09AF0E9
:1015E800ADC09BF0AEC09CF0AFC09DF07D0E000179
:1015F8009E6F000E9F6F000EA06F000EA16F4DEC46
:1016080042F027D0ACC09AF0ADC09BF0AEC09CF0C1
:10161800AFC09DF0FA0E00019E6F000E9F6F000E86
:10162800A06F000EA16F4DEC42F013D0ACC09AF041
:10163800ADC09BF0AEC09CF0AFC09DF0F40E0001B1
:101648009E6F010E9F6F000EA06F000EA16F4DECF4
:1016580042F09AC0ACF09BC0ADF09CC0AEF09DC00B
:10166800AFF016D0000E0001AC6F000EAD6F000E8B
:10167800AE6F000EAF6F0CD001016F51070AD8B4DE
:10168800ADD70F0AD8B4BED7010AD8B4CFD7EAD796
:1016980001016E290001A86F05D0D890AF33AE3391
:1016A800AD33AC33A82FF9D709D0000E0001AC6FC9
:1016B800000EAD6F000EAE6F000EAF6FACC062F0E3
:1016C800240EBEEC48F0A6C062F01F0EBEEC48F037
:1016D800260EE7EC47F00001B06F0C0E01016E1901
:1016E800D8A408D0070E6F19D8B40CD0080E6F19FB
:1016F800D8B408D00B0E6E19D8A407D0070E6F19EE
:10170800D8A403D00001B08702D00001B097B085FB
:10171800B0C062F0260EBEEC48F0310EE7EC47F0A0
:101728000001B06FF80EB017030EB013B0C062F02E
:10173800310EBEEC48F00A0E0001626F370EBEECA7
:1017480048F0120E01018619D8A42FD0070E6F1980
:10175800D8B404D0080E6F19D8A417D0310EE7EC0E
:1017680047F00001B06FB09FB0C062F0310EBEEC20
:1017780048F0400E0001626F2F0EBEEC48F0000EDC
:101788000001626F300EBEEC48F0090E01016F19BE
:10179800D8A40BD0310EE7EC47F00001B06FB08F42
:1017A800B0C062F0310EBEEC48F0330EE7EC47F003
:1017B8000001B06FB09DB08175C1A8F0010EA817E7
:1017C800060EA96FD890A837A92FFCD7A851B01337
:1017D800B0C062F0330EBEEC48F075C1A8F0010E3F
:1017E8000001A817D890A837D890A835FF0A1D0B74
:1017F800B06FB0C062F03B0EBEEC48F00101625120
:101808000001626F200EBEEC48F061C162F0210E4B
:10181800BEEC48F0000E0001626F0D0EBEEC48F001
:10182800000E0001626F0E0EBEEC48F0000E0001C3
:10183800626F0F0EBEEC48F0120E01018619D8A493
:1018480071D0090E6F19D8A420D0800E555D130EE3
:101858005659610E5759330E5859D8A016D0550508
:10186800F70E5659CB0E57593C0E5859D8B00DD0D3
:10187800020E0001626F360EBEEC48F0640E0001E5
:10188800626F3A0EBEEC48F02CD0090E01016F19B8
:10189800D8A421D0800E555D1A0E5659700E57598E
:1018A800180E5859D8A017D0410E555DDD0E56595F
:1018B8004A0E57591F0E5859D8B00DD0020E0001C4
:1018C800626F360EBEEC48F07F0E0001626F3A0E72
:1018D800BEEC48F006D0030E0001626F360EBEEC77
:1018E80048F0090E01016F19D8A410D07505D8A4C5
:1018F8000DD0650E0001626F3A0EBEEC48F0190E6D
:101908000001626F3B0EBEEC48F00CD0650E000182
:10191800626F3A0EBEEC48F01D0E0001626F3B0E7E
:10192800BEEC48F0FF0E0001626F120EBEEC48F0EC
:10193800120059C16DF05AC16EF05BC16FF05CC105
:1019480070F03FEC3FF05DC16DF05EC16EF05FC1BD
:101958006FF060C170F074EC3FF00101625100015A
:10196800626F250EBEEC48F061C162F0260EBEEC37
:1019780048F00A0EE7EC47F00001B06F9F0EB01771
:1019880001018839E846E00B0001B013B0C062F0ED
:101998000A0EBEEC48F0C80E0001B06F010171518B
:1019A800D8B402D00001B089B0C062F0300EBEECED
:1019B80048F0000E0001AB6F10D0AB51010D640E62
:1019C800F324D96E010EF420DA6EDF50626FAB514A
:1019D800280FBEEC48F00001AB2B01016C5100014F
:1019E800AB5DD8A0EAD701016C51D8B408D06C051A
:1019F80010090001626F270EBEEC48F006D0000EF9
:101A08000001626F270EBEEC48F0FF0E0001626F06
:101A18003E0EBEEC48F0FF0E0001626F3F0EBEECBA
:101A280048F01200000E00016D6F62C0D9FF63C05C
:101A3800DAFFDF506E6F000E6D6F18D26451D8B4A4
:101A4800F6D16D51020DB20EF324D96E020EF420B8
:101A5800DA6EDE28D8B4EBD162C0D9FF63C0DAFFF2
:101A6800DF50656F666B651F661F654B662BFE0E44
:101A7800676FFF0E686F6D51020DB20EF324D96EB9
:101A8800020EF420DA6EDF50696F6A6B67516927BE
:101A980068516A23950E6925F66EFF0E6A21F76E66
:101AA800F86A000EF8220800F5506EC06BF06C6BF7
:101AB8006B27000E6C2365516B2766516C236CBF36
:101AC800B6D16C5105E1100E6B5DD8B0D5D1AFD150
:101AD800D3D16E51010DF3506025D96EF4506121B8
:101AE800DA6E030EDF6E6E2B6E51010DF35060251A
:101AF800D96EF4506121DA6E000EDF6E6D51020D61
:101B08000A0E656F020E666FA80E6527000E662323
:101B1800F3506527F4506623010E6525D96E000E33
:101B28006621DA6E0201DFA00BD000016E51010DB3
:101B3800F3506025D96EF4506121DA6E000EDB8017
:101B480000016D51020D0A0E656F020E666FA80E38
:101B58006527000E6623F3506527F4506623010EAF
:101B68006525D96E000E6621DA6E0201DFA20BD060
:101B780000016E51010DF3506025D96EF4506121BA
:101B8800DA6E000EDB8200016D51020D0A0E656FE0
:101B9800020E666FA80E6527000E6623F3506527B0
:101BA800F4506623010E6525D96E000E6621DA6EA3
:101BB8000201DFA489D000016E51010DF3506025A8
:101BC800D96EF4506121DA6E000EDB847DD06E513F
:101BD800010DF3506025D96EF4506121DA6E050EBF
:101BE800DF6E6E2B6E51010DF3506025D96EF450E7
:101BF8006121DA6E000EDF6E6D51020D0A0E656FFF
:101C0800020E666FA80E6527000E6623F35065273F
:101C1800F4506623010E6525D96E000E6621DA6E32
:101C28000201DFA60BD000016E51010DF3506025B3
:101C3800D96EF4506121DA6E000EDB8000016D511F
:101C4800020D0A0E656F020E666FA80E6527000E5C
:101C58006623F3506527F4506623010E6525D96E77
:101C6800000E6621DA6E0201DFA80BD000016E516A
:101C7800010DF3506025D96EF4506121DA6E000E23
:101C8800DB8200016D51020D0A0E656F020E666F50
:101C9800A80E6527000E6623F3506527F4506623C7
:101CA800010E6525D96E000E6621DA6E0201DFAAE3
:101CB8000BD000016E51010DF3506025D96EF45020
:101CC8006121DA6E000EDB8400013CD06E51010DFB
:101CD800F3506025D96EF4506121DA6E060EDF6E7E
:101CE8006E2B6E51010DF3506025D96EF4506121B1
:101CF800DA6EEAC2DFFF6E2BAAEC4AF0800AA00F68
:101D0800D8A006D0AAEC4AF0800A600FD8A00CD060
:101D180000016E51010DF3506025D96EF450612118
:101D2800DA6E200EDF6E0ED000016E51010DF350F9
:101D38006025D96EF4506121DA6EAAEC4AF03F0BA7
:101D4800DF6EC2D76E2B91D06E51010DF350602516
:101D5800D96EF4506121DA6E070EDF6E6E2B6E516C
:101D6800010DF3506025D96EF4506121DA6E000E32
:101D7800DF6E6D51020D0A0E656F020E666FA80EBA
:101D88006527000E6623F3506527F4506623010E7D
:101D98006525D96E000E6621DA6E0201DFAE0BD022
:101DA80000016E51010DF3506025D96EF450612188
:101DB800DA6E000EDB8000016D51020D0A0E656FB0
:101DC800020E666FA80E6527000E6623F35065277E
:101DD800F4506623010E6525D96E000E6621DA6E71
:101DE8000201DFAC71D700016E51010DF35060257F
:101DF800D96EF4506121DA6E000EDB8265D70201DC
:101E0800E769000EE86F00016D51020DB20EF32470
:101E1800D96E020EF420DA6E6E51010DF350602572
:101E2800E96EF4506121EA6EDFCFEFFF8BD76D5179
:101E3800020DB20EF324D96E020EF420DA6EDF50D2
:101E4800020AD8B4DCD7010AD8B443D6070AD8B4F2
:101E5800DBD7010AD8B4BBD6030AD8B437D7010AEE
:101E6800D8B472D70F0AD8B4CFD76D2B0201B151AD
:101E780000016D5DD8A0E2D562C0D9FF63C0DAFF6A
:101E88006EC0DFFF12000001CE6F100E0001D26F8E
:101E9800000ED16FCF0E606F000E616F000E636F82
:101EA800000E626F000E656F010E646FCCEC46F099
:101EB8008F0E0001606F060E616F000E636F000EDB
:101EC800626F010E656F0F0E646FCCEC46F0A00ECA
:101ED8000001606F030E616F000E636F000E626F8A
:101EE800000E656F100E646FCCEC46F00001CE0555
:101EF800D8A407D0CF511F0B8009CF6F02010A81E8
:101F080005D00001CF511F0B4009CF6FFC0E000117
:101F1800CF17CF95CF97CF99D251010D8F0EF324BC
:101F2800D96E060EF420DA6ECFC0DFFFD22BD25165
:101F3800010D8F0EF324606F060EF420616F280EDA
:101F4800626F020E636F000E656F040E646F37ECEC
:101F580041F00001D251040FD26F000ED06F020180
:101F68000CAD47D00001D08F0201E951F55DD8B022
:101F78003FD00001D08D02010A89DA4BDB2BAC512E
:101F88000001CC6FCD6B0201DA510001CC190CE1D4
:101F98000201DB510001CD19D8A406D0000E0201C0
:101FA800F86F23D0020124D00201AC510001CC6F9C
:101FB800CD6B0201DA510001CC5D0201DB51000159
:101FC800CD59D8B013D00201F82BF851AD5DD8B077
:101FD80010D0000EF86F27EC35F00009D8A409D00E
:101FE800000E0201DB6F000EDA6F0001D09DDAD718
:101FF8000A9902010AA304D00001D08B02010A93B6
:102008000001D0990201B151D8B405D00001CA51DC
:10201800CB11D8A406D00001D091D093D095D097F9
:1020280009D0A6EC37F00001CC6FD051CC19F00BD9
:10203800CC19D06FD251010D8F0EF324D96E060E34
:10204800F420DA6ED0C0DFFFD22BD251010D8F0EF3
:10205800F324606F060EF420616F100E626F020E9B
:10206800636F000E656F020E646F37EC41F000017C
:10207800D251020FD26F0201B151D8B411D0000170
:10208800CA51CB11D8B40CD08F0E606F060E616F99
:10209800D20E626F000E636F010E646F16EC0DF0C6
:1020A8000001D251010D8F0EF324D96E060EF420D3
:1020B800DA6EC7C0DFFFD22BCA51CB11D8B435D0E6
:1020C800D251010D8F0EF324606F060EF420616F5C
:1020D800C8C062F0C9C063F0CAC064F0CBC065F084
:1020E80037EC41F0C8C091F0C9C092F0CAC093F073
:1020F800000E0001946F10C295F011C296F012C242
:1021080097F013C298F03C0E996F020E9A6FD2C0E6
:102118009BF08F0E9C6F060E9D6F000E9E6F96ECC7
:1021280027F00001D251CA2533D00201B151D8B4E9
:1021380030D0800E0001606F050E616FD10E626FA6
:10214800000E636F000E646F16EC0DF0800E000138
:10215800916F050E926FD1C093F0000E946F10C26C
:1021680095F011C296F012C297F013C298F02C0E97
:10217800996F020E9A6FD2C09BF08F0E9C6F060E5D
:102188009D6F000E9E6F96EC27F00001D251D1256D
:10219800D26F10C26BF011C26CF012C26DF013C294
:1021A8006EF00001D251F00F6F6F490E706F000E84
:1021B800716F000ED6EC32F08F0E0001606F060EC4
:1021C800616FA00E626F030E636F000E656F100ED5
:1021D800646F37EC41F02C0E0001B96F020EBA6F34
:1021E800A00EBB6F030EBC6F8F0EBD6F060EBE6FC9
:1021F800D2C0BFF01FEC11F00001D251010D8F0EBB
:10220800F324606F060EF420616FA00E626F030E58
:10221800636F000E656F040E646F37EC41F00001C8
:10222800D251040FD26FF00ED2250201DE6FDF6BA0
:10223800FF0EDF231200000E0101F06F000EF26F97
:10224800000EF16F000EEF6F000EED6F000EEE6FD7
:10225800B9C091F0BAC092F09D0E0001936F010EC3
:10226800946F8D0E956F010E966F44EC2DF0000162
:10227800BF51C06FC16B0F0EC027000EC123040EE3
:10228800C26FC135C133C033C22FFBD7C051010162
:10229800F06FF051D8A404D0010EF06F000E0BD0EF
:1022A800BFC0C0F00F0E0001C017D8A402D0010EA5
:1022B80001D0000E0101EF6FEF05D8A448D0000E41
:1022C800F16FF039F00BF00FF26F24D00101F151EA
:1022D800010DAD0EF324D96E010EF420DA6EF15122
:1022E800010D9D0EF324E96E010EF420EA6EEF5005
:1022F8000001C06F0101F251010DF3500001BD252D
:10230800E96EF450BE21EA6EEF50C019DF6E01018C
:10231800F12BF22BF0510001C06FC16BC03BC13BE8
:10232800F00EC117C0510F0BC113F00EC0170101F9
:10233800F2510001C26FC36BC051C25DC351800A24
:10234800C46FC151800AC459D8B07FD0BFD700012B
:10235800BF510F0BC06FC16BC01FC11FC04BC12B3A
:10236800BF51C26FC36BC051C227C151C323C251F1
:10237800BD250101ED6F0001C351BE210101EE6FC2
:10238800000EF26F0F0EF26501D036D00001BF517A
:102398000F0B0101F26113D0F251010DF350ED253D
:1023A800D96EF450EE21DA6EF251010DBD0EF32410
:1023B800E96E010EF420EA6EDFCFEFFF1BD00001BB
:1023C800BF510F0B0101F219D8A40AD0F251010D27
:1023D800BD0EF324D96E010EF420DA6E800E09D0FA
:1023E800F251010DBD0EF324D96E010EF420DA6E00
:1023F800000EDF6EF22BC6D7000EF26F0F0EF265DD
:1024080001D023D0F251010DAD0EF324D96E010E87
:10241800F420DA6EF251010D8D0EF324E96E010EEF
:10242800F420EA6EEF500001C06F0101F251010D76
:10243800BD0EF324E96E010EF420EA6EEF500001A0
:10244800C019DF6E0101F22BD9D7DD0E0001606FD4
:10245800010E616F000E636F000E626F000E656FF4
:10246800100E646FCCEC46F0000E0101F26F56D0EE
:10247800000E0101F16F0F0EF16501D033D0F1515B
:10248800010DCD0EF324D96E010EF420DA6EF2514F
:102498000001C06FC16BC03BC13BF00EC117C051FA
:1024A8000F0BC113F00EC0170101F1510001C02735
:1024B800000EC123C051BD25E96EC151BE21EA6E8F
:1024C800EF50C26F0101F151010DDD0EF324E96EE9
:1024D800010EF420EA6EEF500001C219DF6E01010F
:1024E800F12BC9D7DD0E0001606F010E616FCD0EB3
:1024F800626F010E636F000E656F100E646F37EC2C
:1025080041F0DD0E00017D6F010E7E6FB9C07FF0D6
:10251800BAC080F01EEC46F00101F22BFF0E00015C
:10252800C06FFF0EC16F0101F0510001C26FC36B94
:10253800C051C227C151C3230101F2510001C46F28
:10254800C56BC251C45DC551800AC66FC351800AAC
:10255800C659D8A08DD7000E0101F26F0F0EF26593
:1025680001D023D0F251010DCD0EF324D96E010E06
:10257800F420DA6EF251010DAD0EF324E96E010E6E
:10258800F420EA6EEF500001C06F0101F251010D15
:10259800DD0EF324E96E010EF420EA6EEF5000011F
:1025A800C019DF6E0101F22BD9D7CD0E00017D6F66
:1025B800010E7E6FB9C07FF0BAC080F01EEC46F005
:1025C800BBC060F0BCC061F0CD0E0001626F010EAF
:1025D800636F000E656F100E646F37EC41F01200E8
:1025E8000001C669C769C869C96902010DB190D1FE
:1025F8000C510F0B030AD8A411D01C51D8A405D034
:102608000C51F00B04090C6F1200020E1C19D8A40F
:102618001200000EE66E05EC36F012000AA503D093
:1026280084EC46F012000CA912000AA158D0E3511C
:10263800E15DD8A038D00C51F00B06090C6FAA51F7
:102648000001C26F0201AB510001C36FC46BC56BBF
:102658000C0ED890C237C337C437C537E82EF9D720
:10266800C2C060F0C3C061F0C4C062F0C5C063F00E
:102678007D0E646F000E656F000E666F000E676F4B
:10268800E4EC3CF060C06DF061C06EF062C06FF0C9
:1026980063C070F00201F25101EC45F00201F25101
:1026A800B4EC3AF01200D7EC49F001010C510D11CD
:1026B800D8B41200000E0001606F000E616F000EAA
:1026C800626F000E636F01D812000500FA6E0101F7
:1026D8000C51FD6E0D51FE6EFF6AFA501200020198
:1026E800E251E05DD8A0F8D00C51F00B06090C6F50
:1026F800010E09EC3FF00009D8A431D09F0E00016B
:10270800B16F060EB26FDEC2B3F0F7EC1FF0000136
:10271800B151B211D8A407D00201E22B0C51F00B31
:1027280001090C6F1200B0EC49F001010C510D11B8
:10273800D8B41200000E0001606F000E616F000E29
:10274800626F000E636F01D812000500FA6E010176
:102758000C51FD6E0D51FE6EFF6AFA501200000E0C
:102768000001CA6F7CD00001CA510E0D040EF32679
:10277800000EF422000EF324D96E040EF420DA6E53
:10278800DE04D8A46AD0CA510E0D080EF326000E36
:10279800F422000EF324D96E040EF420DA6EDE5013
:1027A800DE10DE10DE10D8B458D0CA510E0D080E57
:1027B800F326000EF422000EF324D96E040EF42042
:1027C800DA6EDE50C65DDE50C759DE50C859DE509D
:1027D800C959D8A042D0CA510E0D050EF326000ED5
:1027E800F422000EF324D96E040EF420DA6E0401EC
:1027F800DF500F0B0001C26FC2510201E95DD8A082
:102808002CD00001CA510E0D050EF326000EF4223D
:10281800000EF324D96E040EF420DA6E0401DF38BA
:102828000F0B0001C26F0201E9510001C25DD8A07F
:1028380014D0CA510E0D080EF326000EF422000E15
:10284800F324D96E040EF420DA6EDECFC6F0DECFA4
:10285800C7F0DECFC8F0DECFC9F00001CA2BCA51DD
:102868000201F75DD8B07FD7C6C0C2F0C7C0C3F0B9
:10287800C8C0C4F0C9C0C5F00C0ED8900001C2375A
:10288800C337C437C537E82EF8D7000EC225606FA6
:10289800200EC321616F030EC421626F000EC52193
:1028A800636F7D0E646F000E656F000E666F000E1D
:1028B800676FE4EC3CF060C06DF061C06EF062C020
:1028C8006FF063C070F00201F45101EC45F00201B1
:1028D800F451B4EC3AF01200B0EC49F001010C519B
:1028E8000D11D8B41200000E0001606F000E616F68
:1028F800000E626F010E636F01D812000500FA6EB8
:1029080001010C51FD6E0D51FE6EFF6AFA50120066
:1029180001010C510D11D8B41200000E0001606FB6
:10292800000E616F000E626F020E636F01D8120015
:102938000500FA6E01010C51FD6E0D51FE6EFF6A25
:10294800FA5012000A0E0101516F010E526E000E6C
:1029580000017C6F0F0E7C6501D016D07C51010DF3
:10296800F3506825D96EF4506921DA6EDF506A6F2A
:102978007C51010DF3506625D96EF4506721DA6E4B
:102988006A51DF1A7C2BE6D7000E00017C6F0F0E10
:102998007C6501D022D07C51010DF3506625D96E9B
:1029A800F4506721DA6EDF506A6F6A51010D670EC5
:1029B800F324F66EFE0EF420F76EF86A000EF82285
:1029C8007C51010DF3506625D96EF4506721DA6EFB
:1029D8000800F5CFDFFF7C2BDAD766C060F067C050
:1029E80061F03CEC2BF001015105D8B427D1000E61
:1029F80000017C6F0F0E7C6501D020D17C516A6F7D
:102A08006B6B010E6A27000E6B236A516625D96E1F
:102A18006B516721DA6EDF506C6F7C516625D96E79
:102A2800000E6721DA6EDF506C197A6F7C516A6F7D
:102A38006B6B030E6A27000E6B236A516625D96EED
:102A48006B516721DA6EDF506C6F7C516D6F6E6B66
:102A5800020E6D27000E6E236D516625D96E6E51DC
:102A68006721DA6EDF506C197B6F7A517B19786FAA
:102A78007C516A6F6B6B010E6A27000E6B236A51DB
:102A88006625D96E6B516721DA6EDF506C6F7C5109
:102A98006D6F6E6B020E6D27000E6E236D516625ED
:102AA800D96E6E516721DA6EDF506C19796F7F0E1F
:102AB8007A650CD01B0E7AC06AF06B6BD8906A37B7
:102AC8006B376A19726F6B51736F05D0D8907A356E
:102AD800726F736B733772C07AF07F0E79650CD0A2
:102AE8001B0E79C06AF06B6BD8906A376B376A191E
:102AF800746F6B51756F05D0D8907935746F756B9D
:102B0800753774C079F07F0E7B650CD01B0E7BC0C7
:102B18006AF06B6BD8906A376B376A19766F6B51AE
:102B2800776F05D0D8907B35766F776B773776C01F
:102B38007BF07C516625D96E000E6721DA6E7C51D8
:102B48006625E96E000E6721EA6EEF5078197A194A
:102B5800DF6E7C516A6F6B6B010E6A27000E6B2368
:102B68006A516625D96E6B516721DA6E7C516C6F9C
:102B78006D6B010E6C27000E6D236C516625E96E96
:102B88006D516721EA6EEF5078197919DF6E7C5123
:102B98006A6F6B6B020E6A27000E6B236A516625FB
:102BA800D96E6B516721DA6E7C516C6F6D6B020EBA
:102BB8006C27000E6D236C516625E96E6D516721F7
:102BC800EA6EEF5078197B19DF6E7C516A6F6B6B78
:102BD800030E6A27000E6B236A516625D96E6B5166
:102BE8006721DA6E7C516C6F6D6B020E6C27000EDC
:102BF8006D236C516625E96E6D516721EA6EEF50C1
:102C08006E6F7C516F6F706B010E6F27000E702313
:102C18006F516625E96E70516721EA6EEF50716F4A
:102C28007C516625E96E000E6721EA6EEF50711936
:102C38006E197819DF6E040E7C27DCD668C060F048
:102C480069C061F03AEC1CF0000E00017C6F0F0EB9
:102C58007C6501D016D07C51010DF3506825D96EE2
:102C6800F4506921DA6EDF506A6F7C51010DF35020
:102C78006625D96EF4506721DA6E6A51DF1A7C2B0B
:102C8800E6D7010151075151D8B412007DD60FEC97
:102C980048F0F28EF28CA40E0001B26F950EB36F5D
:102CA800A20EB46F950EB56FD6EC40F0D70E0001AA
:102CB8006B6F030E6C6FFCEC46F0C70E00016B6F78
:102CC800030E6C6F13EC47F0C0C360F0C1C361F032
:102CD800C2C362F0C3C363F081EC49F0010EC2ECD9
:102CE80039F0F00E926E000E0201056F000E046FAF
:102CF800A6EC45F026EC4AF00009D8B403D001014F
:102D08004A2B7E92020E01014A19D8A4F1D789688C
:102D1800030EC5EC45F0030EC5EC45F0000EC5ECFE
:102D280045F0470EC5EC45F0000EC5EC45F0010E28
:102D3800C5EC45F0350EC5EC45F0FD0EC5EC45F08B
:102D4800030EC5EC45F0030EC5EC45F0000EC5ECCE
:102D580045F0F00E896E660E0001FA6F760EF96F77
:102D6800C10EE82EFED7F92FFCD7FA2FFAD743C5A4
:102D780022F10101236B44C520F1216B22C166F0C9
:102D880023C167F0000E0001696F100E686F5EECDA
:102D98003CF066C01EF167C01FF10F0E010122153D
:102DA8001C6F1D6B20C166F021C167F0000E000189
:102DB800696F100E686F5EEC3CF066C01AF167C070
:102DC8001BF10F0E01012015186F196B1AC1F9F0CC
:102DD8001BC1FAF00001F93BFA3BF00EFA17F95162
:102DE8000F0BFA13F00EF9171CC1FBF01DC1FCF014
:102DF800FB3BFC3BF00EFC17FB510F0BFC13F00EDA
:102E0800FB17FB3BFC3BF00EFC17FB510F0BFC13B5
:102E1800F00EFB171EC1FDF01FC1FEF0FD3BFE3B8F
:102E2800F00EFE17FD510F0BFE13F00EFD17FD3BC4
:102E3800FE3BF00EFE17FD510F0BFE13F00EFD17B3
:102E4800FD3BFE3BF00EFE17FD510F0BFE13F00E7F
:102E5800FD17FB51FD27FC51FE23F951FD27FA51BF
:102E6800FE23010118510001FD250101166F1951BA
:102E78000001FE210101176F16C160F017C161F052
:102E8800000E0001636F0A0E626F61EC3EF060C0D5
:102E980014F161C015F1000E0001636F640E626FDA
:102EA80016C160F017C161F061EC3EF060C066F0D9
:102EB80061C067F0000E0001696F0A0E686F5EEC72
:102EC8003CF066C012F167C013F1030E0001636F96
:102ED800E80E626F16C160F017C161F061EC3EF058
:102EE80060C066F061C067F0000E0001696F640E93
:102EF800686F5EEC3CF066C010F167C011F1270EF8
:102F08000001636F100E626F16C160F017C161F0A7
:102F180061EC3EF060C066F061C067F0030E00012E
:102F2800696FE80E686F5EEC3CF066C008F267C037
:102F380009F2A00E0001646F860E656F010E666FC0
:102F4800000E676F16C160F017C161F0000E61BF17
:102F5800FF0E626F636FC1EC38F060C06AF061C049
:102F68006BF062C06CF063C06DF0100E00016E6F04
:102F7800270E6F6F000E706F000E716FDAEC36F06F
:102F88006AC006F26BC007F2020E0001D36FFA0E98
:102F9800D46F010ED56F020ED66F000E71EC36F0AD
:102FA800000E01014A6FA4D60A0EE126000EE222A5
:102FB800FF0E466EFF0E476EFF0E486EFF0E496EFF
:102FC800FA0E46C0E3FFFB0E47C0E3FFFC0E48C005
:102FD800E3FFFD0E49C0E3FFFF0EE36AFE0EE36A5E
:102FE800FE0EE3500E0D040EF324D96E040EF420E9
:102FF800DA6EDE04D8A4ADD0FE0EE3500E0D080E36
:10300800F324D96E040EF420DA6EDE50DE10DE10E2
:10301800DE10D8B49ED0FE0EE3500E0D080EF32439
:10302800D96E040EF420DA6EDE500201D25DDE5055
:10303800D359DE50D459DE50D559D8B02FD0FE0E12
:10304800E3500E0D080EF324D96E040EF420DA6E48
:10305800DECF46F0DECF47F0DECF48F0DECF49F0D6
:10306800D251465C426ED3514758436ED4514858AA
:10307800446ED5514958456EFE0EE3500E0D080EAC
:10308800F324D96E040EF420DA6E42C0DEFF43C08A
:10309800DEFF44C0DEFF45C0DEFF0DD0FE0EE3506C
:1030A8000E0D080EF324D96E040EF420DA6EDE6AD3
:1030B800DE6ADE6ADD6AFE0EE3500E0D080EF324AA
:1030C800D96E040EF420DA6EFA0EE3CF3EF0DE502D
:1030D8003E5CFB0EE3CF3EF0DE503E58FC0EE3CFE5
:1030E8003EF0DE503E58FD0EE3CF3EF0DE503E5837
:1030F800D8A02FD0FE0EE3500E0D080EF324D96E83
:10310800040EF420DA6EDE50DE10DE10DE10D8B4C5
:1031180020D0FE0EE3500E0D080EF324D96E040ED7
:10312800F420DA6EDECF46F0DECF47F0DECF48F08F
:10313800DECF49F0FA0E46C0E3FFFB0E47C0E3FFBF
:10314800FC0E48C0E3FFFD0E49C0E3FFFF0EE36A33
:10315800E32AFE0EE32AFE0EE3CF3EF00F0E3E6496
:103168003FD7FF0EE304D8A49DD0E150FA0FD96EE3
:10317800E250DA6EFF0EDA22DECFD2F2DECFD3F2E1
:10318800DECFD4F2DECFD5F2FD0EE3500EE1FA0E1B
:10319800E328FB0EE3CF3EF0FF0E3E5AFC0EE3CFD2
:1031A8003EF00F0E3E5AD8A02BD0E150FA0FD96E40
:1031B800E250DA6EFF0EDA22DECF60F0DECF61F089
:1031C800DECF62F0DECF63F07D0E0001646F000E8B
:1031D800656F000E666F000E676FE4EC3CF060C030
:1031E80046F061C047F062C048F063C049F00C0E79
:1031F800D8904636473648364936E82EF9D72FD084
:10320800FA0EE3CF46F0FB0EE3CF47F0FC0EE3CF18
:1032180048F0FD0EE3CF49F00C0ED89046364736FD
:1032280048364936E82EF9D746C060F047C061F005
:1032380048C062F049C063F07D0E0001646F000E63
:10324800656F000E666F000E676FE4EC3CF060C0BF
:1032580046F061C047F062C048F063C049F0F60E1E
:1032680046C0E3FFF70E47C0E3FFF80E48C0E3FF90
:10327800F90E49C0E3FFE150F60FD96EE250DA6E5D
:10328800FF0EDA22DECF6DF0DECF6EF0DECF6FF00C
:10329800DECF70F00201F35101EC45F00201F35169
:1032A800B4EC3AF0F50EE126FF0EE2221200000E11
:1032B8000001B56FB0C0B6F0B1C0B7F05AD1020185
:1032C800B151020D0A0E0001B36F020EB46FA80EC1
:1032D800B327000EB423F350B327F450B423010EE0
:1032E800B325D96E000EB421DA6E0201DF90B15118
:1032F800020D0A0E0001B36F020EB46FA80EB327B9
:10330800000EB423F350B327F450B423010EB325B1
:10331800D96E000EB421DA6E0201DF92B151020DAE
:103328000A0E0001B36F020EB46FA80EB327000E89
:10333800B423F350B327F450B423010EB325D96E48
:10334800000EB421DA6E0201DF94B151020D0A0EAB
:103358000001B36F020EB46FA80EB327000EB4239A
:10336800F350B327F450B423010EB325D96E000EE1
:10337800B421DA6E0201DF96B151020D0A0E000186
:10338800B36F020EB46FA80EB327000EB423F35028
:10339800B327F450B423010EB325D96E000EB4211F
:1033A800DA6E0201DF98B151020D0A0E0001B36F07
:1033B800020EB46FA80EB327000EB423F350B32740
:1033C800F450B423010EB325D96E000EB421DA6E81
:1033D8000201DF9AB151020D0A0E0001B36F020E0D
:1033E800B46FA80EB327000EB423F350B327F450DC
:1033F800B423010EB325D96E000EB421DA6E020192
:10340800DF9CB151020D0A0E0001B36F020EB46FBA
:10341800A80EB327000EB423F350B327F450B423F7
:10342800010EB325D96E000EB421DA6E0201DF9EBB
:10343800B6C0D9FFB7C0DAFFB151020DB20EF324FE
:10344800E96E020EF420EA6EDFCFEFFF64D0B6C05B
:1034580060F0B7C061F06BEC46F060C0B6F061C0D8
:10346800B7F04DD0B6C06FF0B7C070F0D6EC1AF018
:103478006FC0B6F070C0B7F06CD0B6C060F0B7C01F
:1034880061F0FAEC42F060C0B6F061C0B7F061D00C
:10349800B6C0A6F0B7C0A7F02BEC22F0A6C0B6F0D5
:1034A800A7C0B7F056D0B6C060F0B7C061F069ECFD
:1034B8004AF060C0B6F061C0B7F04BD0B6C0A6F015
:1034C800B7C0A7F08CEC1DF0A6C0B6F0A7C0B7F047
:1034D80040D0B6C067F0B7C068F0BFEC47F067C02F
:1034E800B6F068C0B7F035D0010E0001B56FB25123
:1034F800010DF350B025B66FF450B121B76F02013A
:10350800B151020DB20EF324D96E020EF420DA6E18
:10351800FF0EDF6E1ED0B6C0D9FFB7C0DAFF0001BC
:10352800B64BB72BDF50020AD8B491D7010AD8B4EA
:1035380099D7070AD8B4A1D7010AD8B4A9D7030ADA
:10354800D8B4B1D7010AD8B4B9D70F0AD8B4C1D7FB
:10355800CBD70201B151020DB20EF324D96E020E7F
:10356800F420DA6EDE28D8B404D0100EB16101D090
:10357800B12B0001B251010DB0C0B3F0B1C0B4F02D
:10358800F350B327F450B423B351B65DB451B759CF
:10359800D8B003D0B551D8B492D6B6C0B0F0B7C041
:1035A800B1F012006FC0D9FF70C0DAFFDF500F0B07
:1035B8000001756F6FC0D9FF70C0DAFFDF50716FFF
:1035C80071390F0B0F0B786F6F4B702B6FC0D9FFD2
:1035D80070C0DAFFDECF73F0DDCF74F0020E6F2516
:1035E8006F6F000E7021706F6FC076F070C077F04B
:1035F8006F4B702B02010CADEFD076C0D9FF77C0AE
:10360800DAFF0001DF38070B9EEC48F00009D8A468
:1036180021D073C060F074C061F067EC41F000091C
:10362800D8A418D00201B151020D0A0E0001716F21
:10363800020E726FA80E7127000E7223F3507127C5
:10364800F4507223010E7125D96E000E7221DA6EC4
:103658000201DF800001785199EC49F00009D8A4F3
:1036680022D00201F5510001785DD8A01CD0785114
:103678000201F65DD8A017D0B151020D0A0E000163
:10368800716F020E726FA80E7127000E7223F3502D
:103698007127F4507223010E7125D96E000E722124
:1036A800DA6E0201DF82000175516CEC47F0000907
:1036B800D8A418D00201B151020D0A0E0001716F91
:1036C800020E726FA80E7127000E7223F350712735
:1036D800F4507223010E7125D96E000E7221DA6E34
:1036E8000201DF840201B151020D0A0E0001716F5F
:1036F800020E726FA80E7127000E7223F350712705
:10370800F4507223010E7125D96E000E7221DA6E03
:103718000201DFA4A6D0B151020D0A0E0001716F9B
:10372800020E726FA80E7127000E7223F3507127D4
:10373800F4507223010E7125D96E000E7221DA6ED3
:103748000201DFA28ED0B151020D0A0E0001716F85
:10375800020E726FA80E7127000E7223F3507127A4
:10376800F4507223010E7125D96E000E7221DA6EA3
:103778000201DFA076D073C06CF074C06DF076C023
:10378800D9FF77C0DAFF0001DF38070B6E6F4BEC0B
:1037980049F0000175515FEC4AF002010D89000102
:1037A800785164EC4AF076C0D9FF77C0DAFF00019F
:1037B800DF500F0B0009D8A402D0000E09D076C044
:1037C800D9FF77C0DAFF0001DF500F0B716F710569
:1037D8000201E06F0D8B45D0B151020D0A0E0001B8
:1037E800716F020E726FA80E7127000E7223F350CC
:1037F8007127F4507223010E7125D96E000E7221C3
:10380800DA6E0201DF90B151020D0A0E0001716FEC
:10381800020E726FA80E7127000E7223F3507127E3
:10382800F4507223010E7125D96E000E7221DA6EE2
:103838000201DF92B151020D0A0E0001716F020EF2
:10384800726FA80E7127000E7223F3507127F4507F
:103858007223010E7125D96E000E7221DA6E0201F3
:10386800DF946FC06FF070C070F01200000120EE9E
:103878000DF06051D9266151DA22DF50626F625132
:10388800010D670EF324F66EFE0EF420F76EF86A4B
:10389800000EF8220800F5CF63F060C0D9FF61C0C0
:1038A800DAFF6351DF1A20EE0EF06051D92661511C
:1038B800DA22DF50626F6251010D670EF324F66E53
:1038C800FE0EF420F76EF86A000EF8220800F5CF15
:1038D80063F020EE01F06051D9266151DA2263517C
:1038E800DF1A20EE0FF06051D9266151DA22DF503D
:1038F800626F6251010D670EF324F66EFE0EF4201E
:10390800F76EF86A000EF8220800F5CF63F020EE93
:1039180002F06051D9266151DA226351DF1A20EE94
:103928000CF06051D9266151DA22DF50626F625182
:10393800010D670EF324F66EFE0EF420F76EF86A9A
:10394800000EF8220800F5CF63F020EE03F0605176
:10395800D9266151DA226351DF1A60C0D9FF61C0EC
:10396800DAFF5250DF1A7F0E52640CD01B0E52C081
:1039780062F0636BD890623763376219646F635182
:10398800656F05D0D8905234646F656B653764C035
:1039980052F060C0D9FF61C0DAFFDF50626F20EEDD
:1039A80004F06051D9266151DA226251DF1A20EE03
:1039B80001F06051D9266151DA22DF50626F20EEA2
:1039C80005F06051D9266151DA226251DF1A20EEE2
:1039D80002F06051D9266151DA22DF50626F20EE81
:1039E80006F06051D9266151DA226251DF1A20EEC1
:1039F80003F06051D9266151DA22DF50626F20EE60
:103A080007F06051D9266151DA226251DF1A20EE9F
:103A180004F06051D9266151DA22DF50626F20EE3E
:103A280008F06051D9266151DA226251DF1A20EE7E
:103A380005F06051D9266151DA22DF50626F20EE1D
:103A480009F06051D9266151DA226251DF1A20EE5D
:103A580006F06051D9266151DA22DF50626F20EEFC
:103A68000AF06051D9266151DA226251DF1A20EE3C
:103A780007F06051D9266151DA22DF50626F20EEDB
:103A88000BF06051D9266151DA226251DF1A20EE1B
:103A980008F06051D9266151DA22DF50626F20EEBA
:103AA8000CF06051D9266151DA226251DF1A20EEFA
:103AB80009F06051D9266151DA22DF50626F20EE99
:103AC8000DF06051D9266151DA226251DF1A20EED9
:103AD8000AF06051D9266151DA22DF50626F20EE78
:103AE8000EF06051D9266151DA226251DF1A20EEB8
:103AF8000BF06051D9266151DA22DF50626F20EE57
:103B08000FF06051D9266151DA226251DF1A120092
:103B1800000E0001AB6F000EAC6F000EAD6F000E13
:103B2800AE6FA6C0D9FFA7C0DAFFDF50AF6FA64BB4
:103B3800A72BA6C0D9FFA7C0DAFFFF0EDE14AB6F14
:103B4800FF0EDE14AC6FFF0EDE14AD6F000EDE1438
:103B5800AE6FABC09AF0ACC09BF0ADC09CF0AEC0ED
:103B68009DF0640E9E6F000E9F6F000EA06F000EFA
:103B7800A16F4DEC42F09AC0ABF09BC0ACF09CC07A
:103B8800ADF09DC0AEF0030E0001A625A66F000E95
:103B9800A721A76FA6C0D9FFA7C0DAFFDF50AA6F79
:103BA800A64BA72B000E606FAF5148EC48F00009F8
:103BB800D8A44BD0ABC060F0ACC061F0ADC062F02F
:103BC800AEC063F00FEC40F00009D8B407D0000194
:103BD800AB51AC11AD11AE11D8A418D00201B1513E
:103BE800020D0A0E0001A86F020EA96FA80EA827E1
:103BF800000EA923F350A827F450A923010EA825E5
:103C0800D96E000EA921DA6E0201DF8E0001AA51D9
:103C180033EC44F00009D8A418D00201B151020DC8
:103C28000A0E0001A86F020EA96FA80EA827000EA1
:103C3800A923F350A827F450A923010EA825D96E6B
:103C4800000EA921DA6E0201DF8C0201B151020DCA
:103C58000A0E0001A86F020EA96FA80EA827000E71
:103C6800A923F350A827F450A923010EA825D96E3B
:103C7800000EA921DA6E0201DFAE7DD0B151020D2E
:103C88000A0E0001A86F020EA96FA80EA827000E41
:103C9800A923F350A827F450A923010EA825D96E0B
:103CA800000EA921DA6E0201DFAC65D0100EE461C6
:103CB8002ED00001AB51AC11AD11AE11D8B420D04B
:103CC800ABC060F0ACC061F0ADC062F0AEC063F0F4
:103CD800AF5179EC44F0AAC060F00001AF519DECFF
:103CE8002CF0010E0001616F2E0E606FAF519BEC3E
:103CF80044F0010E0001606FAF5189EC2AF039D011
:103D0800000E0001646FAF51F3EC41F032D00001B6
:103D1800AB51AC11AD11AE11D8B424D0ABC060F02A
:103D2800ACC061F0ADC062F0AEC063F0AF51100F2F
:103D380079EC44F0AAC060F00001AF51100F9DEC7F
:103D48002CF0010E0001616F2E0E606FAF51100F45
:103D58009BEC44F0010E0001606FAF51100F89EC2D
:103D68002AF007D0000E0001646FAF51100FF3EC7A
:103D780041F002010D87A6C0A6F0A7C0A7F0120067
:103D88005050010D4E0EF324D96E000EF420DA6E59
:103D9800000EDF6EABA415D05050010D4E0EF3246B
:103DA800D96E000EF420DA6EDF8201D80AD0050041
:103DB800FA6E0301EF51FD6EF051FE6EFF6AFA5084
:103DC8001200ABA215D05050010D4E0EF324D96E3F
:103DD800000EF420DA6EDF8401D80AD00500FA6EEE
:103DE8000301ED51FD6EEE51FE6EFF6AFA501200AE
:103DF8005050010D4E0EF324D96E000EF420DA6EE9
:103E0800DF50D8B40CD001D812000500FA6E0301B7
:103E1800EB51FD6EEC51FE6EFF6AFA50120035EC64
:103E280048F0F00E896EEBEC43F001014B6F4BC18B
:103E38004AF04B6A010E4A14406F416B4B344B30C9
:103E48000A6E4A30096E010E09143E6F3F6B4AC074
:103E580009F04BC00AF00A340A3209320A340A322D
:103E68000932010E09143C6F3D6B4AC009F04BC082
:103E78000AF00A340A3209320A340A3209320A3498
:103E88000A320932010E09143A6F3B6B4AC009F035
:103E98004BC00AF0040E0B6E0A340A3209320B2E9C
:103EA800FBD7010E0914386F396B4AC009F04BC0B3
:103EB8000AF0050E0B6E0A340A3209320B2EFBD7B4
:103EC800010E0914366F376B4AC009F04BC00AF06F
:103ED800060E0B6E0A340A3209320B2EFBD7010E7E
:103EE8000914346F356B40C130F141C131F1D890BC
:103EF8003E352E6F3F352F6F3CC109F03DC10AF0AA
:103F0800D89009360A36D89009360A3609C02CF1F5
:103F18000AC02DF13AC109F03BC10AF0D890093620
:103F28000A36D89009360A36D89009360A3609C0B2
:103F38002AF10AC02BF138C109F039C10AF0093A4F
:103F48000A3AF00E0A1609500F0B0A12F00E09165B
:103F580009C028F10AC029F136C109F037C10AF0B1
:103F6800050ED89009360A36E82EFBD709C026F187
:103F78000AC027F134C109F035C10AF0060ED890FD
:103F880009360A36E82EFBD709C024F10AC025F104
:103F980026512411096E275125110A6E285109123C
:103FA80029510A122A5109122B510A122C510912AD
:103FB8002D510A122E5109122F510A12305109108F
:103FC8008B6F31510A108C6F400E016E050E026E18
:103FD8008B0E036E010E046E000E066E010E056E4A
:103FE80042EC40F01200010178A506D0800E0001D5
:103FF800B26F030EB16F120078C1B4F0030E000166
:10400800B417D8B405D0800EB26F040EB16F120089
:1040180001016D51D8A409D0400E0001B36505D047
:10402800800EB26F020EB16F120001017C51FBECE1
:1040380047F0000E0001A76F040EA66F96EC0AF079
:1040480001016D05D8A427D0B3C062F0220EBEECE2
:1040580048F00A0EE7EC47F00001C06FF00EC017F9
:10406800C087C0C062F00A0EBEEC48F0400E0001E6
:10407800626F400EBEEC48F0000E0001626F410E08
:10408800BEEC48F06DC165F0010E0001666F010ECF
:10409800DAEC31F00CD0000E0001626F400EBEEC7D
:1040A80048F0000E0001626F410EBEEC48F00101BD
:1040B8006D51D8A405D0B3C062F0000EBEEC48F034
:1040C800C8EC4AF0800E1FEC4AF0000E0001C16FE8
:1040D8000DD0C151010DF350B125D96EF450B22164
:1040E800DA6EDF501FEC4AF00001C12BB351C15DFD
:1040F800D8A0EFD7C6EC4AF001017881E70E78170F
:104108006DC165F0000E0001666F030EDAEC31F048
:10411800000E0001B86F000EB96F0A0EBA6F000EDC
:10412800BB6FB8C06DF0B9C06EF0BAC06FF0BBC05D
:1041380070F001017C5101EC45F001017C51B4ECB7
:104148003AF001017F51801181118211D8B461D0F8
:10415800825107E17F29FF0E80590F0E8159D8A09F
:104168001DD07FC160F080C161F081C162F082C161
:1041780063F07D0E0001646F000E656F000E666FC0
:10418800000E676FE4EC3CF00C0ED890000160372D
:10419800613762376337E82EF8D723D07FC1B4F090
:1041A80080C1B5F081C1B6F082C1B7F00C0ED890CD
:1041B8000001B437B537B637B737E82EF8D7B4C0EB
:1041C80060F0B5C061F0B6C062F0B7C063F07D0EB4
:1041D800646F000E656F000E666F000E676FE4EC8B
:1041E8003CF060C0BCF061C0BDF062C0BEF063C00E
:1041F800BFF0BCC06DF0BDC06EF0BEC06FF0BFC0F8
:1042080070F001017E5101EC45F001017E51B4ECE2
:104218003AF0000E0001B26F000EB16F12000101FA
:1042280078A506D0800E0001B26F030EB16F1200A0
:1042380078C1B3F0030E0001B317D8B405D0800ECF
:10424800B26F040EB16F1200B151B211D8A407D0E9
:10425800000EA76F040EA66F96EC0AF006D0B1C048
:10426800A6F0B2C0A7F096EC0AF001016D05D8A43B
:1042780013D0010E0001626F220EBEEC48F0000E52
:104288000001626F400EBEEC48F0000E0001626F44
:10429800410EBEEC48F016D089C162F0120EBEEC99
:1042A80048F08AC162F0130EBEEC48F0000E00011F
:1042B800626F400EBEEC48F0000E0001626F410EC6
:1042C800BEEC48F001017883E70E78170001B15180
:1042D800B211D8A408D06DC165F0000E666F050E46
:1042E800DAEC31F046D001016D05D8A409D0010EF1
:1042F8000001656F000E666F060EDAEC31F039D0FA
:10430800000E0001656F000E666F050EDAEC31F0E5
:104318000001B151B36FB251B46FB56BB66B0C0EEF
:10432800D890B337B437B537B637E82EF9D7B3C016
:1043380060F0B4C061F0B5C062F0B6C063F07D0E45
:10434800646F000E656F000E666F000E676FE4EC19
:104358003CF060C06DF061C06EF062C06FF063C089
:1043680070F001017D5101EC45F001017D51B4EC83
:104378003AF001017F51801181118211D8B461D0C6
:10438800825107E17F29FF0E80590F0E8159D8A06D
:104398001DD07FC160F080C161F081C162F082C12F
:1043A80063F07D0E0001646F000E656F000E666F8E
:1043B800000E676FE4EC3CF00C0ED89000016037FB
:1043C800613762376337E82EF8D723D07FC1B3F05F
:1043D80080C1B4F081C1B5F082C1B6F00C0ED8909E
:1043E8000001B337B437B537B637E82EF8D7B3C0BE
:1043F80060F0B4C061F0B5C062F0B6C063F07D0E85
:10440800646F000E656F000E666F000E676FE4EC58
:104418003CF060C0B7F061C0B8F062C0B9F063C0EA
:10442800BAF0B7C06DF0B8C06EF0B9C06FF0BAC0DE
:1044380070F001017E5101EC45F001017E51B4ECB0
:104448003AF0000E0001B26F000EB16F1200000EBC
:104458000001AA6F000EAB6F000EAC6F000EAD6FBF
:10446800A6C0D9FFA7C0DAFFDF50AE6FA64BA72BB7
:10447800A6C0D9FFA7C0DAFFFF0EDE14AA6FFF0E91
:10448800DE14AB6FFF0EDE14AC6F000EDE14AD6FE2
:10449800AAC09AF0ABC09BF0ACC09CF0ADC09DF038
:1044A800640E9E6F000E9F6F000EA06F000EA16F2E
:1044B8004DEC42F09AC0AAF09BC0ABF09CC0ACF0A7
:1044C8009DC0ADF0030E0001A625A66F000EA72122
:1044D800A76FAAC060F0ABC061F0ACC062F0ADC01D
:1044E80063F00FEC40F00009D8A418D00201B151D4
:1044F800020D0A0E0001A86F020EA96FA80EA827C8
:10450800000EA923F350A827F450A923010EA825CB
:10451800D96E000EA921DA6E0201DF860001AE51C4
:104528000F0B99EC49F00009D8A418D00201B15139
:10453800020D0A0E0001A86F020EA96FA80EA82787
:10454800000EA923F350A827F450A923010EA8258B
:10455800D96E000EA921DA6E0201DF880001AE399A
:10456800070B8DEC49F00009D8A418D00201B1510D
:10457800020D0A0E0001A86F020EA96FA80EA82747
:10458800000EA923F350A827F450A923010EA8254B
:10459800D96E000EA921DA6E0201DF8A0201B1513B
:1045A800020D0A0E0001A86F020EA96FA80EA82717
:1045B800000EA923F350A827F450A923010EA8251B
:1045C800D96E000EA921DA6E0201DFA845D0B151DB
:1045D800020D0A0E0001A86F020EA96FA80EA827E7
:1045E800000EA923F350A827F450A923010EA825EB
:1045F800D96E000EA921DA6E0201DFA62DD0B151C5
:10460800020D0A0E0001A86F020EA96FA80EA827B6
:10461800000EA923F350A827F450A923010EA825BA
:10462800D96E000EA921DA6E0201DFAA15D00001A9
:10463800AE39070B0201F96FAAC060F0ABC061F098
:10464800ACC062F0ADC063F00001AE510F0B646FF7
:10465800A5EC49F002010D8FA6C0A6F0A7C0A7F0EF
:1046680012000001A86F210E0001A819D8A4120099
:10467800030EAD6F000EAE6F040EAE6501D0E5D02F
:10468800000EA96F000EAA6F000EAB6F000EAC6F84
:10469800A90E606F000E616FAE51030D0D0EF3266B
:1046A800000EF422F350A625626FF450A721636F21
:1046B800000E656F030E646F37EC41F0A9C09AF0E5
:1046C800AAC09BF0ABC09CF0ACC09DF0640E00018A
:1046D8009E6F000E9F6F000EA06F000EA16F4DEC35
:1046E80042F09AC0A9F09BC0AAF09CC0ABF09DC054
:1046F800ACF00001A951AA11AB11AC11D8B49BD0F0
:10470800A9C060F0AAC061F0ABC062F0ACC063F0B1
:104718000FEC40F00009D8A495D00001AE51AD25AA
:10472800606F616B6137000E636F0E0E626FD3ECC2
:1047380047F0000E00016025D96E040E6121DA6E83
:10474800A9C0DEFFAAC0DEFFABC0DEFFACC0DEFF43
:10475800AE51AD25606F616B6137000E636F0E0E51
:10476800626FD3EC47F0050E00016027000E61234D
:10477800000E6025D96E040E6121DA6E0401DF5047
:104788000F0B5009DF6E0001AE51AD25606F616BF4
:104798006137000E636F0E0E626FD3EC47F0050EA3
:1047A80000016027000E6123000E6025D96E040EFB
:1047B8006121DA6E0401DF90DF92DF94DF96000159
:1047C800AE51AD25606F616B6137000E636F0E0EE1
:1047D800626FD3EC47F0060E00016027000E6123DC
:1047E800000E6025D96E040E6121DA6EE70EDE6ECA
:1047F800030EDD6EAE51AD25606F616B6137000E43
:10480800636F0E0E626FD3EC47F00D0E0001602748
:10481800000E6123000E6025D96E040E6121DA6E48
:10482800FF0EDF6E010E646FAE51AD25F3EC41F063
:1048380002010D8707D0000E0001646FAE51AD254F
:10484800F3EC41F00001AE2B17D702010D871200DF
:104858000001B16F0201FA05D8B44DEC43F0340EF3
:104868000201FE6FFE5191EC4AF0000E02010C6F3E
:10487800000E0D6F000E0E6F000E0F6FE769000E31
:10488800E86F000ED26F000ED36F000ED46F000ECB
:10489800D56F000EDF6F000EDE6F000E146F000E76
:1048A800156F000E166F000E176F000E106F000EBA
:1048B800116F000E126F000E136F000EDD6F000EE9
:1048C800DC6F000EE66F010EE56F000EDB6F000E69
:1048D800DA6F000EF86F000EF96F000ED26F000E3F
:1048E800D36F000ED46F000ED56F0D95000E0C6FB0
:1048F800000E0D6F000E0E6F000E0F6F000E0B6F87
:10490800000E0A6F070EE16F000EE06F010EE36FF5
:10491800010EE26FEA69B1C0AEF2000E1C6F100E14
:10492800F76F0001B151D8A41BD0900E796F050E16
:104938007A6FA00E7B6F270E7C6FBE0E7D6F330ED5
:104948007E6F13EC25F0D4EC3BF0000E0201266FCD
:10495800080E226FE60E236FD30E246F330E1BD082
:10496800900E0001796F050E7A6F200E7B6FA20EF4
:104978007C6FD30E7D6F190E7E6F13EC25F019EC4A
:104988003CF0000E0201266F280E226F760E236F70
:10499800E80E246F190E256F010EEB6F000EE96FFC
:1049A80059EC32F0000E0201B06F000EAF6F270E07
:1049B8000001606F020E616F000E636F000E626F80
:1049C800000E656F690E646FCCEC46F0030E0201B1
:1049D8009F6FE80E9E6F070EA16FD00EA06F130E8B
:1049E800A36F880EA26F170EA56F700EA46F070E27
:1049F800AB6FD00EAA6F200EAD6F400EAC6F400E9D
:104A0800A76F000EA66F400EA96F000EA86F000ECC
:104A18000001A76F000EA66FEEEC2BF012007BC012
:104A280055F17CC056F17DC057F17EC058F1A80EF3
:104A38000101596F610E5A6F000E5B6F000E5C6FBB
:104A4800500E5D6FC30E5E6F000E5F6F000E606FDD
:104A5800010E6D6F070E6F6F010E706F010E766F8E
:104A6800000E776F000E626F080E616F0C0E6E6F8E
:104A7800010E716F000E726F000E756FC10E646FBC
:104A8800940E656FC10E666F030E6C6F340E636F04
:104A9800000E786F000E796F79C07AF17AC07BF1D9
:104AA800000E746F000E736F800E876F980E7F6F05
:104AB8003A0E806F000E816F000E826F020E886FB3
:104AC8000B0E896F120E8A6F000E846F000E856FB1
:104AD8008351D8A426D047EC3BF001017C6F47EC0A
:104AE8003BF001017D6F47EC3BF001017E6FC80E82
:104AF8000001606F8B0E616F000E626F01017D51C6
:104B0800DFEC44F0200E0001606F880E616F000E2C
:104B1800626F01017E51DFEC44F0010E0101836FE9
:104B28000BD07C51FBEC47F001017D51FBEC47F0C9
:104B380001017E51FBEC47F056EC44F0000E0001F9
:104B4800656F010E666F010EDAEC31F055C16DF03C
:104B580056C16EF057C16FF058C170F0C8EC33F011
:104B6800420E0001626F3B0EBEEC48F03B0EE7ECD4
:104B780047F000017F6F7FBBF9D7230E626F0C0EE1
:104B8800BEEC48F01E0E0001626F0D0EBEEC48F040
:104B9800AA0E0001626F1F0EBEEC48F08F0E0001D6
:104BA800626F350EBEEC48F0FF0E0001626F320EE8
:104BB800BEEC48F0400E0001626F310EBEEC48F0CA
:104BC800010E0001656F010E666F000EDAEC31F020
:104BD800FF0E0001626F230EBEEC48F0420EE7ECB8
:104BE80047F00101866F12008DEC48F060C048F173
:104BF80061C049F15304D8A479D0000E536E04C1A2
:104C08006CF005C16DF006C16EF007C16FF00001D0
:104C18006C1F6D1F6E1F6F1F6C2B000E6D236E2394
:104C28006F234C50706F4D50716F726B736B701FA8
:104C3800711F721F731F702B000E71237223732351
:104C48000101485100017025746F010149510001AB
:104C58007121756F000E7221766F000E7321776FC8
:104C68006C517425786F6D517521796F6E5176216D
:104C78007A6F6F5177217B6F010108510001782508
:104C88007C6F01010951000179217D6F01010A51F1
:104C980000017A217E6F01010B5100017B217F6F9A
:104CA800000E7C250101006F000E00017D2101012D
:104CB800016F010E00017E210101026F000E00014B
:104CC8007F210101036F48C104F149C105F1066B59
:104CD800076B000E086F000E096F000E0A6F000EBA
:104CE8000B6F000E4D6E000E4C6E4BD004C16CF075
:104CF80005C16DF006C16EF007C16FF000016C1FB1
:104D08006D1F6E1F6F1F6C2B000E6D236E236F239C
:104D18004CC070F04DC071F0701F711F704B712B3B
:104D28000101485100017027010149510001712317
:104D380070516C25726F71516D21736F000E6E2169
:104D4800746F000E6F21756F010108510001722503
:104D58000101006F0951000173210101016F0A511E
:104D6800000174210101026F0B510001752101013D
:104D7800036F0051042701510523025106230351F3
:104D8800072300C168F001C169F002C16AF003C1DC
:104D98006BF01200000E0001DA6F8F0E606F060EC6
:104DA800616F000E636F000E626F010E656F0F0E6C
:104DB800646FCCEC46F00001D89BD89DD89FFC0EC0
:104DC800D817D895D897D899DA51010D8F0EF324B2
:104DD800D96E060EF420DA6ED8C0DFFFDA2B000E8B
:104DE800D96F070ED96501D022D0D951D06FD16BB8
:104DF800D01FD11FD04BD12B070ED027000ED123A7
:104E08005C0ED025D96E020ED121DA6ED951DAC0E6
:104E1800D2F0D36BD227000ED3238F0ED225E96EA2
:104E2800060ED321EA6EDFCFEFFFD92BDAD7DA519E
:104E3800080FDA6F000ED96F070ED96501D022D09E
:104E4800D951D06FD16BD01FD11FD04BD12B070EAA
:104E5800D027000ED123640ED025D96E020ED121A1
:104E6800DA6ED951DAC0D2F0D36BD227000ED32331
:104E78008F0ED225E96E060ED321EA6EDFCFEFFF43
:104E8800D92BDAD7DA51080FDA6FFF0EAE6FAD699A
:104E98007CEC48F0ADC0DCF2AEC0DDF20001DA51C6
:104EA800010D8F0EF324606F060EF420616FDC0E87
:104EB800626F020E636F000E656F020E646F37EC4F
:104EC80041F00001DA51020FDA6F4C0EC76F020E83
:104ED800C86F8F0EC96F060ECA6FDAC0CBF074ECBC
:104EE80040F0C7C0D4F0C8C0D5F0C9C0D6F0CAC019
:104EF800D7F00001DA51010D8F0EF324606F060E12
:104F0800F420616FD40E626F000E636F000E656F40
:104F1800040E646F37EC41F00001DA51040FDA6FC8
:104F2800DA511200000E0001A46F000EA56F000EEA
:104F3800A66F93C066F0676B000E696F100E686FFE
:104F48005EEC3CF000016651A46F010EA56F5AD0CB
:104F580095C06BF096C06CF097C06DF098C06EF07D
:104F6800A5C06FF0010E706F9EC071F09451D6EC21
:104F780032F0A00E00017D6F030E7E6F99C07FF0A6
:104F88009AC080F01EEC46F0000E0001A66F0F0ECE
:104F9800A66501D036D09B51010DF3509C25D96EE2
:104FA800F4509D21DA6EF00E9F6FFF0EA06FA55191
:104FB800A16FA26BA13BA23BF00EA217A1510F0B50
:104FC800A213F00EA117A651A127000EA2239F51EC
:104FD800A127A051A223A1519125E96EA2519221A6
:104FE800EA6EEF50A36FA651010DA00EF324E96EEF
:104FF800030EF420EA6EEF50A319DF6E9B2BA62B4D
:10500800C6D7A52BA551A45DD8B0A2D793C09FF051
:105018000F0E9F17D8B4120095C06BF096C06CF0B5
:1050280097C06DF098C06EF0A5C06FF0010E706F5C
:105038009EC071F09451D6EC32F0A00E00017D6F45
:10504800030E7E6F99C07FF09AC080F01EEC46F088
:10505800000E0001A66F23D09B51010DF3509C2533
:10506800D96EF4509D21DA6EA451100DA651F32685
:10507800000EF422F3509125E96EF4509221EA6E65
:10508800EF509F6FA651010DA00EF324E96E030E99
:10509800F420EA6EEF509F19DF6E9B2BA62B93C06E
:1050A8009FF00F0E9F179F51A65DD8B01200D4D75E
:1050B80000019E699F69A069A169000EA26F7CD05A
:1050C8000001A2510E0D040EF326000EF422000E6C
:1050D800F324D96E040EF420DA6EDE04D8A46AD064
:1050E800A2510E0D080EF326000EF422000EF32432
:1050F800D96E040EF420DA6EDE50DE10DE10DE10FB
:10510800D8B458D0A2510E0D080EF326000EF42282
:10511800000EF324D96E040EF420DA6EDE509E5D84
:10512800DE509F59DE50A059DE50A159D8A042D078
:10513800A2510E0D050EF326000EF422000EF324E4
:10514800D96E040EF420DA6E0401DF500F0B000153
:105158009A6F9A510201E95DD8A02CD00001A251A2
:105168000E0D050EF326000EF422000EF324D96E60
:10517800040EF420DA6E0401DF380F0B00019A6F79
:105188000201E95100019A5DD8A014D0A2510E0D78
:10519800080EF326000EF422000EF324D96E040E36
:1051A800F420DA6EDECF9EF0DECF9FF0DECFA0F0E7
:1051B800DECFA1F00001A22BA2510201F75DD8B009
:1051C8007FD70C51F00B06090C6F9EC09AF09FC058
:1051D8009BF0A0C09CF0A1C09DF00C0ED8900001DF
:1051E8009A379B379C379D37E82EF8D79AC060F0DE
:1051F8009BC061F09CC062F09DC063F07D0E646F3F
:10520800000E656F000E666F000E676FE4EC3CF0F1
:1052180060C06DF061C06EF062C06FF063C070F086
:105228000201F05101EC45F00201F051B4EC3AF002
:105238001200050EE126000EE22202010DA10DA5C5
:105248002CD0FF0EE36A0FD0FF0EE350020DB20E12
:10525800F324D96E020EF420DA6E020EDE18D8B4EA
:1052680009D0FF0EE32AFF0EE3CF3EF0B1513E5CBA
:10527800D8A0EAD7FF0EE350B119D8A40ED0B15187
:10528800020DB20EF324D96E020EF420DA6E020E6D
:10529800DF6E100EB16101D0B12B0DA57BD0D951B5
:1052A80007E1D629FF0ED7590F0ED859D8A024D018
:1052B800D6C260F0D7C261F0D8C262F0D9C263F03A
:1052C8007D0E0001646F000E656F000E666F000EA4
:1052D800676FE4EC3CF060C046F061C047F062C024
:1052E80048F063C049F00C0ED89046364736483629
:1052F8004936E82EF9D72BD0D6C246F0D7C247F0A8
:10530800D8C248F0D9C249F00C0ED8904636473674
:1053180048364936E82EF9D746C060F047C061F0F4
:1053280048C062F049C063F07D0E0001646F000E52
:10533800656F000E666F000E676FE4EC3CF060C0AE
:1053480046F061C047F062C048F063C049F0FB0E08
:1053580046C0E3FFFC0E47C0E3FFFD0E48C0E3FF75
:10536800FE0E49C0E3FFE150FB0FD96EE250DA6E42
:10537800FF0EDA22DECF6DF0DECF6EF0DECF6FF0FB
:10538800DECF70F00201F15101EC45F00201F1515C
:10539800B4EC3AF0FA0EE126FF0EE2221200EEEC2F
:1053A80048F001C048F102C049F15304D8A466D0BE
:1053B800000E536E04C10DF005C10EF006C10FF0CA
:1053C80007C110F00D1E0E1E0F1E101E0D2A000E16
:1053D8000E220F2210224C50116E4D50126E136A7D
:1053E800146A111E121E131E141E112A000E1222F8
:1053F80013221422010148511124156E495112201B
:10540800166E000E1320176E000E1420186E0D5025
:105418001524196E0E5016201A6E0F5017201B6E89
:10542800105018201C6E085119241D6E09511A209D
:105438001E6E0A511B201F6E0B511C20206E000E81
:105448001D24006F000E1E20016F010E1F20026F29
:10545800000E2020036F48C104F149C105F1066B15
:10546800076B000E086F000E096F000E0A6F000E22
:105478000B6F000E4D6E000E4C6E3ED004C10DF049
:1054880005C10EF006C10FF007C110F00D1E0E1E6B
:105498000F1E101E0D2A000E0E220F2210224CC0C5
:1054A80011F04DC012F0111E121E114A122A0101EC
:1054B800485111264951122211500D24136E1250D1
:1054C8000E20146E000E0F20156E000E1020166EA2
:1054D80008511324006F09511420016F0A51152037
:1054E800026F0B511620036F005104270151052349
:1054F800025106230351072300C109F001C10AF034
:1055080002C10BF003C10CF012000001626F000130
:1055180062510E0D040EF326000EF422000EF32441
:10552800D96E040EF420DA6E60C0DFFF62510E0DF2
:10553800040EF326000EF422000EF324D96E040E96
:10554800F420DA6EDF50D8A410D062510E0D080E88
:10555800F326000EF422000EF324D96E040EF42074
:10556800DA6EDE6ADE6ADE6ADD6A000E636F6DD0AF
:1055780063510E0D050EF326000EF422000EF324DF
:10558800D96E040EF420DA6E0401DF500F0B00010F
:10559800616F0201F5510001615DD8B020D06351FF
:1055A8000E0D040EF326000EF422000EF324D96E1D
:1055B800040EF420DA6EDE04D8A411D063510E0D67
:1055C800050EF326000EF422000EF324D96E040E05
:1055D800F420DA6E0401DF500F0B0201F56F0001B1
:1055E80063510E0D050EF326000EF422000EF3246F
:1055F800D96E040EF420DA6E0401DF380F0B0201B5
:10560800F66121D0000163510E0D040EF326000E41
:10561800F422000EF324D96E040EF420DA6EDE04B0
:10562800D8A411D063510E0D050EF326000EF422F6
:10563800000EF324D96E040EF420DA6E0401DF386C
:105648000F0B0201F66F0001632B0201F7510001F5
:10565800635DD8A08DD70201E951F65DD8A0F6C2E6
:10566800E9F2F551E95DD8B01200F5C2E9F212008D
:10567800000120EE01F06051D9266151DA22DF5095
:10568800626F20EE05F06051D9266151DA2200EEF2
:1056980001F06051E9266151EA22DFCFEFFF20EEE9
:1056A80009F06051D9266151DA2200EE05F0605107
:1056B800E9266151EA22DFCFEFFF20EE0DF06051BD
:1056C800D9266151DA2200EE09F06051E9266151CC
:1056D800EA22DFCFEFFF20EE0DF06051D9266151AD
:1056E800DA2262C0DFFF20EE02F06051D926615154
:1056F800DA22DF50626F20EE0AF06051D92661513C
:10570800DA2200EE02F06051E9266151EA22DFCF89
:10571800EFFF20EE0AF06051D9266151DA2262C00B
:10572800DFFF20EE0EF06051D9266151DA22DF50FA
:10573800626F20EE06F06051D9266151DA2200EE40
:105748000EF06051E9266151EA22DFCFEFFF20EE2B
:1057580006F06051D9266151DA2262C0DFFF20EEDF
:1057680003F06051D9266151DA22DF50626F20EED2
:105778000FF06051D9266151DA2200EE03F0605132
:10578800E9266151EA22DFCFEFFF20EE0BF06051EE
:10579800D9266151DA2200EE0FF06051E9266151F5
:1057A800EA22DFCFEFFF20EE07F06051D9266151E2
:1057B800DA2200EE0BF06051E9266151EA22DFCFD0
:1057C800EFFF20EE07F06051D9266151DA2262C05E
:1057D800DFFF1200A6C09AF0A7C09BF000019C6BE7
:1057E8009D6BE80E9E6F030E9F6F000EA06F000E5C
:1057F800A16F4DEC42F09AC0D6F29BC0D7F29CC084
:10580800D8F29DC0D9F20001A651A711D8A42BD077
:105818000201F151FBEC47F002010D95000E000169
:10582800B06F1AD0B051020DB20EF324D96E020E29
:10583800F420DA6E020EDE18D8A40CD0B051020D96
:10584800B20EF324D96E020EF420DA6EFF0EDF6E6C
:105858000201B1070001B02B0201B1510001B05D96
:10586800D8B01200DFD702010D850CA91200D9515A
:1058780007E1D629FF0ED7590F0ED859D8A01DD049
:10588800D6C260F0D7C261F0D8C262F0D9C263F064
:105898007D0E0001646F000E656F000E666F000ECE
:1058A800676FE4EC3CF00C0ED8900001603761376C
:1058B80062376337E82EF8D723D0D6C2A8F0D7C20C
:1058C800A9F0D8C2AAF0D9C2ABF00C0ED89000014A
:1058D800A837A937AA37AB37E82EF8D7A8C060F0A1
:1058E800A9C061F0AAC062F0ABC063F07D0E646F1E
:1058F800000E656F000E666F000E676FE4EC3CF0FB
:1059080060C0ACF061C0ADF062C0AEF063C0AFF093
:10591800ACC06DF0ADC06EF0AEC06FF0AFC070F04F
:105928000201F15101EC45F00201F151B4EC3AF0F9
:1059380012000001626F070E0201F56F000EF66F8C
:10594800000162510E0D050EF326000EF422000E22
:10595800F324D96E040EF420DA6E60C0DFFF6251C2
:105968000E0D0D0EF326000EF422000EF324D96E50
:10597800040EF420DA6E000EDB82000E636F6DD029
:1059880063510E0D050EF326000EF422000EF324CB
:10599800D96E040EF420DA6E0401DF500F0B0001FB
:1059A800616F0201F5510001615DD8B020D06351EB
:1059B8000E0D040EF326000EF422000EF324D96E09
:1059C800040EF420DA6EDE04D8A411D063510E0D53
:1059D800050EF326000EF422000EF324D96E040EF1
:1059E800F420DA6E0401DF500F0B0201F56F00019D
:1059F80063510E0D050EF326000EF422000EF3245B
:105A0800D96E040EF420DA6E0401DF380F0B0201A0
:105A1800F66121D0000163510E0D040EF326000E2D
:105A2800F422000EF324D96E040EF420DA6EDE049C
:105A3800D8A411D063510E0D050EF326000EF422E2
:105A4800000EF324D96E040EF420DA6E0401DF3858
:105A58000F0B0201F66F0001632B0201F7510001E1
:105A6800635DD8A08DD70201E951F65DD8A0F6C2D2
:105A7800E9F2F551E95DD8B01200F5C2E9F2120079
:105A8800000E0001B86F23EEB0F000EE98F00F0E94
:105A9800DBCFEBFFE806FCE2A80E606F000E616F3B
:105AA800000E636F000E626F000E656F100E646F5C
:105AB800CCEC46F0A80E00017D6F000E7E6F91C001
:105AC8007FF092C080F01EEC46F00001A8BF0DD018
:105AD800A80E606F000E616F93C062F094C063F00F
