:040000003FEF00F0DE
:10000800FACF34F0FBCF35F0E1CF36F0E2CF37F05E
:10001800D9CF38F0DACF39F0F3CF3AF0F4CF3BF05C
:1000280019EEBCF0F0B6F0A003D033EC1CF012D0FF
:10003800F0B8F0A203D02FEC1CF00CD0F2B6F2A06E
:1000480003D026EC1CF006D0F2BC9DA003D09EB0D5
:1000580095EC1BF03BC0F4FF3AC0F3FF39C0DAFF60
:1000680038C0D9FF37C0E2FF36C0E1FF35C0FBFF1B
:1000780034C0FAFF110016EEFEF09DEF12F07EC1BB
:1000880065F0000E0001666F000E42EC10F066C1CC
:100098006DF067C16EF068C16FF069C170F0B6ECC1
:1000A80011F0010181513EEC11F001017E05D8A447
:1000B800EDD174C162F0390EE6EC1AF088C17BF01C
:1000C800010E00017B170101D890873500017C6F74
:1000D80001018039F00B00017C117B11626F1D0E4C
:1000E800E6EC1AF079C07BF07AC07CF07CC07BF03B
:1000F80000017C6B030E7B1782C17DF0010E7D171A
:10010800D8907D37D8907D3701017F39F00B0001F9
:100118007D117B11626F1E0EE6EC1AF0010184510D
:100128008511D8B46FD084C17FF085C180F00001FB
:10013800816B826B4ED07FC060F080C061F081C05F
:1001480062F082C063F07D0E0001646F000E656F7F
:10015800000E666F000E676FECEC17F027D07FC0BB
:1001680060F080C061F081C062F082C063F0FA0E76
:100178000001646F000E656F000E666F000E676FFA
:10018800ECEC17F013D07FC060F080C061F081C044
:1001980062F082C063F0F40E0001646F010E656FB7
:1001A800000E666F000E676FECEC17F060C07FF012
:1001B80061C080F062C081F063C082F016D0000E8A
:1001C80000017F6F000E806F000E816F000E826F3E
:1001D8000CD001018051070AD8B4ADD70F0AD8B4A2
:1001E800BED7010AD8B4CFD7EAD701017F290001C9
:1001F8007B6F05D0D8908233813380337F337B2F58
:10020800F9D709D0000E00017F6F000E806F000E35
:10021800816F000E826F7FC062F0240EE6EC1AF048
:1002280079C062F01F0EE6EC1AF0260E8BEC1AF07D
:100238000001836F0C0E01017F19D8A408D0070EA6
:100248008019D8B40CD0080E8019D8B408D00B0E79
:100258007F19D8A407D0070E8019D8A403D00001AD
:10026800838702D000018397838583C062F0260EBE
:10027800E6EC1AF0310E8BEC1AF00001836FF80EE1
:100288008317030E831383C062F0310EE6EC1AF075
:100298000A0E0001626F370EE6EC1AF0120E010129
:1002A8009719D8A42FD0070E8019D8B404D0080EF7
:1002B8008019D8A417D0310E8BEC1AF00001836F87
:1002C800839F83C062F0310EE6EC1AF0400E000105
:1002D800626F2F0EE6EC1AF0000E0001626F300E0E
:1002E800E6EC1AF0090E01018019D8A40BD0310EE2
:1002F8008BEC1AF00001836F838F83C062F0310E9C
:10030800E6EC1AF0330E8BEC1AF00001836F839D34
:10031800838186C17BF0010E7B17060E7C6FD89017
:100328007B377C2FFCD77B51831383C062F0330E5D
:10033800E6EC1AF086C17BF0010E00017B17D8901D
:100348007B37D8907B35FF0A1D0B836F83C062F023
:100358003B0EE6EC1AF0010173510001626F200EAA
:10036800E6EC1AF072C162F0210EE6EC1AF0000E0B
:100378000001626F0D0EE6EC1AF0000E0001626FCC
:100388000E0EE6EC1AF0000E0001626F0F0EE6EC9E
:100398001AF0120E01019719D8A471D0090E80190C
:1003A800D8A420D0800E665D130E6759610E685977
:1003B800330E6959D8A016D06605F70E6759CB0ECB
:1003C80068593C0E6959D8B00DD0020E0001626F11
:1003D800360EE6EC1AF0640E0001626F3A0EE6EC97
:1003E8001AF02CD0090E01018019D8A421D0800E52
:1003F800665D1A0E6759700E6859180E6959D8A0AB
:1004080017D0410E665DDD0E67594A0E68591F0EFA
:100418006959D8B00DD0020E0001626F360EE6ECB5
:100428001AF07F0E0001626F3A0EE6EC1AF006D061
:10043800030E0001626F360EE6EC1AF0090E010198
:100448008019D8A410D08605D8A40DD0650E000157
:10045800626F3A0EE6EC1AF0190E0001626F3B0E5D
:10046800E6EC1AF00CD0650E0001626F3A0EE6EC6D
:100478001AF01D0E0001626F3B0EE6EC1AF0FF0E3B
:100488000001626F120EE6EC1AF012006AC16DF0FC
:100498006BC16EF06CC16FF06DC170F05EEC16F060
:1004A8006EC16DF06FC16EF070C16FF071C170F008
:1004B80093EC16F0010173510001626F250EE6EC12
:1004C8001AF072C162F0260EE6EC1AF00A0E8BECF6
:1004D8001AF00001836F9F0E831701019939E846CE
:1004E800E00B0001831383C062F00A0EE6EC1AF0F9
:1004F800C80E0001836F01018251D8B402D00001F7
:10050800838983C062F0300EE6EC1AF0000E000119
:100518007E6F10D07E51010D750EF324D96E010E39
:10052800F420DA6EDF50626F7E51280FE6EC1AF085
:1005380000017E2B01017D5100017E5DD8A0EAD724
:1005480001017D51D8B408D07D0510090001626F02
:10055800270EE6EC1AF006D0000E0001626F270E97
:10056800E6EC1AF0FF0E0001626F3E0EE6EC1AF0A0
:10057800FF0E0001626F3F0EE6EC1AF01200000E4B
:100588000101636F000E656F000E646F000E626FED
:10059800000E606F000E616FB9C091F0BAC092F0A2
:1005A800100E0001936F010E946F000E956F010EEF
:1005B800966F06EC0EF00001BF51C06FC16B0F0EB5
:1005C800C027000EC123040EC26FC135C133C0332A
:1005D800C22FFBD7C0510101636F6351D8A404D067
:1005E800010E636F000E0BD0BFC0C0F00F0E0001EC
:1005F800C017D8A402D0010E01D0000E0101626F0D
:100608006205D8A448D0000E646F6339F00BF00F70
:10061800656F24D001016451010D200EF324D96EB9
:10062800010EF420DA6E6451010D100EF324E96E08
:10063800010EF420EA6EEF500001C06F0101655110
:10064800010DF3500001BD25E96EF450BE21EA6E9C
:10065800EF50C019DF6E0101642B652B6351000157
:10066800C06FC16BC03BC13BF00EC117C0510F0B2F
:10067800C113F00EC017010165510001C26FC36BB1
:10068800C051C25DC351800AC46FC151800AC459A8
:10069800D8B07FD0BFD70001BF510F0BC06FC16B5F
:1006A800C01FC11FC04BC12BBF51C26FC36BC0510C
:1006B800C227C151C323C251BD250101606F00018A
:1006C800C351BE210101616F000E656F0F0E656594
:1006D80001D036D00001BF510F0B0101656113D065
:1006E8006551010DF3506025D96EF4506121DA6E21
:1006F8006551010D300EF324E96E010EF420EA6E07
:10070800DFCFEFFF1BD00001BF510F0B01016519AF
:10071800D8A40AD06551010D300EF324D96E010E0C
:10072800F420DA6E800E09D06551010D300EF324E5
:10073800D96E010EF420DA6E000EDF6E652BC6D777
:10074800000E656F0F0E656501D023D06551010D50
:10075800200EF324D96E010EF420DA6E6551010DD6
:10076800000EF324E96E010EF420EA6EEF5000014A
:10077800C06F01016551010D300EF324E96E010EC1
:10078800F420EA6EEF500001C019DF6E0101652BFD
:10079800D9D7500E0001606F010E616F000E636FB4
:1007A800000E626F000E656F100E646F1AEC1AF07F
:1007B800000E0101656F56D0000E0101646F0F0E27
:1007C800646501D033D06451010D400EF324D96E15
:1007D800010EF420DA6E65510001C06FC16BC03B99
:1007E800C13BF00EC117C0510F0BC113F00EC0175B
:1007F800010164510001C027000EC123C051BD256D
:10080800E96EC151BE21EA6EEF50C26F0101645119
:10081800010D500EF324E96E010EF420EA6EEF503C
:100828000001C219DF6E0101642BC9D7500E000107
:10083800606F010E616F400E626F010E636F000EF4
:10084800656F100E646F8EEC17F0500E00017D6F0F
:10085800010E7E6FB9C07FF0BAC080F0B5EC19F018
:100868000101652BFF0E0001C06FFF0EC16F010172
:1008780063510001C26FC36BC051C227C151C3236A
:10088800010165510001C46FC56BC251C45DC551FA
:10089800800AC66FC351800AC659D8A08DD7000EEA
:1008A8000101656F0F0E656501D023D06551010DFB
:1008B800400EF324D96E010EF420DA6E6551010D55
:1008C800200EF324E96E010EF420EA6EEF500001C9
:1008D800C06F01016551010D500EF324E96E010E40
:1008E800F420EA6EEF500001C019DF6E0101652B9C
:1008F800D9D7400E00017D6F010E7E6FB9C07FF021
:10090800BAC080F0B5EC19F0BBC060F0BCC061F0B3
:10091800400E0001626F010E636F000E656F100ECE
:10092800646F8EEC17F012000A0E0001F96F010EC9
:10093800F86F000E7C6F0F0E7C6501D016D07C51CD
:10094800010DF3506825D96EF4506921DA6EDF5035
:100958006A6F7C51010DF3506625D96EF4506721FA
:10096800DA6E6A51DF1A7C2BE6D7000E7C6F0F0E09
:100978007C6501D022D07C51010DF3506625D96EDB
:10098800F4506721DA6EDF506A6F6A51010D670E05
:10099800F324F66EFE0EF420F76EF86A000EF822C5
:1009A8007C51010DF3506625D96EF4506721DA6E3B
:1009B8000800F5CFDFFF7C2BDAD766C060F067C090
:1009C80061F0A5EC0CF00001F905D8B426D1000EB1
:1009D8007C6F0F0E7C6501D020D17C516A6F6B6BE8
:1009E800010E6A27000E6B236A516625D96E6B517A
:1009F8006721DA6EDF506C6F7C516625D96E000E68
:100A08006721DA6EDF506C197A6F7C516A6F6B6BF5
:100A1800030E6A27000E6B236A516625D96E6B5147
:100A28006721DA6EDF506C6F7C516D6F6E6B020E52
:100A38006D27000E6E236D516625D96E6E516721A4
:100A4800DA6EDF506C197B6F7A517B19786F7C51A5
:100A58006A6F6B6B010E6A27000E6B236A5166255D
:100A6800D96E6B516721DA6EDF506C6F7C516D6FF8
:100A78006E6B020E6D27000E6E236D516625D96EC2
:100A88006E516721DA6EDF506C19796F7F0E7A65C7
:100A98000CD01B0E7AC06AF06B6BD8906A376B3734
:100AA8006A19726F6B51736F05D0D8907A35726F6F
:100AB800736B733772C07AF07F0E79650CD01B0E9A
:100AC80079C06AF06B6BD8906A376B376A19746FA4
:100AD8006B51756F05D0D8907935746F756B753714
:100AE80074C079F07F0E7B650CD01B0E7BC06AF05A
:100AF8006B6BD8906A376B376A19766F6B51776F63
:100B080005D0D8907B35766F776B773776C07BF0DA
:100B18007C516625D96E000E6721DA6E7C516625F8
:100B2800E96E000E6721EA6EEF5078197A19DF6EC8
:100B38007C516A6F6B6B010E6A27000E6B236A513A
:100B48006625D96E6B516721DA6E7C516C6F6D6BBF
:100B5800010E6C27000E6D236C516625E96E6D51F0
:100B68006721EA6EEF5078197919DF6E7C516A6F48
:100B78006B6B020E6A27000E6B236A516625D96ECD
:100B88006B516721DA6E7C516C6F6D6B020E6C27AE
:100B9800000E6D236C516625E96E6D516721EA6E72
:100BA800EF5078197B19DF6E7C516A6F6B6B030EFF
:100BB8006A27000E6B236A516625D96E6B5167212F
:100BC800DA6E7C516C6F6D6B020E6C27000E6D2314
:100BD8006C516625E96E6D516721EA6EEF506E6FB4
:100BE8007C516F6F706B010E6F27000E70236F5171
:100BF8006625E96E70516721EA6EEF50716F7C517E
:100C08006625E96E000E6721EA6EEF5071196E19BC
:100C18007819DF6E040E7C27DCD668C060F069C0E6
:100C280061F039EC06F0000E00017C6F0F0E7C6558
:100C380001D016D07C51010DF3506825D96EF450BF
:100C48006921DA6EDF506A6F7C51010DF350662519
:100C5800D96EF4506721DA6E6A51DF1A7C2BE6D719
:100C6800F907F951D8B4120080D6000120EE0DF032
:100C78006051D9266151DA22DF50626F6251010D4D
:100C8800670EF324F66EFE0EF420F76EF86A000E77
:100C9800F8220800F5CF63F060C0D9FF61C0DAFF21
:100CA8006351DF1A20EE0EF06051D9266151DA2225
:100CB800DF50626F6251010D670EF324F66EFE0E6F
:100CC800F420F76EF86A000EF8220800F5CF63F0FA
:100CD80020EE01F06051D9266151DA226351DF1A02
:100CE80020EE0FF06051D9266151DA22DF50626F91
:100CF8006251010D670EF324F66EFE0EF420F76EB6
:100D0800F86A000EF8220800F5CF63F020EE02F032
:100D18006051D9266151DA226351DF1A20EE0CF0B6
:100D28006051D9266151DA22DF50626F6251010D9C
:100D3800670EF324F66EFE0EF420F76EF86A000EC6
:100D4800F8220800F5CF63F020EE03F06051D926B1
:100D58006151DA226351DF1A60C0D9FF61C0DAFF3E
:100D6800F851DF1A7F0EF8650CD01B0EF8C062F040
:100D7800636BD890623763376219646F6351656F2C
:100D880005D0D890F835646F656B653764C0F8F0A6
:100D980060C0D9FF61C0DAFFDF50626F20EE04F057
:100DA8006051D9266151DA226251DF1A20EE01F032
:100DB8006051D9266151DA22DF50626F20EE05F0CA
:100DC8006051D9266151DA226251DF1A20EE02F011
:100DD8006051D9266151DA22DF50626F20EE06F0A9
:100DE8006051D9266151DA226251DF1A20EE03F0F0
:100DF8006051D9266151DA22DF50626F20EE07F088
:100E08006051D9266151DA226251DF1A20EE04F0CE
:100E18006051D9266151DA22DF50626F20EE08F066
:100E28006051D9266151DA226251DF1A20EE05F0AD
:100E38006051D9266151DA22DF50626F20EE09F045
:100E48006051D9266151DA226251DF1A20EE06F08C
:100E58006051D9266151DA22DF50626F20EE0AF024
:100E68006051D9266151DA226251DF1A20EE07F06B
:100E78006051D9266151DA22DF50626F20EE0BF003
:100E88006051D9266151DA226251DF1A20EE08F04A
:100E98006051D9266151DA22DF50626F20EE0CF0E2
:100EA8006051D9266151DA226251DF1A20EE09F029
:100EB8006051D9266151DA22DF50626F20EE0DF0C1
:100EC8006051D9266151DA226251DF1A20EE0AF008
:100ED8006051D9266151DA22DF50626F20EE0EF0A0
:100EE8006051D9266151DA226251DF1A20EE0BF0E7
:100EF8006051D9266151DA22DF50626F20EE0FF07F
:100F08006051D9266151DA226251DF1A12000101BB
:100F180089A506D0800E00019B6F030E9A6F120000
:100F280089C19DF0030E00019D17D8B405D0800E2D
:100F38009B6F040E9A6F120001017E51D8A409D04C
:100F4800400E00019C6505D0800E9B6F020E9A6FC3
:100F5800120001018D519FEC1AF0000E00017A6F0A
:100F6800040E796F43EC00F001017E05D8A427D068
:100F78009CC062F0220EE6EC1AF00A0E8BEC1AF016
:100F88000001A96FF00EA917A987A9C062F00A0E7F
:100F9800E6EC1AF0400E0001626F400EE6EC1AF023
:100FA800000E0001626F410EE6EC1AF07EC165F09A
:100FB800010E0001666F010E42EC10F00CD0000E1D
:100FC8000001626F400EE6EC1AF0000E0001626F3D
:100FD800410EE6EC1AF001017E51D8A405D09CC060
:100FE80062F0000EE6EC1AF03FEC1CF0800EDDEC2F
:100FF8001BF0000E0001AA6F0DD0AA51010DF3508D
:101008009A25D96EF4509B21DA6EDF50DDEC1BF087
:101018000001AA2B9C51AA5DD8A0EFD73DEC1CF08B
:1010280001018981E70E89177EC165F0000E000174
:10103800666F030E42EC10F0000E0001A16F000E67
:10104800A26F0A0EA36F000EA46FA1C060F0A2C029
:1010580061F0A3C062F0A4C063F001018D5171EC8E
:1010680019F001018D51F2EC13F001019051911129
:1010780092119311D8B461D0935107E19029FF0ED2
:1010880091590F0E9259D8A01DD090C160F091C10E
:1010980061F092C162F093C163F07D0E0001646F4C
:1010A800000E656F000E666F000E676FE6EC15F0B8
:1010B8000C0ED89000016037613762376337E82E2D
:1010C800F8D723D090C19DF091C19EF092C19FF0B6
:1010D80093C1A0F00C0ED89000019D379E379F3722
:1010E800A037E82EF8D79DC060F09EC061F09FC081
:1010F80062F0A0C063F07D0E646F000E656F000E95
:10110800666F000E676FE6EC15F060C0A5F061C071
:10111800A6F062C0A7F063C0A8F0A5C060F0A6C0A2
:1011280061F0A7C062F0A8C063F001018F5171ECB3
:1011380019F001018F51F2EC13F0000E00019B6FC2
:10114800000E9A6F12000001A56F0201F005D8B4D5
:1011580096EC18F0340E0201F46FF45121EC1CF0F7
:10116800000E0201026F000E036F000E046F000EE6
:10117800056FDD69000EDE6F000EC86F000EC96FC7
:10118800000ECA6F000ECB6F000ED56F000ED46F25
:10119800000E0A6F000E0B6F000E0C6F000E0D6F25
:1011A800000E066F000E076F000E086F000E096F25
:1011B800000ED36F000ED26F000EDC6F010EDB6FD6
:1011C800000ED16F000ED06F000EEE6F000EEF6FA5
:1011D800000EC86F000EC96F000ECA6F000ECB6FED
:1011E8000395000E026F000E036F000E046F000ED1
:1011F800056F000E016F000E006F070ED76F000E0F
:10120800D66F010ED96F010ED86FE069A5C0A4F2A0
:10121800000E126F100EED6F0001A551D8A41BD05F
:10122800FF0E796F050E7A6FA00E7B6F270E7C6F0D
:10123800BE0E7D6F330E7E6F8EEC09F05CEC15F000
:10124800000E02011C6F080E186FE60E196FD30E00
:101258001A6F330E1BD0FF0E0001796F050E7A6FDF
:10126800200E7B6FA20E7C6FD30E7D6F190E7E6FE2
:101278008EEC09F0A1EC15F0000E02011C6F280E8F
:10128800186F760E196FE80E1A6F190E1B6F010E84
:10129800E16F000EDF6FC1EC10F0000E0201A66FC7
:1012A800000EA56F1D0E0001606F020E616F000E2B
:1012B800636F000E626F000E656F690E646F1AEC43
:1012C8001AF0030E0201956FE80E946F070E976FE0
:1012D800D00E966F130E996F880E986F170E9B6F2E
:1012E800700E9A6F070EA16FD00EA06F200EA36F1D
:1012F800400EA26F400E9D6F000E9C6F400E9F6FB8
:10130800000E9E6F000E00019B6F000E9A6F57EC47
:101318000DF012007BC066F17CC067F17DC068F1FA
:101328007EC069F1A80E01016A6F610E6B6F000E35
:101338006C6F000E6D6F500E6E6FC30E6F6F000EE8
:10134800706F000E716F010E7E6F070E806F010EB9
:10135800816F010E876F000E886F000E736F080E85
:10136800726F0C0E7F6F010E826F000E836F000E7E
:10137800866FC10E756F940E766FC10E776F030E70
:101388007D6F340E746F000E896F000E8A6F79C0FE
:101398008BF17AC08CF1000E856F000E846F800E81
:1013A800986F980E906F3A0E916F000E926F000E24
:1013B800936F020E996F0B0E9A6F120E9B6F000EB1
:1013C800956F000E966F9451D8A426D0D1EC14F0E6
:1013D80001018D6FD1EC14F001018E6FD1EC14F086
:1013E80001018F6F000E0001606F000E616F000E2B
:1013F800626F01018E512DEC19F0000E0001606F33
:10140800000E616F000E626F01018F512DEC19F013
:10141800010E0101946F0BD08D519FEC1AF0010160
:101428008E519FEC1AF001018F519FEC1AF0E8ECF5
:1014380018F0000E0001656F010E666F010E42EC98
:1014480010F066C16DF067C16EF068C16FF069C1D8
:1014580070F0B6EC11F0420E0001626F3B0EE6EC44
:101468001AF03B0E8BEC1AF000017F6F7FBBF9D7A7
:10147800230E626F0C0EE6EC1AF01E0E0001626F6E
:101488000D0EE6EC1AF0AA0E0001626F1F0EE6ECD4
:101498001AF08F0E0001626F350EE6EC1AF0FF0E9F
:1014A8000001626F320EE6EC1AF0400E0001626F26
:1014B800310EE6EC1AF0010E0001656F010E666F41
:1014C800000E42EC10F0FF0E0001626F230EE6ECF6
:1014D8001AF0420E8BEC1AF00101976F1200000E01
:1014E8000001DA6FE00E606F040E616F000E636F2B
:1014F800000E626F010E656F0F0E646F1AEC1AF022
:101508000001D89BD89DD89FFC0ED817D895D8979E
:10151800D899DA51010DE00EF324D96E040EF420A7
:10152800DA6ED8C0DFFFDA2B000ED96F070ED96547
:1015380001D022D0D951D06FD16BD01FD11FD04B41
:10154800D12B070ED027000ED123520ED025D96EED
:10155800020ED121DA6ED951DAC0D2F0D36BD2277C
:10156800000ED323E00ED225E96E040ED321EA6ED5
:10157800DFCFEFFFD92BDAD7DA51080FDA6F000E79
:10158800D96F070ED96501D022D0D951D06FD16B50
:10159800D01FD11FD04BD12B070ED027000ED1233F
:1015A8005A0ED025D96E020ED121DA6ED951DAC081
:1015B800D2F0D36BD227000ED323E00ED225E96EEA
:1015C800040ED321EA6EDFCFEFFFD92BDAD7DA5139
:1015D800080FDA6FFF0E746F7369C4EC1AF073C0EA
:1015E800D2F274C0D3F20001DA51010DE00EF324F7
:1015F800606F040EF420616FD20E626F020E636F8B
:10160800000E656F020E646F8EEC17F00001DA5160
:10161800020FDA6F420EC76F020EC86FE00EC96F75
:10162800040ECA6FDAC0CBF0FBEC16F0C7C0D4F0DA
:10163800C8C0D5F0C9C0D6F0CAC0D7F00001DA5189
:10164800010DE00EF324606F040EF420616FD40ED8
:10165800626F000E636F000E656F040E646F8EEC90
:1016680017F00001DA51040FDA6FDA511200D5ECE5
:101678001AF060C0F4F061C0F5F00001FB05D8A4D1
:1016880065D0000EFB6FE8C06CF0E9C06DF0EAC0F1
:101698006EF0EBC06FF06C1F6D1F6E1F6F1F6C2B11
:1016A800000E6D236E236F23F651706FF751716F23
:1016B800726B736B701F711F721F731F702B000E7C
:1016C800712372237323F4517025746FF5517121BE
:1016D800756F000E7221766F000E7321776F6C5153
:1016E8007425786F6D517521796F6E5176217A6FF7
:1016F8006F5177217B6FEC5178257C6FED51792103
:101708007D6FEE517A217E6FEF517B217F6F000E46
:101718007C25E46F000E7D21E56F010E7E21E66FCA
:10172800000E7F21E76FF4C0E8F0F5C0E9F0EA6B3E
:10173800EB6B000EEC6F000EED6F000EEE6F000EFF
:10174800EF6F000EF76F000EF66F3DD0E8C06CF03B
:10175800E9C06DF0EAC06EF0EBC06FF06C1F6D1F52
:101768006E1F6F1F6C2B000E6D236E236F23F6C048
:1017780070F0F7C071F0701F711F704B712BF4512E
:101788007027F551712370516C25726F71516D215D
:10179800736F000E6E21746F000E6F21756FEC5120
:1017A8007225E46FED517321E56FEE517421E66FF8
:1017B800EF517521E76FE451E827E551E923E65138
:1017C800EA23E751EB23E4C068F0E5C069F0E6C01E
:1017D8006AF0E7C06BF0120006EC1BF001C0F4F0F1
:1017E80002C0F5F00001FB05D8A465D0000EFB6F20
:1017F800E8C00DF0E9C00EF0EAC00FF0EBC010F041
:101808000D1E0E1E0F1E101E0D2A000E0E220F2278
:101818001022F651116EF751126E136A146A111ED6
:10182800121E131E141E112A000E12221322142235
:10183800F4511124156EF5511220166E000E132066
:10184800176E000E1420186E0D501524196E0E50C8
:1018580016201A6E0F5017201B6E105018201C6E81
:10186800EC5119241D6EED511A201E6EEE511B20ED
:101878001F6EEF511C20206E000E1D24E46F000E19
:101888001E20E56F010E1F20E66F000E2020E76F77
:10189800F4C0E8F0F5C0E9F0EA6BEB6B000EEC6F12
:1018A800000EED6F000EEE6F000EEF6F000EF76F7B
:1018B800000EF66F3DD0E8C00DF0E9C00EF0EAC0AA
:1018C8000FF0EBC010F00D1E0E1E0F1E101E0D2A7D
:1018D800000E0E220F221022F6C011F0F7C012F0EF
:1018E800111E121E114A122AF4511126F551122204
:1018F80011500D24136E12500E20146E000E0F207E
:10190800156E000E1020166EEC511324E46FED5185
:101918001420E56FEE511520E66FEF511620E76FA2
:10192800E451E827E551E923E651EA23E751EB239F
:10193800E4C009F0E5C00AF0E6C00BF0E7C00CF01F
:101948001200000120EE01F06051D9266151DA221F
:10195800DF50626F20EE05F06051D9266151DA221E
:1019680000EE01F06051E9266151EA22DFCFEFFF76
:1019780020EE09F06051D9266151DA2200EE05F017
:101988006051E9266151EA22DFCFEFFF20EE0DF02A
:101998006051D9266151DA2200EE09F06051E9263A
:1019A8006151EA22DFCFEFFF20EE0DF06051D9261A
:1019B8006151DA2262C0DFFF20EE02F06051D926C1
:1019C8006151DA22DF50626F20EE0AF06051D926A9
:1019D8006151DA2200EE02F06051E9266151EA22F3
:1019E800DFCFEFFF20EE0AF06051D9266151DA22ED
:1019F80062C0DFFF20EE0EF06051D9266151DA2275
:101A0800DF50626F20EE06F06051D9266151DA226C
:101A180000EE0EF06051E9266151EA22DFCFEFFFB8
:101A280020EE06F06051D9266151DA2262C0DFFF4C
:101A380020EE03F06051D9266151DA22DF50626F3F
:101A480020EE0FF06051D9266151DA2200EE03F042
:101A58006051E9266151EA22DFCFEFFF20EE0BF05B
:101A68006051D9266151DA2200EE0FF06051E92663
:101A78006151EA22DFCFEFFF20EE07F06051D9264F
:101A88006151DA2200EE0BF06051E9266151EA2239
:101A9800DFCFEFFF20EE07F06051D9266151DA223F
:101AA80062C0DFFF12009AC060F09BC061F00001C5
:101AB800626B636BE80E646F030E656F000E666FF2
:101AC800000E676FECEC17F060C0CCF261C0CDF28D
:101AD80062C0CEF263C0CFF200019A519B11D8A424
:101AE8002BD00201E7519FEC1AF002010395000E7A
:101AF8000001A46F1AD0A451020DA80EF324D96EC8
:101B0800020EF420DA6E020EDE18D8A40CD0A4510E
:101B1800020DA80EF324D96E020EF420DA6EFF0E21
:101B2800DF6E0201A7070001A42B0201A7510001E3
:101B3800A45DD8B01200DFD70201038502A9120004
:101B4800CF5107E1CC29FF0ECD590F0ECE59D8A0A1
:101B58001DD0CCC260F0CDC261F0CEC262F0CFC25F
:101B680063F07D0E0001646F000E656F000E666FF6
:101B7800000E676FE6EC15F00C0ED8900001603788
:101B8800613762376337E82EF8D723D0CCC29CF090
:101B9800CDC29DF0CEC29EF0CFC29FF00C0ED89061
:101BA80000019C379D379E379F37E82EF8D79CC099
:101BB80060F09DC061F09EC062F09FC063F07D0E32
:101BC800646F000E656F000E666F000E676FE6ECBF
:101BD80015F060C0A0F061C0A1F062C0A2F063C0BF
:101BE800A3F0A0C060F0A1C061F0A2C062F0A3C0E1
:101BF80063F00201E75171EC19F00201E751F2ECD0
:101C080013F01200000E0001B86F21EEACF000EEE8
:101C180098F00F0EDBCFEBFFE806FCE2A80E606F32
:101C2800000E616F000E636F000E626F000E656F2D
:101C3800100E646F1AEC1AF0A80E00017D6F000EEA
:101C48007E6F91C07FF092C080F0B5EC19F0000172
:101C5800A8BF0DD0A80E606F000E616F93C062F030
:101C680094C063F0100E646F2CEC17F02AD0A80E05
:101C78000001606F000E616F93C062F094C063F062
:101C8800100E646F2CEC17F0000E0001B86F0F0EE9
:101C9800B86501D016D0B851010D980EF324D96E4D
:101CA800000EF420DA6EDF50976FB851010DF35033
:101CB8009325D96EF4509421DA6E9751DF1AB82B18
:101CC800E6D793C0D9FF94C0DAFF0001DFBE0DD07C
:101CD80093C060F094C061F095C062F096C063F064
:101CE800100E646F2CEC17F0120093C060F094C0D3
:101CF80061F095C062F096C063F0100E0001646F49
:101D08002CEC17F0000E0001B86F0F0EB86501D06B
:101D18001200B851010DF3509525D96EF450962153
:101D2800DA6EB851010D980EF324E96E000EF42016
:101D3800EA6EEF50976FB851010DF3509525E96E93
:101D4800F4509621EA6EEF509719DF6EB82BDDD765
:101D580000017E6F000E00017D6F7EC073F0746B12
:101D6800C4EC1AF0000173297F6F7FC07CF074D037
:101D7800000E806F63D080510E0D040EF326000E06
:101D8800F422000EF324D96E040EF420DA6EDE0479
:101D9800D8A452D080510E0D080EF326000EF4225E
:101DA800000EF324D96E040EF420DA6EDE50DE1035
:101DB800DE10DE10D8A440D080510E0D050EF3269B
:101DC800000EF422000EF324D96E040EF420DA6E0D
:101DD8000401DF500F0B0001786F78510201DF5DBD
:101DE800D8A02AD0000180510E0D050EF326000E52
:101DF800F422000EF324D96E040EF420DA6E0401E6
:101E0800DF380F0B0001786F0201DF510001785DA8
:101E1800D8A012D07551D8A40ED080510E0D0C0E3A
:101E2800F326000EF422000EF324D96E040EF420DB
:101E3800DA6EDE04D8B47F070001802B7E51805D06
:101E4800D8B003D07F51D8A496D77C517F19D8A495
:101E580003D0090E7D6F03D07F51D8A489D7805154
:101E6800D8B407D0800576C0D9FF77C0DAFFDF6E17
:101E780002D0090E7D6F7D51120000018C698D69B9
:101E88008E698F693BEC0BF068C088F069C089F0F7
:101E98006AC08AF06BC08BF0000E0001906F61D0B1
:101EA8009051080D040EF326000EF422000EF324C0
:101EB800D96E030EF420DA6EDE04D8A451D0905106
:101EC800080D000EF324D96E030EF420DA6EDE50EE
:101ED800885DDE508959DE508A59DE508B59D8A06A
:101EE8000DD09051080D000EF324D96E030EF42086
:101EF800DA6EDE6ADE6ADE6ADD6A32D09051080D7B
:101F0800000EF324D96E030EF420DA6E8851DE5EDB
:101F18008951DE5A8A51DE5A8B51DE5A9051080D8A
:101F2800000EF324D96E030EF420DA6E8C51DE5CB9
:101F38008D51DE588E51DE588F51DE58D8B010D0F2
:101F48009051080D000EF324D96E030EF420DA6EBA
:101F5800DECF8CF0DECF8DF0DECF8EF0DECF8FF0CF
:101F6800902BFA51905DD8A09BD78CC080F08DC083
:101F780081F08EC082F08FC083F012002D682E6829
:101F88002F683068F0EC0BF009C029F00AC02AF07D
:101F98000BC02BF00CC02CF0000E316E61D031500C
:101FA800080D040EF326000EF422000EF324D96E59
:101FB800030EF420DA6EDE04D8A451D03150080D97
:101FC800000EF324D96E030EF420DA6EDE50295C7D
:101FD800DE502A58DE502B58DE502C58D8A00DD091
:101FE8003150080D000EF324D96E030EF420DA6E7A
:101FF800DE6ADE6ADE6ADD6A32D03150080D000E14
:10200800F324D96E030EF420DA6E2950DE5E2A50CE
:10201800DE5A2B50DE5A2C50DE5A3150080D000E75
:10202800F324D96E030EF420DA6E2D50DE5C2E50A8
:10203800DE582F50DE583050DE58D8B010D031500E
:10204800080D000EF324D96E030EF420DA6EDECFED
:102058002DF0DECF2EF0DECF2FF0DECF30F0312A9C
:102068000001FA51315CD8A09AD72DC021F02EC0BA
:1020780022F02FC023F030C024F0120000016A6F54
:1020880000016551D8A408D0060E6A19D8B4120008
:10209800070E6A19D8B41200070E6A17010E6517E1
:1020A800010E8BEC1AF000016B6F6BAF02D0010EC2
:1020B80001D0000E676F6B51070B696F6751651987
:1020C800D8B41BD06951D8B409D06B51F80B626FE2
:1020D800010EE6EC1AF0000E0001696F6551D8A4F4
:1020E80003D06B51780B03D06B51780B80096B6F61
:1020F8006BC062F0010EE6EC1AF0000169516A1932
:10210800D8B412006A51D8B415D06605D8A412D034
:10211800410E8BEC1AF00001686F6551D8A403D00A
:10212800300E681302D0CF0E681768C062F0410EF7
:10213800E6EC1AF0F80E00016B176A516B136BC0CE
:1021480062F0010EE6EC1AF000016605D8A4120050
:102158006A51D8B406D0E4EC1BF00009D8A41200E8
:10216800FAD7010E0001606F000E616F000E626FFA
:10217800000E636F02EC1AF01200070E0201EB6FFB
:10218800000EEC6F000E0001616F6DD061510E0DF5
:10219800050EF326000EF422000EF324D96E040E69
:1021A800F420DA6E0401DF500F0B0001606F0201AA
:1021B800EB510001605DD8B020D061510E0D040EC6
:1021C800F326000EF422000EF324D96E040EF42038
:1021D800DA6EDE04D8A411D061510E0D050EF32677
:1021E800000EF422000EF324D96E040EF420DA6EE9
:1021F8000401DF500F0B0201EB6F000161510E0D5E
:10220800050EF326000EF422000EF324D96E040EF8
:10221800F420DA6E0401DF380F0B0201EC6121D0E3
:10222800000161510E0D040EF326000EF422000E7B
:10223800F324D96E040EF420DA6EDE04D8A411D08B
:1022480061510E0D050EF326000EF422000EF32444
:10225800D96E040EF420DA6E0401DF380F0B020188
:10226800EC6F0001612B0201ED510001615DD8B0F6
:1022780012008CD70001666F01018351D8A430D0B9
:1022880000016651800A830FD8B002D0FD0E666F38
:102298006651800A700FD8A002D00F0E666F4D0EDF
:1022A8008BEC1AF00001656FF80E6517658565C03F
:1022B80062F04D0EE6EC1AF0000166AF09D0030E8D
:1022C800662766512009626F090EE6EC1AF01200C3
:1022D800000166517009626F090EE6EC1AF01200EF
:1022E80000016651800A7E0FD8B002D0020E666FD8
:1022F8006651800A6C0FD8A002D0140E06D0665121
:10230800800A6E0FD8A002D0110E666F0B0E8BECF0
:102318001AF00001646F4D0E8BEC1AF00001656F26
:10232800F80E6517140E6619D8A406D0070E6513A3
:102338000F0E666F649B04D06585FE0E6627648B5E
:1023480065C062F04D0EE6EC1AF000016651800996
:10235800626F090EE6EC1AF064C062F00B0EE6EC50
:102368001AF012006DC060F06EC061F06FC062F0CC
:1023780070C063F0090E0001646F3D0E656F000EBA
:10238800666F000E676FE6EC15F060C075F061C00F
:1023980076F062C077F063C078F06DC060F06EC010
:1023A80061F06FC062F070C063F0090E0001646FE5
:1023B8003D0E656F000E666F000E676FC7EC16F076
:1023C80060C071F061C072F062C073F063C074F0F5
:1023D80077C078F076C077F075C076F00001756B3D
:1023E80073C074F072C073F071C072F0716B71C019
:1023F80060F072C061F073C062F074C063F0090EDF
:10240800646F3D0E656F000E666F000E676FE6EC39
:1024180015F060C071F061C072F062C073F063C003
:1024280074F0000171517527725176237351772327
:102438007451782377C062F0060EE6EC1AF076C085
:1024480062F0070EE6EC1AF075C062F0080EE6ECD2
:102458001AF01200000E0001606F000E616F000E8E
:10246800626F0201E2512DEC19F0000E0001606F5D
:10247800000E616F000E626F0201E3512DEC19F03E
:10248800000E0001606F000E616F000E626F0201A6
:10249800E7512DEC19F0000E0001606F000E616F1E
:1024A800000E626F0201E4512DEC19F0000E0001DC
:1024B800606F000E616F000E626F0201E5512DEC36
:1024C80019F0000E0001606F000E616F000E626F60
:1024D8000201E8512DEC19F0000E0001606F000EAA
:1024E800616F000E626F0201E6512DEC19F0000ECB
:1024F8000001606F000E616F000E626F0201EA5109
:102508002DEC19F0000E0001606F000E616F000ED7
:10251800626F0201F3512DEC19F0000E0001606F9B
:10252800000E616F000E626F0201E9512DEC19F087
:102538001200A00EF66E330EF76E000EF86E01EE66
:10254800ACF020EE34F00900F5CFEEFFDD50D950A5
:10255800FAE1720EF66E380EF76E000EF86E00EEA7
:10256800FCF020EE04F00900F5CFEEFFDD50D95065
:10257800FAE16E0EF66E380EF76E000EF86E00EE8B
:1025880052F020EE04F00900F5CFEEFFDD50D950EF
:10259800FAE104EEE0F022EE1EF0EE6ADD50D950CA
:1025A800FCE1DA50FAE104EE00F0E00EEE6AE8062B
:1025B800FDE103EE00F0A00EEE6AE806FDE102EE92
:1025C80000F0F50EEE6AE806FDE101EE66F0460E53
:1025D800EE6AE806FDE100EEE0F01C0EEE6AE806A1
:1025E800FDE1576A566A000188EF14F00001726F26
:1025F80000017251010D670EF324F66EFF0EF420F0
:10260800F76EF86A000EF8220800F55012EC1CF07C
:102618006EC060F06FC061F070C062F071C063F0AE
:1026280017EC15F0000E0001616F000E606F17ECDB
:102638001CF0070E0001726124D07251010D950E35
:10264800F324F66EFF0EF420F76EF86A000EF822F7
:102658000800F5500DEC1CF000017251010D8E0EB2
:10266800F324F66EFF0EF420F76EF86A000EF822D7
:102678000800F5501CEC1CF00201F45121EC1CF090
:102688001200FC0E00016B6FFF0E6C6F030EEAEC7C
:1026980019F012000001DD6F020103B1120002BF40
:1026A800120002510F0B0009D8A41200DDC01DF260
:1026B8000001DD51D8A424D00201A5A11200A5A3D0
:1026C8001200A5A7120073EC0AF00001DB6F000EE0
:1026D80028EC16F00001DC6FDC51D8A41200E00EE3
:1026E8009A6F040E9B6FDBC09CF08BEC07F0000127
:1026F8009A519B11D8A41200010E6FEC1BF0120026
:102708000201A5AB1200A5A91200A5A51200070E8B
:102718006FEC1BF08F0E0001606F020E616F000EF0
:10272800626F000E636F0201F35171EC19F0020140
:10273800F351F2EC13F01200000E0001706F000E5E
:102748006F6F010E656F010E666F000E42EC10F0A0
:10275800FF0E0001626F110EE6EC1AF0010E000187
:10276800656F010E666F050E42EC10F0000E000159
:10277800716F0F0E716501D019D0010E606F000ED8
:10278800616F000E626F000E636F02EC1AF00001B9
:10279800D8906F3770372C0E8BEC1AF000016E6FE3
:1027A800010E6E176E516F13712BE3D7010E656F13
:1027B800010E666F000E42EC10F0FF0E0001626F12
:1027C800120EE6EC1AF0000E0001626F110EE6EC34
:1027D8001AF06FC06CF070C06DF012000001996FB4
:1027E800F29E41EC0FF080C095F081C096F082C057
:1027F80097F083C098F000019951080D000EF3245A
:10280800D96E030EF420DA6E9551DE5C9651DE58CF
:102818009751DE589851DE58D8B010D09951080D0C
:10282800000EF324D96E030EF420DA6EDECF95F095
:10283800DECF96F0DECF97F0DECF98F095C06AF045
:1028480096C06BF097C06CF098C06DF03DEC14F03A
:1028580000019951080D040EF326000EF422000E13
:10286800F324D96E030EF420DA6E010EDF6EF28EB9
:1028780012000001FF51FE11FD1104E10B0EFC5D79
:10288800D8A01200FC516A5DFD516B59FE516C597C
:10289800FF516D59D8B012006AC0FCF06BC0FDF052
:1028A8006CC0FEF06DC0FFF0F6C072F0F7C073F0B8
:1028B8006AC06EF06BC06FF06E1F6F1F6E4B6F2B90
:1028C8006EC0F6F06FC0F7F0F6C068F0F7C069F0B8
:1028D8004FEC19F068C070F069C071F072C06EF00A
:1028E80073C06FF000016E1F6F1F6E4B6F2B70511E
:1028F8006E2771516F236E51EC276F51ED23000E37
:10290800EE23000EEF23120016EC1BF0F28EF28C71
:10291800000E0001A66F000EA76F000EA86F000E34
:10292800A96F5DEC17F0D00E00016B6F010E6C6F94
:1029380032EC1AF0C00E00016B6F010E6C6F49EC9F
:102948001AF0BCC160F0BDC161F0BEC162F0BFC188
:1029580063F089EC1BF0010E4EEC13F0F00E926E52
:10296800FC0E896E0B0E0001DF6F260EDE6F5D0E0A
:10297800E82EFED7DE2FFCD7DF2FFAD700D00B0EBC
:102988000001DF6F260EDE6F5D0EE82EFED7DE2F0C
:10299800FCD7DF2FFAD700D0E5D7140E0001FA6173
:1029A8003ED0F29EFAC060F06051080D040EF32686
:1029B800000EF422000EF324D96E030EF420DA6E12
:1029C800000EDF6E6051080D000EF324D96E030E61
:1029D800F420DA6EDE6ADE6ADE6ADD6A6051080DAE
:1029E800050EF326000EF422000EF324D96E030E12
:1029F800F420DA6E000EDF6E6051080D060EF32625
:102A0800000EF422000EF324D96E030EF420DA6EC1
:102A1800000EDE6E000EDD6EFA2BF28E01D0FFD7AF
:102A2800000160511200400E0001605D740E615992
:102A38002A0E6259080E6359D8A00AD0C10E605DEB
:102A4800490E61596E0E62590A0E6359D8A027D0F3
:102A5800800E605D1A0E6159700E6259180E635926
:102A6800D8A00AD0410E605DDD0E61594A0E625948
:102A78001F0E6359D8A013D0800E605D130E6159E4
:102A8800610E6259330E6359D8A012006005F70E23
:102A98006159CB0E62593C0E6359D8B0120060C020
:102AA80066F161C067F162C068F163C069F1120044
:102AB800000E0001606F040E616F000E636F000E60
:102AC800626F000E656FE00E646F1AEC1AF0000E6C
:102AD8000001606F040E616FD20E626FFF0E636FAC
:102AE800000E656F2A0E646F8EEC17F0030E00015E
:102AF8006B6F0F0E6B6501D012006B510E0D060E39
:102B0800F326000EF422000EF324D96E040EF420EE
:102B1800DA6EFF0EDE6EFF0EDD6E6B510E0D050ECA
:102B2800F326000EF422000EF324D96E040EF420CE
:102B3800DA6EFF0EDF6E6B2BDCD7000E0001606FC4
:102B4800040E616F000E636F000E626F000E656FFA
:102B5800E00E646F1AEC1AF0000E0001606F040EAC
:102B6800616FA80E626FFF0E636F000E656F2A0E0D
:102B7800646F8EEC17F0030E00016B6F0F0E6B6520
:102B880001D012006B510E0D060EF326000EF42232
:102B9800000EF324D96E040EF420DA6EFF0EDE6EFA
:102BA800FF0EDD6E6B510E0D050EF326000EF4229E
:102BB800000EF324D96E040EF420DA6EFF0EDF6ED9
:102BC8006B2BDCD7000E0001686F000E696F000EDA
:102BD8006A6F000E6B6F6451651166116711D8B486
:102BE8002AD0010E6C6F06D0D890643765376637E7
:102BF80067376C2B67AFF8D7D890683769376A376B
:102C08006B376451605D655161596651625967510E
:102C18006359D8A009D06451605F6551615B665102
:102C2800625B6751635B6881D8906733663365334D
:102C380064336C2FE1D768C060F069C061F06AC086
:102C480062F06BC063F012000001816F000E00019A
:102C5800826F81C075F0830E766F000E776F100E4D
:102C6800ACEC0EF00001826F8251D8A420D083C052
:102C7800DAF283510E0D000EF324D96E040EF420FF
:102C8800DA6EDECF13F2DECF14F2DECF15F2DECF2E
:102C980016F2DFC217F213C273F014C274F015C231
:102CA80075F016C276F0020117516DEC18F00001AC
:102CB800825112006DC071F06EC072F06FC073F077
:102CC80070C074F073C074F072C073F071C072F0A9
:102CD8000001716B71C060F072C061F073C062F086
:102CE80074C063F0090E646F3D0E656F000E666F69
:102CF800000E676FE6EC15F060C071F061C072F00D
:102D080062C073F063C074F072C062F0040EE6EC47
:102D18001AF071C062F0050EE6EC1AF01200000E0F
:102D28000001716F480E726FE80E736F010E746FB9
:102D380071C060F072C061F073C062F074C063F07B
:102D48006DC064F06EC065F06FC066F070C067F06B
:102D5800E6EC15F060C071F061C072F062C073F00B
:102D680063C074F072C062F0020EE6EC1AF071C033
:102D780062F0030EE6EC1AF0000E0001626F5D0EC1
:102D8800E6EC1AF012000001645165116611671132
:102D9800D8B424D0010E686F06D0D8906437653750
:102DA80066376737682B67AFF8D76451605D655140
:102DB80061596651625967516359D8A008D0645166
:102DC800605F6551615B6651625B6751635BD89078
:102DD8006733663365336433682FE7D760C060F0C4
:102DE80061C061F062C062F063C063F01200000E5F
:102DF8000001CC6F000ECD6F000ECE6F000ECF6FAE
:102E0800C7C0B9F0C8C0BAF09C0EBB6F010EBC6F4A
:102E1800C9C0BDF0CAC0BEF0CBC0BFF0C3EC02F061
:102E2800CC0E0001606F000E616F9C0E626F010E88
:102E3800636F000E656F040E646F8EEC17F0CCC0E4
:102E4800C7F0CDC0C8F0CEC0C9F0CFC0CAF01200DC
:102E5800000E0001676F000E666F64C067F024D033
:102E68006751010DF3506225D96EF4506321DA6E73
:102E78006751010DF3506025E96EF4506121EA6E47
:102E8800EF50656FD89065356611DF6E6751010D9B
:102E9800F3506025D96EF4506121DA6EDFAE02D0AE
:102EA800010E01D0000E666F67076729D8B41200BB
:102EB800D7D70201F051D8A408D0BFEC18F02EECF7
:102EC80012F0010E0201F06F02D096EC18F0A6C0C5
:102ED800E0F0A7C0E1F0A8C0E2F0A9C0E3F0FF0E5F
:102EE8000001796F050E7A6FA00E7B6F270E7C6F3D
:102EF800BE0E7D6F330E7E6F8EEC09F0A0EC13F0E2
:102F08006CC072F06DC073F0D6EC1BF0000EA7EC2D
:102F180008F0120062C068F063C069F060C066F033
:102F280061C067F01DD068C0F6FF69C0F7FF000EEA
:102F3800F86E0F0EF76403D00800F55005D0F6CFF1
:102F4800E9FFF7CFEAFFEF5000016A6F684B692B82
:102F580066C0D9FF67C0DAFF6AC0DFFF664B672B20
:102F680000016407D8A065076429DDE16529D8B4A4
:102F78001200D9D7010E0001FB6FC2EC0FF021C07F
:102F8800FCF022C0FDF023C0FEF024C0FFF00001D9
:102F9800FF511DE1FE05D8B01200FCC032F0FDC0A3
:102FA80033F0321E331E324A332A32C0F6F033C0B1
:102FB800F7F0F6C009F0F7C00AF093EC19F009C071
:102FC800ECF00AC0EDF00001EE6BEF6B120012009E
:102FD800000E0001686F000E696F000E6A6F000E28
:102FE8006B6F60A108D064516827655169236651E9
:102FF8006A2367516B23D89064376537663767371C
:10300800D890633362336133603360516111621168
:103018006311D8A4E6D768C060F069C061F06AC0DF
:1030280062F06BC063F0120052C060F053C061F0F0
:1030380054C062F055C063F06D0E0001646F4E0E0F
:10304800656FC60E666F410E676FECEC17F060C0D7
:1030580052F061C053F062C054F063C055F0390EAD
:103068005226300E5322000E5422000E5522FF0E17
:10307800541400016C6F7F0E55146D6F1200000E12
:103088008D6E000E8C6E000E896E000E8A6E000E1C
:103098008B6E070E966E92689368FE0E946EE60E1F
:1030A800956EE40E0F013B6FF80E3A6F280E396FDC
:1030B800070E3C6F2F0E386F000E616EF18E62881E
:1030C8009E0E0001606F380E616FEFEC1BF0F28608
:1030D80012000001776F73C06EF074C06FF075C096
:1030E80070F076C071F000017751FAEC12F002012D
:1030F800A451E151010DA20EF324F66EFF0EF42047
:10310800F76EF86A000EF8220800F5CF78F0000193
:103118007851FEEC1BF0010E08EC1CF0000E03ECDD
:103128001CF012000201E2519FEC1AF00201E35177
:103138009FEC1AF00201E7519FEC1AF00201E451EA
:103148009FEC1AF00201E5519FEC1AF00201E851D8
:103158009FEC1AF00201E6519FEC1AF00201EA51C5
:103168009FEC1AF00201F3519FEC1AF00201E951A9
:103178009FEC1AF01200D1EC14F00201E26FD1ECCE
:1031880014F00201E36FD1EC14F00201E46FD1EC0A
:1031980014F00201E56FD1EC14F00201E76FD1ECF5
:1031A80014F00201E86FD1EC14F00201E66FD1ECE3
:1031B80014F00201EA6FD1EC14F00201F36FD1ECC4
:1031C80014F00201E96F120041EC1CF0000E7CECD7
:1031D8001BF0010E0001606F000E616F000E626F40
:1031E800000E636F02EC1AF043EC1CF00A0E0001AB
:1031F800606F000E616F000E626F000E636F02EC6D
:103208001AF0010E7CEC1BF041EC1CF012000001DE
:1032180070517111D8B418D0010E726F04D0D890C3
:1032280070377137722B71AFFAD770516E5D71516B
:103238006F59D8A004D070516E5F71516F5BD890F0
:1032480071337033722FF1D76EC06EF06FC06FF0AC
:1032580012000001636F00016351080D060EF3268A
:10326800000EF422000EF324D96E030EF420DA6E59
:1032780060C0DEFF61C0DDFF6351080D050EF32657
:10328800000EF422000EF324D96E030EF420DA6E39
:1032980062C0DFFF1200D5EC1AF060C0F2F061C026
:1032A800F3F0D5EC1AF00001F251601904E1F35182
:1032B8006119D8B4F6D768C060F069C061F0F6EC5F
:1032C8001AF00001F24BF32BF2C0F0F0F3C0F1F06A
:1032D800F0C068F0F1C069F012000001686FF29E5A
:1032E800E00E00016025646FFF0E6121656FFF0E1F
:1032F8006221666FFF0E6321676F6851080D000E2B
:10330800F324D96E030EF420DA6E64C0DEFF65C0C4
:10331800DEFF66C0DEFF67C0DEFFF28E120006EC3D
:103328001BF001C0F2F002C0F3F006EC1BF0000144
:10333800F251011804E1F3510218D8B4F6D709C0C4
:1033480001F00AC002F061EC1BF00001F24BF32B14
:10335800F2C0F0F0F3C0F1F0F0C009F0F1C00AF0EB
:103368001200810E0001606F000E616F7FC062F075
:1033780080C063F0000E656F100E646F8EEC17F05E
:103388007DC066F07EC067F0810E0001686F000E98
:10339800696F98EC04F012000000000000000000C3
:1033A8000000000000000087475EEF3D96235A1F8B
:1033B8009AE1603681C4E4B554C3CAB5CB1E885DB2
:1033C8005DF112D508CCB9D1D44B1EDF00016D6F69
:1033D800080E00016D6502D0080E6D6F750E606FE6
:1033E800010E616F6BC062F06CC063F06DC064F079
:1033F800656B8EEC17F06DC07DF112000FD0060ED4
:103408000001646F300EE82EFED7642FFCD700F061
:1034180000016007000E615B625B635B0001605145
:10342800611162116311D8B41200E9D760C066F067
:1034380061C067F009D066C0D9FF67C0DAFF62C013
:10344800DFFF0001664B672B00016407D8A0650702
:103458006429F1E16529D8B41200EDD700016B5158
:103468006C11D8B41200220E606F020E616F6BC02F
:1034780062F06CC063F0000E656F100E646F8EEC26
:1034880017F00201A5890299120000016B516C1115
:10349800D8B41200320E606F020E616F6BC062F01A
:1034A8006CC063F0000E656F100E646F8EEC17F041
:1034B8000201A58B02991200000ECC6E000ECF6E91
:1034C800000ECE6ECECF4AF0CFCF4BF09E909D80AF
:1034D8009C0E0001606F380E616FEAEC1BF08D0ED8
:1034E800CD6E1200F090F18AA20E0001606F380EC6
:1034F800616FF9EC1BF0F086F092F188A00E0001E4
:10350800606F380E616FF4EC1BF0F0881200000158
:10351800626F0001629F3FEC1CF000016251DDEC1C
:103528001BF0FF0EDDEC1BF00001636F3DEC1CF09F
:103538000001635112000001606FF29E00016051AA
:10354800080D040EF326000EF422000EF324D96EA3
:10355800030EF420DA6E000EDF6EF28E1200A8EC75
:103568001BF0C0EC1BF0B8EC1BF0B0EC1BF04DEC02
:103578001CF04CEC1CF04BEC1CF02BEC1CF012007B
:1035880018EC18F06CC06EF06DC06FF073C070F07E
:1035980074C071F00BEC19F06EC073F06FC074F06A
:1035A8001200CD82CECF67F0CFCF66F00001665112
:1035B800626F6751646F62C065F064C060F065C097
:1035C80061F012000001636F3FEC1CF000016351D1
:1035D8008009DDEC1BF000016251DDEC1BF03DECD5
:1035E8001CF01200CDA408D0CD9000016151CF6E1F
:1035F80060C0CEFFCD80120000016151CF6E60C067
:10360800CEFF1200CD82CECF08F0CFCF07F0075003
:10361800036E0850056E03C006F005C001F006C031
:1036280002F012003BEC1CF0C8EC1BF043EC18F065
:10363800CFEC1BF060EC1AF076EC1AF0B3EC1AF051
:10364800120048504910D8B4120001D812000500E1
:10365800FA6E4850FD6E4950FE6EFF6AFA5012002D
:103668004C504D10D8B4120001D812000500FA6E63
:103678004C50FD6E4D50FE6EFF6AFA5012004E50CF
:103688004F10D8B4120001D812000500FA6E4E503F
:10369800FD6E4F50FE6EFF6AFA50120050505110E6
:1036A800D8B4120001D812000500FA6E5050FD6E11
:1036B8005150FE6EFF6AFA501200CDA407D0CD908B
:1036C8000250CF6E01C0CEFFCD8012000250CF6EE7
:1036D80001C0CEFF12000001606F0201029900854F
:1036E800025100016019F00B60190201026F12000B
:1036F8000001606F00016051D8A402D08B941200C1
:103708006005D8A412008B84120060C01EF261C04C
:103718001FF262C020F263C021F20201A58502995E
:1037280012009E904AC001F04BC002F061EC1BF001
:1037380025EC1BF012000001606F6C9E60C06FFFEB
:103748006DA0FED76F5012007C0E0001606F2F0E27
:10375800616FEAEC1BF012008A0E0001606F380EF0
:10376800616FEFEC1BF012008E0E0001606F380ED7
:10377800616FF4EC1BF01200920E0001606F380EBE
:10378800616FF9EC1BF01200400E6D6E200E6C6E2E
:10379800000E6E6E1200700ED36E040ED26E000E06
:1037A8009B6E120072C052F073C053F0546A556A8F
:1037B80012000001616F000161519FEC1BF01200C3
:1037C80081A002D0010E1200000E120060C048F065
:1037D80061C049F0120060C04CF061C04DF01200A9
:1037E80060C04EF061C04FF0120060C050F061C080
:1037F80051F012000001606F60C081F112000001F9
:10380800606F60C086F112000001606F60C082F1D5
:1038180012000001606F60C07FF112000001606F4C
:1038280060C07EF1120060C084F161C085F11200B1
:103838000001606F60C080F112000001606F60C01D
:1038480074F1120062B834EC1BF0F2901200000E12
:103858000001FA6F1200F09243EC1BF01200F09096
:1038680052EC1BF0120001000000FFFFFFFFD09E8A
:1038780012008C8612008C96120094941200948484
:10388800120057841200578212005780120012004B
:0C389800120012001200120012001200B8
:10FE660000637C777BF26B6FC53001672BFED7ABE7
:10FE760076CA82C97DFA5947F0ADD4A2AF9CA47266
:10FE8600C0B7FD9326363FF7CC34A5E5F171D831DE
:10FE96001504C723C31896059A071280E2EB27B20A
:10FEA6007509832C1A1B6E5AA0523BD6B329E32F31
:10FEB6008453D100ED20FCB15B6ACBBE394A4C5865
:10FEC600CFD0EFAAFB434D338545F9027F503C9FC7
:10FED600A851A3408F929D38F5BCB6DA2110FFF3E6
:10FEE600D2CD0C13EC5F974417C4A77E3D645D1911
:10FEF6007360814FDC222A908846EEB814DE5E0BD2
:10FF0600DBE0323A0A4906245CC2D3AC629195E43E
:10FF160079E7C8376D8DD54EA96C56F4EA657AAE89
:10FF260008BA78252E1CA6B4C6E8DD741F4BBD8B17
:10FF36008A703EB5664803F60E613557B986C11D0F
:10FF46009EE1F8981169D98E949B1E87E9CE5528B3
:10FF5600DF8CA1890DBFE6426841992D0FB054BBD5
:10FF6600160101010101010100DFCEC6C2BEBCF1CE
:10FF7600FE33333373F2F2F238080A0E1A31583C64
:10FF86000801020102030201070707070707080C19
:10FF96000B0A090807070A070401FEFB140E0B08E3
:10FFA6000502D8B9D11901502E010000000001FF49
:10FFB60018C7D41901502E010000000001FF58D4C3
:10FFC600D71901502E010000000001FFA027BE3303
:10FFD60001502E010000000001FFE034C133015042
:10FFE6002E010000000001FF2042C43301502E0103
:0AFFF6000000000001FFC194C100EB
:020000040020DA
:08000000FFFFFFFFFFFFFFFF00
:020000040030CA
:0E000000FF281F3CFFBF85FF0FC00FE00F4021
:00000001FF
